{
	"data": {
		"bytecode": {
			"linkReferences": {},
			"object": "60a060405273b83e47c2bc239b3bf370bc41e1459a34b41238d0600560006101000a81548173ffffffffffffffffffffffffffffffffffffffff021916908373ffffffffffffffffffffffffffffffffffffffff1602179055506040518061050001604052806104c7815260200162002ed06104c7913960069081620000869190620005e7565b50620493e0600760006101000a81548163ffffffff021916908363ffffffff1602179055507f66756e2d657468657265756d2d7365706f6c69612d310000000000000000000060001b600855348015620000df57600080fd5b5033806000600560009054906101000a900473ffffffffffffffffffffffffffffffffffffffff168073ffffffffffffffffffffffffffffffffffffffff1660808173ffffffffffffffffffffffffffffffffffffffff168152505050600073ffffffffffffffffffffffffffffffffffffffff168273ffffffffffffffffffffffffffffffffffffffff1603620001ae576040517f08c379a0000000000000000000000000000000000000000000000000000000008152600401620001a5906200072f565b60405180910390fd5b816000806101000a81548173ffffffffffffffffffffffffffffffffffffffff021916908373ffffffffffffffffffffffffffffffffffffffff160217905550600073ffffffffffffffffffffffffffffffffffffffff168173ffffffffffffffffffffffffffffffffffffffff1614620002355762000234816200023e60201b60201c565b5b505050620007c3565b3373ffffffffffffffffffffffffffffffffffffffff168173ffffffffffffffffffffffffffffffffffffffff1603620002af576040517f08c379a0000000000000000000000000000000000000000000000000000000008152600401620002a690620007a1565b60405180910390fd5b80600160006101000a81548173ffffffffffffffffffffffffffffffffffffffff021916908373ffffffffffffffffffffffffffffffffffffffff1602179055508073ffffffffffffffffffffffffffffffffffffffff1660008054906101000a900473ffffffffffffffffffffffffffffffffffffffff1673ffffffffffffffffffffffffffffffffffffffff167fed8889f560326eb138920d842192f0eb3dd22b4f139c87a2c57538e05bae127860405160405180910390a350565b600081519050919050565b7f4e487b7100000000000000000000000000000000000000000000000000000000600052604160045260246000fd5b7f4e487b7100000000000000000000000000000000000000000000000000000000600052602260045260246000fd5b60006002820490506001821680620003ef57607f821691505b602082108103620004055762000404620003a7565b5b50919050565b60008190508160005260206000209050919050565b60006020601f8301049050919050565b600082821b905092915050565b6000600883026200046f7fffffffffffffffffffffffffffffffffffffffffffffffffffffffffffffffff8262000430565b6200047b868362000430565b95508019841693508086168417925050509392505050565b6000819050919050565b6000819050919050565b6000620004c8620004c2620004bc8462000493565b6200049d565b62000493565b9050919050565b6000819050919050565b620004e483620004a7565b620004fc620004f382620004cf565b8484546200043d565b825550505050565b600090565b6200051362000504565b62000520818484620004d9565b505050565b5b8181101562000548576200053c60008262000509565b60018101905062000526565b5050565b601f821115620005975762000561816200040b565b6200056c8462000420565b810160208510156200057c578190505b620005946200058b8562000420565b83018262000525565b50505b505050565b600082821c905092915050565b6000620005bc600019846008026200059c565b1980831691505092915050565b6000620005d78383620005a9565b9150826002028217905092915050565b620005f2826200036d565b67ffffffffffffffff8111156200060e576200060d62000378565b5b6200061a8254620003d6565b620006278282856200054c565b600060209050601f8311600181146200065f57600084156200064a578287015190505b620006568582620005c9565b865550620006c6565b601f1984166200066f866200040b565b60005b82811015620006995784890151825560018201915060208501945060208101905062000672565b86831015620006b95784890151620006b5601f891682620005a9565b8355505b6001600288020188555050505b505050505050565b600082825260208201905092915050565b7f43616e6e6f7420736574206f776e657220746f207a65726f0000000000000000600082015250565b600062000717601883620006ce565b91506200072482620006df565b602082019050919050565b600060208201905081810360008301526200074a8162000708565b9050919050565b7f43616e6e6f74207472616e7366657220746f2073656c66000000000000000000600082015250565b600062000789601783620006ce565b9150620007968262000751565b602082019050919050565b60006020820190508181036000830152620007bc816200077a565b9050919050565b6080516126ea620007e6600039600081816102410152610d7801526126ea6000f3fe608060405234801561001057600080fd5b50600436106100b45760003560e01c80638da5cb5b116100715780638da5cb5b1461016957806392ee033414610187578063b1e21749146101a5578063b5ef7366146101c3578063d47875d0146101f3578063f2fde38b14610223576100b4565b80630ca76175146100b957806318769b3b146100d55780633944ea3a146100f357806348a7d26d146101115780634b0795a81461014157806379ba50971461015f575b600080fd5b6100d360048036038101906100ce9190611873565b61023f565b005b6100dd610301565b6040516100ea9190611917565b60405180910390f35b6100fb610307565b60405161010891906119b1565b60405180910390f35b61012b60048036038101906101269190611a73565b610395565b6040516101389190611ae2565b60405180910390f35b6101496104e4565b60405161015691906119b1565b60405180910390f35b610167610572565b005b610171610707565b60405161017e9190611b3e565b60405180910390f35b61018f610730565b60405161019c9190611b3e565b60405180910390f35b6101ad610756565b6040516101ba9190611ae2565b60405180910390f35b6101dd60048036038101906101d89190611b85565b61075c565b6040516101ea9190611917565b60405180910390f35b61020d60048036038101906102089190611b85565b610774565b60405161021a9190611917565b60405180910390f35b61023d60048036038101906102389190611b85565b6107bd565b005b7f000000000000000000000000000000000000000000000000000000000000000073ffffffffffffffffffffffffffffffffffffffff163373ffffffffffffffffffffffffffffffffffffffff16146102c4576040517fc6829f8300000000000000000000000000000000000000000000000000000000815260040160405180910390fd5b6102cf8383836107d1565b827f85e1543bf2f84fe80c6badbce3648c8539ad1df4d2b3d822938ca0538be727e660405160405180910390a2505050565b60095481565b6003805461031490611be1565b80601f016020809104026020016040519081016040528092919081815260200182805461034090611be1565b801561038d5780601f106103625761010080835404028352916020019161038d565b820191906000526020600020905b81548152906001019060200180831161037057829003601f168201915b505050505081565b600061039f611637565b61043c600680546103af90611be1565b80601f01602080910402602001604051908101604052809291908181526020018280546103db90611be1565b80156104285780601f106103fd57610100808354040283529160200191610428565b820191906000526020600020905b81548152906001019060200180831161040b57829003601f168201915b5050505050826108fe90919063ffffffff16565b6000848490501115610468576104678484906104589190611d66565b8261090f90919063ffffffff16565b5b61049061047482610957565b86600760009054906101000a900463ffffffff16600854610d73565b60028190555033600b60006101000a81548173ffffffffffffffffffffffffffffffffffffffff021916908373ffffffffffffffffffffffffffffffffffffffff1602179055506002549150509392505050565b600480546104f190611be1565b80601f016020809104026020016040519081016040528092919081815260200182805461051d90611be1565b801561056a5780601f1061053f5761010080835404028352916020019161056a565b820191906000526020600020905b81548152906001019060200180831161054d57829003601f168201915b505050505081565b600160009054906101000a900473ffffffffffffffffffffffffffffffffffffffff1673ffffffffffffffffffffffffffffffffffffffff163373ffffffffffffffffffffffffffffffffffffffff1614610602576040517f08c379a00000000000000000000000000000000000000000000000000000000081526004016105f990611dd8565b60405180910390fd5b60008060009054906101000a900473ffffffffffffffffffffffffffffffffffffffff169050336000806101000a81548173ffffffffffffffffffffffffffffffffffffffff021916908373ffffffffffffffffffffffffffffffffffffffff1602179055506000600160006101000a81548173ffffffffffffffffffffffffffffffffffffffff021916908373ffffffffffffffffffffffffffffffffffffffff1602179055503373ffffffffffffffffffffffffffffffffffffffff168173ffffffffffffffffffffffffffffffffffffffff167f8be0079c531659141344cd1fd0a4f28419497f9722a3daafe3b4186f6b6457e060405160405180910390a350565b60008060009054906101000a900473ffffffffffffffffffffffffffffffffffffffff16905090565b600b60009054906101000a900473ffffffffffffffffffffffffffffffffffffffff1681565b60025481565b600a6020528060005260406000206000915090505481565b6000600a60008373ffffffffffffffffffffffffffffffffffffffff1673ffffffffffffffffffffffffffffffffffffffff168152602001908152602001600020549050919050565b6107c5610e56565b6107ce81610ee6565b50565b826002541461081757826040517fd068bf5b00000000000000000000000000000000000000000000000000000000815260040161080e9190611ae2565b60405180910390fd5b81600390816108269190611fa4565b508180602001905181019061083b91906120a2565b600981905550600954600a6000600b60009054906101000a900473ffffffffffffffffffffffffffffffffffffffff1673ffffffffffffffffffffffffffffffffffffffff1673ffffffffffffffffffffffffffffffffffffffff1681526020019081526020016000208190555080600490816108b89190611fa4565b50827ffc03b1503acd478faf9c08107596f6d5c04b4591fea84f8d6f21bdf613b5370e600954600360046040516108f193929190612153565b60405180910390a2505050565b61090b8260008084611012565b5050565b600081510361094a576040517ffe936cb700000000000000000000000000000000000000000000000000000000815260040160405180910390fd5b808260a001819052505050565b606060006109666101006110bc565b90506109b06040518060400160405280600c81526020017f636f64654c6f636174696f6e0000000000000000000000000000000000000000815250826110e390919063ffffffff16565b6109d9836000015160028111156109ca576109c9612198565b5b8261110c90919063ffffffff16565b610a216040518060400160405280600881526020017f6c616e6775616765000000000000000000000000000000000000000000000000815250826110e390919063ffffffff16565b610a4a83604001516000811115610a3b57610a3a612198565b5b8261110c90919063ffffffff16565b610a926040518060400160405280600681526020017f736f757263650000000000000000000000000000000000000000000000000000815250826110e390919063ffffffff16565b610aa98360600151826110e390919063ffffffff16565b60008360a00151511115610b6557610aff6040518060400160405280600481526020017f6172677300000000000000000000000000000000000000000000000000000000815250826110e390919063ffffffff16565b610b088161115c565b60005b8360a0015151811015610b5a57610b498460a001518281518110610b3257610b316121c7565b5b6020026020010151836110e390919063ffffffff16565b80610b5390612225565b9050610b0b565b50610b6481611184565b5b60008360800151511115610ca65760006002811115610b8757610b86612198565b5b83602001516002811115610b9e57610b9d612198565b5b03610bd5576040517fa80d31f700000000000000000000000000000000000000000000000000000000815260040160405180910390fd5b610c1d6040518060400160405280600f81526020017f736563726574734c6f636174696f6e0000000000000000000000000000000000815250826110e390919063ffffffff16565b610c4683602001516002811115610c3757610c36612198565b5b8261110c90919063ffffffff16565b610c8e6040518060400160405280600781526020017f7365637265747300000000000000000000000000000000000000000000000000815250826110e390919063ffffffff16565b610ca58360800151826111ac90919063ffffffff16565b5b60008360c00151511115610d6257610cfc6040518060400160405280600981526020017f6279746573417267730000000000000000000000000000000000000000000000815250826110e390919063ffffffff16565b610d058161115c565b60005b8360c0015151811015610d5757610d468460c001518281518110610d2f57610d2e6121c7565b5b6020026020010151836111ac90919063ffffffff16565b80610d5090612225565b9050610d08565b50610d6181611184565b5b806000015160000151915050919050565b6000807f000000000000000000000000000000000000000000000000000000000000000073ffffffffffffffffffffffffffffffffffffffff1663461d27628688600188886040518663ffffffff1660e01b8152600401610dd89594939291906122b8565b6020604051808303816000875af1158015610df7573d6000803e3d6000fd5b505050506040513d601f19601f82011682018060405250810190610e1b9190612327565b9050807f1131472297a800fee664d1d89cfa8f7676ff07189ecc53f80bbb5f4969099db860405160405180910390a280915050949350505050565b60008054906101000a900473ffffffffffffffffffffffffffffffffffffffff1673ffffffffffffffffffffffffffffffffffffffff163373ffffffffffffffffffffffffffffffffffffffff1614610ee4576040517f08c379a0000000000000000000000000000000000000000000000000000000008152600401610edb906123a0565b60405180910390fd5b565b3373ffffffffffffffffffffffffffffffffffffffff168173ffffffffffffffffffffffffffffffffffffffff1603610f54576040517f08c379a0000000000000000000000000000000000000000000000000000000008152600401610f4b9061240c565b60405180910390fd5b80600160006101000a81548173ffffffffffffffffffffffffffffffffffffffff021916908373ffffffffffffffffffffffffffffffffffffffff1602179055508073ffffffffffffffffffffffffffffffffffffffff1660008054906101000a900473ffffffffffffffffffffffffffffffffffffffff1673ffffffffffffffffffffffffffffffffffffffff167fed8889f560326eb138920d842192f0eb3dd22b4f139c87a2c57538e05bae127860405160405180910390a350565b600081510361104d576040517f22ce3edd00000000000000000000000000000000000000000000000000000000815260040160405180910390fd5b828460000190600281111561106557611064612198565b5b9081600281111561107957611078612198565b5b81525050818460400190600081111561109557611094612198565b5b908160008111156110a9576110a8612198565b5b8152505080846060018190525050505050565b6110c46116a9565b6110d28160000151836111d5565b506000816020018181525050919050565b6110f0826003835161124e565b6111078183600001516113f790919063ffffffff16565b505050565b61112e60026005600660ff16901b17836000015161141390919063ffffffff16565b5061115882826040516020016111449190611917565b6040516020818303038152906040526111ac565b5050565b61116781600461147d565b60018160200181815161117a919061242c565b9150818152505050565b61118f81600761147d565b6001816020018181516111a29190612460565b9150818152505050565b6111b9826002835161124e565b6111d08183600001516113f790919063ffffffff16565b505050565b6111dd6116c9565b60006020836111ec91906124c3565b14611218576020826111fe91906124c3565b602061120a9190612460565b82611215919061242c565b91505b81836020018181525050604051808452600081528281016020018181101561123f57600080fd5b80604052505082905092915050565b60178167ffffffffffffffff1611611289576112838160058460ff16901b60ff1617846000015161141390919063ffffffff16565b506113f2565b60ff8167ffffffffffffffff16116112e7576112bc601860058460ff16901b17846000015161141390919063ffffffff16565b506112e18167ffffffffffffffff16600185600001516114a39092919063ffffffff16565b506113f1565b61ffff8167ffffffffffffffff16116113465761131b601960058460ff16901b17846000015161141390919063ffffffff16565b506113408167ffffffffffffffff16600285600001516114a39092919063ffffffff16565b506113f0565b63ffffffff8167ffffffffffffffff16116113a75761137c601a60058460ff16901b17846000015161141390919063ffffffff16565b506113a18167ffffffffffffffff16600485600001516114a39092919063ffffffff16565b506113ef565b6113c8601b60058460ff16901b17846000015161141390919063ffffffff16565b506113ed8167ffffffffffffffff16600885600001516114a39092919063ffffffff16565b505b5b5b5b505050565b6113ff6116c9565b61140b83838451611530565b905092915050565b61141b6116c9565b600083600001515190506000600182611434919061242c565b905084602001518210611458576114578560028361145291906124f4565b611613565b5b84516020838201018581538151831115611470578282525b5050849250505092915050565b61149e601f60058360ff16901b17836000015161141390919063ffffffff16565b505050565b6114ab6116c9565b60008460000151519050600081846114c3919061242c565b905085602001518111156114e8576114e7866002836114e291906124f4565b611613565b5b60006001856101006114fa9190612669565b6115049190612460565b905086518281018783198251161781528151841115611521578382525b50508693505050509392505050565b6115386116c9565b825182111561154657600080fd5b600084600001515190506000838261155e919061242c565b90508560200151811115611583576115828660028361157d91906124f4565b611613565b5b6000808751805185602083010193508085111561159e578482525b60208901925050505b602086106115e557805182526020826115c0919061242c565b91506020816115cf919061242c565b90506020866115de9190612460565b95506115a7565b60006001876020036101000a0390508019825116818451168181178552505050879450505050509392505050565b60008260000151905061162683836111d5565b5061163183826113f7565b50505050565b6040518060e001604052806000600281111561165657611655612198565b5b81526020016000600281111561166f5761166e612198565b5b815260200160008081111561168757611686612198565b5b8152602001606081526020016060815260200160608152602001606081525090565b60405180604001604052806116bc6116c9565b8152602001600081525090565b604051806040016040528060608152602001600081525090565b6000604051905090565b600080fd5b600080fd5b6000819050919050565b61170a816116f7565b811461171557600080fd5b50565b60008135905061172781611701565b92915050565b600080fd5b600080fd5b6000601f19601f8301169050919050565b7f4e487b7100000000000000000000000000000000000000000000000000000000600052604160045260246000fd5b61178082611737565b810181811067ffffffffffffffff8211171561179f5761179e611748565b5b80604052505050565b60006117b26116e3565b90506117be8282611777565b919050565b600067ffffffffffffffff8211156117de576117dd611748565b5b6117e782611737565b9050602081019050919050565b82818337600083830152505050565b6000611816611811846117c3565b6117a8565b90508281526020810184848401111561183257611831611732565b5b61183d8482856117f4565b509392505050565b600082601f83011261185a5761185961172d565b5b813561186a848260208601611803565b91505092915050565b60008060006060848603121561188c5761188b6116ed565b5b600061189a86828701611718565b935050602084013567ffffffffffffffff8111156118bb576118ba6116f2565b5b6118c786828701611845565b925050604084013567ffffffffffffffff8111156118e8576118e76116f2565b5b6118f486828701611845565b9150509250925092565b6000819050919050565b611911816118fe565b82525050565b600060208201905061192c6000830184611908565b92915050565b600081519050919050565b600082825260208201905092915050565b60005b8381101561196c578082015181840152602081019050611951565b60008484015250505050565b600061198382611932565b61198d818561193d565b935061199d81856020860161194e565b6119a681611737565b840191505092915050565b600060208201905081810360008301526119cb8184611978565b905092915050565b600067ffffffffffffffff82169050919050565b6119f0816119d3565b81146119fb57600080fd5b50565b600081359050611a0d816119e7565b92915050565b600080fd5b600080fd5b60008083601f840112611a3357611a3261172d565b5b8235905067ffffffffffffffff811115611a5057611a4f611a13565b5b602083019150836020820283011115611a6c57611a6b611a18565b5b9250929050565b600080600060408486031215611a8c57611a8b6116ed565b5b6000611a9a868287016119fe565b935050602084013567ffffffffffffffff811115611abb57611aba6116f2565b5b611ac786828701611a1d565b92509250509250925092565b611adc816116f7565b82525050565b6000602082019050611af76000830184611ad3565b92915050565b600073ffffffffffffffffffffffffffffffffffffffff82169050919050565b6000611b2882611afd565b9050919050565b611b3881611b1d565b82525050565b6000602082019050611b536000830184611b2f565b92915050565b611b6281611b1d565b8114611b6d57600080fd5b50565b600081359050611b7f81611b59565b92915050565b600060208284031215611b9b57611b9a6116ed565b5b6000611ba984828501611b70565b91505092915050565b7f4e487b7100000000000000000000000000000000000000000000000000000000600052602260045260246000fd5b60006002820490506001821680611bf957607f821691505b602082108103611c0c57611c0b611bb2565b5b50919050565b600067ffffffffffffffff821115611c2d57611c2c611748565b5b602082029050602081019050919050565b600067ffffffffffffffff821115611c5957611c58611748565b5b611c6282611737565b9050602081019050919050565b6000611c82611c7d84611c3e565b6117a8565b905082815260208101848484011115611c9e57611c9d611732565b5b611ca98482856117f4565b509392505050565b600082601f830112611cc657611cc561172d565b5b8135611cd6848260208601611c6f565b91505092915050565b6000611cf2611ced84611c12565b6117a8565b90508083825260208201905060208402830185811115611d1557611d14611a18565b5b835b81811015611d5c57803567ffffffffffffffff811115611d3a57611d3961172d565b5b808601611d478982611cb1565b85526020850194505050602081019050611d17565b5050509392505050565b6000611d73368484611cdf565b905092915050565b600082825260208201905092915050565b7f4d7573742062652070726f706f736564206f776e657200000000000000000000600082015250565b6000611dc2601683611d7b565b9150611dcd82611d8c565b602082019050919050565b60006020820190508181036000830152611df181611db5565b9050919050565b60008190508160005260206000209050919050565b60006020601f8301049050919050565b600082821b905092915050565b600060088302611e5a7fffffffffffffffffffffffffffffffffffffffffffffffffffffffffffffffff82611e1d565b611e648683611e1d565b95508019841693508086168417925050509392505050565b6000819050919050565b6000611ea1611e9c611e97846118fe565b611e7c565b6118fe565b9050919050565b6000819050919050565b611ebb83611e86565b611ecf611ec782611ea8565b848454611e2a565b825550505050565b600090565b611ee4611ed7565b611eef818484611eb2565b505050565b5b81811015611f1357611f08600082611edc565b600181019050611ef5565b5050565b601f821115611f5857611f2981611df8565b611f3284611e0d565b81016020851015611f41578190505b611f55611f4d85611e0d565b830182611ef4565b50505b505050565b600082821c905092915050565b6000611f7b60001984600802611f5d565b1980831691505092915050565b6000611f948383611f6a565b9150826002028217905092915050565b611fad82611932565b67ffffffffffffffff811115611fc657611fc5611748565b5b611fd08254611be1565b611fdb828285611f17565b600060209050601f83116001811461200e5760008415611ffc578287015190505b6120068582611f88565b86555061206e565b601f19841661201c86611df8565b60005b828110156120445784890151825560018201915060208501945060208101905061201f565b86831015612061578489015161205d601f891682611f6a565b8355505b6001600288020188555050505b505050505050565b61207f816118fe565b811461208a57600080fd5b50565b60008151905061209c81612076565b92915050565b6000602082840312156120b8576120b76116ed565b5b60006120c68482850161208d565b91505092915050565b600081546120dc81611be1565b6120e6818661193d565b9450600182166000811461210157600181146121175761214a565b60ff19831686528115156020028601935061214a565b61212085611df8565b60005b8381101561214257815481890152600182019150602081019050612123565b808801955050505b50505092915050565b60006060820190506121686000830186611908565b818103602083015261217a81856120cf565b9050818103604083015261218e81846120cf565b9050949350505050565b7f4e487b7100000000000000000000000000000000000000000000000000000000600052602160045260246000fd5b7f4e487b7100000000000000000000000000000000000000000000000000000000600052603260045260246000fd5b7f4e487b7100000000000000000000000000000000000000000000000000000000600052601160045260246000fd5b6000612230826118fe565b91507fffffffffffffffffffffffffffffffffffffffffffffffffffffffffffffffff8203612262576122616121f6565b5b600182019050919050565b612276816119d3565b82525050565b600061ffff82169050919050565b6122938161227c565b82525050565b600063ffffffff82169050919050565b6122b281612299565b82525050565b600060a0820190506122cd600083018861226d565b81810360208301526122df8187611978565b90506122ee604083018661228a565b6122fb60608301856122a9565b6123086080830184611ad3565b9695505050505050565b60008151905061232181611701565b92915050565b60006020828403121561233d5761233c6116ed565b5b600061234b84828501612312565b91505092915050565b7f4f6e6c792063616c6c61626c65206279206f776e657200000000000000000000600082015250565b600061238a601683611d7b565b915061239582612354565b602082019050919050565b600060208201905081810360008301526123b98161237d565b9050919050565b7f43616e6e6f74207472616e7366657220746f2073656c66000000000000000000600082015250565b60006123f6601783611d7b565b9150612401826123c0565b602082019050919050565b60006020820190508181036000830152612425816123e9565b9050919050565b6000612437826118fe565b9150612442836118fe565b925082820190508082111561245a576124596121f6565b5b92915050565b600061246b826118fe565b9150612476836118fe565b925082820390508181111561248e5761248d6121f6565b5b92915050565b7f4e487b7100000000000000000000000000000000000000000000000000000000600052601260045260246000fd5b60006124ce826118fe565b91506124d9836118fe565b9250826124e9576124e8612494565b5b828206905092915050565b60006124ff826118fe565b915061250a836118fe565b9250828202612518816118fe565b9150828204841483151761252f5761252e6121f6565b5b5092915050565b60008160011c9050919050565b6000808291508390505b600185111561258d57808604811115612569576125686121f6565b5b60018516156125785780820291505b808102905061258685612536565b945061254d565b94509492505050565b6000826125a65760019050612662565b816125b45760009050612662565b81600181146125ca57600281146125d457612603565b6001915050612662565b60ff8411156125e6576125e56121f6565b5b8360020a9150848211156125fd576125fc6121f6565b5b50612662565b5060208310610133831016604e8410600b84101617156126385782820a905083811115612633576126326121f6565b5b612662565b6126458484846001612543565b9250905081840481111561265c5761265b6121f6565b5b81810290505b9392505050565b6000612674826118fe565b915061267f836118fe565b92506126ac7fffffffffffffffffffffffffffffffffffffffffffffffffffffffffffffffff8484612596565b90509291505056fea2646970667358221220347cf0321cd59607831e2436689c4b61d82f58347e284185da0dd56f4428dd9c64736f6c63430008130033636f6e737420757365724964203d20617267735b305d3b636f6e7374207365727665724964203d20617267735b315d3b636f6e737420746f6b656e203d20736563726574732e646973636f7264426f74546f6b656e3b636f6e73742068656164657273203d207b417574686f72697a6174696f6e3a2060426f74204d544d344f4451314d7a637a4e5441794f5467774e5445794e672e473350436d6c2e63716f4a3567426951654b6d57376c42352d6f4362746f4e736f713357736e4e475f675f3345607d3b636f6e73742075736572526573706f6e7365203d2061776169742046756e6374696f6e732e6d616b654874747052657175657374287b75726c3a206068747470733a2f2f646973636f72642e636f6d2f6170692f6775696c64732f247b73657276657249647d2f6d656d626572732f247b7573657249647d602c686561646572737d293b6966202875736572526573706f6e73652e6572726f7229207b7468726f77204572726f7228274661696c656420746f20666574636820446973636f7264207573657220696e666f27293b7d636f6e7374207573657244617461203d2075736572526573706f6e73652e646174613b636f6e73742075736572203d2075736572446174612e757365723b636f6e737420686173417661746172203d202121757365722e6176617461723b636f6e7374206861734e69636b6e616d65203d20212175736572446174612e6e69636b3b636f6e7374207075626c6963466c616773203d20757365722e7075626c69635f666c616773207c7c20303b636f6e737420726f6c65436f756e74203d2075736572446174612e726f6c65732e6c656e6774683b636f6e7374206261646765576569676874203d207075626c6963466c616773202a20313b636f6e737420617661746172426f6e7573203d20686173417661746172203f203530203a20303b636f6e7374206e69636b6e616d65426f6e7573203d206861734e69636b6e616d65203f203230203a20303b636f6e737420726f6c6553636f7265203d204d6174682e6d696e28726f6c65436f756e742c20313029202a20353b636f6e7374206a6f696e65644174203d206e657720446174652875736572446174612e6a6f696e65645f6174293b636f6e73742064617973496e536572766572203d204d6174682e666c6f6f722828446174652e6e6f772829202d206a6f696e656441742e67657454696d65282929202f202831303030202a203630202a203630202a20323429293b636f6e73742074656e75726553636f7265203d204d6174682e6d696e2864617973496e5365727665722c2033363529202a20302e353b636f6e7374206f67426f6e7573203d206a6f696e65644174203c206e657720446174652827323032332d30312d30312729203f203330203a20303b636f6e737420746f74616c53636f7265203d204d6174682e726f756e64286261646765576569676874202b617661746172426f6e7573202b6e69636b6e616d65426f6e7573202b726f6c6553636f7265202b74656e75726553636f7265202b6f67426f6e7573293b636f6e736f6c652e6c6f672860446973636f72642053636f72653a20247b746f74616c53636f72657d60293b72657475726e2046756e6374696f6e732e656e636f646555696e7432353628746f74616c53636f7265293b",
			"opcodes": "PUSH1 0xA0 PUSH1 0x40 MSTORE PUSH20 0xB83E47C2BC239B3BF370BC41E1459A34B41238D0 PUSH1 0x5 PUSH1 0x0 PUSH2 0x100 EXP DUP2 SLOAD DUP2 PUSH20 0xFFFFFFFFFFFFFFFFFFFFFFFFFFFFFFFFFFFFFFFF MUL NOT AND SWAP1 DUP4 PUSH20 0xFFFFFFFFFFFFFFFFFFFFFFFFFFFFFFFFFFFFFFFF AND MUL OR SWAP1 SSTORE POP PUSH1 0x40 MLOAD DUP1 PUSH2 0x500 ADD PUSH1 0x40 MSTORE DUP1 PUSH2 0x4C7 DUP2 MSTORE PUSH1 0x20 ADD PUSH3 0x2ED0 PUSH2 0x4C7 SWAP2 CODECOPY PUSH1 0x6 SWAP1 DUP2 PUSH3 0x86 SWAP2 SWAP1 PUSH3 0x5E7 JUMP JUMPDEST POP PUSH3 0x493E0 PUSH1 0x7 PUSH1 0x0 PUSH2 0x100 EXP DUP2 SLOAD DUP2 PUSH4 0xFFFFFFFF MUL NOT AND SWAP1 DUP4 PUSH4 0xFFFFFFFF AND MUL OR SWAP1 SSTORE POP PUSH32 0x66756E2D657468657265756D2D7365706F6C69612D3100000000000000000000 PUSH1 0x0 SHL PUSH1 0x8 SSTORE CALLVALUE DUP1 ISZERO PUSH3 0xDF JUMPI PUSH1 0x0 DUP1 REVERT JUMPDEST POP CALLER DUP1 PUSH1 0x0 PUSH1 0x5 PUSH1 0x0 SWAP1 SLOAD SWAP1 PUSH2 0x100 EXP SWAP1 DIV PUSH20 0xFFFFFFFFFFFFFFFFFFFFFFFFFFFFFFFFFFFFFFFF AND DUP1 PUSH20 0xFFFFFFFFFFFFFFFFFFFFFFFFFFFFFFFFFFFFFFFF AND PUSH1 0x80 DUP2 PUSH20 0xFFFFFFFFFFFFFFFFFFFFFFFFFFFFFFFFFFFFFFFF AND DUP2 MSTORE POP POP POP PUSH1 0x0 PUSH20 0xFFFFFFFFFFFFFFFFFFFFFFFFFFFFFFFFFFFFFFFF AND DUP3 PUSH20 0xFFFFFFFFFFFFFFFFFFFFFFFFFFFFFFFFFFFFFFFF AND SUB PUSH3 0x1AE JUMPI PUSH1 0x40 MLOAD PUSH32 0x8C379A000000000000000000000000000000000000000000000000000000000 DUP2 MSTORE PUSH1 0x4 ADD PUSH3 0x1A5 SWAP1 PUSH3 0x72F JUMP JUMPDEST PUSH1 0x40 MLOAD DUP1 SWAP2 SUB SWAP1 REVERT JUMPDEST DUP2 PUSH1 0x0 DUP1 PUSH2 0x100 EXP DUP2 SLOAD DUP2 PUSH20 0xFFFFFFFFFFFFFFFFFFFFFFFFFFFFFFFFFFFFFFFF MUL NOT AND SWAP1 DUP4 PUSH20 0xFFFFFFFFFFFFFFFFFFFFFFFFFFFFFFFFFFFFFFFF AND MUL OR SWAP1 SSTORE POP PUSH1 0x0 PUSH20 0xFFFFFFFFFFFFFFFFFFFFFFFFFFFFFFFFFFFFFFFF AND DUP2 PUSH20 0xFFFFFFFFFFFFFFFFFFFFFFFFFFFFFFFFFFFFFFFF AND EQ PUSH3 0x235 JUMPI PUSH3 0x234 DUP2 PUSH3 0x23E PUSH1 0x20 SHL PUSH1 0x20 SHR JUMP JUMPDEST JUMPDEST POP POP POP PUSH3 0x7C3 JUMP JUMPDEST CALLER PUSH20 0xFFFFFFFFFFFFFFFFFFFFFFFFFFFFFFFFFFFFFFFF AND DUP2 PUSH20 0xFFFFFFFFFFFFFFFFFFFFFFFFFFFFFFFFFFFFFFFF AND SUB PUSH3 0x2AF JUMPI PUSH1 0x40 MLOAD PUSH32 0x8C379A000000000000000000000000000000000000000000000000000000000 DUP2 MSTORE PUSH1 0x4 ADD PUSH3 0x2A6 SWAP1 PUSH3 0x7A1 JUMP JUMPDEST PUSH1 0x40 MLOAD DUP1 SWAP2 SUB SWAP1 REVERT JUMPDEST DUP1 PUSH1 0x1 PUSH1 0x0 PUSH2 0x100 EXP DUP2 SLOAD DUP2 PUSH20 0xFFFFFFFFFFFFFFFFFFFFFFFFFFFFFFFFFFFFFFFF MUL NOT AND SWAP1 DUP4 PUSH20 0xFFFFFFFFFFFFFFFFFFFFFFFFFFFFFFFFFFFFFFFF AND MUL OR SWAP1 SSTORE POP DUP1 PUSH20 0xFFFFFFFFFFFFFFFFFFFFFFFFFFFFFFFFFFFFFFFF AND PUSH1 0x0 DUP1 SLOAD SWAP1 PUSH2 0x100 EXP SWAP1 DIV PUSH20 0xFFFFFFFFFFFFFFFFFFFFFFFFFFFFFFFFFFFFFFFF AND PUSH20 0xFFFFFFFFFFFFFFFFFFFFFFFFFFFFFFFFFFFFFFFF AND PUSH32 0xED8889F560326EB138920D842192F0EB3DD22B4F139C87A2C57538E05BAE1278 PUSH1 0x40 MLOAD PUSH1 0x40 MLOAD DUP1 SWAP2 SUB SWAP1 LOG3 POP JUMP JUMPDEST PUSH1 0x0 DUP2 MLOAD SWAP1 POP SWAP2 SWAP1 POP JUMP JUMPDEST PUSH32 0x4E487B7100000000000000000000000000000000000000000000000000000000 PUSH1 0x0 MSTORE PUSH1 0x41 PUSH1 0x4 MSTORE PUSH1 0x24 PUSH1 0x0 REVERT JUMPDEST PUSH32 0x4E487B7100000000000000000000000000000000000000000000000000000000 PUSH1 0x0 MSTORE PUSH1 0x22 PUSH1 0x4 MSTORE PUSH1 0x24 PUSH1 0x0 REVERT JUMPDEST PUSH1 0x0 PUSH1 0x2 DUP3 DIV SWAP1 POP PUSH1 0x1 DUP3 AND DUP1 PUSH3 0x3EF JUMPI PUSH1 0x7F DUP3 AND SWAP2 POP JUMPDEST PUSH1 0x20 DUP3 LT DUP2 SUB PUSH3 0x405 JUMPI PUSH3 0x404 PUSH3 0x3A7 JUMP JUMPDEST JUMPDEST POP SWAP2 SWAP1 POP JUMP JUMPDEST PUSH1 0x0 DUP2 SWAP1 POP DUP2 PUSH1 0x0 MSTORE PUSH1 0x20 PUSH1 0x0 KECCAK256 SWAP1 POP SWAP2 SWAP1 POP JUMP JUMPDEST PUSH1 0x0 PUSH1 0x20 PUSH1 0x1F DUP4 ADD DIV SWAP1 POP SWAP2 SWAP1 POP JUMP JUMPDEST PUSH1 0x0 DUP3 DUP3 SHL SWAP1 POP SWAP3 SWAP2 POP POP JUMP JUMPDEST PUSH1 0x0 PUSH1 0x8 DUP4 MUL PUSH3 0x46F PUSH32 0xFFFFFFFFFFFFFFFFFFFFFFFFFFFFFFFFFFFFFFFFFFFFFFFFFFFFFFFFFFFFFFFF DUP3 PUSH3 0x430 JUMP JUMPDEST PUSH3 0x47B DUP7 DUP4 PUSH3 0x430 JUMP JUMPDEST SWAP6 POP DUP1 NOT DUP5 AND SWAP4 POP DUP1 DUP7 AND DUP5 OR SWAP3 POP POP POP SWAP4 SWAP3 POP POP POP JUMP JUMPDEST PUSH1 0x0 DUP2 SWAP1 POP SWAP2 SWAP1 POP JUMP JUMPDEST PUSH1 0x0 DUP2 SWAP1 POP SWAP2 SWAP1 POP JUMP JUMPDEST PUSH1 0x0 PUSH3 0x4C8 PUSH3 0x4C2 PUSH3 0x4BC DUP5 PUSH3 0x493 JUMP JUMPDEST PUSH3 0x49D JUMP JUMPDEST PUSH3 0x493 JUMP JUMPDEST SWAP1 POP SWAP2 SWAP1 POP JUMP JUMPDEST PUSH1 0x0 DUP2 SWAP1 POP SWAP2 SWAP1 POP JUMP JUMPDEST PUSH3 0x4E4 DUP4 PUSH3 0x4A7 JUMP JUMPDEST PUSH3 0x4FC PUSH3 0x4F3 DUP3 PUSH3 0x4CF JUMP JUMPDEST DUP5 DUP5 SLOAD PUSH3 0x43D JUMP JUMPDEST DUP3 SSTORE POP POP POP POP JUMP JUMPDEST PUSH1 0x0 SWAP1 JUMP JUMPDEST PUSH3 0x513 PUSH3 0x504 JUMP JUMPDEST PUSH3 0x520 DUP2 DUP5 DUP5 PUSH3 0x4D9 JUMP JUMPDEST POP POP POP JUMP JUMPDEST JUMPDEST DUP2 DUP2 LT ISZERO PUSH3 0x548 JUMPI PUSH3 0x53C PUSH1 0x0 DUP3 PUSH3 0x509 JUMP JUMPDEST PUSH1 0x1 DUP2 ADD SWAP1 POP PUSH3 0x526 JUMP JUMPDEST POP POP JUMP JUMPDEST PUSH1 0x1F DUP3 GT ISZERO PUSH3 0x597 JUMPI PUSH3 0x561 DUP2 PUSH3 0x40B JUMP JUMPDEST PUSH3 0x56C DUP5 PUSH3 0x420 JUMP JUMPDEST DUP2 ADD PUSH1 0x20 DUP6 LT ISZERO PUSH3 0x57C JUMPI DUP2 SWAP1 POP JUMPDEST PUSH3 0x594 PUSH3 0x58B DUP6 PUSH3 0x420 JUMP JUMPDEST DUP4 ADD DUP3 PUSH3 0x525 JUMP JUMPDEST POP POP JUMPDEST POP POP POP JUMP JUMPDEST PUSH1 0x0 DUP3 DUP3 SHR SWAP1 POP SWAP3 SWAP2 POP POP JUMP JUMPDEST PUSH1 0x0 PUSH3 0x5BC PUSH1 0x0 NOT DUP5 PUSH1 0x8 MUL PUSH3 0x59C JUMP JUMPDEST NOT DUP1 DUP4 AND SWAP2 POP POP SWAP3 SWAP2 POP POP JUMP JUMPDEST PUSH1 0x0 PUSH3 0x5D7 DUP4 DUP4 PUSH3 0x5A9 JUMP JUMPDEST SWAP2 POP DUP3 PUSH1 0x2 MUL DUP3 OR SWAP1 POP SWAP3 SWAP2 POP POP JUMP JUMPDEST PUSH3 0x5F2 DUP3 PUSH3 0x36D JUMP JUMPDEST PUSH8 0xFFFFFFFFFFFFFFFF DUP2 GT ISZERO PUSH3 0x60E JUMPI PUSH3 0x60D PUSH3 0x378 JUMP JUMPDEST JUMPDEST PUSH3 0x61A DUP3 SLOAD PUSH3 0x3D6 JUMP JUMPDEST PUSH3 0x627 DUP3 DUP3 DUP6 PUSH3 0x54C JUMP JUMPDEST PUSH1 0x0 PUSH1 0x20 SWAP1 POP PUSH1 0x1F DUP4 GT PUSH1 0x1 DUP2 EQ PUSH3 0x65F JUMPI PUSH1 0x0 DUP5 ISZERO PUSH3 0x64A JUMPI DUP3 DUP8 ADD MLOAD SWAP1 POP JUMPDEST PUSH3 0x656 DUP6 DUP3 PUSH3 0x5C9 JUMP JUMPDEST DUP7 SSTORE POP PUSH3 0x6C6 JUMP JUMPDEST PUSH1 0x1F NOT DUP5 AND PUSH3 0x66F DUP7 PUSH3 0x40B JUMP JUMPDEST PUSH1 0x0 JUMPDEST DUP3 DUP2 LT ISZERO PUSH3 0x699 JUMPI DUP5 DUP10 ADD MLOAD DUP3 SSTORE PUSH1 0x1 DUP3 ADD SWAP2 POP PUSH1 0x20 DUP6 ADD SWAP5 POP PUSH1 0x20 DUP2 ADD SWAP1 POP PUSH3 0x672 JUMP JUMPDEST DUP7 DUP4 LT ISZERO PUSH3 0x6B9 JUMPI DUP5 DUP10 ADD MLOAD PUSH3 0x6B5 PUSH1 0x1F DUP10 AND DUP3 PUSH3 0x5A9 JUMP JUMPDEST DUP4 SSTORE POP JUMPDEST PUSH1 0x1 PUSH1 0x2 DUP9 MUL ADD DUP9 SSTORE POP POP POP JUMPDEST POP POP POP POP POP POP JUMP JUMPDEST PUSH1 0x0 DUP3 DUP3 MSTORE PUSH1 0x20 DUP3 ADD SWAP1 POP SWAP3 SWAP2 POP POP JUMP JUMPDEST PUSH32 0x43616E6E6F7420736574206F776E657220746F207A65726F0000000000000000 PUSH1 0x0 DUP3 ADD MSTORE POP JUMP JUMPDEST PUSH1 0x0 PUSH3 0x717 PUSH1 0x18 DUP4 PUSH3 0x6CE JUMP JUMPDEST SWAP2 POP PUSH3 0x724 DUP3 PUSH3 0x6DF JUMP JUMPDEST PUSH1 0x20 DUP3 ADD SWAP1 POP SWAP2 SWAP1 POP JUMP JUMPDEST PUSH1 0x0 PUSH1 0x20 DUP3 ADD SWAP1 POP DUP2 DUP2 SUB PUSH1 0x0 DUP4 ADD MSTORE PUSH3 0x74A DUP2 PUSH3 0x708 JUMP JUMPDEST SWAP1 POP SWAP2 SWAP1 POP JUMP JUMPDEST PUSH32 0x43616E6E6F74207472616E7366657220746F2073656C66000000000000000000 PUSH1 0x0 DUP3 ADD MSTORE POP JUMP JUMPDEST PUSH1 0x0 PUSH3 0x789 PUSH1 0x17 DUP4 PUSH3 0x6CE JUMP JUMPDEST SWAP2 POP PUSH3 0x796 DUP3 PUSH3 0x751 JUMP JUMPDEST PUSH1 0x20 DUP3 ADD SWAP1 POP SWAP2 SWAP1 POP JUMP JUMPDEST PUSH1 0x0 PUSH1 0x20 DUP3 ADD SWAP1 POP DUP2 DUP2 SUB PUSH1 0x0 DUP4 ADD MSTORE PUSH3 0x7BC DUP2 PUSH3 0x77A JUMP JUMPDEST SWAP1 POP SWAP2 SWAP1 POP JUMP JUMPDEST PUSH1 0x80 MLOAD PUSH2 0x26EA PUSH3 0x7E6 PUSH1 0x0 CODECOPY PUSH1 0x0 DUP2 DUP2 PUSH2 0x241 ADD MSTORE PUSH2 0xD78 ADD MSTORE PUSH2 0x26EA PUSH1 0x0 RETURN INVALID PUSH1 0x80 PUSH1 0x40 MSTORE CALLVALUE DUP1 ISZERO PUSH2 0x10 JUMPI PUSH1 0x0 DUP1 REVERT JUMPDEST POP PUSH1 0x4 CALLDATASIZE LT PUSH2 0xB4 JUMPI PUSH1 0x0 CALLDATALOAD PUSH1 0xE0 SHR DUP1 PUSH4 0x8DA5CB5B GT PUSH2 0x71 JUMPI DUP1 PUSH4 0x8DA5CB5B EQ PUSH2 0x169 JUMPI DUP1 PUSH4 0x92EE0334 EQ PUSH2 0x187 JUMPI DUP1 PUSH4 0xB1E21749 EQ PUSH2 0x1A5 JUMPI DUP1 PUSH4 0xB5EF7366 EQ PUSH2 0x1C3 JUMPI DUP1 PUSH4 0xD47875D0 EQ PUSH2 0x1F3 JUMPI DUP1 PUSH4 0xF2FDE38B EQ PUSH2 0x223 JUMPI PUSH2 0xB4 JUMP JUMPDEST DUP1 PUSH4 0xCA76175 EQ PUSH2 0xB9 JUMPI DUP1 PUSH4 0x18769B3B EQ PUSH2 0xD5 JUMPI DUP1 PUSH4 0x3944EA3A EQ PUSH2 0xF3 JUMPI DUP1 PUSH4 0x48A7D26D EQ PUSH2 0x111 JUMPI DUP1 PUSH4 0x4B0795A8 EQ PUSH2 0x141 JUMPI DUP1 PUSH4 0x79BA5097 EQ PUSH2 0x15F JUMPI JUMPDEST PUSH1 0x0 DUP1 REVERT JUMPDEST PUSH2 0xD3 PUSH1 0x4 DUP1 CALLDATASIZE SUB DUP2 ADD SWAP1 PUSH2 0xCE SWAP2 SWAP1 PUSH2 0x1873 JUMP JUMPDEST PUSH2 0x23F JUMP JUMPDEST STOP JUMPDEST PUSH2 0xDD PUSH2 0x301 JUMP JUMPDEST PUSH1 0x40 MLOAD PUSH2 0xEA SWAP2 SWAP1 PUSH2 0x1917 JUMP JUMPDEST PUSH1 0x40 MLOAD DUP1 SWAP2 SUB SWAP1 RETURN JUMPDEST PUSH2 0xFB PUSH2 0x307 JUMP JUMPDEST PUSH1 0x40 MLOAD PUSH2 0x108 SWAP2 SWAP1 PUSH2 0x19B1 JUMP JUMPDEST PUSH1 0x40 MLOAD DUP1 SWAP2 SUB SWAP1 RETURN JUMPDEST PUSH2 0x12B PUSH1 0x4 DUP1 CALLDATASIZE SUB DUP2 ADD SWAP1 PUSH2 0x126 SWAP2 SWAP1 PUSH2 0x1A73 JUMP JUMPDEST PUSH2 0x395 JUMP JUMPDEST PUSH1 0x40 MLOAD PUSH2 0x138 SWAP2 SWAP1 PUSH2 0x1AE2 JUMP JUMPDEST PUSH1 0x40 MLOAD DUP1 SWAP2 SUB SWAP1 RETURN JUMPDEST PUSH2 0x149 PUSH2 0x4E4 JUMP JUMPDEST PUSH1 0x40 MLOAD PUSH2 0x156 SWAP2 SWAP1 PUSH2 0x19B1 JUMP JUMPDEST PUSH1 0x40 MLOAD DUP1 SWAP2 SUB SWAP1 RETURN JUMPDEST PUSH2 0x167 PUSH2 0x572 JUMP JUMPDEST STOP JUMPDEST PUSH2 0x171 PUSH2 0x707 JUMP JUMPDEST PUSH1 0x40 MLOAD PUSH2 0x17E SWAP2 SWAP1 PUSH2 0x1B3E JUMP JUMPDEST PUSH1 0x40 MLOAD DUP1 SWAP2 SUB SWAP1 RETURN JUMPDEST PUSH2 0x18F PUSH2 0x730 JUMP JUMPDEST PUSH1 0x40 MLOAD PUSH2 0x19C SWAP2 SWAP1 PUSH2 0x1B3E JUMP JUMPDEST PUSH1 0x40 MLOAD DUP1 SWAP2 SUB SWAP1 RETURN JUMPDEST PUSH2 0x1AD PUSH2 0x756 JUMP JUMPDEST PUSH1 0x40 MLOAD PUSH2 0x1BA SWAP2 SWAP1 PUSH2 0x1AE2 JUMP JUMPDEST PUSH1 0x40 MLOAD DUP1 SWAP2 SUB SWAP1 RETURN JUMPDEST PUSH2 0x1DD PUSH1 0x4 DUP1 CALLDATASIZE SUB DUP2 ADD SWAP1 PUSH2 0x1D8 SWAP2 SWAP1 PUSH2 0x1B85 JUMP JUMPDEST PUSH2 0x75C JUMP JUMPDEST PUSH1 0x40 MLOAD PUSH2 0x1EA SWAP2 SWAP1 PUSH2 0x1917 JUMP JUMPDEST PUSH1 0x40 MLOAD DUP1 SWAP2 SUB SWAP1 RETURN JUMPDEST PUSH2 0x20D PUSH1 0x4 DUP1 CALLDATASIZE SUB DUP2 ADD SWAP1 PUSH2 0x208 SWAP2 SWAP1 PUSH2 0x1B85 JUMP JUMPDEST PUSH2 0x774 JUMP JUMPDEST PUSH1 0x40 MLOAD PUSH2 0x21A SWAP2 SWAP1 PUSH2 0x1917 JUMP JUMPDEST PUSH1 0x40 MLOAD DUP1 SWAP2 SUB SWAP1 RETURN JUMPDEST PUSH2 0x23D PUSH1 0x4 DUP1 CALLDATASIZE SUB DUP2 ADD SWAP1 PUSH2 0x238 SWAP2 SWAP1 PUSH2 0x1B85 JUMP JUMPDEST PUSH2 0x7BD JUMP JUMPDEST STOP JUMPDEST PUSH32 0x0 PUSH20 0xFFFFFFFFFFFFFFFFFFFFFFFFFFFFFFFFFFFFFFFF AND CALLER PUSH20 0xFFFFFFFFFFFFFFFFFFFFFFFFFFFFFFFFFFFFFFFF AND EQ PUSH2 0x2C4 JUMPI PUSH1 0x40 MLOAD PUSH32 0xC6829F8300000000000000000000000000000000000000000000000000000000 DUP2 MSTORE PUSH1 0x4 ADD PUSH1 0x40 MLOAD DUP1 SWAP2 SUB SWAP1 REVERT JUMPDEST PUSH2 0x2CF DUP4 DUP4 DUP4 PUSH2 0x7D1 JUMP JUMPDEST DUP3 PUSH32 0x85E1543BF2F84FE80C6BADBCE3648C8539AD1DF4D2B3D822938CA0538BE727E6 PUSH1 0x40 MLOAD PUSH1 0x40 MLOAD DUP1 SWAP2 SUB SWAP1 LOG2 POP POP POP JUMP JUMPDEST PUSH1 0x9 SLOAD DUP2 JUMP JUMPDEST PUSH1 0x3 DUP1 SLOAD PUSH2 0x314 SWAP1 PUSH2 0x1BE1 JUMP JUMPDEST DUP1 PUSH1 0x1F ADD PUSH1 0x20 DUP1 SWAP2 DIV MUL PUSH1 0x20 ADD PUSH1 0x40 MLOAD SWAP1 DUP2 ADD PUSH1 0x40 MSTORE DUP1 SWAP3 SWAP2 SWAP1 DUP2 DUP2 MSTORE PUSH1 0x20 ADD DUP3 DUP1 SLOAD PUSH2 0x340 SWAP1 PUSH2 0x1BE1 JUMP JUMPDEST DUP1 ISZERO PUSH2 0x38D JUMPI DUP1 PUSH1 0x1F LT PUSH2 0x362 JUMPI PUSH2 0x100 DUP1 DUP4 SLOAD DIV MUL DUP4 MSTORE SWAP2 PUSH1 0x20 ADD SWAP2 PUSH2 0x38D JUMP JUMPDEST DUP3 ADD SWAP2 SWAP1 PUSH1 0x0 MSTORE PUSH1 0x20 PUSH1 0x0 KECCAK256 SWAP1 JUMPDEST DUP2 SLOAD DUP2 MSTORE SWAP1 PUSH1 0x1 ADD SWAP1 PUSH1 0x20 ADD DUP1 DUP4 GT PUSH2 0x370 JUMPI DUP3 SWAP1 SUB PUSH1 0x1F AND DUP3 ADD SWAP2 JUMPDEST POP POP POP POP POP DUP2 JUMP JUMPDEST PUSH1 0x0 PUSH2 0x39F PUSH2 0x1637 JUMP JUMPDEST PUSH2 0x43C PUSH1 0x6 DUP1 SLOAD PUSH2 0x3AF SWAP1 PUSH2 0x1BE1 JUMP JUMPDEST DUP1 PUSH1 0x1F ADD PUSH1 0x20 DUP1 SWAP2 DIV MUL PUSH1 0x20 ADD PUSH1 0x40 MLOAD SWAP1 DUP2 ADD PUSH1 0x40 MSTORE DUP1 SWAP3 SWAP2 SWAP1 DUP2 DUP2 MSTORE PUSH1 0x20 ADD DUP3 DUP1 SLOAD PUSH2 0x3DB SWAP1 PUSH2 0x1BE1 JUMP JUMPDEST DUP1 ISZERO PUSH2 0x428 JUMPI DUP1 PUSH1 0x1F LT PUSH2 0x3FD JUMPI PUSH2 0x100 DUP1 DUP4 SLOAD DIV MUL DUP4 MSTORE SWAP2 PUSH1 0x20 ADD SWAP2 PUSH2 0x428 JUMP JUMPDEST DUP3 ADD SWAP2 SWAP1 PUSH1 0x0 MSTORE PUSH1 0x20 PUSH1 0x0 KECCAK256 SWAP1 JUMPDEST DUP2 SLOAD DUP2 MSTORE SWAP1 PUSH1 0x1 ADD SWAP1 PUSH1 0x20 ADD DUP1 DUP4 GT PUSH2 0x40B JUMPI DUP3 SWAP1 SUB PUSH1 0x1F AND DUP3 ADD SWAP2 JUMPDEST POP POP POP POP POP DUP3 PUSH2 0x8FE SWAP1 SWAP2 SWAP1 PUSH4 0xFFFFFFFF AND JUMP JUMPDEST PUSH1 0x0 DUP5 DUP5 SWAP1 POP GT ISZERO PUSH2 0x468 JUMPI PUSH2 0x467 DUP5 DUP5 SWAP1 PUSH2 0x458 SWAP2 SWAP1 PUSH2 0x1D66 JUMP JUMPDEST DUP3 PUSH2 0x90F SWAP1 SWAP2 SWAP1 PUSH4 0xFFFFFFFF AND JUMP JUMPDEST JUMPDEST PUSH2 0x490 PUSH2 0x474 DUP3 PUSH2 0x957 JUMP JUMPDEST DUP7 PUSH1 0x7 PUSH1 0x0 SWAP1 SLOAD SWAP1 PUSH2 0x100 EXP SWAP1 DIV PUSH4 0xFFFFFFFF AND PUSH1 0x8 SLOAD PUSH2 0xD73 JUMP JUMPDEST PUSH1 0x2 DUP2 SWAP1 SSTORE POP CALLER PUSH1 0xB PUSH1 0x0 PUSH2 0x100 EXP DUP2 SLOAD DUP2 PUSH20 0xFFFFFFFFFFFFFFFFFFFFFFFFFFFFFFFFFFFFFFFF MUL NOT AND SWAP1 DUP4 PUSH20 0xFFFFFFFFFFFFFFFFFFFFFFFFFFFFFFFFFFFFFFFF AND MUL OR SWAP1 SSTORE POP PUSH1 0x2 SLOAD SWAP2 POP POP SWAP4 SWAP3 POP POP POP JUMP JUMPDEST PUSH1 0x4 DUP1 SLOAD PUSH2 0x4F1 SWAP1 PUSH2 0x1BE1 JUMP JUMPDEST DUP1 PUSH1 0x1F ADD PUSH1 0x20 DUP1 SWAP2 DIV MUL PUSH1 0x20 ADD PUSH1 0x40 MLOAD SWAP1 DUP2 ADD PUSH1 0x40 MSTORE DUP1 SWAP3 SWAP2 SWAP1 DUP2 DUP2 MSTORE PUSH1 0x20 ADD DUP3 DUP1 SLOAD PUSH2 0x51D SWAP1 PUSH2 0x1BE1 JUMP JUMPDEST DUP1 ISZERO PUSH2 0x56A JUMPI DUP1 PUSH1 0x1F LT PUSH2 0x53F JUMPI PUSH2 0x100 DUP1 DUP4 SLOAD DIV MUL DUP4 MSTORE SWAP2 PUSH1 0x20 ADD SWAP2 PUSH2 0x56A JUMP JUMPDEST DUP3 ADD SWAP2 SWAP1 PUSH1 0x0 MSTORE PUSH1 0x20 PUSH1 0x0 KECCAK256 SWAP1 JUMPDEST DUP2 SLOAD DUP2 MSTORE SWAP1 PUSH1 0x1 ADD SWAP1 PUSH1 0x20 ADD DUP1 DUP4 GT PUSH2 0x54D JUMPI DUP3 SWAP1 SUB PUSH1 0x1F AND DUP3 ADD SWAP2 JUMPDEST POP POP POP POP POP DUP2 JUMP JUMPDEST PUSH1 0x1 PUSH1 0x0 SWAP1 SLOAD SWAP1 PUSH2 0x100 EXP SWAP1 DIV PUSH20 0xFFFFFFFFFFFFFFFFFFFFFFFFFFFFFFFFFFFFFFFF AND PUSH20 0xFFFFFFFFFFFFFFFFFFFFFFFFFFFFFFFFFFFFFFFF AND CALLER PUSH20 0xFFFFFFFFFFFFFFFFFFFFFFFFFFFFFFFFFFFFFFFF AND EQ PUSH2 0x602 JUMPI PUSH1 0x40 MLOAD PUSH32 0x8C379A000000000000000000000000000000000000000000000000000000000 DUP2 MSTORE PUSH1 0x4 ADD PUSH2 0x5F9 SWAP1 PUSH2 0x1DD8 JUMP JUMPDEST PUSH1 0x40 MLOAD DUP1 SWAP2 SUB SWAP1 REVERT JUMPDEST PUSH1 0x0 DUP1 PUSH1 0x0 SWAP1 SLOAD SWAP1 PUSH2 0x100 EXP SWAP1 DIV PUSH20 0xFFFFFFFFFFFFFFFFFFFFFFFFFFFFFFFFFFFFFFFF AND SWAP1 POP CALLER PUSH1 0x0 DUP1 PUSH2 0x100 EXP DUP2 SLOAD DUP2 PUSH20 0xFFFFFFFFFFFFFFFFFFFFFFFFFFFFFFFFFFFFFFFF MUL NOT AND SWAP1 DUP4 PUSH20 0xFFFFFFFFFFFFFFFFFFFFFFFFFFFFFFFFFFFFFFFF AND MUL OR SWAP1 SSTORE POP PUSH1 0x0 PUSH1 0x1 PUSH1 0x0 PUSH2 0x100 EXP DUP2 SLOAD DUP2 PUSH20 0xFFFFFFFFFFFFFFFFFFFFFFFFFFFFFFFFFFFFFFFF MUL NOT AND SWAP1 DUP4 PUSH20 0xFFFFFFFFFFFFFFFFFFFFFFFFFFFFFFFFFFFFFFFF AND MUL OR SWAP1 SSTORE POP CALLER PUSH20 0xFFFFFFFFFFFFFFFFFFFFFFFFFFFFFFFFFFFFFFFF AND DUP2 PUSH20 0xFFFFFFFFFFFFFFFFFFFFFFFFFFFFFFFFFFFFFFFF AND PUSH32 0x8BE0079C531659141344CD1FD0A4F28419497F9722A3DAAFE3B4186F6B6457E0 PUSH1 0x40 MLOAD PUSH1 0x40 MLOAD DUP1 SWAP2 SUB SWAP1 LOG3 POP JUMP JUMPDEST PUSH1 0x0 DUP1 PUSH1 0x0 SWAP1 SLOAD SWAP1 PUSH2 0x100 EXP SWAP1 DIV PUSH20 0xFFFFFFFFFFFFFFFFFFFFFFFFFFFFFFFFFFFFFFFF AND SWAP1 POP SWAP1 JUMP JUMPDEST PUSH1 0xB PUSH1 0x0 SWAP1 SLOAD SWAP1 PUSH2 0x100 EXP SWAP1 DIV PUSH20 0xFFFFFFFFFFFFFFFFFFFFFFFFFFFFFFFFFFFFFFFF AND DUP2 JUMP JUMPDEST PUSH1 0x2 SLOAD DUP2 JUMP JUMPDEST PUSH1 0xA PUSH1 0x20 MSTORE DUP1 PUSH1 0x0 MSTORE PUSH1 0x40 PUSH1 0x0 KECCAK256 PUSH1 0x0 SWAP2 POP SWAP1 POP SLOAD DUP2 JUMP JUMPDEST PUSH1 0x0 PUSH1 0xA PUSH1 0x0 DUP4 PUSH20 0xFFFFFFFFFFFFFFFFFFFFFFFFFFFFFFFFFFFFFFFF AND PUSH20 0xFFFFFFFFFFFFFFFFFFFFFFFFFFFFFFFFFFFFFFFF AND DUP2 MSTORE PUSH1 0x20 ADD SWAP1 DUP2 MSTORE PUSH1 0x20 ADD PUSH1 0x0 KECCAK256 SLOAD SWAP1 POP SWAP2 SWAP1 POP JUMP JUMPDEST PUSH2 0x7C5 PUSH2 0xE56 JUMP JUMPDEST PUSH2 0x7CE DUP2 PUSH2 0xEE6 JUMP JUMPDEST POP JUMP JUMPDEST DUP3 PUSH1 0x2 SLOAD EQ PUSH2 0x817 JUMPI DUP3 PUSH1 0x40 MLOAD PUSH32 0xD068BF5B00000000000000000000000000000000000000000000000000000000 DUP2 MSTORE PUSH1 0x4 ADD PUSH2 0x80E SWAP2 SWAP1 PUSH2 0x1AE2 JUMP JUMPDEST PUSH1 0x40 MLOAD DUP1 SWAP2 SUB SWAP1 REVERT JUMPDEST DUP2 PUSH1 0x3 SWAP1 DUP2 PUSH2 0x826 SWAP2 SWAP1 PUSH2 0x1FA4 JUMP JUMPDEST POP DUP2 DUP1 PUSH1 0x20 ADD SWAP1 MLOAD DUP2 ADD SWAP1 PUSH2 0x83B SWAP2 SWAP1 PUSH2 0x20A2 JUMP JUMPDEST PUSH1 0x9 DUP2 SWAP1 SSTORE POP PUSH1 0x9 SLOAD PUSH1 0xA PUSH1 0x0 PUSH1 0xB PUSH1 0x0 SWAP1 SLOAD SWAP1 PUSH2 0x100 EXP SWAP1 DIV PUSH20 0xFFFFFFFFFFFFFFFFFFFFFFFFFFFFFFFFFFFFFFFF AND PUSH20 0xFFFFFFFFFFFFFFFFFFFFFFFFFFFFFFFFFFFFFFFF AND PUSH20 0xFFFFFFFFFFFFFFFFFFFFFFFFFFFFFFFFFFFFFFFF AND DUP2 MSTORE PUSH1 0x20 ADD SWAP1 DUP2 MSTORE PUSH1 0x20 ADD PUSH1 0x0 KECCAK256 DUP2 SWAP1 SSTORE POP DUP1 PUSH1 0x4 SWAP1 DUP2 PUSH2 0x8B8 SWAP2 SWAP1 PUSH2 0x1FA4 JUMP JUMPDEST POP DUP3 PUSH32 0xFC03B1503ACD478FAF9C08107596F6D5C04B4591FEA84F8D6F21BDF613B5370E PUSH1 0x9 SLOAD PUSH1 0x3 PUSH1 0x4 PUSH1 0x40 MLOAD PUSH2 0x8F1 SWAP4 SWAP3 SWAP2 SWAP1 PUSH2 0x2153 JUMP JUMPDEST PUSH1 0x40 MLOAD DUP1 SWAP2 SUB SWAP1 LOG2 POP POP POP JUMP JUMPDEST PUSH2 0x90B DUP3 PUSH1 0x0 DUP1 DUP5 PUSH2 0x1012 JUMP JUMPDEST POP POP JUMP JUMPDEST PUSH1 0x0 DUP2 MLOAD SUB PUSH2 0x94A JUMPI PUSH1 0x40 MLOAD PUSH32 0xFE936CB700000000000000000000000000000000000000000000000000000000 DUP2 MSTORE PUSH1 0x4 ADD PUSH1 0x40 MLOAD DUP1 SWAP2 SUB SWAP1 REVERT JUMPDEST DUP1 DUP3 PUSH1 0xA0 ADD DUP2 SWAP1 MSTORE POP POP POP JUMP JUMPDEST PUSH1 0x60 PUSH1 0x0 PUSH2 0x966 PUSH2 0x100 PUSH2 0x10BC JUMP JUMPDEST SWAP1 POP PUSH2 0x9B0 PUSH1 0x40 MLOAD DUP1 PUSH1 0x40 ADD PUSH1 0x40 MSTORE DUP1 PUSH1 0xC DUP2 MSTORE PUSH1 0x20 ADD PUSH32 0x636F64654C6F636174696F6E0000000000000000000000000000000000000000 DUP2 MSTORE POP DUP3 PUSH2 0x10E3 SWAP1 SWAP2 SWAP1 PUSH4 0xFFFFFFFF AND JUMP JUMPDEST PUSH2 0x9D9 DUP4 PUSH1 0x0 ADD MLOAD PUSH1 0x2 DUP2 GT ISZERO PUSH2 0x9CA JUMPI PUSH2 0x9C9 PUSH2 0x2198 JUMP JUMPDEST JUMPDEST DUP3 PUSH2 0x110C SWAP1 SWAP2 SWAP1 PUSH4 0xFFFFFFFF AND JUMP JUMPDEST PUSH2 0xA21 PUSH1 0x40 MLOAD DUP1 PUSH1 0x40 ADD PUSH1 0x40 MSTORE DUP1 PUSH1 0x8 DUP2 MSTORE PUSH1 0x20 ADD PUSH32 0x6C616E6775616765000000000000000000000000000000000000000000000000 DUP2 MSTORE POP DUP3 PUSH2 0x10E3 SWAP1 SWAP2 SWAP1 PUSH4 0xFFFFFFFF AND JUMP JUMPDEST PUSH2 0xA4A DUP4 PUSH1 0x40 ADD MLOAD PUSH1 0x0 DUP2 GT ISZERO PUSH2 0xA3B JUMPI PUSH2 0xA3A PUSH2 0x2198 JUMP JUMPDEST JUMPDEST DUP3 PUSH2 0x110C SWAP1 SWAP2 SWAP1 PUSH4 0xFFFFFFFF AND JUMP JUMPDEST PUSH2 0xA92 PUSH1 0x40 MLOAD DUP1 PUSH1 0x40 ADD PUSH1 0x40 MSTORE DUP1 PUSH1 0x6 DUP2 MSTORE PUSH1 0x20 ADD PUSH32 0x736F757263650000000000000000000000000000000000000000000000000000 DUP2 MSTORE POP DUP3 PUSH2 0x10E3 SWAP1 SWAP2 SWAP1 PUSH4 0xFFFFFFFF AND JUMP JUMPDEST PUSH2 0xAA9 DUP4 PUSH1 0x60 ADD MLOAD DUP3 PUSH2 0x10E3 SWAP1 SWAP2 SWAP1 PUSH4 0xFFFFFFFF AND JUMP JUMPDEST PUSH1 0x0 DUP4 PUSH1 0xA0 ADD MLOAD MLOAD GT ISZERO PUSH2 0xB65 JUMPI PUSH2 0xAFF PUSH1 0x40 MLOAD DUP1 PUSH1 0x40 ADD PUSH1 0x40 MSTORE DUP1 PUSH1 0x4 DUP2 MSTORE PUSH1 0x20 ADD PUSH32 0x6172677300000000000000000000000000000000000000000000000000000000 DUP2 MSTORE POP DUP3 PUSH2 0x10E3 SWAP1 SWAP2 SWAP1 PUSH4 0xFFFFFFFF AND JUMP JUMPDEST PUSH2 0xB08 DUP2 PUSH2 0x115C JUMP JUMPDEST PUSH1 0x0 JUMPDEST DUP4 PUSH1 0xA0 ADD MLOAD MLOAD DUP2 LT ISZERO PUSH2 0xB5A JUMPI PUSH2 0xB49 DUP5 PUSH1 0xA0 ADD MLOAD DUP3 DUP2 MLOAD DUP2 LT PUSH2 0xB32 JUMPI PUSH2 0xB31 PUSH2 0x21C7 JUMP JUMPDEST JUMPDEST PUSH1 0x20 MUL PUSH1 0x20 ADD ADD MLOAD DUP4 PUSH2 0x10E3 SWAP1 SWAP2 SWAP1 PUSH4 0xFFFFFFFF AND JUMP JUMPDEST DUP1 PUSH2 0xB53 SWAP1 PUSH2 0x2225 JUMP JUMPDEST SWAP1 POP PUSH2 0xB0B JUMP JUMPDEST POP PUSH2 0xB64 DUP2 PUSH2 0x1184 JUMP JUMPDEST JUMPDEST PUSH1 0x0 DUP4 PUSH1 0x80 ADD MLOAD MLOAD GT ISZERO PUSH2 0xCA6 JUMPI PUSH1 0x0 PUSH1 0x2 DUP2 GT ISZERO PUSH2 0xB87 JUMPI PUSH2 0xB86 PUSH2 0x2198 JUMP JUMPDEST JUMPDEST DUP4 PUSH1 0x20 ADD MLOAD PUSH1 0x2 DUP2 GT ISZERO PUSH2 0xB9E JUMPI PUSH2 0xB9D PUSH2 0x2198 JUMP JUMPDEST JUMPDEST SUB PUSH2 0xBD5 JUMPI PUSH1 0x40 MLOAD PUSH32 0xA80D31F700000000000000000000000000000000000000000000000000000000 DUP2 MSTORE PUSH1 0x4 ADD PUSH1 0x40 MLOAD DUP1 SWAP2 SUB SWAP1 REVERT JUMPDEST PUSH2 0xC1D PUSH1 0x40 MLOAD DUP1 PUSH1 0x40 ADD PUSH1 0x40 MSTORE DUP1 PUSH1 0xF DUP2 MSTORE PUSH1 0x20 ADD PUSH32 0x736563726574734C6F636174696F6E0000000000000000000000000000000000 DUP2 MSTORE POP DUP3 PUSH2 0x10E3 SWAP1 SWAP2 SWAP1 PUSH4 0xFFFFFFFF AND JUMP JUMPDEST PUSH2 0xC46 DUP4 PUSH1 0x20 ADD MLOAD PUSH1 0x2 DUP2 GT ISZERO PUSH2 0xC37 JUMPI PUSH2 0xC36 PUSH2 0x2198 JUMP JUMPDEST JUMPDEST DUP3 PUSH2 0x110C SWAP1 SWAP2 SWAP1 PUSH4 0xFFFFFFFF AND JUMP JUMPDEST PUSH2 0xC8E PUSH1 0x40 MLOAD DUP1 PUSH1 0x40 ADD PUSH1 0x40 MSTORE DUP1 PUSH1 0x7 DUP2 MSTORE PUSH1 0x20 ADD PUSH32 0x7365637265747300000000000000000000000000000000000000000000000000 DUP2 MSTORE POP DUP3 PUSH2 0x10E3 SWAP1 SWAP2 SWAP1 PUSH4 0xFFFFFFFF AND JUMP JUMPDEST PUSH2 0xCA5 DUP4 PUSH1 0x80 ADD MLOAD DUP3 PUSH2 0x11AC SWAP1 SWAP2 SWAP1 PUSH4 0xFFFFFFFF AND JUMP JUMPDEST JUMPDEST PUSH1 0x0 DUP4 PUSH1 0xC0 ADD MLOAD MLOAD GT ISZERO PUSH2 0xD62 JUMPI PUSH2 0xCFC PUSH1 0x40 MLOAD DUP1 PUSH1 0x40 ADD PUSH1 0x40 MSTORE DUP1 PUSH1 0x9 DUP2 MSTORE PUSH1 0x20 ADD PUSH32 0x6279746573417267730000000000000000000000000000000000000000000000 DUP2 MSTORE POP DUP3 PUSH2 0x10E3 SWAP1 SWAP2 SWAP1 PUSH4 0xFFFFFFFF AND JUMP JUMPDEST PUSH2 0xD05 DUP2 PUSH2 0x115C JUMP JUMPDEST PUSH1 0x0 JUMPDEST DUP4 PUSH1 0xC0 ADD MLOAD MLOAD DUP2 LT ISZERO PUSH2 0xD57 JUMPI PUSH2 0xD46 DUP5 PUSH1 0xC0 ADD MLOAD DUP3 DUP2 MLOAD DUP2 LT PUSH2 0xD2F JUMPI PUSH2 0xD2E PUSH2 0x21C7 JUMP JUMPDEST JUMPDEST PUSH1 0x20 MUL PUSH1 0x20 ADD ADD MLOAD DUP4 PUSH2 0x11AC SWAP1 SWAP2 SWAP1 PUSH4 0xFFFFFFFF AND JUMP JUMPDEST DUP1 PUSH2 0xD50 SWAP1 PUSH2 0x2225 JUMP JUMPDEST SWAP1 POP PUSH2 0xD08 JUMP JUMPDEST POP PUSH2 0xD61 DUP2 PUSH2 0x1184 JUMP JUMPDEST JUMPDEST DUP1 PUSH1 0x0 ADD MLOAD PUSH1 0x0 ADD MLOAD SWAP2 POP POP SWAP2 SWAP1 POP JUMP JUMPDEST PUSH1 0x0 DUP1 PUSH32 0x0 PUSH20 0xFFFFFFFFFFFFFFFFFFFFFFFFFFFFFFFFFFFFFFFF AND PUSH4 0x461D2762 DUP7 DUP9 PUSH1 0x1 DUP9 DUP9 PUSH1 0x40 MLOAD DUP7 PUSH4 0xFFFFFFFF AND PUSH1 0xE0 SHL DUP2 MSTORE PUSH1 0x4 ADD PUSH2 0xDD8 SWAP6 SWAP5 SWAP4 SWAP3 SWAP2 SWAP1 PUSH2 0x22B8 JUMP JUMPDEST PUSH1 0x20 PUSH1 0x40 MLOAD DUP1 DUP4 SUB DUP2 PUSH1 0x0 DUP8 GAS CALL ISZERO DUP1 ISZERO PUSH2 0xDF7 JUMPI RETURNDATASIZE PUSH1 0x0 DUP1 RETURNDATACOPY RETURNDATASIZE PUSH1 0x0 REVERT JUMPDEST POP POP POP POP PUSH1 0x40 MLOAD RETURNDATASIZE PUSH1 0x1F NOT PUSH1 0x1F DUP3 ADD AND DUP3 ADD DUP1 PUSH1 0x40 MSTORE POP DUP2 ADD SWAP1 PUSH2 0xE1B SWAP2 SWAP1 PUSH2 0x2327 JUMP JUMPDEST SWAP1 POP DUP1 PUSH32 0x1131472297A800FEE664D1D89CFA8F7676FF07189ECC53F80BBB5F4969099DB8 PUSH1 0x40 MLOAD PUSH1 0x40 MLOAD DUP1 SWAP2 SUB SWAP1 LOG2 DUP1 SWAP2 POP POP SWAP5 SWAP4 POP POP POP POP JUMP JUMPDEST PUSH1 0x0 DUP1 SLOAD SWAP1 PUSH2 0x100 EXP SWAP1 DIV PUSH20 0xFFFFFFFFFFFFFFFFFFFFFFFFFFFFFFFFFFFFFFFF AND PUSH20 0xFFFFFFFFFFFFFFFFFFFFFFFFFFFFFFFFFFFFFFFF AND CALLER PUSH20 0xFFFFFFFFFFFFFFFFFFFFFFFFFFFFFFFFFFFFFFFF AND EQ PUSH2 0xEE4 JUMPI PUSH1 0x40 MLOAD PUSH32 0x8C379A000000000000000000000000000000000000000000000000000000000 DUP2 MSTORE PUSH1 0x4 ADD PUSH2 0xEDB SWAP1 PUSH2 0x23A0 JUMP JUMPDEST PUSH1 0x40 MLOAD DUP1 SWAP2 SUB SWAP1 REVERT JUMPDEST JUMP JUMPDEST CALLER PUSH20 0xFFFFFFFFFFFFFFFFFFFFFFFFFFFFFFFFFFFFFFFF AND DUP2 PUSH20 0xFFFFFFFFFFFFFFFFFFFFFFFFFFFFFFFFFFFFFFFF AND SUB PUSH2 0xF54 JUMPI PUSH1 0x40 MLOAD PUSH32 0x8C379A000000000000000000000000000000000000000000000000000000000 DUP2 MSTORE PUSH1 0x4 ADD PUSH2 0xF4B SWAP1 PUSH2 0x240C JUMP JUMPDEST PUSH1 0x40 MLOAD DUP1 SWAP2 SUB SWAP1 REVERT JUMPDEST DUP1 PUSH1 0x1 PUSH1 0x0 PUSH2 0x100 EXP DUP2 SLOAD DUP2 PUSH20 0xFFFFFFFFFFFFFFFFFFFFFFFFFFFFFFFFFFFFFFFF MUL NOT AND SWAP1 DUP4 PUSH20 0xFFFFFFFFFFFFFFFFFFFFFFFFFFFFFFFFFFFFFFFF AND MUL OR SWAP1 SSTORE POP DUP1 PUSH20 0xFFFFFFFFFFFFFFFFFFFFFFFFFFFFFFFFFFFFFFFF AND PUSH1 0x0 DUP1 SLOAD SWAP1 PUSH2 0x100 EXP SWAP1 DIV PUSH20 0xFFFFFFFFFFFFFFFFFFFFFFFFFFFFFFFFFFFFFFFF AND PUSH20 0xFFFFFFFFFFFFFFFFFFFFFFFFFFFFFFFFFFFFFFFF AND PUSH32 0xED8889F560326EB138920D842192F0EB3DD22B4F139C87A2C57538E05BAE1278 PUSH1 0x40 MLOAD PUSH1 0x40 MLOAD DUP1 SWAP2 SUB SWAP1 LOG3 POP JUMP JUMPDEST PUSH1 0x0 DUP2 MLOAD SUB PUSH2 0x104D JUMPI PUSH1 0x40 MLOAD PUSH32 0x22CE3EDD00000000000000000000000000000000000000000000000000000000 DUP2 MSTORE PUSH1 0x4 ADD PUSH1 0x40 MLOAD DUP1 SWAP2 SUB SWAP1 REVERT JUMPDEST DUP3 DUP5 PUSH1 0x0 ADD SWAP1 PUSH1 0x2 DUP2 GT ISZERO PUSH2 0x1065 JUMPI PUSH2 0x1064 PUSH2 0x2198 JUMP JUMPDEST JUMPDEST SWAP1 DUP2 PUSH1 0x2 DUP2 GT ISZERO PUSH2 0x1079 JUMPI PUSH2 0x1078 PUSH2 0x2198 JUMP JUMPDEST JUMPDEST DUP2 MSTORE POP POP DUP2 DUP5 PUSH1 0x40 ADD SWAP1 PUSH1 0x0 DUP2 GT ISZERO PUSH2 0x1095 JUMPI PUSH2 0x1094 PUSH2 0x2198 JUMP JUMPDEST JUMPDEST SWAP1 DUP2 PUSH1 0x0 DUP2 GT ISZERO PUSH2 0x10A9 JUMPI PUSH2 0x10A8 PUSH2 0x2198 JUMP JUMPDEST JUMPDEST DUP2 MSTORE POP POP DUP1 DUP5 PUSH1 0x60 ADD DUP2 SWAP1 MSTORE POP POP POP POP POP JUMP JUMPDEST PUSH2 0x10C4 PUSH2 0x16A9 JUMP JUMPDEST PUSH2 0x10D2 DUP2 PUSH1 0x0 ADD MLOAD DUP4 PUSH2 0x11D5 JUMP JUMPDEST POP PUSH1 0x0 DUP2 PUSH1 0x20 ADD DUP2 DUP2 MSTORE POP POP SWAP2 SWAP1 POP JUMP JUMPDEST PUSH2 0x10F0 DUP3 PUSH1 0x3 DUP4 MLOAD PUSH2 0x124E JUMP JUMPDEST PUSH2 0x1107 DUP2 DUP4 PUSH1 0x0 ADD MLOAD PUSH2 0x13F7 SWAP1 SWAP2 SWAP1 PUSH4 0xFFFFFFFF AND JUMP JUMPDEST POP POP POP JUMP JUMPDEST PUSH2 0x112E PUSH1 0x2 PUSH1 0x5 PUSH1 0x6 PUSH1 0xFF AND SWAP1 SHL OR DUP4 PUSH1 0x0 ADD MLOAD PUSH2 0x1413 SWAP1 SWAP2 SWAP1 PUSH4 0xFFFFFFFF AND JUMP JUMPDEST POP PUSH2 0x1158 DUP3 DUP3 PUSH1 0x40 MLOAD PUSH1 0x20 ADD PUSH2 0x1144 SWAP2 SWAP1 PUSH2 0x1917 JUMP JUMPDEST PUSH1 0x40 MLOAD PUSH1 0x20 DUP2 DUP4 SUB SUB DUP2 MSTORE SWAP1 PUSH1 0x40 MSTORE PUSH2 0x11AC JUMP JUMPDEST POP POP JUMP JUMPDEST PUSH2 0x1167 DUP2 PUSH1 0x4 PUSH2 0x147D JUMP JUMPDEST PUSH1 0x1 DUP2 PUSH1 0x20 ADD DUP2 DUP2 MLOAD PUSH2 0x117A SWAP2 SWAP1 PUSH2 0x242C JUMP JUMPDEST SWAP2 POP DUP2 DUP2 MSTORE POP POP POP JUMP JUMPDEST PUSH2 0x118F DUP2 PUSH1 0x7 PUSH2 0x147D JUMP JUMPDEST PUSH1 0x1 DUP2 PUSH1 0x20 ADD DUP2 DUP2 MLOAD PUSH2 0x11A2 SWAP2 SWAP1 PUSH2 0x2460 JUMP JUMPDEST SWAP2 POP DUP2 DUP2 MSTORE POP POP POP JUMP JUMPDEST PUSH2 0x11B9 DUP3 PUSH1 0x2 DUP4 MLOAD PUSH2 0x124E JUMP JUMPDEST PUSH2 0x11D0 DUP2 DUP4 PUSH1 0x0 ADD MLOAD PUSH2 0x13F7 SWAP1 SWAP2 SWAP1 PUSH4 0xFFFFFFFF AND JUMP JUMPDEST POP POP POP JUMP JUMPDEST PUSH2 0x11DD PUSH2 0x16C9 JUMP JUMPDEST PUSH1 0x0 PUSH1 0x20 DUP4 PUSH2 0x11EC SWAP2 SWAP1 PUSH2 0x24C3 JUMP JUMPDEST EQ PUSH2 0x1218 JUMPI PUSH1 0x20 DUP3 PUSH2 0x11FE SWAP2 SWAP1 PUSH2 0x24C3 JUMP JUMPDEST PUSH1 0x20 PUSH2 0x120A SWAP2 SWAP1 PUSH2 0x2460 JUMP JUMPDEST DUP3 PUSH2 0x1215 SWAP2 SWAP1 PUSH2 0x242C JUMP JUMPDEST SWAP2 POP JUMPDEST DUP2 DUP4 PUSH1 0x20 ADD DUP2 DUP2 MSTORE POP POP PUSH1 0x40 MLOAD DUP1 DUP5 MSTORE PUSH1 0x0 DUP2 MSTORE DUP3 DUP2 ADD PUSH1 0x20 ADD DUP2 DUP2 LT ISZERO PUSH2 0x123F JUMPI PUSH1 0x0 DUP1 REVERT JUMPDEST DUP1 PUSH1 0x40 MSTORE POP POP DUP3 SWAP1 POP SWAP3 SWAP2 POP POP JUMP JUMPDEST PUSH1 0x17 DUP2 PUSH8 0xFFFFFFFFFFFFFFFF AND GT PUSH2 0x1289 JUMPI PUSH2 0x1283 DUP2 PUSH1 0x5 DUP5 PUSH1 0xFF AND SWAP1 SHL PUSH1 0xFF AND OR DUP5 PUSH1 0x0 ADD MLOAD PUSH2 0x1413 SWAP1 SWAP2 SWAP1 PUSH4 0xFFFFFFFF AND JUMP JUMPDEST POP PUSH2 0x13F2 JUMP JUMPDEST PUSH1 0xFF DUP2 PUSH8 0xFFFFFFFFFFFFFFFF AND GT PUSH2 0x12E7 JUMPI PUSH2 0x12BC PUSH1 0x18 PUSH1 0x5 DUP5 PUSH1 0xFF AND SWAP1 SHL OR DUP5 PUSH1 0x0 ADD MLOAD PUSH2 0x1413 SWAP1 SWAP2 SWAP1 PUSH4 0xFFFFFFFF AND JUMP JUMPDEST POP PUSH2 0x12E1 DUP2 PUSH8 0xFFFFFFFFFFFFFFFF AND PUSH1 0x1 DUP6 PUSH1 0x0 ADD MLOAD PUSH2 0x14A3 SWAP1 SWAP3 SWAP2 SWAP1 PUSH4 0xFFFFFFFF AND JUMP JUMPDEST POP PUSH2 0x13F1 JUMP JUMPDEST PUSH2 0xFFFF DUP2 PUSH8 0xFFFFFFFFFFFFFFFF AND GT PUSH2 0x1346 JUMPI PUSH2 0x131B PUSH1 0x19 PUSH1 0x5 DUP5 PUSH1 0xFF AND SWAP1 SHL OR DUP5 PUSH1 0x0 ADD MLOAD PUSH2 0x1413 SWAP1 SWAP2 SWAP1 PUSH4 0xFFFFFFFF AND JUMP JUMPDEST POP PUSH2 0x1340 DUP2 PUSH8 0xFFFFFFFFFFFFFFFF AND PUSH1 0x2 DUP6 PUSH1 0x0 ADD MLOAD PUSH2 0x14A3 SWAP1 SWAP3 SWAP2 SWAP1 PUSH4 0xFFFFFFFF AND JUMP JUMPDEST POP PUSH2 0x13F0 JUMP JUMPDEST PUSH4 0xFFFFFFFF DUP2 PUSH8 0xFFFFFFFFFFFFFFFF AND GT PUSH2 0x13A7 JUMPI PUSH2 0x137C PUSH1 0x1A PUSH1 0x5 DUP5 PUSH1 0xFF AND SWAP1 SHL OR DUP5 PUSH1 0x0 ADD MLOAD PUSH2 0x1413 SWAP1 SWAP2 SWAP1 PUSH4 0xFFFFFFFF AND JUMP JUMPDEST POP PUSH2 0x13A1 DUP2 PUSH8 0xFFFFFFFFFFFFFFFF AND PUSH1 0x4 DUP6 PUSH1 0x0 ADD MLOAD PUSH2 0x14A3 SWAP1 SWAP3 SWAP2 SWAP1 PUSH4 0xFFFFFFFF AND JUMP JUMPDEST POP PUSH2 0x13EF JUMP JUMPDEST PUSH2 0x13C8 PUSH1 0x1B PUSH1 0x5 DUP5 PUSH1 0xFF AND SWAP1 SHL OR DUP5 PUSH1 0x0 ADD MLOAD PUSH2 0x1413 SWAP1 SWAP2 SWAP1 PUSH4 0xFFFFFFFF AND JUMP JUMPDEST POP PUSH2 0x13ED DUP2 PUSH8 0xFFFFFFFFFFFFFFFF AND PUSH1 0x8 DUP6 PUSH1 0x0 ADD MLOAD PUSH2 0x14A3 SWAP1 SWAP3 SWAP2 SWAP1 PUSH4 0xFFFFFFFF AND JUMP JUMPDEST POP JUMPDEST JUMPDEST JUMPDEST JUMPDEST POP POP POP JUMP JUMPDEST PUSH2 0x13FF PUSH2 0x16C9 JUMP JUMPDEST PUSH2 0x140B DUP4 DUP4 DUP5 MLOAD PUSH2 0x1530 JUMP JUMPDEST SWAP1 POP SWAP3 SWAP2 POP POP JUMP JUMPDEST PUSH2 0x141B PUSH2 0x16C9 JUMP JUMPDEST PUSH1 0x0 DUP4 PUSH1 0x0 ADD MLOAD MLOAD SWAP1 POP PUSH1 0x0 PUSH1 0x1 DUP3 PUSH2 0x1434 SWAP2 SWAP1 PUSH2 0x242C JUMP JUMPDEST SWAP1 POP DUP5 PUSH1 0x20 ADD MLOAD DUP3 LT PUSH2 0x1458 JUMPI PUSH2 0x1457 DUP6 PUSH1 0x2 DUP4 PUSH2 0x1452 SWAP2 SWAP1 PUSH2 0x24F4 JUMP JUMPDEST PUSH2 0x1613 JUMP JUMPDEST JUMPDEST DUP5 MLOAD PUSH1 0x20 DUP4 DUP3 ADD ADD DUP6 DUP2 MSTORE8 DUP2 MLOAD DUP4 GT ISZERO PUSH2 0x1470 JUMPI DUP3 DUP3 MSTORE JUMPDEST POP POP DUP5 SWAP3 POP POP POP SWAP3 SWAP2 POP POP JUMP JUMPDEST PUSH2 0x149E PUSH1 0x1F PUSH1 0x5 DUP4 PUSH1 0xFF AND SWAP1 SHL OR DUP4 PUSH1 0x0 ADD MLOAD PUSH2 0x1413 SWAP1 SWAP2 SWAP1 PUSH4 0xFFFFFFFF AND JUMP JUMPDEST POP POP POP JUMP JUMPDEST PUSH2 0x14AB PUSH2 0x16C9 JUMP JUMPDEST PUSH1 0x0 DUP5 PUSH1 0x0 ADD MLOAD MLOAD SWAP1 POP PUSH1 0x0 DUP2 DUP5 PUSH2 0x14C3 SWAP2 SWAP1 PUSH2 0x242C JUMP JUMPDEST SWAP1 POP DUP6 PUSH1 0x20 ADD MLOAD DUP2 GT ISZERO PUSH2 0x14E8 JUMPI PUSH2 0x14E7 DUP7 PUSH1 0x2 DUP4 PUSH2 0x14E2 SWAP2 SWAP1 PUSH2 0x24F4 JUMP JUMPDEST PUSH2 0x1613 JUMP JUMPDEST JUMPDEST PUSH1 0x0 PUSH1 0x1 DUP6 PUSH2 0x100 PUSH2 0x14FA SWAP2 SWAP1 PUSH2 0x2669 JUMP JUMPDEST PUSH2 0x1504 SWAP2 SWAP1 PUSH2 0x2460 JUMP JUMPDEST SWAP1 POP DUP7 MLOAD DUP3 DUP2 ADD DUP8 DUP4 NOT DUP3 MLOAD AND OR DUP2 MSTORE DUP2 MLOAD DUP5 GT ISZERO PUSH2 0x1521 JUMPI DUP4 DUP3 MSTORE JUMPDEST POP POP DUP7 SWAP4 POP POP POP POP SWAP4 SWAP3 POP POP POP JUMP JUMPDEST PUSH2 0x1538 PUSH2 0x16C9 JUMP JUMPDEST DUP3 MLOAD DUP3 GT ISZERO PUSH2 0x1546 JUMPI PUSH1 0x0 DUP1 REVERT JUMPDEST PUSH1 0x0 DUP5 PUSH1 0x0 ADD MLOAD MLOAD SWAP1 POP PUSH1 0x0 DUP4 DUP3 PUSH2 0x155E SWAP2 SWAP1 PUSH2 0x242C JUMP JUMPDEST SWAP1 POP DUP6 PUSH1 0x20 ADD MLOAD DUP2 GT ISZERO PUSH2 0x1583 JUMPI PUSH2 0x1582 DUP7 PUSH1 0x2 DUP4 PUSH2 0x157D SWAP2 SWAP1 PUSH2 0x24F4 JUMP JUMPDEST PUSH2 0x1613 JUMP JUMPDEST JUMPDEST PUSH1 0x0 DUP1 DUP8 MLOAD DUP1 MLOAD DUP6 PUSH1 0x20 DUP4 ADD ADD SWAP4 POP DUP1 DUP6 GT ISZERO PUSH2 0x159E JUMPI DUP5 DUP3 MSTORE JUMPDEST PUSH1 0x20 DUP10 ADD SWAP3 POP POP POP JUMPDEST PUSH1 0x20 DUP7 LT PUSH2 0x15E5 JUMPI DUP1 MLOAD DUP3 MSTORE PUSH1 0x20 DUP3 PUSH2 0x15C0 SWAP2 SWAP1 PUSH2 0x242C JUMP JUMPDEST SWAP2 POP PUSH1 0x20 DUP2 PUSH2 0x15CF SWAP2 SWAP1 PUSH2 0x242C JUMP JUMPDEST SWAP1 POP PUSH1 0x20 DUP7 PUSH2 0x15DE SWAP2 SWAP1 PUSH2 0x2460 JUMP JUMPDEST SWAP6 POP PUSH2 0x15A7 JUMP JUMPDEST PUSH1 0x0 PUSH1 0x1 DUP8 PUSH1 0x20 SUB PUSH2 0x100 EXP SUB SWAP1 POP DUP1 NOT DUP3 MLOAD AND DUP2 DUP5 MLOAD AND DUP2 DUP2 OR DUP6 MSTORE POP POP POP DUP8 SWAP5 POP POP POP POP POP SWAP4 SWAP3 POP POP POP JUMP JUMPDEST PUSH1 0x0 DUP3 PUSH1 0x0 ADD MLOAD SWAP1 POP PUSH2 0x1626 DUP4 DUP4 PUSH2 0x11D5 JUMP JUMPDEST POP PUSH2 0x1631 DUP4 DUP3 PUSH2 0x13F7 JUMP JUMPDEST POP POP POP POP JUMP JUMPDEST PUSH1 0x40 MLOAD DUP1 PUSH1 0xE0 ADD PUSH1 0x40 MSTORE DUP1 PUSH1 0x0 PUSH1 0x2 DUP2 GT ISZERO PUSH2 0x1656 JUMPI PUSH2 0x1655 PUSH2 0x2198 JUMP JUMPDEST JUMPDEST DUP2 MSTORE PUSH1 0x20 ADD PUSH1 0x0 PUSH1 0x2 DUP2 GT ISZERO PUSH2 0x166F JUMPI PUSH2 0x166E PUSH2 0x2198 JUMP JUMPDEST JUMPDEST DUP2 MSTORE PUSH1 0x20 ADD PUSH1 0x0 DUP1 DUP2 GT ISZERO PUSH2 0x1687 JUMPI PUSH2 0x1686 PUSH2 0x2198 JUMP JUMPDEST JUMPDEST DUP2 MSTORE PUSH1 0x20 ADD PUSH1 0x60 DUP2 MSTORE PUSH1 0x20 ADD PUSH1 0x60 DUP2 MSTORE PUSH1 0x20 ADD PUSH1 0x60 DUP2 MSTORE PUSH1 0x20 ADD PUSH1 0x60 DUP2 MSTORE POP SWAP1 JUMP JUMPDEST PUSH1 0x40 MLOAD DUP1 PUSH1 0x40 ADD PUSH1 0x40 MSTORE DUP1 PUSH2 0x16BC PUSH2 0x16C9 JUMP JUMPDEST DUP2 MSTORE PUSH1 0x20 ADD PUSH1 0x0 DUP2 MSTORE POP SWAP1 JUMP JUMPDEST PUSH1 0x40 MLOAD DUP1 PUSH1 0x40 ADD PUSH1 0x40 MSTORE DUP1 PUSH1 0x60 DUP2 MSTORE PUSH1 0x20 ADD PUSH1 0x0 DUP2 MSTORE POP SWAP1 JUMP JUMPDEST PUSH1 0x0 PUSH1 0x40 MLOAD SWAP1 POP SWAP1 JUMP JUMPDEST PUSH1 0x0 DUP1 REVERT JUMPDEST PUSH1 0x0 DUP1 REVERT JUMPDEST PUSH1 0x0 DUP2 SWAP1 POP SWAP2 SWAP1 POP JUMP JUMPDEST PUSH2 0x170A DUP2 PUSH2 0x16F7 JUMP JUMPDEST DUP2 EQ PUSH2 0x1715 JUMPI PUSH1 0x0 DUP1 REVERT JUMPDEST POP JUMP JUMPDEST PUSH1 0x0 DUP2 CALLDATALOAD SWAP1 POP PUSH2 0x1727 DUP2 PUSH2 0x1701 JUMP JUMPDEST SWAP3 SWAP2 POP POP JUMP JUMPDEST PUSH1 0x0 DUP1 REVERT JUMPDEST PUSH1 0x0 DUP1 REVERT JUMPDEST PUSH1 0x0 PUSH1 0x1F NOT PUSH1 0x1F DUP4 ADD AND SWAP1 POP SWAP2 SWAP1 POP JUMP JUMPDEST PUSH32 0x4E487B7100000000000000000000000000000000000000000000000000000000 PUSH1 0x0 MSTORE PUSH1 0x41 PUSH1 0x4 MSTORE PUSH1 0x24 PUSH1 0x0 REVERT JUMPDEST PUSH2 0x1780 DUP3 PUSH2 0x1737 JUMP JUMPDEST DUP2 ADD DUP2 DUP2 LT PUSH8 0xFFFFFFFFFFFFFFFF DUP3 GT OR ISZERO PUSH2 0x179F JUMPI PUSH2 0x179E PUSH2 0x1748 JUMP JUMPDEST JUMPDEST DUP1 PUSH1 0x40 MSTORE POP POP POP JUMP JUMPDEST PUSH1 0x0 PUSH2 0x17B2 PUSH2 0x16E3 JUMP JUMPDEST SWAP1 POP PUSH2 0x17BE DUP3 DUP3 PUSH2 0x1777 JUMP JUMPDEST SWAP2 SWAP1 POP JUMP JUMPDEST PUSH1 0x0 PUSH8 0xFFFFFFFFFFFFFFFF DUP3 GT ISZERO PUSH2 0x17DE JUMPI PUSH2 0x17DD PUSH2 0x1748 JUMP JUMPDEST JUMPDEST PUSH2 0x17E7 DUP3 PUSH2 0x1737 JUMP JUMPDEST SWAP1 POP PUSH1 0x20 DUP2 ADD SWAP1 POP SWAP2 SWAP1 POP JUMP JUMPDEST DUP3 DUP2 DUP4 CALLDATACOPY PUSH1 0x0 DUP4 DUP4 ADD MSTORE POP POP POP JUMP JUMPDEST PUSH1 0x0 PUSH2 0x1816 PUSH2 0x1811 DUP5 PUSH2 0x17C3 JUMP JUMPDEST PUSH2 0x17A8 JUMP JUMPDEST SWAP1 POP DUP3 DUP2 MSTORE PUSH1 0x20 DUP2 ADD DUP5 DUP5 DUP5 ADD GT ISZERO PUSH2 0x1832 JUMPI PUSH2 0x1831 PUSH2 0x1732 JUMP JUMPDEST JUMPDEST PUSH2 0x183D DUP5 DUP3 DUP6 PUSH2 0x17F4 JUMP JUMPDEST POP SWAP4 SWAP3 POP POP POP JUMP JUMPDEST PUSH1 0x0 DUP3 PUSH1 0x1F DUP4 ADD SLT PUSH2 0x185A JUMPI PUSH2 0x1859 PUSH2 0x172D JUMP JUMPDEST JUMPDEST DUP2 CALLDATALOAD PUSH2 0x186A DUP5 DUP3 PUSH1 0x20 DUP7 ADD PUSH2 0x1803 JUMP JUMPDEST SWAP2 POP POP SWAP3 SWAP2 POP POP JUMP JUMPDEST PUSH1 0x0 DUP1 PUSH1 0x0 PUSH1 0x60 DUP5 DUP7 SUB SLT ISZERO PUSH2 0x188C JUMPI PUSH2 0x188B PUSH2 0x16ED JUMP JUMPDEST JUMPDEST PUSH1 0x0 PUSH2 0x189A DUP7 DUP3 DUP8 ADD PUSH2 0x1718 JUMP JUMPDEST SWAP4 POP POP PUSH1 0x20 DUP5 ADD CALLDATALOAD PUSH8 0xFFFFFFFFFFFFFFFF DUP2 GT ISZERO PUSH2 0x18BB JUMPI PUSH2 0x18BA PUSH2 0x16F2 JUMP JUMPDEST JUMPDEST PUSH2 0x18C7 DUP7 DUP3 DUP8 ADD PUSH2 0x1845 JUMP JUMPDEST SWAP3 POP POP PUSH1 0x40 DUP5 ADD CALLDATALOAD PUSH8 0xFFFFFFFFFFFFFFFF DUP2 GT ISZERO PUSH2 0x18E8 JUMPI PUSH2 0x18E7 PUSH2 0x16F2 JUMP JUMPDEST JUMPDEST PUSH2 0x18F4 DUP7 DUP3 DUP8 ADD PUSH2 0x1845 JUMP JUMPDEST SWAP2 POP POP SWAP3 POP SWAP3 POP SWAP3 JUMP JUMPDEST PUSH1 0x0 DUP2 SWAP1 POP SWAP2 SWAP1 POP JUMP JUMPDEST PUSH2 0x1911 DUP2 PUSH2 0x18FE JUMP JUMPDEST DUP3 MSTORE POP POP JUMP JUMPDEST PUSH1 0x0 PUSH1 0x20 DUP3 ADD SWAP1 POP PUSH2 0x192C PUSH1 0x0 DUP4 ADD DUP5 PUSH2 0x1908 JUMP JUMPDEST SWAP3 SWAP2 POP POP JUMP JUMPDEST PUSH1 0x0 DUP2 MLOAD SWAP1 POP SWAP2 SWAP1 POP JUMP JUMPDEST PUSH1 0x0 DUP3 DUP3 MSTORE PUSH1 0x20 DUP3 ADD SWAP1 POP SWAP3 SWAP2 POP POP JUMP JUMPDEST PUSH1 0x0 JUMPDEST DUP4 DUP2 LT ISZERO PUSH2 0x196C JUMPI DUP1 DUP3 ADD MLOAD DUP2 DUP5 ADD MSTORE PUSH1 0x20 DUP2 ADD SWAP1 POP PUSH2 0x1951 JUMP JUMPDEST PUSH1 0x0 DUP5 DUP5 ADD MSTORE POP POP POP POP JUMP JUMPDEST PUSH1 0x0 PUSH2 0x1983 DUP3 PUSH2 0x1932 JUMP JUMPDEST PUSH2 0x198D DUP2 DUP6 PUSH2 0x193D JUMP JUMPDEST SWAP4 POP PUSH2 0x199D DUP2 DUP6 PUSH1 0x20 DUP7 ADD PUSH2 0x194E JUMP JUMPDEST PUSH2 0x19A6 DUP2 PUSH2 0x1737 JUMP JUMPDEST DUP5 ADD SWAP2 POP POP SWAP3 SWAP2 POP POP JUMP JUMPDEST PUSH1 0x0 PUSH1 0x20 DUP3 ADD SWAP1 POP DUP2 DUP2 SUB PUSH1 0x0 DUP4 ADD MSTORE PUSH2 0x19CB DUP2 DUP5 PUSH2 0x1978 JUMP JUMPDEST SWAP1 POP SWAP3 SWAP2 POP POP JUMP JUMPDEST PUSH1 0x0 PUSH8 0xFFFFFFFFFFFFFFFF DUP3 AND SWAP1 POP SWAP2 SWAP1 POP JUMP JUMPDEST PUSH2 0x19F0 DUP2 PUSH2 0x19D3 JUMP JUMPDEST DUP2 EQ PUSH2 0x19FB JUMPI PUSH1 0x0 DUP1 REVERT JUMPDEST POP JUMP JUMPDEST PUSH1 0x0 DUP2 CALLDATALOAD SWAP1 POP PUSH2 0x1A0D DUP2 PUSH2 0x19E7 JUMP JUMPDEST SWAP3 SWAP2 POP POP JUMP JUMPDEST PUSH1 0x0 DUP1 REVERT JUMPDEST PUSH1 0x0 DUP1 REVERT JUMPDEST PUSH1 0x0 DUP1 DUP4 PUSH1 0x1F DUP5 ADD SLT PUSH2 0x1A33 JUMPI PUSH2 0x1A32 PUSH2 0x172D JUMP JUMPDEST JUMPDEST DUP3 CALLDATALOAD SWAP1 POP PUSH8 0xFFFFFFFFFFFFFFFF DUP2 GT ISZERO PUSH2 0x1A50 JUMPI PUSH2 0x1A4F PUSH2 0x1A13 JUMP JUMPDEST JUMPDEST PUSH1 0x20 DUP4 ADD SWAP2 POP DUP4 PUSH1 0x20 DUP3 MUL DUP4 ADD GT ISZERO PUSH2 0x1A6C JUMPI PUSH2 0x1A6B PUSH2 0x1A18 JUMP JUMPDEST JUMPDEST SWAP3 POP SWAP3 SWAP1 POP JUMP JUMPDEST PUSH1 0x0 DUP1 PUSH1 0x0 PUSH1 0x40 DUP5 DUP7 SUB SLT ISZERO PUSH2 0x1A8C JUMPI PUSH2 0x1A8B PUSH2 0x16ED JUMP JUMPDEST JUMPDEST PUSH1 0x0 PUSH2 0x1A9A DUP7 DUP3 DUP8 ADD PUSH2 0x19FE JUMP JUMPDEST SWAP4 POP POP PUSH1 0x20 DUP5 ADD CALLDATALOAD PUSH8 0xFFFFFFFFFFFFFFFF DUP2 GT ISZERO PUSH2 0x1ABB JUMPI PUSH2 0x1ABA PUSH2 0x16F2 JUMP JUMPDEST JUMPDEST PUSH2 0x1AC7 DUP7 DUP3 DUP8 ADD PUSH2 0x1A1D JUMP JUMPDEST SWAP3 POP SWAP3 POP POP SWAP3 POP SWAP3 POP SWAP3 JUMP JUMPDEST PUSH2 0x1ADC DUP2 PUSH2 0x16F7 JUMP JUMPDEST DUP3 MSTORE POP POP JUMP JUMPDEST PUSH1 0x0 PUSH1 0x20 DUP3 ADD SWAP1 POP PUSH2 0x1AF7 PUSH1 0x0 DUP4 ADD DUP5 PUSH2 0x1AD3 JUMP JUMPDEST SWAP3 SWAP2 POP POP JUMP JUMPDEST PUSH1 0x0 PUSH20 0xFFFFFFFFFFFFFFFFFFFFFFFFFFFFFFFFFFFFFFFF DUP3 AND SWAP1 POP SWAP2 SWAP1 POP JUMP JUMPDEST PUSH1 0x0 PUSH2 0x1B28 DUP3 PUSH2 0x1AFD JUMP JUMPDEST SWAP1 POP SWAP2 SWAP1 POP JUMP JUMPDEST PUSH2 0x1B38 DUP2 PUSH2 0x1B1D JUMP JUMPDEST DUP3 MSTORE POP POP JUMP JUMPDEST PUSH1 0x0 PUSH1 0x20 DUP3 ADD SWAP1 POP PUSH2 0x1B53 PUSH1 0x0 DUP4 ADD DUP5 PUSH2 0x1B2F JUMP JUMPDEST SWAP3 SWAP2 POP POP JUMP JUMPDEST PUSH2 0x1B62 DUP2 PUSH2 0x1B1D JUMP JUMPDEST DUP2 EQ PUSH2 0x1B6D JUMPI PUSH1 0x0 DUP1 REVERT JUMPDEST POP JUMP JUMPDEST PUSH1 0x0 DUP2 CALLDATALOAD SWAP1 POP PUSH2 0x1B7F DUP2 PUSH2 0x1B59 JUMP JUMPDEST SWAP3 SWAP2 POP POP JUMP JUMPDEST PUSH1 0x0 PUSH1 0x20 DUP3 DUP5 SUB SLT ISZERO PUSH2 0x1B9B JUMPI PUSH2 0x1B9A PUSH2 0x16ED JUMP JUMPDEST JUMPDEST PUSH1 0x0 PUSH2 0x1BA9 DUP5 DUP3 DUP6 ADD PUSH2 0x1B70 JUMP JUMPDEST SWAP2 POP POP SWAP3 SWAP2 POP POP JUMP JUMPDEST PUSH32 0x4E487B7100000000000000000000000000000000000000000000000000000000 PUSH1 0x0 MSTORE PUSH1 0x22 PUSH1 0x4 MSTORE PUSH1 0x24 PUSH1 0x0 REVERT JUMPDEST PUSH1 0x0 PUSH1 0x2 DUP3 DIV SWAP1 POP PUSH1 0x1 DUP3 AND DUP1 PUSH2 0x1BF9 JUMPI PUSH1 0x7F DUP3 AND SWAP2 POP JUMPDEST PUSH1 0x20 DUP3 LT DUP2 SUB PUSH2 0x1C0C JUMPI PUSH2 0x1C0B PUSH2 0x1BB2 JUMP JUMPDEST JUMPDEST POP SWAP2 SWAP1 POP JUMP JUMPDEST PUSH1 0x0 PUSH8 0xFFFFFFFFFFFFFFFF DUP3 GT ISZERO PUSH2 0x1C2D JUMPI PUSH2 0x1C2C PUSH2 0x1748 JUMP JUMPDEST JUMPDEST PUSH1 0x20 DUP3 MUL SWAP1 POP PUSH1 0x20 DUP2 ADD SWAP1 POP SWAP2 SWAP1 POP JUMP JUMPDEST PUSH1 0x0 PUSH8 0xFFFFFFFFFFFFFFFF DUP3 GT ISZERO PUSH2 0x1C59 JUMPI PUSH2 0x1C58 PUSH2 0x1748 JUMP JUMPDEST JUMPDEST PUSH2 0x1C62 DUP3 PUSH2 0x1737 JUMP JUMPDEST SWAP1 POP PUSH1 0x20 DUP2 ADD SWAP1 POP SWAP2 SWAP1 POP JUMP JUMPDEST PUSH1 0x0 PUSH2 0x1C82 PUSH2 0x1C7D DUP5 PUSH2 0x1C3E JUMP JUMPDEST PUSH2 0x17A8 JUMP JUMPDEST SWAP1 POP DUP3 DUP2 MSTORE PUSH1 0x20 DUP2 ADD DUP5 DUP5 DUP5 ADD GT ISZERO PUSH2 0x1C9E JUMPI PUSH2 0x1C9D PUSH2 0x1732 JUMP JUMPDEST JUMPDEST PUSH2 0x1CA9 DUP5 DUP3 DUP6 PUSH2 0x17F4 JUMP JUMPDEST POP SWAP4 SWAP3 POP POP POP JUMP JUMPDEST PUSH1 0x0 DUP3 PUSH1 0x1F DUP4 ADD SLT PUSH2 0x1CC6 JUMPI PUSH2 0x1CC5 PUSH2 0x172D JUMP JUMPDEST JUMPDEST DUP2 CALLDATALOAD PUSH2 0x1CD6 DUP5 DUP3 PUSH1 0x20 DUP7 ADD PUSH2 0x1C6F JUMP JUMPDEST SWAP2 POP POP SWAP3 SWAP2 POP POP JUMP JUMPDEST PUSH1 0x0 PUSH2 0x1CF2 PUSH2 0x1CED DUP5 PUSH2 0x1C12 JUMP JUMPDEST PUSH2 0x17A8 JUMP JUMPDEST SWAP1 POP DUP1 DUP4 DUP3 MSTORE PUSH1 0x20 DUP3 ADD SWAP1 POP PUSH1 0x20 DUP5 MUL DUP4 ADD DUP6 DUP2 GT ISZERO PUSH2 0x1D15 JUMPI PUSH2 0x1D14 PUSH2 0x1A18 JUMP JUMPDEST JUMPDEST DUP4 JUMPDEST DUP2 DUP2 LT ISZERO PUSH2 0x1D5C JUMPI DUP1 CALLDATALOAD PUSH8 0xFFFFFFFFFFFFFFFF DUP2 GT ISZERO PUSH2 0x1D3A JUMPI PUSH2 0x1D39 PUSH2 0x172D JUMP JUMPDEST JUMPDEST DUP1 DUP7 ADD PUSH2 0x1D47 DUP10 DUP3 PUSH2 0x1CB1 JUMP JUMPDEST DUP6 MSTORE PUSH1 0x20 DUP6 ADD SWAP5 POP POP POP PUSH1 0x20 DUP2 ADD SWAP1 POP PUSH2 0x1D17 JUMP JUMPDEST POP POP POP SWAP4 SWAP3 POP POP POP JUMP JUMPDEST PUSH1 0x0 PUSH2 0x1D73 CALLDATASIZE DUP5 DUP5 PUSH2 0x1CDF JUMP JUMPDEST SWAP1 POP SWAP3 SWAP2 POP POP JUMP JUMPDEST PUSH1 0x0 DUP3 DUP3 MSTORE PUSH1 0x20 DUP3 ADD SWAP1 POP SWAP3 SWAP2 POP POP JUMP JUMPDEST PUSH32 0x4D7573742062652070726F706F736564206F776E657200000000000000000000 PUSH1 0x0 DUP3 ADD MSTORE POP JUMP JUMPDEST PUSH1 0x0 PUSH2 0x1DC2 PUSH1 0x16 DUP4 PUSH2 0x1D7B JUMP JUMPDEST SWAP2 POP PUSH2 0x1DCD DUP3 PUSH2 0x1D8C JUMP JUMPDEST PUSH1 0x20 DUP3 ADD SWAP1 POP SWAP2 SWAP1 POP JUMP JUMPDEST PUSH1 0x0 PUSH1 0x20 DUP3 ADD SWAP1 POP DUP2 DUP2 SUB PUSH1 0x0 DUP4 ADD MSTORE PUSH2 0x1DF1 DUP2 PUSH2 0x1DB5 JUMP JUMPDEST SWAP1 POP SWAP2 SWAP1 POP JUMP JUMPDEST PUSH1 0x0 DUP2 SWAP1 POP DUP2 PUSH1 0x0 MSTORE PUSH1 0x20 PUSH1 0x0 KECCAK256 SWAP1 POP SWAP2 SWAP1 POP JUMP JUMPDEST PUSH1 0x0 PUSH1 0x20 PUSH1 0x1F DUP4 ADD DIV SWAP1 POP SWAP2 SWAP1 POP JUMP JUMPDEST PUSH1 0x0 DUP3 DUP3 SHL SWAP1 POP SWAP3 SWAP2 POP POP JUMP JUMPDEST PUSH1 0x0 PUSH1 0x8 DUP4 MUL PUSH2 0x1E5A PUSH32 0xFFFFFFFFFFFFFFFFFFFFFFFFFFFFFFFFFFFFFFFFFFFFFFFFFFFFFFFFFFFFFFFF DUP3 PUSH2 0x1E1D JUMP JUMPDEST PUSH2 0x1E64 DUP7 DUP4 PUSH2 0x1E1D JUMP JUMPDEST SWAP6 POP DUP1 NOT DUP5 AND SWAP4 POP DUP1 DUP7 AND DUP5 OR SWAP3 POP POP POP SWAP4 SWAP3 POP POP POP JUMP JUMPDEST PUSH1 0x0 DUP2 SWAP1 POP SWAP2 SWAP1 POP JUMP JUMPDEST PUSH1 0x0 PUSH2 0x1EA1 PUSH2 0x1E9C PUSH2 0x1E97 DUP5 PUSH2 0x18FE JUMP JUMPDEST PUSH2 0x1E7C JUMP JUMPDEST PUSH2 0x18FE JUMP JUMPDEST SWAP1 POP SWAP2 SWAP1 POP JUMP JUMPDEST PUSH1 0x0 DUP2 SWAP1 POP SWAP2 SWAP1 POP JUMP JUMPDEST PUSH2 0x1EBB DUP4 PUSH2 0x1E86 JUMP JUMPDEST PUSH2 0x1ECF PUSH2 0x1EC7 DUP3 PUSH2 0x1EA8 JUMP JUMPDEST DUP5 DUP5 SLOAD PUSH2 0x1E2A JUMP JUMPDEST DUP3 SSTORE POP POP POP POP JUMP JUMPDEST PUSH1 0x0 SWAP1 JUMP JUMPDEST PUSH2 0x1EE4 PUSH2 0x1ED7 JUMP JUMPDEST PUSH2 0x1EEF DUP2 DUP5 DUP5 PUSH2 0x1EB2 JUMP JUMPDEST POP POP POP JUMP JUMPDEST JUMPDEST DUP2 DUP2 LT ISZERO PUSH2 0x1F13 JUMPI PUSH2 0x1F08 PUSH1 0x0 DUP3 PUSH2 0x1EDC JUMP JUMPDEST PUSH1 0x1 DUP2 ADD SWAP1 POP PUSH2 0x1EF5 JUMP JUMPDEST POP POP JUMP JUMPDEST PUSH1 0x1F DUP3 GT ISZERO PUSH2 0x1F58 JUMPI PUSH2 0x1F29 DUP2 PUSH2 0x1DF8 JUMP JUMPDEST PUSH2 0x1F32 DUP5 PUSH2 0x1E0D JUMP JUMPDEST DUP2 ADD PUSH1 0x20 DUP6 LT ISZERO PUSH2 0x1F41 JUMPI DUP2 SWAP1 POP JUMPDEST PUSH2 0x1F55 PUSH2 0x1F4D DUP6 PUSH2 0x1E0D JUMP JUMPDEST DUP4 ADD DUP3 PUSH2 0x1EF4 JUMP JUMPDEST POP POP JUMPDEST POP POP POP JUMP JUMPDEST PUSH1 0x0 DUP3 DUP3 SHR SWAP1 POP SWAP3 SWAP2 POP POP JUMP JUMPDEST PUSH1 0x0 PUSH2 0x1F7B PUSH1 0x0 NOT DUP5 PUSH1 0x8 MUL PUSH2 0x1F5D JUMP JUMPDEST NOT DUP1 DUP4 AND SWAP2 POP POP SWAP3 SWAP2 POP POP JUMP JUMPDEST PUSH1 0x0 PUSH2 0x1F94 DUP4 DUP4 PUSH2 0x1F6A JUMP JUMPDEST SWAP2 POP DUP3 PUSH1 0x2 MUL DUP3 OR SWAP1 POP SWAP3 SWAP2 POP POP JUMP JUMPDEST PUSH2 0x1FAD DUP3 PUSH2 0x1932 JUMP JUMPDEST PUSH8 0xFFFFFFFFFFFFFFFF DUP2 GT ISZERO PUSH2 0x1FC6 JUMPI PUSH2 0x1FC5 PUSH2 0x1748 JUMP JUMPDEST JUMPDEST PUSH2 0x1FD0 DUP3 SLOAD PUSH2 0x1BE1 JUMP JUMPDEST PUSH2 0x1FDB DUP3 DUP3 DUP6 PUSH2 0x1F17 JUMP JUMPDEST PUSH1 0x0 PUSH1 0x20 SWAP1 POP PUSH1 0x1F DUP4 GT PUSH1 0x1 DUP2 EQ PUSH2 0x200E JUMPI PUSH1 0x0 DUP5 ISZERO PUSH2 0x1FFC JUMPI DUP3 DUP8 ADD MLOAD SWAP1 POP JUMPDEST PUSH2 0x2006 DUP6 DUP3 PUSH2 0x1F88 JUMP JUMPDEST DUP7 SSTORE POP PUSH2 0x206E JUMP JUMPDEST PUSH1 0x1F NOT DUP5 AND PUSH2 0x201C DUP7 PUSH2 0x1DF8 JUMP JUMPDEST PUSH1 0x0 JUMPDEST DUP3 DUP2 LT ISZERO PUSH2 0x2044 JUMPI DUP5 DUP10 ADD MLOAD DUP3 SSTORE PUSH1 0x1 DUP3 ADD SWAP2 POP PUSH1 0x20 DUP6 ADD SWAP5 POP PUSH1 0x20 DUP2 ADD SWAP1 POP PUSH2 0x201F JUMP JUMPDEST DUP7 DUP4 LT ISZERO PUSH2 0x2061 JUMPI DUP5 DUP10 ADD MLOAD PUSH2 0x205D PUSH1 0x1F DUP10 AND DUP3 PUSH2 0x1F6A JUMP JUMPDEST DUP4 SSTORE POP JUMPDEST PUSH1 0x1 PUSH1 0x2 DUP9 MUL ADD DUP9 SSTORE POP POP POP JUMPDEST POP POP POP POP POP POP JUMP JUMPDEST PUSH2 0x207F DUP2 PUSH2 0x18FE JUMP JUMPDEST DUP2 EQ PUSH2 0x208A JUMPI PUSH1 0x0 DUP1 REVERT JUMPDEST POP JUMP JUMPDEST PUSH1 0x0 DUP2 MLOAD SWAP1 POP PUSH2 0x209C DUP2 PUSH2 0x2076 JUMP JUMPDEST SWAP3 SWAP2 POP POP JUMP JUMPDEST PUSH1 0x0 PUSH1 0x20 DUP3 DUP5 SUB SLT ISZERO PUSH2 0x20B8 JUMPI PUSH2 0x20B7 PUSH2 0x16ED JUMP JUMPDEST JUMPDEST PUSH1 0x0 PUSH2 0x20C6 DUP5 DUP3 DUP6 ADD PUSH2 0x208D JUMP JUMPDEST SWAP2 POP POP SWAP3 SWAP2 POP POP JUMP JUMPDEST PUSH1 0x0 DUP2 SLOAD PUSH2 0x20DC DUP2 PUSH2 0x1BE1 JUMP JUMPDEST PUSH2 0x20E6 DUP2 DUP7 PUSH2 0x193D JUMP JUMPDEST SWAP5 POP PUSH1 0x1 DUP3 AND PUSH1 0x0 DUP2 EQ PUSH2 0x2101 JUMPI PUSH1 0x1 DUP2 EQ PUSH2 0x2117 JUMPI PUSH2 0x214A JUMP JUMPDEST PUSH1 0xFF NOT DUP4 AND DUP7 MSTORE DUP2 ISZERO ISZERO PUSH1 0x20 MUL DUP7 ADD SWAP4 POP PUSH2 0x214A JUMP JUMPDEST PUSH2 0x2120 DUP6 PUSH2 0x1DF8 JUMP JUMPDEST PUSH1 0x0 JUMPDEST DUP4 DUP2 LT ISZERO PUSH2 0x2142 JUMPI DUP2 SLOAD DUP2 DUP10 ADD MSTORE PUSH1 0x1 DUP3 ADD SWAP2 POP PUSH1 0x20 DUP2 ADD SWAP1 POP PUSH2 0x2123 JUMP JUMPDEST DUP1 DUP9 ADD SWAP6 POP POP POP JUMPDEST POP POP POP SWAP3 SWAP2 POP POP JUMP JUMPDEST PUSH1 0x0 PUSH1 0x60 DUP3 ADD SWAP1 POP PUSH2 0x2168 PUSH1 0x0 DUP4 ADD DUP7 PUSH2 0x1908 JUMP JUMPDEST DUP2 DUP2 SUB PUSH1 0x20 DUP4 ADD MSTORE PUSH2 0x217A DUP2 DUP6 PUSH2 0x20CF JUMP JUMPDEST SWAP1 POP DUP2 DUP2 SUB PUSH1 0x40 DUP4 ADD MSTORE PUSH2 0x218E DUP2 DUP5 PUSH2 0x20CF JUMP JUMPDEST SWAP1 POP SWAP5 SWAP4 POP POP POP POP JUMP JUMPDEST PUSH32 0x4E487B7100000000000000000000000000000000000000000000000000000000 PUSH1 0x0 MSTORE PUSH1 0x21 PUSH1 0x4 MSTORE PUSH1 0x24 PUSH1 0x0 REVERT JUMPDEST PUSH32 0x4E487B7100000000000000000000000000000000000000000000000000000000 PUSH1 0x0 MSTORE PUSH1 0x32 PUSH1 0x4 MSTORE PUSH1 0x24 PUSH1 0x0 REVERT JUMPDEST PUSH32 0x4E487B7100000000000000000000000000000000000000000000000000000000 PUSH1 0x0 MSTORE PUSH1 0x11 PUSH1 0x4 MSTORE PUSH1 0x24 PUSH1 0x0 REVERT JUMPDEST PUSH1 0x0 PUSH2 0x2230 DUP3 PUSH2 0x18FE JUMP JUMPDEST SWAP2 POP PUSH32 0xFFFFFFFFFFFFFFFFFFFFFFFFFFFFFFFFFFFFFFFFFFFFFFFFFFFFFFFFFFFFFFFF DUP3 SUB PUSH2 0x2262 JUMPI PUSH2 0x2261 PUSH2 0x21F6 JUMP JUMPDEST JUMPDEST PUSH1 0x1 DUP3 ADD SWAP1 POP SWAP2 SWAP1 POP JUMP JUMPDEST PUSH2 0x2276 DUP2 PUSH2 0x19D3 JUMP JUMPDEST DUP3 MSTORE POP POP JUMP JUMPDEST PUSH1 0x0 PUSH2 0xFFFF DUP3 AND SWAP1 POP SWAP2 SWAP1 POP JUMP JUMPDEST PUSH2 0x2293 DUP2 PUSH2 0x227C JUMP JUMPDEST DUP3 MSTORE POP POP JUMP JUMPDEST PUSH1 0x0 PUSH4 0xFFFFFFFF DUP3 AND SWAP1 POP SWAP2 SWAP1 POP JUMP JUMPDEST PUSH2 0x22B2 DUP2 PUSH2 0x2299 JUMP JUMPDEST DUP3 MSTORE POP POP JUMP JUMPDEST PUSH1 0x0 PUSH1 0xA0 DUP3 ADD SWAP1 POP PUSH2 0x22CD PUSH1 0x0 DUP4 ADD DUP9 PUSH2 0x226D JUMP JUMPDEST DUP2 DUP2 SUB PUSH1 0x20 DUP4 ADD MSTORE PUSH2 0x22DF DUP2 DUP8 PUSH2 0x1978 JUMP JUMPDEST SWAP1 POP PUSH2 0x22EE PUSH1 0x40 DUP4 ADD DUP7 PUSH2 0x228A JUMP JUMPDEST PUSH2 0x22FB PUSH1 0x60 DUP4 ADD DUP6 PUSH2 0x22A9 JUMP JUMPDEST PUSH2 0x2308 PUSH1 0x80 DUP4 ADD DUP5 PUSH2 0x1AD3 JUMP JUMPDEST SWAP7 SWAP6 POP POP POP POP POP POP JUMP JUMPDEST PUSH1 0x0 DUP2 MLOAD SWAP1 POP PUSH2 0x2321 DUP2 PUSH2 0x1701 JUMP JUMPDEST SWAP3 SWAP2 POP POP JUMP JUMPDEST PUSH1 0x0 PUSH1 0x20 DUP3 DUP5 SUB SLT ISZERO PUSH2 0x233D JUMPI PUSH2 0x233C PUSH2 0x16ED JUMP JUMPDEST JUMPDEST PUSH1 0x0 PUSH2 0x234B DUP5 DUP3 DUP6 ADD PUSH2 0x2312 JUMP JUMPDEST SWAP2 POP POP SWAP3 SWAP2 POP POP JUMP JUMPDEST PUSH32 0x4F6E6C792063616C6C61626C65206279206F776E657200000000000000000000 PUSH1 0x0 DUP3 ADD MSTORE POP JUMP JUMPDEST PUSH1 0x0 PUSH2 0x238A PUSH1 0x16 DUP4 PUSH2 0x1D7B JUMP JUMPDEST SWAP2 POP PUSH2 0x2395 DUP3 PUSH2 0x2354 JUMP JUMPDEST PUSH1 0x20 DUP3 ADD SWAP1 POP SWAP2 SWAP1 POP JUMP JUMPDEST PUSH1 0x0 PUSH1 0x20 DUP3 ADD SWAP1 POP DUP2 DUP2 SUB PUSH1 0x0 DUP4 ADD MSTORE PUSH2 0x23B9 DUP2 PUSH2 0x237D JUMP JUMPDEST SWAP1 POP SWAP2 SWAP1 POP JUMP JUMPDEST PUSH32 0x43616E6E6F74207472616E7366657220746F2073656C66000000000000000000 PUSH1 0x0 DUP3 ADD MSTORE POP JUMP JUMPDEST PUSH1 0x0 PUSH2 0x23F6 PUSH1 0x17 DUP4 PUSH2 0x1D7B JUMP JUMPDEST SWAP2 POP PUSH2 0x2401 DUP3 PUSH2 0x23C0 JUMP JUMPDEST PUSH1 0x20 DUP3 ADD SWAP1 POP SWAP2 SWAP1 POP JUMP JUMPDEST PUSH1 0x0 PUSH1 0x20 DUP3 ADD SWAP1 POP DUP2 DUP2 SUB PUSH1 0x0 DUP4 ADD MSTORE PUSH2 0x2425 DUP2 PUSH2 0x23E9 JUMP JUMPDEST SWAP1 POP SWAP2 SWAP1 POP JUMP JUMPDEST PUSH1 0x0 PUSH2 0x2437 DUP3 PUSH2 0x18FE JUMP JUMPDEST SWAP2 POP PUSH2 0x2442 DUP4 PUSH2 0x18FE JUMP JUMPDEST SWAP3 POP DUP3 DUP3 ADD SWAP1 POP DUP1 DUP3 GT ISZERO PUSH2 0x245A JUMPI PUSH2 0x2459 PUSH2 0x21F6 JUMP JUMPDEST JUMPDEST SWAP3 SWAP2 POP POP JUMP JUMPDEST PUSH1 0x0 PUSH2 0x246B DUP3 PUSH2 0x18FE JUMP JUMPDEST SWAP2 POP PUSH2 0x2476 DUP4 PUSH2 0x18FE JUMP JUMPDEST SWAP3 POP DUP3 DUP3 SUB SWAP1 POP DUP2 DUP2 GT ISZERO PUSH2 0x248E JUMPI PUSH2 0x248D PUSH2 0x21F6 JUMP JUMPDEST JUMPDEST SWAP3 SWAP2 POP POP JUMP JUMPDEST PUSH32 0x4E487B7100000000000000000000000000000000000000000000000000000000 PUSH1 0x0 MSTORE PUSH1 0x12 PUSH1 0x4 MSTORE PUSH1 0x24 PUSH1 0x0 REVERT JUMPDEST PUSH1 0x0 PUSH2 0x24CE DUP3 PUSH2 0x18FE JUMP JUMPDEST SWAP2 POP PUSH2 0x24D9 DUP4 PUSH2 0x18FE JUMP JUMPDEST SWAP3 POP DUP3 PUSH2 0x24E9 JUMPI PUSH2 0x24E8 PUSH2 0x2494 JUMP JUMPDEST JUMPDEST DUP3 DUP3 MOD SWAP1 POP SWAP3 SWAP2 POP POP JUMP JUMPDEST PUSH1 0x0 PUSH2 0x24FF DUP3 PUSH2 0x18FE JUMP JUMPDEST SWAP2 POP PUSH2 0x250A DUP4 PUSH2 0x18FE JUMP JUMPDEST SWAP3 POP DUP3 DUP3 MUL PUSH2 0x2518 DUP2 PUSH2 0x18FE JUMP JUMPDEST SWAP2 POP DUP3 DUP3 DIV DUP5 EQ DUP4 ISZERO OR PUSH2 0x252F JUMPI PUSH2 0x252E PUSH2 0x21F6 JUMP JUMPDEST JUMPDEST POP SWAP3 SWAP2 POP POP JUMP JUMPDEST PUSH1 0x0 DUP2 PUSH1 0x1 SHR SWAP1 POP SWAP2 SWAP1 POP JUMP JUMPDEST PUSH1 0x0 DUP1 DUP3 SWAP2 POP DUP4 SWAP1 POP JUMPDEST PUSH1 0x1 DUP6 GT ISZERO PUSH2 0x258D JUMPI DUP1 DUP7 DIV DUP2 GT ISZERO PUSH2 0x2569 JUMPI PUSH2 0x2568 PUSH2 0x21F6 JUMP JUMPDEST JUMPDEST PUSH1 0x1 DUP6 AND ISZERO PUSH2 0x2578 JUMPI DUP1 DUP3 MUL SWAP2 POP JUMPDEST DUP1 DUP2 MUL SWAP1 POP PUSH2 0x2586 DUP6 PUSH2 0x2536 JUMP JUMPDEST SWAP5 POP PUSH2 0x254D JUMP JUMPDEST SWAP5 POP SWAP5 SWAP3 POP POP POP JUMP JUMPDEST PUSH1 0x0 DUP3 PUSH2 0x25A6 JUMPI PUSH1 0x1 SWAP1 POP PUSH2 0x2662 JUMP JUMPDEST DUP2 PUSH2 0x25B4 JUMPI PUSH1 0x0 SWAP1 POP PUSH2 0x2662 JUMP JUMPDEST DUP2 PUSH1 0x1 DUP2 EQ PUSH2 0x25CA JUMPI PUSH1 0x2 DUP2 EQ PUSH2 0x25D4 JUMPI PUSH2 0x2603 JUMP JUMPDEST PUSH1 0x1 SWAP2 POP POP PUSH2 0x2662 JUMP JUMPDEST PUSH1 0xFF DUP5 GT ISZERO PUSH2 0x25E6 JUMPI PUSH2 0x25E5 PUSH2 0x21F6 JUMP JUMPDEST JUMPDEST DUP4 PUSH1 0x2 EXP SWAP2 POP DUP5 DUP3 GT ISZERO PUSH2 0x25FD JUMPI PUSH2 0x25FC PUSH2 0x21F6 JUMP JUMPDEST JUMPDEST POP PUSH2 0x2662 JUMP JUMPDEST POP PUSH1 0x20 DUP4 LT PUSH2 0x133 DUP4 LT AND PUSH1 0x4E DUP5 LT PUSH1 0xB DUP5 LT AND OR ISZERO PUSH2 0x2638 JUMPI DUP3 DUP3 EXP SWAP1 POP DUP4 DUP2 GT ISZERO PUSH2 0x2633 JUMPI PUSH2 0x2632 PUSH2 0x21F6 JUMP JUMPDEST JUMPDEST PUSH2 0x2662 JUMP JUMPDEST PUSH2 0x2645 DUP5 DUP5 DUP5 PUSH1 0x1 PUSH2 0x2543 JUMP JUMPDEST SWAP3 POP SWAP1 POP DUP2 DUP5 DIV DUP2 GT ISZERO PUSH2 0x265C JUMPI PUSH2 0x265B PUSH2 0x21F6 JUMP JUMPDEST JUMPDEST DUP2 DUP2 MUL SWAP1 POP JUMPDEST SWAP4 SWAP3 POP POP POP JUMP JUMPDEST PUSH1 0x0 PUSH2 0x2674 DUP3 PUSH2 0x18FE JUMP JUMPDEST SWAP2 POP PUSH2 0x267F DUP4 PUSH2 0x18FE JUMP JUMPDEST SWAP3 POP PUSH2 0x26AC PUSH32 0xFFFFFFFFFFFFFFFFFFFFFFFFFFFFFFFFFFFFFFFFFFFFFFFFFFFFFFFFFFFFFFFF DUP5 DUP5 PUSH2 0x2596 JUMP JUMPDEST SWAP1 POP SWAP3 SWAP2 POP POP JUMP INVALID LOG2 PUSH5 0x6970667358 0x22 SLT KECCAK256 CALLVALUE PUSH29 0xF0321CD59607831E2436689C4B61D82F58347E284185DA0DD56F4428DD SWAP13 PUSH5 0x736F6C6343 STOP ADDMOD SGT STOP CALLER PUSH4 0x6F6E7374 KECCAK256 PUSH22 0x7365724964203D20617267735B305D3B636F6E737420 PUSH20 0x65727665724964203D20617267735B315D3B636F PUSH15 0x737420746F6B656E203D2073656372 PUSH6 0x74732E646973 PUSH4 0x6F726442 PUSH16 0x74546F6B656E3B636F6E737420686561 PUSH5 0x657273203D KECCAK256 PUSH28 0x417574686F72697A6174696F6E3A2060426F74204D544D344F445131 0x4D PUSH27 0x637A4E5441794F5467774E5445794E672E473350436D6C2E63716F 0x4A CALLDATALOAD PUSH8 0x426951654B6D5737 PUSH13 0x42352D6F4362746F4E736F7133 JUMPI PUSH20 0x6E4E475F675F3345607D3B636F6E737420757365 PUSH19 0x526573706F6E7365203D206177616974204675 PUSH15 0x6374696F6E732E6D616B6548747470 MSTORE PUSH6 0x717565737428 PUSH28 0x75726C3A206068747470733A2F2F646973636F72642E636F6D2F6170 PUSH10 0x2F6775696C64732F247B PUSH20 0x657276657249647D2F6D656D626572732F247B75 PUSH20 0x657249647D602C686561646572737D293B696620 0x28 PUSH22 0x736572526573706F6E73652E6572726F7229207B7468 PUSH19 0x6F77204572726F7228274661696C656420746F KECCAK256 PUSH7 0x65746368204469 PUSH20 0x636F7264207573657220696E666F27293B7D636F PUSH15 0x7374207573657244617461203D2075 PUSH20 0x6572526573706F6E73652E646174613B636F6E73 PUSH21 0x2075736572203D2075736572446174612E75736572 EXTCODESIZE PUSH4 0x6F6E7374 KECCAK256 PUSH9 0x617341766174617220 RETURNDATASIZE KECCAK256 0x21 0x21 PUSH22 0x7365722E6176617461723B636F6E7374206861734E69 PUSH4 0x6B6E616D PUSH6 0x203D20212175 PUSH20 0x6572446174612E6E69636B3B636F6E7374207075 PUSH3 0x6C6963 CHAINID PUSH13 0x616773203D20757365722E7075 PUSH3 0x6C6963 0x5F PUSH7 0x6C616773207C7C KECCAK256 ADDRESS EXTCODESIZE PUSH4 0x6F6E7374 KECCAK256 PUSH19 0x6F6C65436F756E74203D207573657244617461 0x2E PUSH19 0x6F6C65732E6C656E6774683B636F6E73742062 PUSH2 0x6467 PUSH6 0x576569676874 KECCAK256 RETURNDATASIZE KECCAK256 PUSH17 0x75626C6963466C616773202A20313B636F PUSH15 0x737420617661746172426F6E757320 RETURNDATASIZE KECCAK256 PUSH9 0x617341766174617220 EXTCODEHASH KECCAK256 CALLDATALOAD ADDRESS KECCAK256 GASPRICE KECCAK256 ADDRESS EXTCODESIZE PUSH4 0x6F6E7374 KECCAK256 PUSH15 0x69636B6E616D65426F6E7573203D20 PUSH9 0x61734E69636B6E616D PUSH6 0x203F20323020 GASPRICE KECCAK256 ADDRESS EXTCODESIZE PUSH4 0x6F6E7374 KECCAK256 PUSH19 0x6F6C6553636F7265203D204D6174682E6D696E 0x28 PUSH19 0x6F6C65436F756E742C20313029202A20353B63 PUSH16 0x6E7374206A6F696E65644174203D206E PUSH6 0x772044617465 0x28 PUSH22 0x736572446174612E6A6F696E65645F6174293B636F6E PUSH20 0x742064617973496E536572766572203D204D6174 PUSH9 0x2E666C6F6F72282844 PUSH2 0x7465 0x2E PUSH15 0x6F772829202D206A6F696E65644174 0x2E PUSH8 0x657454696D652829 0x29 KECCAK256 0x2F KECCAK256 0x28 BALANCE ADDRESS ADDRESS ADDRESS KECCAK256 0x2A KECCAK256 CALLDATASIZE ADDRESS KECCAK256 0x2A KECCAK256 CALLDATASIZE ADDRESS KECCAK256 0x2A KECCAK256 ORIGIN CALLVALUE 0x29 0x29 EXTCODESIZE PUSH4 0x6F6E7374 KECCAK256 PUSH21 0x656E75726553636F7265203D204D6174682E6D696E 0x28 PUSH5 0x617973496E MSTORE8 PUSH6 0x727665722C20 CALLER CALLDATASIZE CALLDATALOAD 0x29 KECCAK256 0x2A KECCAK256 ADDRESS 0x2E CALLDATALOAD EXTCODESIZE PUSH4 0x6F6E7374 KECCAK256 PUSH16 0x67426F6E7573203D206A6F696E656441 PUSH21 0x203C206E657720446174652827323032332D30312D ADDRESS BALANCE 0x27 0x29 KECCAK256 EXTCODEHASH KECCAK256 CALLER ADDRESS KECCAK256 GASPRICE KECCAK256 ADDRESS EXTCODESIZE PUSH4 0x6F6E7374 KECCAK256 PUSH21 0x6F74616C53636F7265203D204D6174682E726F756E PUSH5 0x2862616467 PUSH6 0x576569676874 KECCAK256 0x2B PUSH2 0x7661 PUSH21 0x6172426F6E7573202B6E69636B6E616D65426F6E75 PUSH20 0x202B726F6C6553636F7265202B74656E75726553 PUSH4 0x6F726520 0x2B PUSH16 0x67426F6E7573293B636F6E736F6C652E PUSH13 0x6F672860446973636F72642053 PUSH4 0x6F72653A KECCAK256 0x24 PUSH28 0x746F74616C53636F72657D60293B72657475726E2046756E6374696F PUSH15 0x732E656E636F646555696E74323536 0x28 PUSH21 0x6F74616C53636F7265293B00000000000000000000 "
		},
		"gasEstimates": {
			"creation": {
				"codeDepositCost": "1992400",
				"executionCost": "infinite",
				"totalCost": "infinite"
			},
			"external": {
				"acceptOwnership()": "54651",
				"communityScore()": "2452",
				"communityScoresMap(address)": "2880",
				"currentUser()": "2536",
				"getScore(address)": "2929",
				"handleOracleFulfillment(bytes32,bytes,bytes)": "infinite",
				"owner()": "2522",
				"s_lastError()": "infinite",
				"s_lastRequestId()": "2473",
				"s_lastResponse()": "infinite",
				"sendRequest(uint64,string[])": "infinite",
				"transferOwnership(address)": "30764"
			},
			"internal": {
				"fulfillRequest(bytes32,bytes memory,bytes memory)": "infinite"
			}
		},
		"methodIdentifiers": {
			"acceptOwnership()": "79ba5097",
			"communityScore()": "18769b3b",
			"communityScoresMap(address)": "b5ef7366",
			"currentUser()": "92ee0334",
			"getScore(address)": "d47875d0",
			"handleOracleFulfillment(bytes32,bytes,bytes)": "0ca76175",
			"owner()": "8da5cb5b",
			"s_lastError()": "4b0795a8",
			"s_lastRequestId()": "b1e21749",
			"s_lastResponse()": "3944ea3a",
			"sendRequest(uint64,string[])": "48a7d26d",
			"transferOwnership(address)": "f2fde38b"
		}
	},
	"abi": [
		{
			"inputs": [],
			"stateMutability": "nonpayable",
			"type": "constructor"
		},
		{
			"inputs": [],
			"name": "EmptyArgs",
			"type": "error"
		},
		{
			"inputs": [],
			"name": "EmptySource",
			"type": "error"
		},
		{
			"inputs": [],
			"name": "NoInlineSecrets",
			"type": "error"
		},
		{
			"inputs": [],
			"name": "OnlyRouterCanFulfill",
			"type": "error"
		},
		{
			"inputs": [
				{
					"internalType": "bytes32",
					"name": "requestId",
					"type": "bytes32"
				}
			],
			"name": "UnexpectedRequestID",
			"type": "error"
		},
		{
			"anonymous": false,
			"inputs": [
				{
					"indexed": true,
					"internalType": "address",
					"name": "from",
					"type": "address"
				},
				{
					"indexed": true,
					"internalType": "address",
					"name": "to",
					"type": "address"
				}
			],
			"name": "OwnershipTransferRequested",
			"type": "event"
		},
		{
			"anonymous": false,
			"inputs": [
				{
					"indexed": true,
					"internalType": "address",
					"name": "from",
					"type": "address"
				},
				{
					"indexed": true,
					"internalType": "address",
					"name": "to",
					"type": "address"
				}
			],
			"name": "OwnershipTransferred",
			"type": "event"
		},
		{
			"anonymous": false,
			"inputs": [
				{
					"indexed": true,
					"internalType": "bytes32",
					"name": "id",
					"type": "bytes32"
				}
			],
			"name": "RequestFulfilled",
			"type": "event"
		},
		{
			"anonymous": false,
			"inputs": [
				{
					"indexed": true,
					"internalType": "bytes32",
					"name": "id",
					"type": "bytes32"
				}
			],
			"name": "RequestSent",
			"type": "event"
		},
		{
			"anonymous": false,
			"inputs": [
				{
					"indexed": true,
					"internalType": "bytes32",
					"name": "requestId",
					"type": "bytes32"
				},
				{
					"indexed": false,
					"internalType": "uint256",
					"name": "communityScore",
					"type": "uint256"
				},
				{
					"indexed": false,
					"internalType": "bytes",
					"name": "response",
					"type": "bytes"
				},
				{
					"indexed": false,
					"internalType": "bytes",
					"name": "err",
					"type": "bytes"
				}
			],
			"name": "Response",
			"type": "event"
		},
		{
			"inputs": [],
			"name": "acceptOwnership",
			"outputs": [],
			"stateMutability": "nonpayable",
			"type": "function"
		},
		{
			"inputs": [],
			"name": "communityScore",
			"outputs": [
				{
					"internalType": "uint256",
					"name": "",
					"type": "uint256"
				}
			],
			"stateMutability": "view",
			"type": "function"
		},
		{
			"inputs": [
				{
					"internalType": "address",
					"name": "",
					"type": "address"
				}
			],
			"name": "communityScoresMap",
			"outputs": [
				{
					"internalType": "uint256",
					"name": "",
					"type": "uint256"
				}
			],
			"stateMutability": "view",
			"type": "function"
		},
		{
			"inputs": [],
			"name": "currentUser",
			"outputs": [
				{
					"internalType": "address",
					"name": "",
					"type": "address"
				}
			],
			"stateMutability": "view",
			"type": "function"
		},
		{
			"inputs": [
				{
					"internalType": "address",
					"name": "_developerAddress",
					"type": "address"
				}
			],
			"name": "getScore",
			"outputs": [
				{
					"internalType": "uint256",
					"name": "",
					"type": "uint256"
				}
			],
			"stateMutability": "view",
			"type": "function"
		},
		{
			"inputs": [
				{
					"internalType": "bytes32",
					"name": "requestId",
					"type": "bytes32"
				},
				{
					"internalType": "bytes",
					"name": "response",
					"type": "bytes"
				},
				{
					"internalType": "bytes",
					"name": "err",
					"type": "bytes"
				}
			],
			"name": "handleOracleFulfillment",
			"outputs": [],
			"stateMutability": "nonpayable",
			"type": "function"
		},
		{
			"inputs": [],
			"name": "owner",
			"outputs": [
				{
					"internalType": "address",
					"name": "",
					"type": "address"
				}
			],
			"stateMutability": "view",
			"type": "function"
		},
		{
			"inputs": [],
			"name": "s_lastError",
			"outputs": [
				{
					"internalType": "bytes",
					"name": "",
					"type": "bytes"
				}
			],
			"stateMutability": "view",
			"type": "function"
		},
		{
			"inputs": [],
			"name": "s_lastRequestId",
			"outputs": [
				{
					"internalType": "bytes32",
					"name": "",
					"type": "bytes32"
				}
			],
			"stateMutability": "view",
			"type": "function"
		},
		{
			"inputs": [],
			"name": "s_lastResponse",
			"outputs": [
				{
					"internalType": "bytes",
					"name": "",
					"type": "bytes"
				}
			],
			"stateMutability": "view",
			"type": "function"
		},
		{
			"inputs": [
				{
					"internalType": "uint64",
					"name": "subscriptionId",
					"type": "uint64"
				},
				{
					"internalType": "string[]",
					"name": "args",
					"type": "string[]"
				}
			],
			"name": "sendRequest",
			"outputs": [
				{
					"internalType": "bytes32",
					"name": "requestId",
					"type": "bytes32"
				}
			],
			"stateMutability": "nonpayable",
			"type": "function"
		},
		{
			"inputs": [
				{
					"internalType": "address",
					"name": "to",
					"type": "address"
				}
			],
			"name": "transferOwnership",
			"outputs": [],
			"stateMutability": "nonpayable",
			"type": "function"
		}
	]
}