{
	"docs.chain.link/samples/ChainlinkFunctions/GetCommunityScore.sol": {
		"GetCommunityScore": {
			"abi": [
				{
					"inputs": [],
					"stateMutability": "nonpayable",
					"type": "constructor"
				},
				{
					"inputs": [],
					"name": "EmptyArgs",
					"type": "error"
				},
				{
					"inputs": [],
					"name": "EmptySource",
					"type": "error"
				},
				{
					"inputs": [],
					"name": "NoInlineSecrets",
					"type": "error"
				},
				{
					"inputs": [],
					"name": "OnlyRouterCanFulfill",
					"type": "error"
				},
				{
					"inputs": [
						{
							"internalType": "bytes32",
							"name": "requestId",
							"type": "bytes32"
						}
					],
					"name": "UnexpectedRequestID",
					"type": "error"
				},
				{
					"anonymous": false,
					"inputs": [
						{
							"indexed": true,
							"internalType": "address",
							"name": "from",
							"type": "address"
						},
						{
							"indexed": true,
							"internalType": "address",
							"name": "to",
							"type": "address"
						}
					],
					"name": "OwnershipTransferRequested",
					"type": "event"
				},
				{
					"anonymous": false,
					"inputs": [
						{
							"indexed": true,
							"internalType": "address",
							"name": "from",
							"type": "address"
						},
						{
							"indexed": true,
							"internalType": "address",
							"name": "to",
							"type": "address"
						}
					],
					"name": "OwnershipTransferred",
					"type": "event"
				},
				{
					"anonymous": false,
					"inputs": [
						{
							"indexed": true,
							"internalType": "bytes32",
							"name": "id",
							"type": "bytes32"
						}
					],
					"name": "RequestFulfilled",
					"type": "event"
				},
				{
					"anonymous": false,
					"inputs": [
						{
							"indexed": true,
							"internalType": "bytes32",
							"name": "id",
							"type": "bytes32"
						}
					],
					"name": "RequestSent",
					"type": "event"
				},
				{
					"anonymous": false,
					"inputs": [
						{
							"indexed": true,
							"internalType": "bytes32",
							"name": "requestId",
							"type": "bytes32"
						},
						{
							"indexed": false,
							"internalType": "uint256",
							"name": "communityScore",
							"type": "uint256"
						},
						{
							"indexed": false,
							"internalType": "bytes",
							"name": "response",
							"type": "bytes"
						},
						{
							"indexed": false,
							"internalType": "bytes",
							"name": "err",
							"type": "bytes"
						}
					],
					"name": "Response",
					"type": "event"
				},
				{
					"inputs": [],
					"name": "acceptOwnership",
					"outputs": [],
					"stateMutability": "nonpayable",
					"type": "function"
				},
				{
					"inputs": [],
					"name": "communityScore",
					"outputs": [
						{
							"internalType": "uint256",
							"name": "",
							"type": "uint256"
						}
					],
					"stateMutability": "view",
					"type": "function"
				},
				{
					"inputs": [
						{
							"internalType": "address",
							"name": "",
							"type": "address"
						}
					],
					"name": "communityScoresMap",
					"outputs": [
						{
							"internalType": "uint256",
							"name": "",
							"type": "uint256"
						}
					],
					"stateMutability": "view",
					"type": "function"
				},
				{
					"inputs": [],
					"name": "currentUser",
					"outputs": [
						{
							"internalType": "address",
							"name": "",
							"type": "address"
						}
					],
					"stateMutability": "view",
					"type": "function"
				},
				{
					"inputs": [
						{
							"internalType": "address",
							"name": "_developerAddress",
							"type": "address"
						}
					],
					"name": "getScore",
					"outputs": [
						{
							"internalType": "uint256",
							"name": "",
							"type": "uint256"
						}
					],
					"stateMutability": "view",
					"type": "function"
				},
				{
					"inputs": [
						{
							"internalType": "bytes32",
							"name": "requestId",
							"type": "bytes32"
						},
						{
							"internalType": "bytes",
							"name": "response",
							"type": "bytes"
						},
						{
							"internalType": "bytes",
							"name": "err",
							"type": "bytes"
						}
					],
					"name": "handleOracleFulfillment",
					"outputs": [],
					"stateMutability": "nonpayable",
					"type": "function"
				},
				{
					"inputs": [],
					"name": "owner",
					"outputs": [
						{
							"internalType": "address",
							"name": "",
							"type": "address"
						}
					],
					"stateMutability": "view",
					"type": "function"
				},
				{
					"inputs": [],
					"name": "s_lastError",
					"outputs": [
						{
							"internalType": "bytes",
							"name": "",
							"type": "bytes"
						}
					],
					"stateMutability": "view",
					"type": "function"
				},
				{
					"inputs": [],
					"name": "s_lastRequestId",
					"outputs": [
						{
							"internalType": "bytes32",
							"name": "",
							"type": "bytes32"
						}
					],
					"stateMutability": "view",
					"type": "function"
				},
				{
					"inputs": [],
					"name": "s_lastResponse",
					"outputs": [
						{
							"internalType": "bytes",
							"name": "",
							"type": "bytes"
						}
					],
					"stateMutability": "view",
					"type": "function"
				},
				{
					"inputs": [
						{
							"internalType": "uint64",
							"name": "subscriptionId",
							"type": "uint64"
						},
						{
							"internalType": "string[]",
							"name": "args",
							"type": "string[]"
						}
					],
					"name": "sendRequest",
					"outputs": [
						{
							"internalType": "bytes32",
							"name": "requestId",
							"type": "bytes32"
						}
					],
					"stateMutability": "nonpayable",
					"type": "function"
				},
				{
					"inputs": [
						{
							"internalType": "address",
							"name": "to",
							"type": "address"
						}
					],
					"name": "transferOwnership",
					"outputs": [],
					"stateMutability": "nonpayable",
					"type": "function"
				}
			],
			"devdoc": {
				"kind": "dev",
				"methods": {
					"getScore(address)": {
						"params": {
							"_developerAddress": "The ID of the request to fulfill"
						},
						"returns": {
							"_0": "the devscore of the user"
						}
					},
					"handleOracleFulfillment(bytes32,bytes,bytes)": {
						"details": "Either response or error parameter will be set, but never both.",
						"params": {
							"err": "Aggregated error either from the request's source code or from the execution pipeline.",
							"requestId": "The requestId returned by FunctionsClient.sendRequest().",
							"response": "Aggregated response from the request's source code."
						}
					},
					"sendRequest(uint64,string[])": {
						"params": {
							"args": "The arguments to pass to the HTTP request",
							"subscriptionId": "The ID for the Chainlink subscription"
						},
						"returns": {
							"requestId": "The ID of the request"
						}
					}
				},
				"title": "GetDevScore",
				"version": 1
			},
			"evm": {
				"assembly": "    /* \"docs.chain.link/samples/ChainlinkFunctions/GetCommunityScore.sol\":486:5762  contract GetCommunityScore is FunctionsClient, ConfirmedOwner {... */\n  mstore(0x40, 0xa0)\n    /* \"docs.chain.link/samples/ChainlinkFunctions/GetCommunityScore.sol\":1111:1153  0xb83E47C2bC239B3bf370bc41e1459A34b41238D0 */\n  0xb83e47c2bc239b3bf370bc41e1459a34b41238d0\n    /* \"docs.chain.link/samples/ChainlinkFunctions/GetCommunityScore.sol\":1094:1153  address router = 0xb83E47C2bC239B3bf370bc41e1459A34b41238D0 */\n  0x05\n  exp(0x0100, 0x00)\n  dup2\n  sload\n  dup2\n  0xffffffffffffffffffffffffffffffffffffffff\n  mul\n  not\n  and\n  swap1\n  dup4\n  0xffffffffffffffffffffffffffffffffffffffff\n  and\n  mul\n  or\n  swap1\n  sstore\n  pop\n    /* \"docs.chain.link/samples/ChainlinkFunctions/GetCommunityScore.sol\":1283:3005  string source =... */\n  mload(0x40)\n  dup1\n  0x0500\n  add\n  0x40\n  mstore\n  dup1\n  0x04c7\n  dup2\n  mstore\n  0x20\n  add\n  data_8d9d1a7be15ef0cbadaac66b19264a5e3cfddc97cea09ab71b35b2ba4ca4a742\n  0x04c7\n  swap2\n  codecopy\n  0x06\n  swap1\n  dup2\n  tag_1\n  swap2\n  swap1\n  tag_2\n  jump\t// in\ntag_1:\n  pop\n    /* \"docs.chain.link/samples/ChainlinkFunctions/GetCommunityScore.sol\":3062:3068  300000 */\n  0x0493e0\n    /* \"docs.chain.link/samples/ChainlinkFunctions/GetCommunityScore.sol\":3044:3068  uint32 gasLimit = 300000 */\n  0x07\n  exp(0x0100, 0x00)\n  dup2\n  sload\n  dup2\n  0xffffffff\n  mul\n  not\n  and\n  swap1\n  dup4\n  0xffffffff\n  and\n  mul\n  or\n  swap1\n  sstore\n  pop\n    /* \"docs.chain.link/samples/ChainlinkFunctions/GetCommunityScore.sol\":3140:3206  0x66756e2d657468657265756d2d7365706f6c69612d3100000000000000000000 */\n  0x66756e2d657468657265756d2d7365706f6c69612d3100000000000000000000\n    /* \"docs.chain.link/samples/ChainlinkFunctions/GetCommunityScore.sol\":3115:3206  bytes32 donID =... */\n  0x00\n  shl\n  0x08\n  sstore\n    /* \"docs.chain.link/samples/ChainlinkFunctions/GetCommunityScore.sol\":3519:3586  constructor() FunctionsClient(router) ConfirmedOwner(msg.sender) {} */\n  callvalue\n  dup1\n  iszero\n  tag_3\n  jumpi\n  0x00\n  dup1\n  revert\ntag_3:\n  pop\n    /* \"docs.chain.link/samples/ChainlinkFunctions/GetCommunityScore.sol\":3572:3582  msg.sender */\n  caller\n    /* \"@chainlink/contracts@1.4.0/src/v0.8/shared/access/ConfirmedOwner.sol\":355:363  newOwner */\n  dup1\n    /* \"@chainlink/contracts@1.4.0/src/v0.8/shared/access/ConfirmedOwner.sol\":373:374  0 */\n  0x00\n    /* \"docs.chain.link/samples/ChainlinkFunctions/GetCommunityScore.sol\":3549:3555  router */\n  0x05\n  0x00\n  swap1\n  sload\n  swap1\n  0x0100\n  exp\n  swap1\n  div\n  0xffffffffffffffffffffffffffffffffffffffff\n  and\n    /* \"@chainlink/contracts@1.4.0/src/v0.8/functions/v1_0_0/FunctionsClient.sol\":764:770  router */\n  dup1\n    /* \"@chainlink/contracts@1.4.0/src/v0.8/functions/v1_0_0/FunctionsClient.sol\":736:771  i_router = IFunctionsRouter(router) */\n  0xffffffffffffffffffffffffffffffffffffffff\n  and\n  0x80\n  dup2\n  0xffffffffffffffffffffffffffffffffffffffff\n  and\n  dup2\n  mstore\n  pop\n  pop\n    /* \"@chainlink/contracts@1.4.0/src/v0.8/functions/v1_0_0/FunctionsClient.sol\":702:776  constructor(address router) {... */\n  pop\n    /* \"@chainlink/contracts@1.4.0/src/v0.8/shared/access/ConfirmedOwnerWithProposal.sol\":618:619  0 */\n  0x00\n    /* \"@chainlink/contracts@1.4.0/src/v0.8/shared/access/ConfirmedOwnerWithProposal.sol\":598:620  newOwner != address(0) */\n  0xffffffffffffffffffffffffffffffffffffffff\n  and\n    /* \"@chainlink/contracts@1.4.0/src/v0.8/shared/access/ConfirmedOwnerWithProposal.sol\":598:606  newOwner */\n  dup3\n    /* \"@chainlink/contracts@1.4.0/src/v0.8/shared/access/ConfirmedOwnerWithProposal.sol\":598:620  newOwner != address(0) */\n  0xffffffffffffffffffffffffffffffffffffffff\n  and\n  sub\n    /* \"@chainlink/contracts@1.4.0/src/v0.8/shared/access/ConfirmedOwnerWithProposal.sol\":590:649  require(newOwner != address(0), \"Cannot set owner to zero\") */\n  tag_10\n  jumpi\n  mload(0x40)\n  0x08c379a000000000000000000000000000000000000000000000000000000000\n  dup2\n  mstore\n  0x04\n  add\n  tag_11\n  swap1\n  tag_12\n  jump\t// in\ntag_11:\n  mload(0x40)\n  dup1\n  swap2\n  sub\n  swap1\n  revert\ntag_10:\n    /* \"@chainlink/contracts@1.4.0/src/v0.8/shared/access/ConfirmedOwnerWithProposal.sol\":666:674  newOwner */\n  dup2\n    /* \"@chainlink/contracts@1.4.0/src/v0.8/shared/access/ConfirmedOwnerWithProposal.sol\":656:663  s_owner */\n  0x00\n  dup1\n    /* \"@chainlink/contracts@1.4.0/src/v0.8/shared/access/ConfirmedOwnerWithProposal.sol\":656:674  s_owner = newOwner */\n  0x0100\n  exp\n  dup2\n  sload\n  dup2\n  0xffffffffffffffffffffffffffffffffffffffff\n  mul\n  not\n  and\n  swap1\n  dup4\n  0xffffffffffffffffffffffffffffffffffffffff\n  and\n  mul\n  or\n  swap1\n  sstore\n  pop\n    /* \"@chainlink/contracts@1.4.0/src/v0.8/shared/access/ConfirmedOwnerWithProposal.sol\":708:709  0 */\n  0x00\n    /* \"@chainlink/contracts@1.4.0/src/v0.8/shared/access/ConfirmedOwnerWithProposal.sol\":684:710  pendingOwner != address(0) */\n  0xffffffffffffffffffffffffffffffffffffffff\n  and\n    /* \"@chainlink/contracts@1.4.0/src/v0.8/shared/access/ConfirmedOwnerWithProposal.sol\":684:696  pendingOwner */\n  dup2\n    /* \"@chainlink/contracts@1.4.0/src/v0.8/shared/access/ConfirmedOwnerWithProposal.sol\":684:710  pendingOwner != address(0) */\n  0xffffffffffffffffffffffffffffffffffffffff\n  and\n  eq\n    /* \"@chainlink/contracts@1.4.0/src/v0.8/shared/access/ConfirmedOwnerWithProposal.sol\":680:759  if (pendingOwner != address(0)) {... */\n  tag_13\n  jumpi\n    /* \"@chainlink/contracts@1.4.0/src/v0.8/shared/access/ConfirmedOwnerWithProposal.sol\":720:752  _transferOwnership(pendingOwner) */\n  tag_14\n    /* \"@chainlink/contracts@1.4.0/src/v0.8/shared/access/ConfirmedOwnerWithProposal.sol\":739:751  pendingOwner */\n  dup2\n    /* \"@chainlink/contracts@1.4.0/src/v0.8/shared/access/ConfirmedOwnerWithProposal.sol\":720:738  _transferOwnership */\n  shl(0x20, tag_15)\n    /* \"@chainlink/contracts@1.4.0/src/v0.8/shared/access/ConfirmedOwnerWithProposal.sol\":720:752  _transferOwnership(pendingOwner) */\n  0x20\n  shr\n  jump\t// in\ntag_14:\n    /* \"@chainlink/contracts@1.4.0/src/v0.8/shared/access/ConfirmedOwnerWithProposal.sol\":680:759  if (pendingOwner != address(0)) {... */\ntag_13:\n    /* \"@chainlink/contracts@1.4.0/src/v0.8/shared/access/ConfirmedOwnerWithProposal.sol\":481:763  constructor(address newOwner, address pendingOwner) {... */\n  pop\n  pop\n    /* \"@chainlink/contracts@1.4.0/src/v0.8/shared/access/ConfirmedOwner.sol\":298:379  constructor(address newOwner) ConfirmedOwnerWithProposal(newOwner, address(0)) {} */\n  pop\n    /* \"docs.chain.link/samples/ChainlinkFunctions/GetCommunityScore.sol\":486:5762  contract GetCommunityScore is FunctionsClient, ConfirmedOwner {... */\n  jump(tag_18)\n    /* \"@chainlink/contracts@1.4.0/src/v0.8/shared/access/ConfirmedOwnerWithProposal.sol\":1536:1775  function _transferOwnership(address to) private {... */\ntag_15:\n    /* \"@chainlink/contracts@1.4.0/src/v0.8/shared/access/ConfirmedOwnerWithProposal.sol\":1655:1665  msg.sender */\n  caller\n    /* \"@chainlink/contracts@1.4.0/src/v0.8/shared/access/ConfirmedOwnerWithProposal.sol\":1649:1665  to != msg.sender */\n  0xffffffffffffffffffffffffffffffffffffffff\n  and\n    /* \"@chainlink/contracts@1.4.0/src/v0.8/shared/access/ConfirmedOwnerWithProposal.sol\":1649:1651  to */\n  dup2\n    /* \"@chainlink/contracts@1.4.0/src/v0.8/shared/access/ConfirmedOwnerWithProposal.sol\":1649:1665  to != msg.sender */\n  0xffffffffffffffffffffffffffffffffffffffff\n  and\n  sub\n    /* \"@chainlink/contracts@1.4.0/src/v0.8/shared/access/ConfirmedOwnerWithProposal.sol\":1641:1693  require(to != msg.sender, \"Cannot transfer to self\") */\n  tag_20\n  jumpi\n  mload(0x40)\n  0x08c379a000000000000000000000000000000000000000000000000000000000\n  dup2\n  mstore\n  0x04\n  add\n  tag_21\n  swap1\n  tag_22\n  jump\t// in\ntag_21:\n  mload(0x40)\n  dup1\n  swap2\n  sub\n  swap1\n  revert\ntag_20:\n    /* \"@chainlink/contracts@1.4.0/src/v0.8/shared/access/ConfirmedOwnerWithProposal.sol\":1717:1719  to */\n  dup1\n    /* \"@chainlink/contracts@1.4.0/src/v0.8/shared/access/ConfirmedOwnerWithProposal.sol\":1700:1714  s_pendingOwner */\n  0x01\n  0x00\n    /* \"@chainlink/contracts@1.4.0/src/v0.8/shared/access/ConfirmedOwnerWithProposal.sol\":1700:1719  s_pendingOwner = to */\n  0x0100\n  exp\n  dup2\n  sload\n  dup2\n  0xffffffffffffffffffffffffffffffffffffffff\n  mul\n  not\n  and\n  swap1\n  dup4\n  0xffffffffffffffffffffffffffffffffffffffff\n  and\n  mul\n  or\n  swap1\n  sstore\n  pop\n    /* \"@chainlink/contracts@1.4.0/src/v0.8/shared/access/ConfirmedOwnerWithProposal.sol\":1767:1769  to */\n  dup1\n    /* \"@chainlink/contracts@1.4.0/src/v0.8/shared/access/ConfirmedOwnerWithProposal.sol\":1731:1770  OwnershipTransferRequested(s_owner, to) */\n  0xffffffffffffffffffffffffffffffffffffffff\n  and\n    /* \"@chainlink/contracts@1.4.0/src/v0.8/shared/access/ConfirmedOwnerWithProposal.sol\":1758:1765  s_owner */\n  0x00\n  dup1\n  sload\n  swap1\n  0x0100\n  exp\n  swap1\n  div\n  0xffffffffffffffffffffffffffffffffffffffff\n  and\n    /* \"@chainlink/contracts@1.4.0/src/v0.8/shared/access/ConfirmedOwnerWithProposal.sol\":1731:1770  OwnershipTransferRequested(s_owner, to) */\n  0xffffffffffffffffffffffffffffffffffffffff\n  and\n  0xed8889f560326eb138920d842192f0eb3dd22b4f139c87a2c57538e05bae1278\n  mload(0x40)\n  mload(0x40)\n  dup1\n  swap2\n  sub\n  swap1\n  log3\n    /* \"@chainlink/contracts@1.4.0/src/v0.8/shared/access/ConfirmedOwnerWithProposal.sol\":1536:1775  function _transferOwnership(address to) private {... */\n  pop\n  jump\t// out\n    /* \"#utility.yul\":7:106   */\ntag_23:\n    /* \"#utility.yul\":59:65   */\n  0x00\n    /* \"#utility.yul\":93:98   */\n  dup2\n    /* \"#utility.yul\":87:99   */\n  mload\n    /* \"#utility.yul\":77:99   */\n  swap1\n  pop\n    /* \"#utility.yul\":7:106   */\n  swap2\n  swap1\n  pop\n  jump\t// out\n    /* \"#utility.yul\":112:292   */\ntag_24:\n    /* \"#utility.yul\":160:237   */\n  0x4e487b7100000000000000000000000000000000000000000000000000000000\n    /* \"#utility.yul\":157:158   */\n  0x00\n    /* \"#utility.yul\":150:238   */\n  mstore\n    /* \"#utility.yul\":257:261   */\n  0x41\n    /* \"#utility.yul\":254:255   */\n  0x04\n    /* \"#utility.yul\":247:262   */\n  mstore\n    /* \"#utility.yul\":281:285   */\n  0x24\n    /* \"#utility.yul\":278:279   */\n  0x00\n    /* \"#utility.yul\":271:286   */\n  revert\n    /* \"#utility.yul\":298:478   */\ntag_25:\n    /* \"#utility.yul\":346:423   */\n  0x4e487b7100000000000000000000000000000000000000000000000000000000\n    /* \"#utility.yul\":343:344   */\n  0x00\n    /* \"#utility.yul\":336:424   */\n  mstore\n    /* \"#utility.yul\":443:447   */\n  0x22\n    /* \"#utility.yul\":440:441   */\n  0x04\n    /* \"#utility.yul\":433:448   */\n  mstore\n    /* \"#utility.yul\":467:471   */\n  0x24\n    /* \"#utility.yul\":464:465   */\n  0x00\n    /* \"#utility.yul\":457:472   */\n  revert\n    /* \"#utility.yul\":484:804   */\ntag_26:\n    /* \"#utility.yul\":528:534   */\n  0x00\n    /* \"#utility.yul\":565:566   */\n  0x02\n    /* \"#utility.yul\":559:563   */\n  dup3\n    /* \"#utility.yul\":555:567   */\n  div\n    /* \"#utility.yul\":545:567   */\n  swap1\n  pop\n    /* \"#utility.yul\":612:613   */\n  0x01\n    /* \"#utility.yul\":606:610   */\n  dup3\n    /* \"#utility.yul\":602:614   */\n  and\n    /* \"#utility.yul\":633:651   */\n  dup1\n    /* \"#utility.yul\":623:704   */\n  tag_53\n  jumpi\n    /* \"#utility.yul\":689:693   */\n  0x7f\n    /* \"#utility.yul\":681:687   */\n  dup3\n    /* \"#utility.yul\":677:694   */\n  and\n    /* \"#utility.yul\":667:694   */\n  swap2\n  pop\n    /* \"#utility.yul\":623:704   */\ntag_53:\n    /* \"#utility.yul\":751:753   */\n  0x20\n    /* \"#utility.yul\":743:749   */\n  dup3\n    /* \"#utility.yul\":740:754   */\n  lt\n    /* \"#utility.yul\":720:738   */\n  dup2\n    /* \"#utility.yul\":717:755   */\n  sub\n    /* \"#utility.yul\":714:798   */\n  tag_54\n  jumpi\n    /* \"#utility.yul\":770:788   */\n  tag_55\n  tag_25\n  jump\t// in\ntag_55:\n    /* \"#utility.yul\":714:798   */\ntag_54:\n    /* \"#utility.yul\":535:804   */\n  pop\n    /* \"#utility.yul\":484:804   */\n  swap2\n  swap1\n  pop\n  jump\t// out\n    /* \"#utility.yul\":810:951   */\ntag_27:\n    /* \"#utility.yul\":859:863   */\n  0x00\n    /* \"#utility.yul\":882:885   */\n  dup2\n    /* \"#utility.yul\":874:885   */\n  swap1\n  pop\n    /* \"#utility.yul\":905:908   */\n  dup2\n    /* \"#utility.yul\":902:903   */\n  0x00\n    /* \"#utility.yul\":895:909   */\n  mstore\n    /* \"#utility.yul\":939:943   */\n  0x20\n    /* \"#utility.yul\":936:937   */\n  0x00\n    /* \"#utility.yul\":926:944   */\n  keccak256\n    /* \"#utility.yul\":918:944   */\n  swap1\n  pop\n    /* \"#utility.yul\":810:951   */\n  swap2\n  swap1\n  pop\n  jump\t// out\n    /* \"#utility.yul\":957:1050   */\ntag_28:\n    /* \"#utility.yul\":994:1000   */\n  0x00\n    /* \"#utility.yul\":1041:1043   */\n  0x20\n    /* \"#utility.yul\":1036:1038   */\n  0x1f\n    /* \"#utility.yul\":1029:1034   */\n  dup4\n    /* \"#utility.yul\":1025:1039   */\n  add\n    /* \"#utility.yul\":1021:1044   */\n  div\n    /* \"#utility.yul\":1011:1044   */\n  swap1\n  pop\n    /* \"#utility.yul\":957:1050   */\n  swap2\n  swap1\n  pop\n  jump\t// out\n    /* \"#utility.yul\":1056:1163   */\ntag_29:\n    /* \"#utility.yul\":1100:1108   */\n  0x00\n    /* \"#utility.yul\":1150:1155   */\n  dup3\n    /* \"#utility.yul\":1144:1148   */\n  dup3\n    /* \"#utility.yul\":1140:1156   */\n  shl\n    /* \"#utility.yul\":1119:1156   */\n  swap1\n  pop\n    /* \"#utility.yul\":1056:1163   */\n  swap3\n  swap2\n  pop\n  pop\n  jump\t// out\n    /* \"#utility.yul\":1169:1562   */\ntag_30:\n    /* \"#utility.yul\":1238:1244   */\n  0x00\n    /* \"#utility.yul\":1288:1289   */\n  0x08\n    /* \"#utility.yul\":1276:1286   */\n  dup4\n    /* \"#utility.yul\":1272:1290   */\n  mul\n    /* \"#utility.yul\":1311:1408   */\n  tag_60\n    /* \"#utility.yul\":1341:1407   */\n  0xffffffffffffffffffffffffffffffffffffffffffffffffffffffffffffffff\n    /* \"#utility.yul\":1330:1339   */\n  dup3\n    /* \"#utility.yul\":1311:1408   */\n  tag_29\n  jump\t// in\ntag_60:\n    /* \"#utility.yul\":1429:1468   */\n  tag_61\n    /* \"#utility.yul\":1459:1467   */\n  dup7\n    /* \"#utility.yul\":1448:1457   */\n  dup4\n    /* \"#utility.yul\":1429:1468   */\n  tag_29\n  jump\t// in\ntag_61:\n    /* \"#utility.yul\":1417:1468   */\n  swap6\n  pop\n    /* \"#utility.yul\":1501:1505   */\n  dup1\n    /* \"#utility.yul\":1497:1506   */\n  not\n    /* \"#utility.yul\":1490:1495   */\n  dup5\n    /* \"#utility.yul\":1486:1507   */\n  and\n    /* \"#utility.yul\":1477:1507   */\n  swap4\n  pop\n    /* \"#utility.yul\":1550:1554   */\n  dup1\n    /* \"#utility.yul\":1540:1548   */\n  dup7\n    /* \"#utility.yul\":1536:1555   */\n  and\n    /* \"#utility.yul\":1529:1534   */\n  dup5\n    /* \"#utility.yul\":1526:1556   */\n  or\n    /* \"#utility.yul\":1516:1556   */\n  swap3\n  pop\n    /* \"#utility.yul\":1245:1562   */\n  pop\n  pop\n    /* \"#utility.yul\":1169:1562   */\n  swap4\n  swap3\n  pop\n  pop\n  pop\n  jump\t// out\n    /* \"#utility.yul\":1568:1645   */\ntag_31:\n    /* \"#utility.yul\":1605:1612   */\n  0x00\n    /* \"#utility.yul\":1634:1639   */\n  dup2\n    /* \"#utility.yul\":1623:1639   */\n  swap1\n  pop\n    /* \"#utility.yul\":1568:1645   */\n  swap2\n  swap1\n  pop\n  jump\t// out\n    /* \"#utility.yul\":1651:1711   */\ntag_32:\n    /* \"#utility.yul\":1679:1682   */\n  0x00\n    /* \"#utility.yul\":1700:1705   */\n  dup2\n    /* \"#utility.yul\":1693:1705   */\n  swap1\n  pop\n    /* \"#utility.yul\":1651:1711   */\n  swap2\n  swap1\n  pop\n  jump\t// out\n    /* \"#utility.yul\":1717:1859   */\ntag_33:\n    /* \"#utility.yul\":1767:1776   */\n  0x00\n    /* \"#utility.yul\":1800:1853   */\n  tag_65\n    /* \"#utility.yul\":1818:1852   */\n  tag_66\n    /* \"#utility.yul\":1827:1851   */\n  tag_67\n    /* \"#utility.yul\":1845:1850   */\n  dup5\n    /* \"#utility.yul\":1827:1851   */\n  tag_31\n  jump\t// in\ntag_67:\n    /* \"#utility.yul\":1818:1852   */\n  tag_32\n  jump\t// in\ntag_66:\n    /* \"#utility.yul\":1800:1853   */\n  tag_31\n  jump\t// in\ntag_65:\n    /* \"#utility.yul\":1787:1853   */\n  swap1\n  pop\n    /* \"#utility.yul\":1717:1859   */\n  swap2\n  swap1\n  pop\n  jump\t// out\n    /* \"#utility.yul\":1865:1940   */\ntag_34:\n    /* \"#utility.yul\":1908:1911   */\n  0x00\n    /* \"#utility.yul\":1929:1934   */\n  dup2\n    /* \"#utility.yul\":1922:1934   */\n  swap1\n  pop\n    /* \"#utility.yul\":1865:1940   */\n  swap2\n  swap1\n  pop\n  jump\t// out\n    /* \"#utility.yul\":1946:2215   */\ntag_35:\n    /* \"#utility.yul\":2056:2095   */\n  tag_70\n    /* \"#utility.yul\":2087:2094   */\n  dup4\n    /* \"#utility.yul\":2056:2095   */\n  tag_33\n  jump\t// in\ntag_70:\n    /* \"#utility.yul\":2117:2208   */\n  tag_71\n    /* \"#utility.yul\":2166:2207   */\n  tag_72\n    /* \"#utility.yul\":2190:2206   */\n  dup3\n    /* \"#utility.yul\":2166:2207   */\n  tag_34\n  jump\t// in\ntag_72:\n    /* \"#utility.yul\":2158:2164   */\n  dup5\n    /* \"#utility.yul\":2151:2155   */\n  dup5\n    /* \"#utility.yul\":2145:2156   */\n  sload\n    /* \"#utility.yul\":2117:2208   */\n  tag_30\n  jump\t// in\ntag_71:\n    /* \"#utility.yul\":2111:2115   */\n  dup3\n    /* \"#utility.yul\":2104:2209   */\n  sstore\n    /* \"#utility.yul\":2022:2215   */\n  pop\n    /* \"#utility.yul\":1946:2215   */\n  pop\n  pop\n  pop\n  jump\t// out\n    /* \"#utility.yul\":2221:2294   */\ntag_36:\n    /* \"#utility.yul\":2266:2269   */\n  0x00\n    /* \"#utility.yul\":2221:2294   */\n  swap1\n  jump\t// out\n    /* \"#utility.yul\":2300:2489   */\ntag_37:\n    /* \"#utility.yul\":2377:2409   */\n  tag_75\n  tag_36\n  jump\t// in\ntag_75:\n    /* \"#utility.yul\":2418:2483   */\n  tag_76\n    /* \"#utility.yul\":2476:2482   */\n  dup2\n    /* \"#utility.yul\":2468:2474   */\n  dup5\n    /* \"#utility.yul\":2462:2466   */\n  dup5\n    /* \"#utility.yul\":2418:2483   */\n  tag_35\n  jump\t// in\ntag_76:\n    /* \"#utility.yul\":2353:2489   */\n  pop\n    /* \"#utility.yul\":2300:2489   */\n  pop\n  pop\n  jump\t// out\n    /* \"#utility.yul\":2495:2681   */\ntag_38:\n    /* \"#utility.yul\":2555:2675   */\ntag_78:\n    /* \"#utility.yul\":2572:2575   */\n  dup2\n    /* \"#utility.yul\":2565:2570   */\n  dup2\n    /* \"#utility.yul\":2562:2576   */\n  lt\n    /* \"#utility.yul\":2555:2675   */\n  iszero\n  tag_80\n  jumpi\n    /* \"#utility.yul\":2626:2665   */\n  tag_81\n    /* \"#utility.yul\":2663:2664   */\n  0x00\n    /* \"#utility.yul\":2656:2661   */\n  dup3\n    /* \"#utility.yul\":2626:2665   */\n  tag_37\n  jump\t// in\ntag_81:\n    /* \"#utility.yul\":2599:2600   */\n  0x01\n    /* \"#utility.yul\":2592:2597   */\n  dup2\n    /* \"#utility.yul\":2588:2601   */\n  add\n    /* \"#utility.yul\":2579:2601   */\n  swap1\n  pop\n    /* \"#utility.yul\":2555:2675   */\n  jump(tag_78)\ntag_80:\n    /* \"#utility.yul\":2495:2681   */\n  pop\n  pop\n  jump\t// out\n    /* \"#utility.yul\":2687:3230   */\ntag_39:\n    /* \"#utility.yul\":2788:2790   */\n  0x1f\n    /* \"#utility.yul\":2783:2786   */\n  dup3\n    /* \"#utility.yul\":2780:2791   */\n  gt\n    /* \"#utility.yul\":2777:3223   */\n  iszero\n  tag_83\n  jumpi\n    /* \"#utility.yul\":2822:2860   */\n  tag_84\n    /* \"#utility.yul\":2854:2859   */\n  dup2\n    /* \"#utility.yul\":2822:2860   */\n  tag_27\n  jump\t// in\ntag_84:\n    /* \"#utility.yul\":2906:2935   */\n  tag_85\n    /* \"#utility.yul\":2924:2934   */\n  dup5\n    /* \"#utility.yul\":2906:2935   */\n  tag_28\n  jump\t// in\ntag_85:\n    /* \"#utility.yul\":2896:2904   */\n  dup2\n    /* \"#utility.yul\":2892:2936   */\n  add\n    /* \"#utility.yul\":3089:3091   */\n  0x20\n    /* \"#utility.yul\":3077:3087   */\n  dup6\n    /* \"#utility.yul\":3074:3092   */\n  lt\n    /* \"#utility.yul\":3071:3120   */\n  iszero\n  tag_86\n  jumpi\n    /* \"#utility.yul\":3110:3118   */\n  dup2\n    /* \"#utility.yul\":3095:3118   */\n  swap1\n  pop\n    /* \"#utility.yul\":3071:3120   */\ntag_86:\n    /* \"#utility.yul\":3133:3213   */\n  tag_87\n    /* \"#utility.yul\":3189:3211   */\n  tag_88\n    /* \"#utility.yul\":3207:3210   */\n  dup6\n    /* \"#utility.yul\":3189:3211   */\n  tag_28\n  jump\t// in\ntag_88:\n    /* \"#utility.yul\":3179:3187   */\n  dup4\n    /* \"#utility.yul\":3175:3212   */\n  add\n    /* \"#utility.yul\":3162:3173   */\n  dup3\n    /* \"#utility.yul\":3133:3213   */\n  tag_38\n  jump\t// in\ntag_87:\n    /* \"#utility.yul\":2792:3223   */\n  pop\n  pop\n    /* \"#utility.yul\":2777:3223   */\ntag_83:\n    /* \"#utility.yul\":2687:3230   */\n  pop\n  pop\n  pop\n  jump\t// out\n    /* \"#utility.yul\":3236:3353   */\ntag_40:\n    /* \"#utility.yul\":3290:3298   */\n  0x00\n    /* \"#utility.yul\":3340:3345   */\n  dup3\n    /* \"#utility.yul\":3334:3338   */\n  dup3\n    /* \"#utility.yul\":3330:3346   */\n  shr\n    /* \"#utility.yul\":3309:3346   */\n  swap1\n  pop\n    /* \"#utility.yul\":3236:3353   */\n  swap3\n  swap2\n  pop\n  pop\n  jump\t// out\n    /* \"#utility.yul\":3359:3528   */\ntag_41:\n    /* \"#utility.yul\":3403:3409   */\n  0x00\n    /* \"#utility.yul\":3436:3487   */\n  tag_91\n    /* \"#utility.yul\":3484:3485   */\n  0x00\n    /* \"#utility.yul\":3480:3486   */\n  not\n    /* \"#utility.yul\":3472:3477   */\n  dup5\n    /* \"#utility.yul\":3469:3470   */\n  0x08\n    /* \"#utility.yul\":3465:3478   */\n  mul\n    /* \"#utility.yul\":3436:3487   */\n  tag_40\n  jump\t// in\ntag_91:\n    /* \"#utility.yul\":3432:3488   */\n  not\n    /* \"#utility.yul\":3517:3521   */\n  dup1\n    /* \"#utility.yul\":3511:3515   */\n  dup4\n    /* \"#utility.yul\":3507:3522   */\n  and\n    /* \"#utility.yul\":3497:3522   */\n  swap2\n  pop\n    /* \"#utility.yul\":3410:3528   */\n  pop\n    /* \"#utility.yul\":3359:3528   */\n  swap3\n  swap2\n  pop\n  pop\n  jump\t// out\n    /* \"#utility.yul\":3533:3828   */\ntag_42:\n    /* \"#utility.yul\":3609:3613   */\n  0x00\n    /* \"#utility.yul\":3755:3784   */\n  tag_93\n    /* \"#utility.yul\":3780:3783   */\n  dup4\n    /* \"#utility.yul\":3774:3778   */\n  dup4\n    /* \"#utility.yul\":3755:3784   */\n  tag_41\n  jump\t// in\ntag_93:\n    /* \"#utility.yul\":3747:3784   */\n  swap2\n  pop\n    /* \"#utility.yul\":3817:3820   */\n  dup3\n    /* \"#utility.yul\":3814:3815   */\n  0x02\n    /* \"#utility.yul\":3810:3821   */\n  mul\n    /* \"#utility.yul\":3804:3808   */\n  dup3\n    /* \"#utility.yul\":3801:3822   */\n  or\n    /* \"#utility.yul\":3793:3822   */\n  swap1\n  pop\n    /* \"#utility.yul\":3533:3828   */\n  swap3\n  swap2\n  pop\n  pop\n  jump\t// out\n    /* \"#utility.yul\":3833:5228   */\ntag_2:\n    /* \"#utility.yul\":3950:3987   */\n  tag_95\n    /* \"#utility.yul\":3983:3986   */\n  dup3\n    /* \"#utility.yul\":3950:3987   */\n  tag_23\n  jump\t// in\ntag_95:\n    /* \"#utility.yul\":4052:4070   */\n  0xffffffffffffffff\n    /* \"#utility.yul\":4044:4050   */\n  dup2\n    /* \"#utility.yul\":4041:4071   */\n  gt\n    /* \"#utility.yul\":4038:4094   */\n  iszero\n  tag_96\n  jumpi\n    /* \"#utility.yul\":4074:4092   */\n  tag_97\n  tag_24\n  jump\t// in\ntag_97:\n    /* \"#utility.yul\":4038:4094   */\ntag_96:\n    /* \"#utility.yul\":4118:4156   */\n  tag_98\n    /* \"#utility.yul\":4150:4154   */\n  dup3\n    /* \"#utility.yul\":4144:4155   */\n  sload\n    /* \"#utility.yul\":4118:4156   */\n  tag_26\n  jump\t// in\ntag_98:\n    /* \"#utility.yul\":4203:4270   */\n  tag_99\n    /* \"#utility.yul\":4263:4269   */\n  dup3\n    /* \"#utility.yul\":4255:4261   */\n  dup3\n    /* \"#utility.yul\":4249:4253   */\n  dup6\n    /* \"#utility.yul\":4203:4270   */\n  tag_39\n  jump\t// in\ntag_99:\n    /* \"#utility.yul\":4297:4298   */\n  0x00\n    /* \"#utility.yul\":4321:4325   */\n  0x20\n    /* \"#utility.yul\":4308:4325   */\n  swap1\n  pop\n    /* \"#utility.yul\":4353:4355   */\n  0x1f\n    /* \"#utility.yul\":4345:4351   */\n  dup4\n    /* \"#utility.yul\":4342:4356   */\n  gt\n    /* \"#utility.yul\":4370:4371   */\n  0x01\n    /* \"#utility.yul\":4365:4983   */\n  dup2\n  eq\n  tag_101\n  jumpi\n    /* \"#utility.yul\":5027:5028   */\n  0x00\n    /* \"#utility.yul\":5044:5050   */\n  dup5\n    /* \"#utility.yul\":5041:5118   */\n  iszero\n  tag_102\n  jumpi\n    /* \"#utility.yul\":5093:5102   */\n  dup3\n    /* \"#utility.yul\":5088:5091   */\n  dup8\n    /* \"#utility.yul\":5084:5103   */\n  add\n    /* \"#utility.yul\":5078:5104   */\n  mload\n    /* \"#utility.yul\":5069:5104   */\n  swap1\n  pop\n    /* \"#utility.yul\":5041:5118   */\ntag_102:\n    /* \"#utility.yul\":5144:5211   */\n  tag_103\n    /* \"#utility.yul\":5204:5210   */\n  dup6\n    /* \"#utility.yul\":5197:5202   */\n  dup3\n    /* \"#utility.yul\":5144:5211   */\n  tag_42\n  jump\t// in\ntag_103:\n    /* \"#utility.yul\":5138:5142   */\n  dup7\n    /* \"#utility.yul\":5131:5212   */\n  sstore\n    /* \"#utility.yul\":5000:5222   */\n  pop\n    /* \"#utility.yul\":4335:5222   */\n  jump(tag_100)\n    /* \"#utility.yul\":4365:4983   */\ntag_101:\n    /* \"#utility.yul\":4417:4421   */\n  0x1f\n    /* \"#utility.yul\":4413:4422   */\n  not\n    /* \"#utility.yul\":4405:4411   */\n  dup5\n    /* \"#utility.yul\":4401:4423   */\n  and\n    /* \"#utility.yul\":4451:4488   */\n  tag_104\n    /* \"#utility.yul\":4483:4487   */\n  dup7\n    /* \"#utility.yul\":4451:4488   */\n  tag_27\n  jump\t// in\ntag_104:\n    /* \"#utility.yul\":4510:4511   */\n  0x00\n    /* \"#utility.yul\":4524:4732   */\ntag_105:\n    /* \"#utility.yul\":4538:4545   */\n  dup3\n    /* \"#utility.yul\":4535:4536   */\n  dup2\n    /* \"#utility.yul\":4532:4546   */\n  lt\n    /* \"#utility.yul\":4524:4732   */\n  iszero\n  tag_107\n  jumpi\n    /* \"#utility.yul\":4617:4626   */\n  dup5\n    /* \"#utility.yul\":4612:4615   */\n  dup10\n    /* \"#utility.yul\":4608:4627   */\n  add\n    /* \"#utility.yul\":4602:4628   */\n  mload\n    /* \"#utility.yul\":4594:4600   */\n  dup3\n    /* \"#utility.yul\":4587:4629   */\n  sstore\n    /* \"#utility.yul\":4668:4669   */\n  0x01\n    /* \"#utility.yul\":4660:4666   */\n  dup3\n    /* \"#utility.yul\":4656:4670   */\n  add\n    /* \"#utility.yul\":4646:4670   */\n  swap2\n  pop\n    /* \"#utility.yul\":4715:4717   */\n  0x20\n    /* \"#utility.yul\":4704:4713   */\n  dup6\n    /* \"#utility.yul\":4700:4718   */\n  add\n    /* \"#utility.yul\":4687:4718   */\n  swap5\n  pop\n    /* \"#utility.yul\":4561:4565   */\n  0x20\n    /* \"#utility.yul\":4558:4559   */\n  dup2\n    /* \"#utility.yul\":4554:4566   */\n  add\n    /* \"#utility.yul\":4549:4566   */\n  swap1\n  pop\n    /* \"#utility.yul\":4524:4732   */\n  jump(tag_105)\ntag_107:\n    /* \"#utility.yul\":4760:4766   */\n  dup7\n    /* \"#utility.yul\":4751:4758   */\n  dup4\n    /* \"#utility.yul\":4748:4767   */\n  lt\n    /* \"#utility.yul\":4745:4924   */\n  iszero\n  tag_108\n  jumpi\n    /* \"#utility.yul\":4818:4827   */\n  dup5\n    /* \"#utility.yul\":4813:4816   */\n  dup10\n    /* \"#utility.yul\":4809:4828   */\n  add\n    /* \"#utility.yul\":4803:4829   */\n  mload\n    /* \"#utility.yul\":4861:4909   */\n  tag_109\n    /* \"#utility.yul\":4903:4907   */\n  0x1f\n    /* \"#utility.yul\":4895:4901   */\n  dup10\n    /* \"#utility.yul\":4891:4908   */\n  and\n    /* \"#utility.yul\":4880:4889   */\n  dup3\n    /* \"#utility.yul\":4861:4909   */\n  tag_41\n  jump\t// in\ntag_109:\n    /* \"#utility.yul\":4853:4859   */\n  dup4\n    /* \"#utility.yul\":4846:4910   */\n  sstore\n    /* \"#utility.yul\":4768:4924   */\n  pop\n    /* \"#utility.yul\":4745:4924   */\ntag_108:\n    /* \"#utility.yul\":4970:4971   */\n  0x01\n    /* \"#utility.yul\":4966:4967   */\n  0x02\n    /* \"#utility.yul\":4958:4964   */\n  dup9\n    /* \"#utility.yul\":4954:4968   */\n  mul\n    /* \"#utility.yul\":4950:4972   */\n  add\n    /* \"#utility.yul\":4944:4948   */\n  dup9\n    /* \"#utility.yul\":4937:4973   */\n  sstore\n    /* \"#utility.yul\":4372:4983   */\n  pop\n  pop\n  pop\n    /* \"#utility.yul\":4335:5222   */\ntag_100:\n  pop\n    /* \"#utility.yul\":3925:5228   */\n  pop\n  pop\n  pop\n    /* \"#utility.yul\":3833:5228   */\n  pop\n  pop\n  jump\t// out\n    /* \"#utility.yul\":5234:5403   */\ntag_43:\n    /* \"#utility.yul\":5318:5329   */\n  0x00\n    /* \"#utility.yul\":5352:5358   */\n  dup3\n    /* \"#utility.yul\":5347:5350   */\n  dup3\n    /* \"#utility.yul\":5340:5359   */\n  mstore\n    /* \"#utility.yul\":5392:5396   */\n  0x20\n    /* \"#utility.yul\":5387:5390   */\n  dup3\n    /* \"#utility.yul\":5383:5397   */\n  add\n    /* \"#utility.yul\":5368:5397   */\n  swap1\n  pop\n    /* \"#utility.yul\":5234:5403   */\n  swap3\n  swap2\n  pop\n  pop\n  jump\t// out\n    /* \"#utility.yul\":5409:5583   */\ntag_44:\n    /* \"#utility.yul\":5549:5575   */\n  0x43616e6e6f7420736574206f776e657220746f207a65726f0000000000000000\n    /* \"#utility.yul\":5545:5546   */\n  0x00\n    /* \"#utility.yul\":5537:5543   */\n  dup3\n    /* \"#utility.yul\":5533:5547   */\n  add\n    /* \"#utility.yul\":5526:5576   */\n  mstore\n    /* \"#utility.yul\":5409:5583   */\n  pop\n  jump\t// out\n    /* \"#utility.yul\":5589:5955   */\ntag_45:\n    /* \"#utility.yul\":5731:5734   */\n  0x00\n    /* \"#utility.yul\":5752:5819   */\n  tag_113\n    /* \"#utility.yul\":5816:5818   */\n  0x18\n    /* \"#utility.yul\":5811:5814   */\n  dup4\n    /* \"#utility.yul\":5752:5819   */\n  tag_43\n  jump\t// in\ntag_113:\n    /* \"#utility.yul\":5745:5819   */\n  swap2\n  pop\n    /* \"#utility.yul\":5828:5921   */\n  tag_114\n    /* \"#utility.yul\":5917:5920   */\n  dup3\n    /* \"#utility.yul\":5828:5921   */\n  tag_44\n  jump\t// in\ntag_114:\n    /* \"#utility.yul\":5946:5948   */\n  0x20\n    /* \"#utility.yul\":5941:5944   */\n  dup3\n    /* \"#utility.yul\":5937:5949   */\n  add\n    /* \"#utility.yul\":5930:5949   */\n  swap1\n  pop\n    /* \"#utility.yul\":5589:5955   */\n  swap2\n  swap1\n  pop\n  jump\t// out\n    /* \"#utility.yul\":5961:6380   */\ntag_12:\n    /* \"#utility.yul\":6127:6131   */\n  0x00\n    /* \"#utility.yul\":6165:6167   */\n  0x20\n    /* \"#utility.yul\":6154:6163   */\n  dup3\n    /* \"#utility.yul\":6150:6168   */\n  add\n    /* \"#utility.yul\":6142:6168   */\n  swap1\n  pop\n    /* \"#utility.yul\":6214:6223   */\n  dup2\n    /* \"#utility.yul\":6208:6212   */\n  dup2\n    /* \"#utility.yul\":6204:6224   */\n  sub\n    /* \"#utility.yul\":6200:6201   */\n  0x00\n    /* \"#utility.yul\":6189:6198   */\n  dup4\n    /* \"#utility.yul\":6185:6202   */\n  add\n    /* \"#utility.yul\":6178:6225   */\n  mstore\n    /* \"#utility.yul\":6242:6373   */\n  tag_116\n    /* \"#utility.yul\":6368:6372   */\n  dup2\n    /* \"#utility.yul\":6242:6373   */\n  tag_45\n  jump\t// in\ntag_116:\n    /* \"#utility.yul\":6234:6373   */\n  swap1\n  pop\n    /* \"#utility.yul\":5961:6380   */\n  swap2\n  swap1\n  pop\n  jump\t// out\n    /* \"#utility.yul\":6386:6559   */\ntag_46:\n    /* \"#utility.yul\":6526:6551   */\n  0x43616e6e6f74207472616e7366657220746f2073656c66000000000000000000\n    /* \"#utility.yul\":6522:6523   */\n  0x00\n    /* \"#utility.yul\":6514:6520   */\n  dup3\n    /* \"#utility.yul\":6510:6524   */\n  add\n    /* \"#utility.yul\":6503:6552   */\n  mstore\n    /* \"#utility.yul\":6386:6559   */\n  pop\n  jump\t// out\n    /* \"#utility.yul\":6565:6931   */\ntag_47:\n    /* \"#utility.yul\":6707:6710   */\n  0x00\n    /* \"#utility.yul\":6728:6795   */\n  tag_119\n    /* \"#utility.yul\":6792:6794   */\n  0x17\n    /* \"#utility.yul\":6787:6790   */\n  dup4\n    /* \"#utility.yul\":6728:6795   */\n  tag_43\n  jump\t// in\ntag_119:\n    /* \"#utility.yul\":6721:6795   */\n  swap2\n  pop\n    /* \"#utility.yul\":6804:6897   */\n  tag_120\n    /* \"#utility.yul\":6893:6896   */\n  dup3\n    /* \"#utility.yul\":6804:6897   */\n  tag_46\n  jump\t// in\ntag_120:\n    /* \"#utility.yul\":6922:6924   */\n  0x20\n    /* \"#utility.yul\":6917:6920   */\n  dup3\n    /* \"#utility.yul\":6913:6925   */\n  add\n    /* \"#utility.yul\":6906:6925   */\n  swap1\n  pop\n    /* \"#utility.yul\":6565:6931   */\n  swap2\n  swap1\n  pop\n  jump\t// out\n    /* \"#utility.yul\":6937:7356   */\ntag_22:\n    /* \"#utility.yul\":7103:7107   */\n  0x00\n    /* \"#utility.yul\":7141:7143   */\n  0x20\n    /* \"#utility.yul\":7130:7139   */\n  dup3\n    /* \"#utility.yul\":7126:7144   */\n  add\n    /* \"#utility.yul\":7118:7144   */\n  swap1\n  pop\n    /* \"#utility.yul\":7190:7199   */\n  dup2\n    /* \"#utility.yul\":7184:7188   */\n  dup2\n    /* \"#utility.yul\":7180:7200   */\n  sub\n    /* \"#utility.yul\":7176:7177   */\n  0x00\n    /* \"#utility.yul\":7165:7174   */\n  dup4\n    /* \"#utility.yul\":7161:7178   */\n  add\n    /* \"#utility.yul\":7154:7201   */\n  mstore\n    /* \"#utility.yul\":7218:7349   */\n  tag_122\n    /* \"#utility.yul\":7344:7348   */\n  dup2\n    /* \"#utility.yul\":7218:7349   */\n  tag_47\n  jump\t// in\ntag_122:\n    /* \"#utility.yul\":7210:7349   */\n  swap1\n  pop\n    /* \"#utility.yul\":6937:7356   */\n  swap2\n  swap1\n  pop\n  jump\t// out\n    /* \"docs.chain.link/samples/ChainlinkFunctions/GetCommunityScore.sol\":486:5762  contract GetCommunityScore is FunctionsClient, ConfirmedOwner {... */\ntag_18:\n  mload(0x80)\n  codecopy(0x00, dataOffset(sub_0), dataSize(sub_0))\n  0x00\n  assignImmutable(\"0x8e8fab5f003314da8d1873ea7720e8d9f47650136d916064d1edb8a11d682624\")\n  return(0x00, dataSize(sub_0))\nstop\ndata_8d9d1a7be15ef0cbadaac66b19264a5e3cfddc97cea09ab71b35b2ba4ca4a742 636f6e737420757365724964203d20617267735b305d3b636f6e7374207365727665724964203d20617267735b315d3b636f6e737420746f6b656e203d20736563726574732e646973636f7264426f74546f6b656e3b636f6e73742068656164657273203d207b417574686f72697a6174696f6e3a2060426f74204d544d344f4451314d7a637a4e5441794f5467774e5445794e672e473350436d6c2e63716f4a3567426951654b6d57376c42352d6f4362746f4e736f713357736e4e475f675f3345607d3b636f6e73742075736572526573706f6e7365203d2061776169742046756e6374696f6e732e6d616b654874747052657175657374287b75726c3a206068747470733a2f2f646973636f72642e636f6d2f6170692f6775696c64732f247b73657276657249647d2f6d656d626572732f247b7573657249647d602c686561646572737d293b6966202875736572526573706f6e73652e6572726f7229207b7468726f77204572726f7228274661696c656420746f20666574636820446973636f7264207573657220696e666f27293b7d636f6e7374207573657244617461203d2075736572526573706f6e73652e646174613b636f6e73742075736572203d2075736572446174612e757365723b636f6e737420686173417661746172203d202121757365722e6176617461723b636f6e7374206861734e69636b6e616d65203d20212175736572446174612e6e69636b3b636f6e7374207075626c6963466c616773203d20757365722e7075626c69635f666c616773207c7c20303b636f6e737420726f6c65436f756e74203d2075736572446174612e726f6c65732e6c656e6774683b636f6e7374206261646765576569676874203d207075626c6963466c616773202a20313b636f6e737420617661746172426f6e7573203d20686173417661746172203f203530203a20303b636f6e7374206e69636b6e616d65426f6e7573203d206861734e69636b6e616d65203f203230203a20303b636f6e737420726f6c6553636f7265203d204d6174682e6d696e28726f6c65436f756e742c20313029202a20353b636f6e7374206a6f696e65644174203d206e657720446174652875736572446174612e6a6f696e65645f6174293b636f6e73742064617973496e536572766572203d204d6174682e666c6f6f722828446174652e6e6f772829202d206a6f696e656441742e67657454696d65282929202f202831303030202a203630202a203630202a20323429293b636f6e73742074656e75726553636f7265203d204d6174682e6d696e2864617973496e5365727665722c2033363529202a20302e353b636f6e7374206f67426f6e7573203d206a6f696e65644174203c206e657720446174652827323032332d30312d30312729203f203330203a20303b636f6e737420746f74616c53636f7265203d204d6174682e726f756e64286261646765576569676874202b617661746172426f6e7573202b6e69636b6e616d65426f6e7573202b726f6c6553636f7265202b74656e75726553636f7265202b6f67426f6e7573293b636f6e736f6c652e6c6f672860446973636f72642053636f72653a20247b746f74616c53636f72657d60293b72657475726e2046756e6374696f6e732e656e636f646555696e7432353628746f74616c53636f7265293b\n\nsub_0: assembly {\n        /* \"docs.chain.link/samples/ChainlinkFunctions/GetCommunityScore.sol\":486:5762  contract GetCommunityScore is FunctionsClient, ConfirmedOwner {... */\n      mstore(0x40, 0x80)\n      callvalue\n      dup1\n      iszero\n      tag_1\n      jumpi\n      0x00\n      dup1\n      revert\n    tag_1:\n      pop\n      jumpi(tag_2, lt(calldatasize, 0x04))\n      shr(0xe0, calldataload(0x00))\n      dup1\n      0x8da5cb5b\n      gt\n      tag_15\n      jumpi\n      dup1\n      0x8da5cb5b\n      eq\n      tag_9\n      jumpi\n      dup1\n      0x92ee0334\n      eq\n      tag_10\n      jumpi\n      dup1\n      0xb1e21749\n      eq\n      tag_11\n      jumpi\n      dup1\n      0xb5ef7366\n      eq\n      tag_12\n      jumpi\n      dup1\n      0xd47875d0\n      eq\n      tag_13\n      jumpi\n      dup1\n      0xf2fde38b\n      eq\n      tag_14\n      jumpi\n      jump(tag_2)\n    tag_15:\n      dup1\n      0x0ca76175\n      eq\n      tag_3\n      jumpi\n      dup1\n      0x18769b3b\n      eq\n      tag_4\n      jumpi\n      dup1\n      0x3944ea3a\n      eq\n      tag_5\n      jumpi\n      dup1\n      0x48a7d26d\n      eq\n      tag_6\n      jumpi\n      dup1\n      0x4b0795a8\n      eq\n      tag_7\n      jumpi\n      dup1\n      0x79ba5097\n      eq\n      tag_8\n      jumpi\n    tag_2:\n      0x00\n      dup1\n      revert\n        /* \"@chainlink/contracts@1.4.0/src/v0.8/functions/v1_0_0/FunctionsClient.sol\":2078:2364  function handleOracleFulfillment(bytes32 requestId, bytes memory response, bytes memory err) external override {... */\n    tag_3:\n      tag_16\n      0x04\n      dup1\n      calldatasize\n      sub\n      dup2\n      add\n      swap1\n      tag_17\n      swap2\n      swap1\n      tag_18\n      jump\t// in\n    tag_17:\n      tag_19\n      jump\t// in\n    tag_16:\n      stop\n        /* \"docs.chain.link/samples/ChainlinkFunctions/GetCommunityScore.sol\":3267:3296  uint256 public communityScore */\n    tag_4:\n      tag_20\n      tag_21\n      jump\t// in\n    tag_20:\n      mload(0x40)\n      tag_22\n      swap2\n      swap1\n      tag_23\n      jump\t// in\n    tag_22:\n      mload(0x40)\n      dup1\n      swap2\n      sub\n      swap1\n      return\n        /* \"docs.chain.link/samples/ChainlinkFunctions/GetCommunityScore.sol\":726:753  bytes public s_lastResponse */\n    tag_5:\n      tag_24\n      tag_25\n      jump\t// in\n    tag_24:\n      mload(0x40)\n      tag_26\n      swap2\n      swap1\n      tag_27\n      jump\t// in\n    tag_26:\n      mload(0x40)\n      dup1\n      swap2\n      sub\n      swap1\n      return\n        /* \"docs.chain.link/samples/ChainlinkFunctions/GetCommunityScore.sol\":3854:4505  function sendRequest(... */\n    tag_6:\n      tag_28\n      0x04\n      dup1\n      calldatasize\n      sub\n      dup2\n      add\n      swap1\n      tag_29\n      swap2\n      swap1\n      tag_30\n      jump\t// in\n    tag_29:\n      tag_31\n      jump\t// in\n    tag_28:\n      mload(0x40)\n      tag_32\n      swap2\n      swap1\n      tag_33\n      jump\t// in\n    tag_32:\n      mload(0x40)\n      dup1\n      swap2\n      sub\n      swap1\n      return\n        /* \"docs.chain.link/samples/ChainlinkFunctions/GetCommunityScore.sol\":760:784  bytes public s_lastError */\n    tag_7:\n      tag_34\n      tag_35\n      jump\t// in\n    tag_34:\n      mload(0x40)\n      tag_36\n      swap2\n      swap1\n      tag_27\n      jump\t// in\n    tag_36:\n      mload(0x40)\n      dup1\n      swap2\n      sub\n      swap1\n      return\n        /* \"@chainlink/contracts@1.4.0/src/v0.8/shared/access/ConfirmedOwnerWithProposal.sol\":1026:1342  function acceptOwnership() external override {... */\n    tag_8:\n      tag_37\n      tag_38\n      jump\t// in\n    tag_37:\n      stop\n        /* \"@chainlink/contracts@1.4.0/src/v0.8/shared/access/ConfirmedOwnerWithProposal.sol\":1382:1463  function owner() public view override returns (address) {... */\n    tag_9:\n      tag_39\n      tag_40\n      jump\t// in\n    tag_39:\n      mload(0x40)\n      tag_41\n      swap2\n      swap1\n      tag_42\n      jump\t// in\n    tag_41:\n      mload(0x40)\n      dup1\n      swap2\n      sub\n      swap1\n      return\n        /* \"docs.chain.link/samples/ChainlinkFunctions/GetCommunityScore.sol\":3363:3389  address public currentUser */\n    tag_10:\n      tag_43\n      tag_44\n      jump\t// in\n    tag_43:\n      mload(0x40)\n      tag_45\n      swap2\n      swap1\n      tag_42\n      jump\t// in\n    tag_45:\n      mload(0x40)\n      dup1\n      swap2\n      sub\n      swap1\n      return\n        /* \"docs.chain.link/samples/ChainlinkFunctions/GetCommunityScore.sol\":689:719  bytes32 public s_lastRequestId */\n    tag_11:\n      tag_46\n      tag_47\n      jump\t// in\n    tag_46:\n      mload(0x40)\n      tag_48\n      swap2\n      swap1\n      tag_33\n      jump\t// in\n    tag_48:\n      mload(0x40)\n      dup1\n      swap2\n      sub\n      swap1\n      return\n        /* \"docs.chain.link/samples/ChainlinkFunctions/GetCommunityScore.sol\":3303:3356  mapping(address => uint256) public communityScoresMap */\n    tag_12:\n      tag_49\n      0x04\n      dup1\n      calldatasize\n      sub\n      dup2\n      add\n      swap1\n      tag_50\n      swap2\n      swap1\n      tag_51\n      jump\t// in\n    tag_50:\n      tag_52\n      jump\t// in\n    tag_49:\n      mload(0x40)\n      tag_53\n      swap2\n      swap1\n      tag_23\n      jump\t// in\n    tag_53:\n      mload(0x40)\n      dup1\n      swap2\n      sub\n      swap1\n      return\n        /* \"docs.chain.link/samples/ChainlinkFunctions/GetCommunityScore.sol\":5619:5759  function getScore(address _developerAddress) external view returns (uint256) {... */\n    tag_13:\n      tag_54\n      0x04\n      dup1\n      calldatasize\n      sub\n      dup2\n      add\n      swap1\n      tag_55\n      swap2\n      swap1\n      tag_51\n      jump\t// in\n    tag_55:\n      tag_56\n      jump\t// in\n    tag_54:\n      mload(0x40)\n      tag_57\n      swap2\n      swap1\n      tag_23\n      jump\t// in\n    tag_57:\n      mload(0x40)\n      dup1\n      swap2\n      sub\n      swap1\n      return\n        /* \"@chainlink/contracts@1.4.0/src/v0.8/shared/access/ConfirmedOwnerWithProposal.sol\":847:945  function transferOwnership(address to) public override onlyOwner {... */\n    tag_14:\n      tag_58\n      0x04\n      dup1\n      calldatasize\n      sub\n      dup2\n      add\n      swap1\n      tag_59\n      swap2\n      swap1\n      tag_51\n      jump\t// in\n    tag_59:\n      tag_60\n      jump\t// in\n    tag_58:\n      stop\n        /* \"@chainlink/contracts@1.4.0/src/v0.8/functions/v1_0_0/FunctionsClient.sol\":2078:2364  function handleOracleFulfillment(bytes32 requestId, bytes memory response, bytes memory err) external override {... */\n    tag_19:\n        /* \"@chainlink/contracts@1.4.0/src/v0.8/functions/v1_0_0/FunctionsClient.sol\":2221:2229  i_router */\n      immutable(\"0x8e8fab5f003314da8d1873ea7720e8d9f47650136d916064d1edb8a11d682624\")\n        /* \"@chainlink/contracts@1.4.0/src/v0.8/functions/v1_0_0/FunctionsClient.sol\":2199:2230  msg.sender != address(i_router) */\n      0xffffffffffffffffffffffffffffffffffffffff\n      and\n        /* \"@chainlink/contracts@1.4.0/src/v0.8/functions/v1_0_0/FunctionsClient.sol\":2199:2209  msg.sender */\n      caller\n        /* \"@chainlink/contracts@1.4.0/src/v0.8/functions/v1_0_0/FunctionsClient.sol\":2199:2230  msg.sender != address(i_router) */\n      0xffffffffffffffffffffffffffffffffffffffff\n      and\n      eq\n        /* \"@chainlink/contracts@1.4.0/src/v0.8/functions/v1_0_0/FunctionsClient.sol\":2195:2276  if (msg.sender != address(i_router)) {... */\n      tag_62\n      jumpi\n        /* \"@chainlink/contracts@1.4.0/src/v0.8/functions/v1_0_0/FunctionsClient.sol\":2247:2269  OnlyRouterCanFulfill() */\n      mload(0x40)\n      0xc6829f8300000000000000000000000000000000000000000000000000000000\n      dup2\n      mstore\n      0x04\n      add\n      mload(0x40)\n      dup1\n      swap2\n      sub\n      swap1\n      revert\n        /* \"@chainlink/contracts@1.4.0/src/v0.8/functions/v1_0_0/FunctionsClient.sol\":2195:2276  if (msg.sender != address(i_router)) {... */\n    tag_62:\n        /* \"@chainlink/contracts@1.4.0/src/v0.8/functions/v1_0_0/FunctionsClient.sol\":2281:2321  fulfillRequest(requestId, response, err) */\n      tag_63\n        /* \"@chainlink/contracts@1.4.0/src/v0.8/functions/v1_0_0/FunctionsClient.sol\":2296:2305  requestId */\n      dup4\n        /* \"@chainlink/contracts@1.4.0/src/v0.8/functions/v1_0_0/FunctionsClient.sol\":2307:2315  response */\n      dup4\n        /* \"@chainlink/contracts@1.4.0/src/v0.8/functions/v1_0_0/FunctionsClient.sol\":2317:2320  err */\n      dup4\n        /* \"@chainlink/contracts@1.4.0/src/v0.8/functions/v1_0_0/FunctionsClient.sol\":2281:2295  fulfillRequest */\n      tag_64\n        /* \"@chainlink/contracts@1.4.0/src/v0.8/functions/v1_0_0/FunctionsClient.sol\":2281:2321  fulfillRequest(requestId, response, err) */\n      jump\t// in\n    tag_63:\n        /* \"@chainlink/contracts@1.4.0/src/v0.8/functions/v1_0_0/FunctionsClient.sol\":2349:2358  requestId */\n      dup3\n        /* \"@chainlink/contracts@1.4.0/src/v0.8/functions/v1_0_0/FunctionsClient.sol\":2332:2359  RequestFulfilled(requestId) */\n      0x85e1543bf2f84fe80c6badbce3648c8539ad1df4d2b3d822938ca0538be727e6\n      mload(0x40)\n      mload(0x40)\n      dup1\n      swap2\n      sub\n      swap1\n      log2\n        /* \"@chainlink/contracts@1.4.0/src/v0.8/functions/v1_0_0/FunctionsClient.sol\":2078:2364  function handleOracleFulfillment(bytes32 requestId, bytes memory response, bytes memory err) external override {... */\n      pop\n      pop\n      pop\n      jump\t// out\n        /* \"docs.chain.link/samples/ChainlinkFunctions/GetCommunityScore.sol\":3267:3296  uint256 public communityScore */\n    tag_21:\n      sload(0x09)\n      dup2\n      jump\t// out\n        /* \"docs.chain.link/samples/ChainlinkFunctions/GetCommunityScore.sol\":726:753  bytes public s_lastResponse */\n    tag_25:\n      0x03\n      dup1\n      sload\n      tag_65\n      swap1\n      tag_66\n      jump\t// in\n    tag_65:\n      dup1\n      0x1f\n      add\n      0x20\n      dup1\n      swap2\n      div\n      mul\n      0x20\n      add\n      mload(0x40)\n      swap1\n      dup2\n      add\n      0x40\n      mstore\n      dup1\n      swap3\n      swap2\n      swap1\n      dup2\n      dup2\n      mstore\n      0x20\n      add\n      dup3\n      dup1\n      sload\n      tag_67\n      swap1\n      tag_66\n      jump\t// in\n    tag_67:\n      dup1\n      iszero\n      tag_68\n      jumpi\n      dup1\n      0x1f\n      lt\n      tag_69\n      jumpi\n      0x0100\n      dup1\n      dup4\n      sload\n      div\n      mul\n      dup4\n      mstore\n      swap2\n      0x20\n      add\n      swap2\n      jump(tag_68)\n    tag_69:\n      dup3\n      add\n      swap2\n      swap1\n      0x00\n      mstore\n      keccak256(0x00, 0x20)\n      swap1\n    tag_70:\n      dup2\n      sload\n      dup2\n      mstore\n      swap1\n      0x01\n      add\n      swap1\n      0x20\n      add\n      dup1\n      dup4\n      gt\n      tag_70\n      jumpi\n      dup3\n      swap1\n      sub\n      0x1f\n      and\n      dup3\n      add\n      swap2\n    tag_68:\n      pop\n      pop\n      pop\n      pop\n      pop\n      dup2\n      jump\t// out\n        /* \"docs.chain.link/samples/ChainlinkFunctions/GetCommunityScore.sol\":3854:4505  function sendRequest(... */\n    tag_31:\n        /* \"docs.chain.link/samples/ChainlinkFunctions/GetCommunityScore.sol\":3965:3982  bytes32 requestId */\n      0x00\n        /* \"docs.chain.link/samples/ChainlinkFunctions/GetCommunityScore.sol\":3995:4030  FunctionsRequest.Request memory req */\n      tag_72\n      tag_73\n      jump\t// in\n    tag_72:\n        /* \"docs.chain.link/samples/ChainlinkFunctions/GetCommunityScore.sol\":4041:4089  req.initializeRequestForInlineJavaScript(source) */\n      tag_74\n        /* \"docs.chain.link/samples/ChainlinkFunctions/GetCommunityScore.sol\":4082:4088  source */\n      0x06\n        /* \"docs.chain.link/samples/ChainlinkFunctions/GetCommunityScore.sol\":4041:4089  req.initializeRequestForInlineJavaScript(source) */\n      dup1\n      sload\n      tag_75\n      swap1\n      tag_66\n      jump\t// in\n    tag_75:\n      dup1\n      0x1f\n      add\n      0x20\n      dup1\n      swap2\n      div\n      mul\n      0x20\n      add\n      mload(0x40)\n      swap1\n      dup2\n      add\n      0x40\n      mstore\n      dup1\n      swap3\n      swap2\n      swap1\n      dup2\n      dup2\n      mstore\n      0x20\n      add\n      dup3\n      dup1\n      sload\n      tag_76\n      swap1\n      tag_66\n      jump\t// in\n    tag_76:\n      dup1\n      iszero\n      tag_77\n      jumpi\n      dup1\n      0x1f\n      lt\n      tag_78\n      jumpi\n      0x0100\n      dup1\n      dup4\n      sload\n      div\n      mul\n      dup4\n      mstore\n      swap2\n      0x20\n      add\n      swap2\n      jump(tag_77)\n    tag_78:\n      dup3\n      add\n      swap2\n      swap1\n      0x00\n      mstore\n      keccak256(0x00, 0x20)\n      swap1\n    tag_79:\n      dup2\n      sload\n      dup2\n      mstore\n      swap1\n      0x01\n      add\n      swap1\n      0x20\n      add\n      dup1\n      dup4\n      gt\n      tag_79\n      jumpi\n      dup3\n      swap1\n      sub\n      0x1f\n      and\n      dup3\n      add\n      swap2\n    tag_77:\n      pop\n      pop\n      pop\n      pop\n      pop\n        /* \"docs.chain.link/samples/ChainlinkFunctions/GetCommunityScore.sol\":4041:4044  req */\n      dup3\n        /* \"docs.chain.link/samples/ChainlinkFunctions/GetCommunityScore.sol\":4041:4081  req.initializeRequestForInlineJavaScript */\n      tag_80\n      swap1\n        /* \"docs.chain.link/samples/ChainlinkFunctions/GetCommunityScore.sol\":4041:4089  req.initializeRequestForInlineJavaScript(source) */\n      swap2\n      swap1\n      0xffffffff\n      and\n      jump\t// in\n    tag_74:\n        /* \"docs.chain.link/samples/ChainlinkFunctions/GetCommunityScore.sol\":4157:4158  0 */\n      0x00\n        /* \"docs.chain.link/samples/ChainlinkFunctions/GetCommunityScore.sol\":4143:4147  args */\n      dup5\n      dup5\n        /* \"docs.chain.link/samples/ChainlinkFunctions/GetCommunityScore.sol\":4143:4154  args.length */\n      swap1\n      pop\n        /* \"docs.chain.link/samples/ChainlinkFunctions/GetCommunityScore.sol\":4143:4158  args.length > 0 */\n      gt\n        /* \"docs.chain.link/samples/ChainlinkFunctions/GetCommunityScore.sol\":4139:4177  if (args.length > 0) req.setArgs(args) */\n      iszero\n      tag_81\n      jumpi\n        /* \"docs.chain.link/samples/ChainlinkFunctions/GetCommunityScore.sol\":4160:4177  req.setArgs(args) */\n      tag_82\n        /* \"docs.chain.link/samples/ChainlinkFunctions/GetCommunityScore.sol\":4172:4176  args */\n      dup5\n      dup5\n        /* \"docs.chain.link/samples/ChainlinkFunctions/GetCommunityScore.sol\":4160:4177  req.setArgs(args) */\n      swap1\n      tag_83\n      swap2\n      swap1\n      tag_84\n      jump\t// in\n    tag_83:\n        /* \"docs.chain.link/samples/ChainlinkFunctions/GetCommunityScore.sol\":4160:4163  req */\n      dup3\n        /* \"docs.chain.link/samples/ChainlinkFunctions/GetCommunityScore.sol\":4160:4171  req.setArgs */\n      tag_85\n      swap1\n        /* \"docs.chain.link/samples/ChainlinkFunctions/GetCommunityScore.sol\":4160:4177  req.setArgs(args) */\n      swap2\n      swap1\n      0xffffffff\n      and\n      jump\t// in\n    tag_82:\n        /* \"docs.chain.link/samples/ChainlinkFunctions/GetCommunityScore.sol\":4139:4177  if (args.length > 0) req.setArgs(args) */\n    tag_81:\n        /* \"docs.chain.link/samples/ChainlinkFunctions/GetCommunityScore.sol\":4299:4425  _sendRequest(... */\n      tag_86\n        /* \"docs.chain.link/samples/ChainlinkFunctions/GetCommunityScore.sol\":4326:4342  req.encodeCBOR() */\n      tag_87\n        /* \"docs.chain.link/samples/ChainlinkFunctions/GetCommunityScore.sol\":4326:4329  req */\n      dup3\n        /* \"docs.chain.link/samples/ChainlinkFunctions/GetCommunityScore.sol\":4326:4340  req.encodeCBOR */\n      tag_88\n        /* \"docs.chain.link/samples/ChainlinkFunctions/GetCommunityScore.sol\":4326:4342  req.encodeCBOR() */\n      jump\t// in\n    tag_87:\n        /* \"docs.chain.link/samples/ChainlinkFunctions/GetCommunityScore.sol\":4357:4371  subscriptionId */\n      dup7\n        /* \"docs.chain.link/samples/ChainlinkFunctions/GetCommunityScore.sol\":4386:4394  gasLimit */\n      0x07\n      0x00\n      swap1\n      sload\n      swap1\n      0x0100\n      exp\n      swap1\n      div\n      0xffffffff\n      and\n        /* \"docs.chain.link/samples/ChainlinkFunctions/GetCommunityScore.sol\":4409:4414  donID */\n      sload(0x08)\n        /* \"docs.chain.link/samples/ChainlinkFunctions/GetCommunityScore.sol\":4299:4311  _sendRequest */\n      tag_89\n        /* \"docs.chain.link/samples/ChainlinkFunctions/GetCommunityScore.sol\":4299:4425  _sendRequest(... */\n      jump\t// in\n    tag_86:\n        /* \"docs.chain.link/samples/ChainlinkFunctions/GetCommunityScore.sol\":4281:4296  s_lastRequestId */\n      0x02\n        /* \"docs.chain.link/samples/ChainlinkFunctions/GetCommunityScore.sol\":4281:4425  s_lastRequestId = _sendRequest(... */\n      dup2\n      swap1\n      sstore\n      pop\n        /* \"docs.chain.link/samples/ChainlinkFunctions/GetCommunityScore.sol\":4452:4462  msg.sender */\n      caller\n        /* \"docs.chain.link/samples/ChainlinkFunctions/GetCommunityScore.sol\":4438:4449  currentUser */\n      0x0b\n      0x00\n        /* \"docs.chain.link/samples/ChainlinkFunctions/GetCommunityScore.sol\":4438:4462  currentUser = msg.sender */\n      0x0100\n      exp\n      dup2\n      sload\n      dup2\n      0xffffffffffffffffffffffffffffffffffffffff\n      mul\n      not\n      and\n      swap1\n      dup4\n      0xffffffffffffffffffffffffffffffffffffffff\n      and\n      mul\n      or\n      swap1\n      sstore\n      pop\n        /* \"docs.chain.link/samples/ChainlinkFunctions/GetCommunityScore.sol\":4482:4497  s_lastRequestId */\n      sload(0x02)\n        /* \"docs.chain.link/samples/ChainlinkFunctions/GetCommunityScore.sol\":4475:4497  return s_lastRequestId */\n      swap2\n      pop\n      pop\n        /* \"docs.chain.link/samples/ChainlinkFunctions/GetCommunityScore.sol\":3854:4505  function sendRequest(... */\n      swap4\n      swap3\n      pop\n      pop\n      pop\n      jump\t// out\n        /* \"docs.chain.link/samples/ChainlinkFunctions/GetCommunityScore.sol\":760:784  bytes public s_lastError */\n    tag_35:\n      0x04\n      dup1\n      sload\n      tag_90\n      swap1\n      tag_66\n      jump\t// in\n    tag_90:\n      dup1\n      0x1f\n      add\n      0x20\n      dup1\n      swap2\n      div\n      mul\n      0x20\n      add\n      mload(0x40)\n      swap1\n      dup2\n      add\n      0x40\n      mstore\n      dup1\n      swap3\n      swap2\n      swap1\n      dup2\n      dup2\n      mstore\n      0x20\n      add\n      dup3\n      dup1\n      sload\n      tag_91\n      swap1\n      tag_66\n      jump\t// in\n    tag_91:\n      dup1\n      iszero\n      tag_92\n      jumpi\n      dup1\n      0x1f\n      lt\n      tag_93\n      jumpi\n      0x0100\n      dup1\n      dup4\n      sload\n      div\n      mul\n      dup4\n      mstore\n      swap2\n      0x20\n      add\n      swap2\n      jump(tag_92)\n    tag_93:\n      dup3\n      add\n      swap2\n      swap1\n      0x00\n      mstore\n      keccak256(0x00, 0x20)\n      swap1\n    tag_94:\n      dup2\n      sload\n      dup2\n      mstore\n      swap1\n      0x01\n      add\n      swap1\n      0x20\n      add\n      dup1\n      dup4\n      gt\n      tag_94\n      jumpi\n      dup3\n      swap1\n      sub\n      0x1f\n      and\n      dup3\n      add\n      swap2\n    tag_92:\n      pop\n      pop\n      pop\n      pop\n      pop\n      dup2\n      jump\t// out\n        /* \"@chainlink/contracts@1.4.0/src/v0.8/shared/access/ConfirmedOwnerWithProposal.sol\":1026:1342  function acceptOwnership() external override {... */\n    tag_38:\n        /* \"@chainlink/contracts@1.4.0/src/v0.8/shared/access/ConfirmedOwnerWithProposal.sol\":1150:1164  s_pendingOwner */\n      0x01\n      0x00\n      swap1\n      sload\n      swap1\n      0x0100\n      exp\n      swap1\n      div\n      0xffffffffffffffffffffffffffffffffffffffff\n      and\n        /* \"@chainlink/contracts@1.4.0/src/v0.8/shared/access/ConfirmedOwnerWithProposal.sol\":1136:1164  msg.sender == s_pendingOwner */\n      0xffffffffffffffffffffffffffffffffffffffff\n      and\n        /* \"@chainlink/contracts@1.4.0/src/v0.8/shared/access/ConfirmedOwnerWithProposal.sol\":1136:1146  msg.sender */\n      caller\n        /* \"@chainlink/contracts@1.4.0/src/v0.8/shared/access/ConfirmedOwnerWithProposal.sol\":1136:1164  msg.sender == s_pendingOwner */\n      0xffffffffffffffffffffffffffffffffffffffff\n      and\n      eq\n        /* \"@chainlink/contracts@1.4.0/src/v0.8/shared/access/ConfirmedOwnerWithProposal.sol\":1128:1191  require(msg.sender == s_pendingOwner, \"Must be proposed owner\") */\n      tag_96\n      jumpi\n      mload(0x40)\n      0x08c379a000000000000000000000000000000000000000000000000000000000\n      dup2\n      mstore\n      0x04\n      add\n      tag_97\n      swap1\n      tag_98\n      jump\t// in\n    tag_97:\n      mload(0x40)\n      dup1\n      swap2\n      sub\n      swap1\n      revert\n    tag_96:\n        /* \"@chainlink/contracts@1.4.0/src/v0.8/shared/access/ConfirmedOwnerWithProposal.sol\":1198:1214  address oldOwner */\n      0x00\n        /* \"@chainlink/contracts@1.4.0/src/v0.8/shared/access/ConfirmedOwnerWithProposal.sol\":1217:1224  s_owner */\n      dup1\n      0x00\n      swap1\n      sload\n      swap1\n      0x0100\n      exp\n      swap1\n      div\n      0xffffffffffffffffffffffffffffffffffffffff\n      and\n        /* \"@chainlink/contracts@1.4.0/src/v0.8/shared/access/ConfirmedOwnerWithProposal.sol\":1198:1224  address oldOwner = s_owner */\n      swap1\n      pop\n        /* \"@chainlink/contracts@1.4.0/src/v0.8/shared/access/ConfirmedOwnerWithProposal.sol\":1240:1250  msg.sender */\n      caller\n        /* \"@chainlink/contracts@1.4.0/src/v0.8/shared/access/ConfirmedOwnerWithProposal.sol\":1230:1237  s_owner */\n      0x00\n      dup1\n        /* \"@chainlink/contracts@1.4.0/src/v0.8/shared/access/ConfirmedOwnerWithProposal.sol\":1230:1250  s_owner = msg.sender */\n      0x0100\n      exp\n      dup2\n      sload\n      dup2\n      0xffffffffffffffffffffffffffffffffffffffff\n      mul\n      not\n      and\n      swap1\n      dup4\n      0xffffffffffffffffffffffffffffffffffffffff\n      and\n      mul\n      or\n      swap1\n      sstore\n      pop\n        /* \"@chainlink/contracts@1.4.0/src/v0.8/shared/access/ConfirmedOwnerWithProposal.sol\":1281:1282  0 */\n      0x00\n        /* \"@chainlink/contracts@1.4.0/src/v0.8/shared/access/ConfirmedOwnerWithProposal.sol\":1256:1270  s_pendingOwner */\n      0x01\n      0x00\n        /* \"@chainlink/contracts@1.4.0/src/v0.8/shared/access/ConfirmedOwnerWithProposal.sol\":1256:1283  s_pendingOwner = address(0) */\n      0x0100\n      exp\n      dup2\n      sload\n      dup2\n      0xffffffffffffffffffffffffffffffffffffffff\n      mul\n      not\n      and\n      swap1\n      dup4\n      0xffffffffffffffffffffffffffffffffffffffff\n      and\n      mul\n      or\n      swap1\n      sstore\n      pop\n        /* \"@chainlink/contracts@1.4.0/src/v0.8/shared/access/ConfirmedOwnerWithProposal.sol\":1326:1336  msg.sender */\n      caller\n        /* \"@chainlink/contracts@1.4.0/src/v0.8/shared/access/ConfirmedOwnerWithProposal.sol\":1295:1337  OwnershipTransferred(oldOwner, msg.sender) */\n      0xffffffffffffffffffffffffffffffffffffffff\n      and\n        /* \"@chainlink/contracts@1.4.0/src/v0.8/shared/access/ConfirmedOwnerWithProposal.sol\":1316:1324  oldOwner */\n      dup2\n        /* \"@chainlink/contracts@1.4.0/src/v0.8/shared/access/ConfirmedOwnerWithProposal.sol\":1295:1337  OwnershipTransferred(oldOwner, msg.sender) */\n      0xffffffffffffffffffffffffffffffffffffffff\n      and\n      0x8be0079c531659141344cd1fd0a4f28419497f9722a3daafe3b4186f6b6457e0\n      mload(0x40)\n      mload(0x40)\n      dup1\n      swap2\n      sub\n      swap1\n      log3\n        /* \"@chainlink/contracts@1.4.0/src/v0.8/shared/access/ConfirmedOwnerWithProposal.sol\":1071:1342  {... */\n      pop\n        /* \"@chainlink/contracts@1.4.0/src/v0.8/shared/access/ConfirmedOwnerWithProposal.sol\":1026:1342  function acceptOwnership() external override {... */\n      jump\t// out\n        /* \"@chainlink/contracts@1.4.0/src/v0.8/shared/access/ConfirmedOwnerWithProposal.sol\":1382:1463  function owner() public view override returns (address) {... */\n    tag_40:\n        /* \"@chainlink/contracts@1.4.0/src/v0.8/shared/access/ConfirmedOwnerWithProposal.sol\":1429:1436  address */\n      0x00\n        /* \"@chainlink/contracts@1.4.0/src/v0.8/shared/access/ConfirmedOwnerWithProposal.sol\":1451:1458  s_owner */\n      dup1\n      0x00\n      swap1\n      sload\n      swap1\n      0x0100\n      exp\n      swap1\n      div\n      0xffffffffffffffffffffffffffffffffffffffff\n      and\n        /* \"@chainlink/contracts@1.4.0/src/v0.8/shared/access/ConfirmedOwnerWithProposal.sol\":1444:1458  return s_owner */\n      swap1\n      pop\n        /* \"@chainlink/contracts@1.4.0/src/v0.8/shared/access/ConfirmedOwnerWithProposal.sol\":1382:1463  function owner() public view override returns (address) {... */\n      swap1\n      jump\t// out\n        /* \"docs.chain.link/samples/ChainlinkFunctions/GetCommunityScore.sol\":3363:3389  address public currentUser */\n    tag_44:\n      0x0b\n      0x00\n      swap1\n      sload\n      swap1\n      0x0100\n      exp\n      swap1\n      div\n      0xffffffffffffffffffffffffffffffffffffffff\n      and\n      dup2\n      jump\t// out\n        /* \"docs.chain.link/samples/ChainlinkFunctions/GetCommunityScore.sol\":689:719  bytes32 public s_lastRequestId */\n    tag_47:\n      sload(0x02)\n      dup2\n      jump\t// out\n        /* \"docs.chain.link/samples/ChainlinkFunctions/GetCommunityScore.sol\":3303:3356  mapping(address => uint256) public communityScoresMap */\n    tag_52:\n      mstore(0x20, 0x0a)\n      dup1\n      0x00\n      mstore\n      keccak256(0x00, 0x40)\n      0x00\n      swap2\n      pop\n      swap1\n      pop\n      sload\n      dup2\n      jump\t// out\n        /* \"docs.chain.link/samples/ChainlinkFunctions/GetCommunityScore.sol\":5619:5759  function getScore(address _developerAddress) external view returns (uint256) {... */\n    tag_56:\n        /* \"docs.chain.link/samples/ChainlinkFunctions/GetCommunityScore.sol\":5687:5694  uint256 */\n      0x00\n        /* \"docs.chain.link/samples/ChainlinkFunctions/GetCommunityScore.sol\":5714:5732  communityScoresMap */\n      0x0a\n        /* \"docs.chain.link/samples/ChainlinkFunctions/GetCommunityScore.sol\":5714:5751  communityScoresMap[_developerAddress] */\n      0x00\n        /* \"docs.chain.link/samples/ChainlinkFunctions/GetCommunityScore.sol\":5733:5750  _developerAddress */\n      dup4\n        /* \"docs.chain.link/samples/ChainlinkFunctions/GetCommunityScore.sol\":5714:5751  communityScoresMap[_developerAddress] */\n      0xffffffffffffffffffffffffffffffffffffffff\n      and\n      0xffffffffffffffffffffffffffffffffffffffff\n      and\n      dup2\n      mstore\n      0x20\n      add\n      swap1\n      dup2\n      mstore\n      0x20\n      add\n      0x00\n      keccak256\n      sload\n        /* \"docs.chain.link/samples/ChainlinkFunctions/GetCommunityScore.sol\":5707:5751  return communityScoresMap[_developerAddress] */\n      swap1\n      pop\n        /* \"docs.chain.link/samples/ChainlinkFunctions/GetCommunityScore.sol\":5619:5759  function getScore(address _developerAddress) external view returns (uint256) {... */\n      swap2\n      swap1\n      pop\n      jump\t// out\n        /* \"@chainlink/contracts@1.4.0/src/v0.8/shared/access/ConfirmedOwnerWithProposal.sol\":847:945  function transferOwnership(address to) public override onlyOwner {... */\n    tag_60:\n        /* \"@chainlink/contracts@1.4.0/src/v0.8/shared/access/ConfirmedOwnerWithProposal.sol\":2075:2095  _validateOwnership() */\n      tag_102\n        /* \"@chainlink/contracts@1.4.0/src/v0.8/shared/access/ConfirmedOwnerWithProposal.sol\":2075:2093  _validateOwnership */\n      tag_103\n        /* \"@chainlink/contracts@1.4.0/src/v0.8/shared/access/ConfirmedOwnerWithProposal.sol\":2075:2095  _validateOwnership() */\n      jump\t// in\n    tag_102:\n        /* \"@chainlink/contracts@1.4.0/src/v0.8/shared/access/ConfirmedOwnerWithProposal.sol\":918:940  _transferOwnership(to) */\n      tag_105\n        /* \"@chainlink/contracts@1.4.0/src/v0.8/shared/access/ConfirmedOwnerWithProposal.sol\":937:939  to */\n      dup2\n        /* \"@chainlink/contracts@1.4.0/src/v0.8/shared/access/ConfirmedOwnerWithProposal.sol\":918:936  _transferOwnership */\n      tag_106\n        /* \"@chainlink/contracts@1.4.0/src/v0.8/shared/access/ConfirmedOwnerWithProposal.sol\":918:940  _transferOwnership(to) */\n      jump\t// in\n    tag_105:\n        /* \"@chainlink/contracts@1.4.0/src/v0.8/shared/access/ConfirmedOwnerWithProposal.sol\":847:945  function transferOwnership(address to) public override onlyOwner {... */\n      pop\n      jump\t// out\n        /* \"docs.chain.link/samples/ChainlinkFunctions/GetCommunityScore.sol\":4752:5427  function fulfillRequest(... */\n    tag_64:\n        /* \"docs.chain.link/samples/ChainlinkFunctions/GetCommunityScore.sol\":4922:4931  requestId */\n      dup3\n        /* \"docs.chain.link/samples/ChainlinkFunctions/GetCommunityScore.sol\":4903:4918  s_lastRequestId */\n      sload(0x02)\n        /* \"docs.chain.link/samples/ChainlinkFunctions/GetCommunityScore.sol\":4903:4931  s_lastRequestId != requestId */\n      eq\n        /* \"docs.chain.link/samples/ChainlinkFunctions/GetCommunityScore.sol\":4899:5027  if (s_lastRequestId != requestId) {... */\n      tag_108\n      jumpi\n        /* \"docs.chain.link/samples/ChainlinkFunctions/GetCommunityScore.sol\":4975:4984  requestId */\n      dup3\n        /* \"docs.chain.link/samples/ChainlinkFunctions/GetCommunityScore.sol\":4955:4985  UnexpectedRequestID(requestId) */\n      mload(0x40)\n      0xd068bf5b00000000000000000000000000000000000000000000000000000000\n      dup2\n      mstore\n      0x04\n      add\n      tag_109\n      swap2\n      swap1\n      tag_33\n      jump\t// in\n    tag_109:\n      mload(0x40)\n      dup1\n      swap2\n      sub\n      swap1\n      revert\n        /* \"docs.chain.link/samples/ChainlinkFunctions/GetCommunityScore.sol\":4899:5027  if (s_lastRequestId != requestId) {... */\n    tag_108:\n        /* \"docs.chain.link/samples/ChainlinkFunctions/GetCommunityScore.sol\":5137:5145  response */\n      dup2\n        /* \"docs.chain.link/samples/ChainlinkFunctions/GetCommunityScore.sol\":5120:5134  s_lastResponse */\n      0x03\n        /* \"docs.chain.link/samples/ChainlinkFunctions/GetCommunityScore.sol\":5120:5145  s_lastResponse = response */\n      swap1\n      dup2\n      tag_110\n      swap2\n      swap1\n      tag_111\n      jump\t// in\n    tag_110:\n      pop\n        /* \"docs.chain.link/samples/ChainlinkFunctions/GetCommunityScore.sol\":5184:5192  response */\n      dup2\n        /* \"docs.chain.link/samples/ChainlinkFunctions/GetCommunityScore.sol\":5173:5204  abi.decode(response, (uint256)) */\n      dup1\n      0x20\n      add\n      swap1\n      mload\n      dup2\n      add\n      swap1\n      tag_112\n      swap2\n      swap1\n      tag_113\n      jump\t// in\n    tag_112:\n        /* \"docs.chain.link/samples/ChainlinkFunctions/GetCommunityScore.sol\":5156:5170  communityScore */\n      0x09\n        /* \"docs.chain.link/samples/ChainlinkFunctions/GetCommunityScore.sol\":5156:5204  communityScore = abi.decode(response, (uint256)) */\n      dup2\n      swap1\n      sstore\n      pop\n        /* \"docs.chain.link/samples/ChainlinkFunctions/GetCommunityScore.sol\":5249:5263  communityScore */\n      sload(0x09)\n        /* \"docs.chain.link/samples/ChainlinkFunctions/GetCommunityScore.sol\":5215:5233  communityScoresMap */\n      0x0a\n        /* \"docs.chain.link/samples/ChainlinkFunctions/GetCommunityScore.sol\":5215:5246  communityScoresMap[currentUser] */\n      0x00\n        /* \"docs.chain.link/samples/ChainlinkFunctions/GetCommunityScore.sol\":5234:5245  currentUser */\n      0x0b\n      0x00\n      swap1\n      sload\n      swap1\n      0x0100\n      exp\n      swap1\n      div\n      0xffffffffffffffffffffffffffffffffffffffff\n      and\n        /* \"docs.chain.link/samples/ChainlinkFunctions/GetCommunityScore.sol\":5215:5246  communityScoresMap[currentUser] */\n      0xffffffffffffffffffffffffffffffffffffffff\n      and\n      0xffffffffffffffffffffffffffffffffffffffff\n      and\n      dup2\n      mstore\n      0x20\n      add\n      swap1\n      dup2\n      mstore\n      0x20\n      add\n      0x00\n      keccak256\n        /* \"docs.chain.link/samples/ChainlinkFunctions/GetCommunityScore.sol\":5215:5263  communityScoresMap[currentUser] = communityScore */\n      dup2\n      swap1\n      sstore\n      pop\n        /* \"docs.chain.link/samples/ChainlinkFunctions/GetCommunityScore.sol\":5288:5291  err */\n      dup1\n        /* \"docs.chain.link/samples/ChainlinkFunctions/GetCommunityScore.sol\":5274:5285  s_lastError */\n      0x04\n        /* \"docs.chain.link/samples/ChainlinkFunctions/GetCommunityScore.sol\":5274:5291  s_lastError = err */\n      swap1\n      dup2\n      tag_114\n      swap2\n      swap1\n      tag_111\n      jump\t// in\n    tag_114:\n      pop\n        /* \"docs.chain.link/samples/ChainlinkFunctions/GetCommunityScore.sol\":5364:5373  requestId */\n      dup3\n        /* \"docs.chain.link/samples/ChainlinkFunctions/GetCommunityScore.sol\":5355:5419  Response(requestId, communityScore, s_lastResponse, s_lastError) */\n      0xfc03b1503acd478faf9c08107596f6d5c04b4591fea84f8d6f21bdf613b5370e\n        /* \"docs.chain.link/samples/ChainlinkFunctions/GetCommunityScore.sol\":5375:5389  communityScore */\n      sload(0x09)\n        /* \"docs.chain.link/samples/ChainlinkFunctions/GetCommunityScore.sol\":5391:5405  s_lastResponse */\n      0x03\n        /* \"docs.chain.link/samples/ChainlinkFunctions/GetCommunityScore.sol\":5407:5418  s_lastError */\n      0x04\n        /* \"docs.chain.link/samples/ChainlinkFunctions/GetCommunityScore.sol\":5355:5419  Response(requestId, communityScore, s_lastResponse, s_lastError) */\n      mload(0x40)\n      tag_115\n      swap4\n      swap3\n      swap2\n      swap1\n      tag_116\n      jump\t// in\n    tag_115:\n      mload(0x40)\n      dup1\n      swap2\n      sub\n      swap1\n      log2\n        /* \"docs.chain.link/samples/ChainlinkFunctions/GetCommunityScore.sol\":4752:5427  function fulfillRequest(... */\n      pop\n      pop\n      pop\n      jump\t// out\n        /* \"@chainlink/contracts@1.4.0/src/v0.8/functions/v1_0_0/libraries/FunctionsRequest.sol\":4323:4530  function initializeRequestForInlineJavaScript(Request memory self, string memory javaScriptSource) internal pure {... */\n    tag_80:\n        /* \"@chainlink/contracts@1.4.0/src/v0.8/functions/v1_0_0/libraries/FunctionsRequest.sol\":4442:4525  initializeRequest(self, Location.Inline, CodeLanguage.JavaScript, javaScriptSource) */\n      tag_118\n        /* \"@chainlink/contracts@1.4.0/src/v0.8/functions/v1_0_0/libraries/FunctionsRequest.sol\":4460:4464  self */\n      dup3\n        /* \"@chainlink/contracts@1.4.0/src/v0.8/functions/v1_0_0/libraries/FunctionsRequest.sol\":4466:4481  Location.Inline */\n      0x00\n        /* \"@chainlink/contracts@1.4.0/src/v0.8/functions/v1_0_0/libraries/FunctionsRequest.sol\":4483:4506  CodeLanguage.JavaScript */\n      dup1\n        /* \"@chainlink/contracts@1.4.0/src/v0.8/functions/v1_0_0/libraries/FunctionsRequest.sol\":4508:4524  javaScriptSource */\n      dup5\n        /* \"@chainlink/contracts@1.4.0/src/v0.8/functions/v1_0_0/libraries/FunctionsRequest.sol\":4442:4459  initializeRequest */\n      tag_119\n        /* \"@chainlink/contracts@1.4.0/src/v0.8/functions/v1_0_0/libraries/FunctionsRequest.sol\":4442:4525  initializeRequest(self, Location.Inline, CodeLanguage.JavaScript, javaScriptSource) */\n      jump\t// in\n    tag_118:\n        /* \"@chainlink/contracts@1.4.0/src/v0.8/functions/v1_0_0/libraries/FunctionsRequest.sol\":4323:4530  function initializeRequestForInlineJavaScript(Request memory self, string memory javaScriptSource) internal pure {... */\n      pop\n      pop\n      jump\t// out\n        /* \"@chainlink/contracts@1.4.0/src/v0.8/functions/v1_0_0/libraries/FunctionsRequest.sol\":5827:5975  function setArgs(Request memory self, string[] memory args) internal pure {... */\n    tag_85:\n        /* \"@chainlink/contracts@1.4.0/src/v0.8/functions/v1_0_0/libraries/FunctionsRequest.sol\":5926:5927  0 */\n      0x00\n        /* \"@chainlink/contracts@1.4.0/src/v0.8/functions/v1_0_0/libraries/FunctionsRequest.sol\":5911:5915  args */\n      dup2\n        /* \"@chainlink/contracts@1.4.0/src/v0.8/functions/v1_0_0/libraries/FunctionsRequest.sol\":5911:5922  args.length */\n      mload\n        /* \"@chainlink/contracts@1.4.0/src/v0.8/functions/v1_0_0/libraries/FunctionsRequest.sol\":5911:5927  args.length == 0 */\n      sub\n        /* \"@chainlink/contracts@1.4.0/src/v0.8/functions/v1_0_0/libraries/FunctionsRequest.sol\":5907:5947  if (args.length == 0) revert EmptyArgs() */\n      tag_121\n      jumpi\n        /* \"@chainlink/contracts@1.4.0/src/v0.8/functions/v1_0_0/libraries/FunctionsRequest.sol\":5936:5947  EmptyArgs() */\n      mload(0x40)\n      0xfe936cb700000000000000000000000000000000000000000000000000000000\n      dup2\n      mstore\n      0x04\n      add\n      mload(0x40)\n      dup1\n      swap2\n      sub\n      swap1\n      revert\n        /* \"@chainlink/contracts@1.4.0/src/v0.8/functions/v1_0_0/libraries/FunctionsRequest.sol\":5907:5947  if (args.length == 0) revert EmptyArgs() */\n    tag_121:\n        /* \"@chainlink/contracts@1.4.0/src/v0.8/functions/v1_0_0/libraries/FunctionsRequest.sol\":5966:5970  args */\n      dup1\n        /* \"@chainlink/contracts@1.4.0/src/v0.8/functions/v1_0_0/libraries/FunctionsRequest.sol\":5954:5958  self */\n      dup3\n        /* \"@chainlink/contracts@1.4.0/src/v0.8/functions/v1_0_0/libraries/FunctionsRequest.sol\":5954:5963  self.args */\n      0xa0\n      add\n        /* \"@chainlink/contracts@1.4.0/src/v0.8/functions/v1_0_0/libraries/FunctionsRequest.sol\":5954:5970  self.args = args */\n      dup2\n      swap1\n      mstore\n      pop\n        /* \"@chainlink/contracts@1.4.0/src/v0.8/functions/v1_0_0/libraries/FunctionsRequest.sol\":5827:5975  function setArgs(Request memory self, string[] memory args) internal pure {... */\n      pop\n      pop\n      jump\t// out\n        /* \"@chainlink/contracts@1.4.0/src/v0.8/functions/v1_0_0/libraries/FunctionsRequest.sol\":2158:3428  function encodeCBOR(Request memory self) internal pure returns (bytes memory) {... */\n    tag_88:\n        /* \"@chainlink/contracts@1.4.0/src/v0.8/functions/v1_0_0/libraries/FunctionsRequest.sol\":2222:2234  bytes memory */\n      0x60\n        /* \"@chainlink/contracts@1.4.0/src/v0.8/functions/v1_0_0/libraries/FunctionsRequest.sol\":2242:2271  CBOR.CBORBuffer memory buffer */\n      0x00\n        /* \"@chainlink/contracts@1.4.0/src/v0.8/functions/v1_0_0/libraries/FunctionsRequest.sol\":2274:2306  CBOR.create(DEFAULT_BUFFER_SIZE) */\n      tag_123\n        /* \"@chainlink/contracts@1.4.0/src/v0.8/functions/v1_0_0/libraries/FunctionsRequest.sol\":375:378  256 */\n      0x0100\n        /* \"@chainlink/contracts@1.4.0/src/v0.8/functions/v1_0_0/libraries/FunctionsRequest.sol\":2274:2285  CBOR.create */\n      tag_124\n        /* \"@chainlink/contracts@1.4.0/src/v0.8/functions/v1_0_0/libraries/FunctionsRequest.sol\":2274:2306  CBOR.create(DEFAULT_BUFFER_SIZE) */\n      jump\t// in\n    tag_123:\n        /* \"@chainlink/contracts@1.4.0/src/v0.8/functions/v1_0_0/libraries/FunctionsRequest.sol\":2242:2306  CBOR.CBORBuffer memory buffer = CBOR.create(DEFAULT_BUFFER_SIZE) */\n      swap1\n      pop\n        /* \"@chainlink/contracts@1.4.0/src/v0.8/functions/v1_0_0/libraries/FunctionsRequest.sol\":2313:2347  buffer.writeString(\"codeLocation\") */\n      tag_125\n      mload(0x40)\n      dup1\n      0x40\n      add\n      0x40\n      mstore\n      dup1\n      0x0c\n      dup2\n      mstore\n      0x20\n      add\n      0x636f64654c6f636174696f6e0000000000000000000000000000000000000000\n      dup2\n      mstore\n      pop\n        /* \"@chainlink/contracts@1.4.0/src/v0.8/functions/v1_0_0/libraries/FunctionsRequest.sol\":2313:2319  buffer */\n      dup3\n        /* \"@chainlink/contracts@1.4.0/src/v0.8/functions/v1_0_0/libraries/FunctionsRequest.sol\":2313:2331  buffer.writeString */\n      tag_126\n      swap1\n        /* \"@chainlink/contracts@1.4.0/src/v0.8/functions/v1_0_0/libraries/FunctionsRequest.sol\":2313:2347  buffer.writeString(\"codeLocation\") */\n      swap2\n      swap1\n      0xffffffff\n      and\n      jump\t// in\n    tag_125:\n        /* \"@chainlink/contracts@1.4.0/src/v0.8/functions/v1_0_0/libraries/FunctionsRequest.sol\":2353:2400  buffer.writeUInt256(uint256(self.codeLocation)) */\n      tag_127\n        /* \"@chainlink/contracts@1.4.0/src/v0.8/functions/v1_0_0/libraries/FunctionsRequest.sol\":2381:2385  self */\n      dup4\n        /* \"@chainlink/contracts@1.4.0/src/v0.8/functions/v1_0_0/libraries/FunctionsRequest.sol\":2381:2398  self.codeLocation */\n      0x00\n      add\n      mload\n        /* \"@chainlink/contracts@1.4.0/src/v0.8/functions/v1_0_0/libraries/FunctionsRequest.sol\":2373:2399  uint256(self.codeLocation) */\n      0x02\n      dup2\n      gt\n      iszero\n      tag_128\n      jumpi\n      tag_129\n      tag_130\n      jump\t// in\n    tag_129:\n    tag_128:\n        /* \"@chainlink/contracts@1.4.0/src/v0.8/functions/v1_0_0/libraries/FunctionsRequest.sol\":2353:2359  buffer */\n      dup3\n        /* \"@chainlink/contracts@1.4.0/src/v0.8/functions/v1_0_0/libraries/FunctionsRequest.sol\":2353:2372  buffer.writeUInt256 */\n      tag_131\n      swap1\n        /* \"@chainlink/contracts@1.4.0/src/v0.8/functions/v1_0_0/libraries/FunctionsRequest.sol\":2353:2400  buffer.writeUInt256(uint256(self.codeLocation)) */\n      swap2\n      swap1\n      0xffffffff\n      and\n      jump\t// in\n    tag_127:\n        /* \"@chainlink/contracts@1.4.0/src/v0.8/functions/v1_0_0/libraries/FunctionsRequest.sol\":2407:2437  buffer.writeString(\"language\") */\n      tag_132\n      mload(0x40)\n      dup1\n      0x40\n      add\n      0x40\n      mstore\n      dup1\n      0x08\n      dup2\n      mstore\n      0x20\n      add\n      0x6c616e6775616765000000000000000000000000000000000000000000000000\n      dup2\n      mstore\n      pop\n        /* \"@chainlink/contracts@1.4.0/src/v0.8/functions/v1_0_0/libraries/FunctionsRequest.sol\":2407:2413  buffer */\n      dup3\n        /* \"@chainlink/contracts@1.4.0/src/v0.8/functions/v1_0_0/libraries/FunctionsRequest.sol\":2407:2425  buffer.writeString */\n      tag_126\n      swap1\n        /* \"@chainlink/contracts@1.4.0/src/v0.8/functions/v1_0_0/libraries/FunctionsRequest.sol\":2407:2437  buffer.writeString(\"language\") */\n      swap2\n      swap1\n      0xffffffff\n      and\n      jump\t// in\n    tag_132:\n        /* \"@chainlink/contracts@1.4.0/src/v0.8/functions/v1_0_0/libraries/FunctionsRequest.sol\":2443:2486  buffer.writeUInt256(uint256(self.language)) */\n      tag_133\n        /* \"@chainlink/contracts@1.4.0/src/v0.8/functions/v1_0_0/libraries/FunctionsRequest.sol\":2471:2475  self */\n      dup4\n        /* \"@chainlink/contracts@1.4.0/src/v0.8/functions/v1_0_0/libraries/FunctionsRequest.sol\":2471:2484  self.language */\n      0x40\n      add\n      mload\n        /* \"@chainlink/contracts@1.4.0/src/v0.8/functions/v1_0_0/libraries/FunctionsRequest.sol\":2463:2485  uint256(self.language) */\n      0x00\n      dup2\n      gt\n      iszero\n      tag_134\n      jumpi\n      tag_135\n      tag_130\n      jump\t// in\n    tag_135:\n    tag_134:\n        /* \"@chainlink/contracts@1.4.0/src/v0.8/functions/v1_0_0/libraries/FunctionsRequest.sol\":2443:2449  buffer */\n      dup3\n        /* \"@chainlink/contracts@1.4.0/src/v0.8/functions/v1_0_0/libraries/FunctionsRequest.sol\":2443:2462  buffer.writeUInt256 */\n      tag_131\n      swap1\n        /* \"@chainlink/contracts@1.4.0/src/v0.8/functions/v1_0_0/libraries/FunctionsRequest.sol\":2443:2486  buffer.writeUInt256(uint256(self.language)) */\n      swap2\n      swap1\n      0xffffffff\n      and\n      jump\t// in\n    tag_133:\n        /* \"@chainlink/contracts@1.4.0/src/v0.8/functions/v1_0_0/libraries/FunctionsRequest.sol\":2493:2521  buffer.writeString(\"source\") */\n      tag_136\n      mload(0x40)\n      dup1\n      0x40\n      add\n      0x40\n      mstore\n      dup1\n      0x06\n      dup2\n      mstore\n      0x20\n      add\n      0x736f757263650000000000000000000000000000000000000000000000000000\n      dup2\n      mstore\n      pop\n        /* \"@chainlink/contracts@1.4.0/src/v0.8/functions/v1_0_0/libraries/FunctionsRequest.sol\":2493:2499  buffer */\n      dup3\n        /* \"@chainlink/contracts@1.4.0/src/v0.8/functions/v1_0_0/libraries/FunctionsRequest.sol\":2493:2511  buffer.writeString */\n      tag_126\n      swap1\n        /* \"@chainlink/contracts@1.4.0/src/v0.8/functions/v1_0_0/libraries/FunctionsRequest.sol\":2493:2521  buffer.writeString(\"source\") */\n      swap2\n      swap1\n      0xffffffff\n      and\n      jump\t// in\n    tag_136:\n        /* \"@chainlink/contracts@1.4.0/src/v0.8/functions/v1_0_0/libraries/FunctionsRequest.sol\":2527:2558  buffer.writeString(self.source) */\n      tag_137\n        /* \"@chainlink/contracts@1.4.0/src/v0.8/functions/v1_0_0/libraries/FunctionsRequest.sol\":2546:2550  self */\n      dup4\n        /* \"@chainlink/contracts@1.4.0/src/v0.8/functions/v1_0_0/libraries/FunctionsRequest.sol\":2546:2557  self.source */\n      0x60\n      add\n      mload\n        /* \"@chainlink/contracts@1.4.0/src/v0.8/functions/v1_0_0/libraries/FunctionsRequest.sol\":2527:2533  buffer */\n      dup3\n        /* \"@chainlink/contracts@1.4.0/src/v0.8/functions/v1_0_0/libraries/FunctionsRequest.sol\":2527:2545  buffer.writeString */\n      tag_126\n      swap1\n        /* \"@chainlink/contracts@1.4.0/src/v0.8/functions/v1_0_0/libraries/FunctionsRequest.sol\":2527:2558  buffer.writeString(self.source) */\n      swap2\n      swap1\n      0xffffffff\n      and\n      jump\t// in\n    tag_137:\n        /* \"@chainlink/contracts@1.4.0/src/v0.8/functions/v1_0_0/libraries/FunctionsRequest.sol\":2588:2589  0 */\n      0x00\n        /* \"@chainlink/contracts@1.4.0/src/v0.8/functions/v1_0_0/libraries/FunctionsRequest.sol\":2569:2573  self */\n      dup4\n        /* \"@chainlink/contracts@1.4.0/src/v0.8/functions/v1_0_0/libraries/FunctionsRequest.sol\":2569:2578  self.args */\n      0xa0\n      add\n      mload\n        /* \"@chainlink/contracts@1.4.0/src/v0.8/functions/v1_0_0/libraries/FunctionsRequest.sol\":2569:2585  self.args.length */\n      mload\n        /* \"@chainlink/contracts@1.4.0/src/v0.8/functions/v1_0_0/libraries/FunctionsRequest.sol\":2569:2589  self.args.length > 0 */\n      gt\n        /* \"@chainlink/contracts@1.4.0/src/v0.8/functions/v1_0_0/libraries/FunctionsRequest.sol\":2565:2792  if (self.args.length > 0) {... */\n      iszero\n      tag_138\n      jumpi\n        /* \"@chainlink/contracts@1.4.0/src/v0.8/functions/v1_0_0/libraries/FunctionsRequest.sol\":2599:2625  buffer.writeString(\"args\") */\n      tag_139\n      mload(0x40)\n      dup1\n      0x40\n      add\n      0x40\n      mstore\n      dup1\n      0x04\n      dup2\n      mstore\n      0x20\n      add\n      0x6172677300000000000000000000000000000000000000000000000000000000\n      dup2\n      mstore\n      pop\n        /* \"@chainlink/contracts@1.4.0/src/v0.8/functions/v1_0_0/libraries/FunctionsRequest.sol\":2599:2605  buffer */\n      dup3\n        /* \"@chainlink/contracts@1.4.0/src/v0.8/functions/v1_0_0/libraries/FunctionsRequest.sol\":2599:2617  buffer.writeString */\n      tag_126\n      swap1\n        /* \"@chainlink/contracts@1.4.0/src/v0.8/functions/v1_0_0/libraries/FunctionsRequest.sol\":2599:2625  buffer.writeString(\"args\") */\n      swap2\n      swap1\n      0xffffffff\n      and\n      jump\t// in\n    tag_139:\n        /* \"@chainlink/contracts@1.4.0/src/v0.8/functions/v1_0_0/libraries/FunctionsRequest.sol\":2633:2652  buffer.startArray() */\n      tag_140\n        /* \"@chainlink/contracts@1.4.0/src/v0.8/functions/v1_0_0/libraries/FunctionsRequest.sol\":2633:2639  buffer */\n      dup2\n        /* \"@chainlink/contracts@1.4.0/src/v0.8/functions/v1_0_0/libraries/FunctionsRequest.sol\":2633:2650  buffer.startArray */\n      tag_141\n        /* \"@chainlink/contracts@1.4.0/src/v0.8/functions/v1_0_0/libraries/FunctionsRequest.sol\":2633:2652  buffer.startArray() */\n      jump\t// in\n    tag_140:\n        /* \"@chainlink/contracts@1.4.0/src/v0.8/functions/v1_0_0/libraries/FunctionsRequest.sol\":2665:2674  uint256 i */\n      0x00\n        /* \"@chainlink/contracts@1.4.0/src/v0.8/functions/v1_0_0/libraries/FunctionsRequest.sol\":2660:2758  for (uint256 i = 0; i < self.args.length; ++i) {... */\n    tag_142:\n        /* \"@chainlink/contracts@1.4.0/src/v0.8/functions/v1_0_0/libraries/FunctionsRequest.sol\":2684:2688  self */\n      dup4\n        /* \"@chainlink/contracts@1.4.0/src/v0.8/functions/v1_0_0/libraries/FunctionsRequest.sol\":2684:2693  self.args */\n      0xa0\n      add\n      mload\n        /* \"@chainlink/contracts@1.4.0/src/v0.8/functions/v1_0_0/libraries/FunctionsRequest.sol\":2684:2700  self.args.length */\n      mload\n        /* \"@chainlink/contracts@1.4.0/src/v0.8/functions/v1_0_0/libraries/FunctionsRequest.sol\":2680:2681  i */\n      dup2\n        /* \"@chainlink/contracts@1.4.0/src/v0.8/functions/v1_0_0/libraries/FunctionsRequest.sol\":2680:2700  i < self.args.length */\n      lt\n        /* \"@chainlink/contracts@1.4.0/src/v0.8/functions/v1_0_0/libraries/FunctionsRequest.sol\":2660:2758  for (uint256 i = 0; i < self.args.length; ++i) {... */\n      iszero\n      tag_143\n      jumpi\n        /* \"@chainlink/contracts@1.4.0/src/v0.8/functions/v1_0_0/libraries/FunctionsRequest.sol\":2717:2749  buffer.writeString(self.args[i]) */\n      tag_145\n        /* \"@chainlink/contracts@1.4.0/src/v0.8/functions/v1_0_0/libraries/FunctionsRequest.sol\":2736:2740  self */\n      dup5\n        /* \"@chainlink/contracts@1.4.0/src/v0.8/functions/v1_0_0/libraries/FunctionsRequest.sol\":2736:2745  self.args */\n      0xa0\n      add\n      mload\n        /* \"@chainlink/contracts@1.4.0/src/v0.8/functions/v1_0_0/libraries/FunctionsRequest.sol\":2746:2747  i */\n      dup3\n        /* \"@chainlink/contracts@1.4.0/src/v0.8/functions/v1_0_0/libraries/FunctionsRequest.sol\":2736:2748  self.args[i] */\n      dup2\n      mload\n      dup2\n      lt\n      tag_146\n      jumpi\n      tag_147\n      tag_148\n      jump\t// in\n    tag_147:\n    tag_146:\n      0x20\n      mul\n      0x20\n      add\n      add\n      mload\n        /* \"@chainlink/contracts@1.4.0/src/v0.8/functions/v1_0_0/libraries/FunctionsRequest.sol\":2717:2723  buffer */\n      dup4\n        /* \"@chainlink/contracts@1.4.0/src/v0.8/functions/v1_0_0/libraries/FunctionsRequest.sol\":2717:2735  buffer.writeString */\n      tag_126\n      swap1\n        /* \"@chainlink/contracts@1.4.0/src/v0.8/functions/v1_0_0/libraries/FunctionsRequest.sol\":2717:2749  buffer.writeString(self.args[i]) */\n      swap2\n      swap1\n      0xffffffff\n      and\n      jump\t// in\n    tag_145:\n        /* \"@chainlink/contracts@1.4.0/src/v0.8/functions/v1_0_0/libraries/FunctionsRequest.sol\":2702:2705  ++i */\n      dup1\n      tag_149\n      swap1\n      tag_150\n      jump\t// in\n    tag_149:\n      swap1\n      pop\n        /* \"@chainlink/contracts@1.4.0/src/v0.8/functions/v1_0_0/libraries/FunctionsRequest.sol\":2660:2758  for (uint256 i = 0; i < self.args.length; ++i) {... */\n      jump(tag_142)\n    tag_143:\n      pop\n        /* \"@chainlink/contracts@1.4.0/src/v0.8/functions/v1_0_0/libraries/FunctionsRequest.sol\":2765:2785  buffer.endSequence() */\n      tag_151\n        /* \"@chainlink/contracts@1.4.0/src/v0.8/functions/v1_0_0/libraries/FunctionsRequest.sol\":2765:2771  buffer */\n      dup2\n        /* \"@chainlink/contracts@1.4.0/src/v0.8/functions/v1_0_0/libraries/FunctionsRequest.sol\":2765:2783  buffer.endSequence */\n      tag_152\n        /* \"@chainlink/contracts@1.4.0/src/v0.8/functions/v1_0_0/libraries/FunctionsRequest.sol\":2765:2785  buffer.endSequence() */\n      jump\t// in\n    tag_151:\n        /* \"@chainlink/contracts@1.4.0/src/v0.8/functions/v1_0_0/libraries/FunctionsRequest.sol\":2565:2792  if (self.args.length > 0) {... */\n    tag_138:\n        /* \"@chainlink/contracts@1.4.0/src/v0.8/functions/v1_0_0/libraries/FunctionsRequest.sol\":2842:2843  0 */\n      0x00\n        /* \"@chainlink/contracts@1.4.0/src/v0.8/functions/v1_0_0/libraries/FunctionsRequest.sol\":2802:2806  self */\n      dup4\n        /* \"@chainlink/contracts@1.4.0/src/v0.8/functions/v1_0_0/libraries/FunctionsRequest.sol\":2802:2832  self.encryptedSecretsReference */\n      0x80\n      add\n      mload\n        /* \"@chainlink/contracts@1.4.0/src/v0.8/functions/v1_0_0/libraries/FunctionsRequest.sol\":2802:2839  self.encryptedSecretsReference.length */\n      mload\n        /* \"@chainlink/contracts@1.4.0/src/v0.8/functions/v1_0_0/libraries/FunctionsRequest.sol\":2802:2843  self.encryptedSecretsReference.length > 0 */\n      gt\n        /* \"@chainlink/contracts@1.4.0/src/v0.8/functions/v1_0_0/libraries/FunctionsRequest.sol\":2798:3144  if (self.encryptedSecretsReference.length > 0) {... */\n      iszero\n      tag_153\n      jumpi\n        /* \"@chainlink/contracts@1.4.0/src/v0.8/functions/v1_0_0/libraries/FunctionsRequest.sol\":2881:2896  Location.Inline */\n      0x00\n        /* \"@chainlink/contracts@1.4.0/src/v0.8/functions/v1_0_0/libraries/FunctionsRequest.sol\":2857:2896  self.secretsLocation == Location.Inline */\n      0x02\n      dup2\n      gt\n      iszero\n      tag_154\n      jumpi\n      tag_155\n      tag_130\n      jump\t// in\n    tag_155:\n    tag_154:\n        /* \"@chainlink/contracts@1.4.0/src/v0.8/functions/v1_0_0/libraries/FunctionsRequest.sol\":2857:2861  self */\n      dup4\n        /* \"@chainlink/contracts@1.4.0/src/v0.8/functions/v1_0_0/libraries/FunctionsRequest.sol\":2857:2877  self.secretsLocation */\n      0x20\n      add\n      mload\n        /* \"@chainlink/contracts@1.4.0/src/v0.8/functions/v1_0_0/libraries/FunctionsRequest.sol\":2857:2896  self.secretsLocation == Location.Inline */\n      0x02\n      dup2\n      gt\n      iszero\n      tag_156\n      jumpi\n      tag_157\n      tag_130\n      jump\t// in\n    tag_157:\n    tag_156:\n      sub\n        /* \"@chainlink/contracts@1.4.0/src/v0.8/functions/v1_0_0/libraries/FunctionsRequest.sol\":2853:2941  if (self.secretsLocation == Location.Inline) {... */\n      tag_158\n      jumpi\n        /* \"@chainlink/contracts@1.4.0/src/v0.8/functions/v1_0_0/libraries/FunctionsRequest.sol\":2915:2932  NoInlineSecrets() */\n      mload(0x40)\n      0xa80d31f700000000000000000000000000000000000000000000000000000000\n      dup2\n      mstore\n      0x04\n      add\n      mload(0x40)\n      dup1\n      swap2\n      sub\n      swap1\n      revert\n        /* \"@chainlink/contracts@1.4.0/src/v0.8/functions/v1_0_0/libraries/FunctionsRequest.sol\":2853:2941  if (self.secretsLocation == Location.Inline) {... */\n    tag_158:\n        /* \"@chainlink/contracts@1.4.0/src/v0.8/functions/v1_0_0/libraries/FunctionsRequest.sol\":2948:2985  buffer.writeString(\"secretsLocation\") */\n      tag_159\n      mload(0x40)\n      dup1\n      0x40\n      add\n      0x40\n      mstore\n      dup1\n      0x0f\n      dup2\n      mstore\n      0x20\n      add\n      0x736563726574734c6f636174696f6e0000000000000000000000000000000000\n      dup2\n      mstore\n      pop\n        /* \"@chainlink/contracts@1.4.0/src/v0.8/functions/v1_0_0/libraries/FunctionsRequest.sol\":2948:2954  buffer */\n      dup3\n        /* \"@chainlink/contracts@1.4.0/src/v0.8/functions/v1_0_0/libraries/FunctionsRequest.sol\":2948:2966  buffer.writeString */\n      tag_126\n      swap1\n        /* \"@chainlink/contracts@1.4.0/src/v0.8/functions/v1_0_0/libraries/FunctionsRequest.sol\":2948:2985  buffer.writeString(\"secretsLocation\") */\n      swap2\n      swap1\n      0xffffffff\n      and\n      jump\t// in\n    tag_159:\n        /* \"@chainlink/contracts@1.4.0/src/v0.8/functions/v1_0_0/libraries/FunctionsRequest.sol\":2993:3043  buffer.writeUInt256(uint256(self.secretsLocation)) */\n      tag_160\n        /* \"@chainlink/contracts@1.4.0/src/v0.8/functions/v1_0_0/libraries/FunctionsRequest.sol\":3021:3025  self */\n      dup4\n        /* \"@chainlink/contracts@1.4.0/src/v0.8/functions/v1_0_0/libraries/FunctionsRequest.sol\":3021:3041  self.secretsLocation */\n      0x20\n      add\n      mload\n        /* \"@chainlink/contracts@1.4.0/src/v0.8/functions/v1_0_0/libraries/FunctionsRequest.sol\":3013:3042  uint256(self.secretsLocation) */\n      0x02\n      dup2\n      gt\n      iszero\n      tag_161\n      jumpi\n      tag_162\n      tag_130\n      jump\t// in\n    tag_162:\n    tag_161:\n        /* \"@chainlink/contracts@1.4.0/src/v0.8/functions/v1_0_0/libraries/FunctionsRequest.sol\":2993:2999  buffer */\n      dup3\n        /* \"@chainlink/contracts@1.4.0/src/v0.8/functions/v1_0_0/libraries/FunctionsRequest.sol\":2993:3012  buffer.writeUInt256 */\n      tag_131\n      swap1\n        /* \"@chainlink/contracts@1.4.0/src/v0.8/functions/v1_0_0/libraries/FunctionsRequest.sol\":2993:3043  buffer.writeUInt256(uint256(self.secretsLocation)) */\n      swap2\n      swap1\n      0xffffffff\n      and\n      jump\t// in\n    tag_160:\n        /* \"@chainlink/contracts@1.4.0/src/v0.8/functions/v1_0_0/libraries/FunctionsRequest.sol\":3051:3080  buffer.writeString(\"secrets\") */\n      tag_163\n      mload(0x40)\n      dup1\n      0x40\n      add\n      0x40\n      mstore\n      dup1\n      0x07\n      dup2\n      mstore\n      0x20\n      add\n      0x7365637265747300000000000000000000000000000000000000000000000000\n      dup2\n      mstore\n      pop\n        /* \"@chainlink/contracts@1.4.0/src/v0.8/functions/v1_0_0/libraries/FunctionsRequest.sol\":3051:3057  buffer */\n      dup3\n        /* \"@chainlink/contracts@1.4.0/src/v0.8/functions/v1_0_0/libraries/FunctionsRequest.sol\":3051:3069  buffer.writeString */\n      tag_126\n      swap1\n        /* \"@chainlink/contracts@1.4.0/src/v0.8/functions/v1_0_0/libraries/FunctionsRequest.sol\":3051:3080  buffer.writeString(\"secrets\") */\n      swap2\n      swap1\n      0xffffffff\n      and\n      jump\t// in\n    tag_163:\n        /* \"@chainlink/contracts@1.4.0/src/v0.8/functions/v1_0_0/libraries/FunctionsRequest.sol\":3088:3137  buffer.writeBytes(self.encryptedSecretsReference) */\n      tag_164\n        /* \"@chainlink/contracts@1.4.0/src/v0.8/functions/v1_0_0/libraries/FunctionsRequest.sol\":3106:3110  self */\n      dup4\n        /* \"@chainlink/contracts@1.4.0/src/v0.8/functions/v1_0_0/libraries/FunctionsRequest.sol\":3106:3136  self.encryptedSecretsReference */\n      0x80\n      add\n      mload\n        /* \"@chainlink/contracts@1.4.0/src/v0.8/functions/v1_0_0/libraries/FunctionsRequest.sol\":3088:3094  buffer */\n      dup3\n        /* \"@chainlink/contracts@1.4.0/src/v0.8/functions/v1_0_0/libraries/FunctionsRequest.sol\":3088:3105  buffer.writeBytes */\n      tag_165\n      swap1\n        /* \"@chainlink/contracts@1.4.0/src/v0.8/functions/v1_0_0/libraries/FunctionsRequest.sol\":3088:3137  buffer.writeBytes(self.encryptedSecretsReference) */\n      swap2\n      swap1\n      0xffffffff\n      and\n      jump\t// in\n    tag_164:\n        /* \"@chainlink/contracts@1.4.0/src/v0.8/functions/v1_0_0/libraries/FunctionsRequest.sol\":2798:3144  if (self.encryptedSecretsReference.length > 0) {... */\n    tag_153:\n        /* \"@chainlink/contracts@1.4.0/src/v0.8/functions/v1_0_0/libraries/FunctionsRequest.sol\":3178:3179  0 */\n      0x00\n        /* \"@chainlink/contracts@1.4.0/src/v0.8/functions/v1_0_0/libraries/FunctionsRequest.sol\":3154:3158  self */\n      dup4\n        /* \"@chainlink/contracts@1.4.0/src/v0.8/functions/v1_0_0/libraries/FunctionsRequest.sol\":3154:3168  self.bytesArgs */\n      0xc0\n      add\n      mload\n        /* \"@chainlink/contracts@1.4.0/src/v0.8/functions/v1_0_0/libraries/FunctionsRequest.sol\":3154:3175  self.bytesArgs.length */\n      mload\n        /* \"@chainlink/contracts@1.4.0/src/v0.8/functions/v1_0_0/libraries/FunctionsRequest.sol\":3154:3179  self.bytesArgs.length > 0 */\n      gt\n        /* \"@chainlink/contracts@1.4.0/src/v0.8/functions/v1_0_0/libraries/FunctionsRequest.sol\":3150:3396  if (self.bytesArgs.length > 0) {... */\n      iszero\n      tag_166\n      jumpi\n        /* \"@chainlink/contracts@1.4.0/src/v0.8/functions/v1_0_0/libraries/FunctionsRequest.sol\":3189:3220  buffer.writeString(\"bytesArgs\") */\n      tag_167\n      mload(0x40)\n      dup1\n      0x40\n      add\n      0x40\n      mstore\n      dup1\n      0x09\n      dup2\n      mstore\n      0x20\n      add\n      0x6279746573417267730000000000000000000000000000000000000000000000\n      dup2\n      mstore\n      pop\n        /* \"@chainlink/contracts@1.4.0/src/v0.8/functions/v1_0_0/libraries/FunctionsRequest.sol\":3189:3195  buffer */\n      dup3\n        /* \"@chainlink/contracts@1.4.0/src/v0.8/functions/v1_0_0/libraries/FunctionsRequest.sol\":3189:3207  buffer.writeString */\n      tag_126\n      swap1\n        /* \"@chainlink/contracts@1.4.0/src/v0.8/functions/v1_0_0/libraries/FunctionsRequest.sol\":3189:3220  buffer.writeString(\"bytesArgs\") */\n      swap2\n      swap1\n      0xffffffff\n      and\n      jump\t// in\n    tag_167:\n        /* \"@chainlink/contracts@1.4.0/src/v0.8/functions/v1_0_0/libraries/FunctionsRequest.sol\":3228:3247  buffer.startArray() */\n      tag_168\n        /* \"@chainlink/contracts@1.4.0/src/v0.8/functions/v1_0_0/libraries/FunctionsRequest.sol\":3228:3234  buffer */\n      dup2\n        /* \"@chainlink/contracts@1.4.0/src/v0.8/functions/v1_0_0/libraries/FunctionsRequest.sol\":3228:3245  buffer.startArray */\n      tag_141\n        /* \"@chainlink/contracts@1.4.0/src/v0.8/functions/v1_0_0/libraries/FunctionsRequest.sol\":3228:3247  buffer.startArray() */\n      jump\t// in\n    tag_168:\n        /* \"@chainlink/contracts@1.4.0/src/v0.8/functions/v1_0_0/libraries/FunctionsRequest.sol\":3260:3269  uint256 i */\n      0x00\n        /* \"@chainlink/contracts@1.4.0/src/v0.8/functions/v1_0_0/libraries/FunctionsRequest.sol\":3255:3362  for (uint256 i = 0; i < self.bytesArgs.length; ++i) {... */\n    tag_169:\n        /* \"@chainlink/contracts@1.4.0/src/v0.8/functions/v1_0_0/libraries/FunctionsRequest.sol\":3279:3283  self */\n      dup4\n        /* \"@chainlink/contracts@1.4.0/src/v0.8/functions/v1_0_0/libraries/FunctionsRequest.sol\":3279:3293  self.bytesArgs */\n      0xc0\n      add\n      mload\n        /* \"@chainlink/contracts@1.4.0/src/v0.8/functions/v1_0_0/libraries/FunctionsRequest.sol\":3279:3300  self.bytesArgs.length */\n      mload\n        /* \"@chainlink/contracts@1.4.0/src/v0.8/functions/v1_0_0/libraries/FunctionsRequest.sol\":3275:3276  i */\n      dup2\n        /* \"@chainlink/contracts@1.4.0/src/v0.8/functions/v1_0_0/libraries/FunctionsRequest.sol\":3275:3300  i < self.bytesArgs.length */\n      lt\n        /* \"@chainlink/contracts@1.4.0/src/v0.8/functions/v1_0_0/libraries/FunctionsRequest.sol\":3255:3362  for (uint256 i = 0; i < self.bytesArgs.length; ++i) {... */\n      iszero\n      tag_170\n      jumpi\n        /* \"@chainlink/contracts@1.4.0/src/v0.8/functions/v1_0_0/libraries/FunctionsRequest.sol\":3317:3353  buffer.writeBytes(self.bytesArgs[i]) */\n      tag_172\n        /* \"@chainlink/contracts@1.4.0/src/v0.8/functions/v1_0_0/libraries/FunctionsRequest.sol\":3335:3339  self */\n      dup5\n        /* \"@chainlink/contracts@1.4.0/src/v0.8/functions/v1_0_0/libraries/FunctionsRequest.sol\":3335:3349  self.bytesArgs */\n      0xc0\n      add\n      mload\n        /* \"@chainlink/contracts@1.4.0/src/v0.8/functions/v1_0_0/libraries/FunctionsRequest.sol\":3350:3351  i */\n      dup3\n        /* \"@chainlink/contracts@1.4.0/src/v0.8/functions/v1_0_0/libraries/FunctionsRequest.sol\":3335:3352  self.bytesArgs[i] */\n      dup2\n      mload\n      dup2\n      lt\n      tag_173\n      jumpi\n      tag_174\n      tag_148\n      jump\t// in\n    tag_174:\n    tag_173:\n      0x20\n      mul\n      0x20\n      add\n      add\n      mload\n        /* \"@chainlink/contracts@1.4.0/src/v0.8/functions/v1_0_0/libraries/FunctionsRequest.sol\":3317:3323  buffer */\n      dup4\n        /* \"@chainlink/contracts@1.4.0/src/v0.8/functions/v1_0_0/libraries/FunctionsRequest.sol\":3317:3334  buffer.writeBytes */\n      tag_165\n      swap1\n        /* \"@chainlink/contracts@1.4.0/src/v0.8/functions/v1_0_0/libraries/FunctionsRequest.sol\":3317:3353  buffer.writeBytes(self.bytesArgs[i]) */\n      swap2\n      swap1\n      0xffffffff\n      and\n      jump\t// in\n    tag_172:\n        /* \"@chainlink/contracts@1.4.0/src/v0.8/functions/v1_0_0/libraries/FunctionsRequest.sol\":3302:3305  ++i */\n      dup1\n      tag_175\n      swap1\n      tag_150\n      jump\t// in\n    tag_175:\n      swap1\n      pop\n        /* \"@chainlink/contracts@1.4.0/src/v0.8/functions/v1_0_0/libraries/FunctionsRequest.sol\":3255:3362  for (uint256 i = 0; i < self.bytesArgs.length; ++i) {... */\n      jump(tag_169)\n    tag_170:\n      pop\n        /* \"@chainlink/contracts@1.4.0/src/v0.8/functions/v1_0_0/libraries/FunctionsRequest.sol\":3369:3389  buffer.endSequence() */\n      tag_176\n        /* \"@chainlink/contracts@1.4.0/src/v0.8/functions/v1_0_0/libraries/FunctionsRequest.sol\":3369:3375  buffer */\n      dup2\n        /* \"@chainlink/contracts@1.4.0/src/v0.8/functions/v1_0_0/libraries/FunctionsRequest.sol\":3369:3387  buffer.endSequence */\n      tag_152\n        /* \"@chainlink/contracts@1.4.0/src/v0.8/functions/v1_0_0/libraries/FunctionsRequest.sol\":3369:3389  buffer.endSequence() */\n      jump\t// in\n    tag_176:\n        /* \"@chainlink/contracts@1.4.0/src/v0.8/functions/v1_0_0/libraries/FunctionsRequest.sol\":3150:3396  if (self.bytesArgs.length > 0) {... */\n    tag_166:\n        /* \"@chainlink/contracts@1.4.0/src/v0.8/functions/v1_0_0/libraries/FunctionsRequest.sol\":3409:3415  buffer */\n      dup1\n        /* \"@chainlink/contracts@1.4.0/src/v0.8/functions/v1_0_0/libraries/FunctionsRequest.sol\":3409:3419  buffer.buf */\n      0x00\n      add\n      mload\n        /* \"@chainlink/contracts@1.4.0/src/v0.8/functions/v1_0_0/libraries/FunctionsRequest.sol\":3409:3423  buffer.buf.buf */\n      0x00\n      add\n      mload\n        /* \"@chainlink/contracts@1.4.0/src/v0.8/functions/v1_0_0/libraries/FunctionsRequest.sol\":3402:3423  return buffer.buf.buf */\n      swap2\n      pop\n      pop\n        /* \"@chainlink/contracts@1.4.0/src/v0.8/functions/v1_0_0/libraries/FunctionsRequest.sol\":2158:3428  function encodeCBOR(Request memory self) internal pure returns (bytes memory) {... */\n      swap2\n      swap1\n      pop\n      jump\t// out\n        /* \"@chainlink/contracts@1.4.0/src/v0.8/functions/v1_0_0/FunctionsClient.sol\":1158:1537  function _sendRequest(... */\n    tag_89:\n        /* \"@chainlink/contracts@1.4.0/src/v0.8/functions/v1_0_0/FunctionsClient.sol\":1300:1307  bytes32 */\n      0x00\n        /* \"@chainlink/contracts@1.4.0/src/v0.8/functions/v1_0_0/FunctionsClient.sol\":1315:1332  bytes32 requestId */\n      dup1\n        /* \"@chainlink/contracts@1.4.0/src/v0.8/functions/v1_0_0/FunctionsClient.sol\":1335:1343  i_router */\n      immutable(\"0x8e8fab5f003314da8d1873ea7720e8d9f47650136d916064d1edb8a11d682624\")\n        /* \"@chainlink/contracts@1.4.0/src/v0.8/functions/v1_0_0/FunctionsClient.sol\":1335:1355  i_router.sendRequest */\n      0xffffffffffffffffffffffffffffffffffffffff\n      and\n      0x461d2762\n        /* \"@chainlink/contracts@1.4.0/src/v0.8/functions/v1_0_0/FunctionsClient.sol\":1363:1377  subscriptionId */\n      dup7\n        /* \"@chainlink/contracts@1.4.0/src/v0.8/functions/v1_0_0/FunctionsClient.sol\":1385:1389  data */\n      dup9\n        /* \"@chainlink/contracts@1.4.0/src/v0.8/functions/v1_0_0/libraries/FunctionsRequest.sol\":322:323  1 */\n      0x01\n        /* \"@chainlink/contracts@1.4.0/src/v0.8/functions/v1_0_0/FunctionsClient.sol\":1442:1458  callbackGasLimit */\n      dup9\n        /* \"@chainlink/contracts@1.4.0/src/v0.8/functions/v1_0_0/FunctionsClient.sol\":1466:1471  donId */\n      dup9\n        /* \"@chainlink/contracts@1.4.0/src/v0.8/functions/v1_0_0/FunctionsClient.sol\":1335:1477  i_router.sendRequest(... */\n      mload(0x40)\n      dup7\n      0xffffffff\n      and\n      0xe0\n      shl\n      dup2\n      mstore\n      0x04\n      add\n      tag_178\n      swap6\n      swap5\n      swap4\n      swap3\n      swap2\n      swap1\n      tag_179\n      jump\t// in\n    tag_178:\n      0x20\n      mload(0x40)\n      dup1\n      dup4\n      sub\n      dup2\n      0x00\n      dup8\n      gas\n      call\n      iszero\n      dup1\n      iszero\n      tag_181\n      jumpi\n      returndatasize\n      0x00\n      dup1\n      returndatacopy\n      revert(0x00, returndatasize)\n    tag_181:\n      pop\n      pop\n      pop\n      pop\n      mload(0x40)\n      returndatasize\n      not(0x1f)\n      0x1f\n      dup3\n      add\n      and\n      dup3\n      add\n      dup1\n      0x40\n      mstore\n      pop\n      dup2\n      add\n      swap1\n      tag_182\n      swap2\n      swap1\n      tag_183\n      jump\t// in\n    tag_182:\n        /* \"@chainlink/contracts@1.4.0/src/v0.8/functions/v1_0_0/FunctionsClient.sol\":1315:1477  bytes32 requestId = i_router.sendRequest(... */\n      swap1\n      pop\n        /* \"@chainlink/contracts@1.4.0/src/v0.8/functions/v1_0_0/FunctionsClient.sol\":1500:1509  requestId */\n      dup1\n        /* \"@chainlink/contracts@1.4.0/src/v0.8/functions/v1_0_0/FunctionsClient.sol\":1488:1510  RequestSent(requestId) */\n      0x1131472297a800fee664d1d89cfa8f7676ff07189ecc53f80bbb5f4969099db8\n      mload(0x40)\n      mload(0x40)\n      dup1\n      swap2\n      sub\n      swap1\n      log2\n        /* \"@chainlink/contracts@1.4.0/src/v0.8/functions/v1_0_0/FunctionsClient.sol\":1523:1532  requestId */\n      dup1\n        /* \"@chainlink/contracts@1.4.0/src/v0.8/functions/v1_0_0/FunctionsClient.sol\":1516:1532  return requestId */\n      swap2\n      pop\n      pop\n        /* \"@chainlink/contracts@1.4.0/src/v0.8/functions/v1_0_0/FunctionsClient.sol\":1158:1537  function _sendRequest(... */\n      swap5\n      swap4\n      pop\n      pop\n      pop\n      pop\n      jump\t// out\n        /* \"@chainlink/contracts@1.4.0/src/v0.8/shared/access/ConfirmedOwnerWithProposal.sol\":1809:1971  function _validateOwnership() internal view {... */\n    tag_103:\n        /* \"@chainlink/contracts@1.4.0/src/v0.8/shared/access/ConfirmedOwnerWithProposal.sol\":1932:1939  s_owner */\n      0x00\n      dup1\n      sload\n      swap1\n      0x0100\n      exp\n      swap1\n      div\n      0xffffffffffffffffffffffffffffffffffffffff\n      and\n        /* \"@chainlink/contracts@1.4.0/src/v0.8/shared/access/ConfirmedOwnerWithProposal.sol\":1918:1939  msg.sender == s_owner */\n      0xffffffffffffffffffffffffffffffffffffffff\n      and\n        /* \"@chainlink/contracts@1.4.0/src/v0.8/shared/access/ConfirmedOwnerWithProposal.sol\":1918:1928  msg.sender */\n      caller\n        /* \"@chainlink/contracts@1.4.0/src/v0.8/shared/access/ConfirmedOwnerWithProposal.sol\":1918:1939  msg.sender == s_owner */\n      0xffffffffffffffffffffffffffffffffffffffff\n      and\n      eq\n        /* \"@chainlink/contracts@1.4.0/src/v0.8/shared/access/ConfirmedOwnerWithProposal.sol\":1910:1966  require(msg.sender == s_owner, \"Only callable by owner\") */\n      tag_185\n      jumpi\n      mload(0x40)\n      0x08c379a000000000000000000000000000000000000000000000000000000000\n      dup2\n      mstore\n      0x04\n      add\n      tag_186\n      swap1\n      tag_187\n      jump\t// in\n    tag_186:\n      mload(0x40)\n      dup1\n      swap2\n      sub\n      swap1\n      revert\n    tag_185:\n        /* \"@chainlink/contracts@1.4.0/src/v0.8/shared/access/ConfirmedOwnerWithProposal.sol\":1809:1971  function _validateOwnership() internal view {... */\n      jump\t// out\n        /* \"@chainlink/contracts@1.4.0/src/v0.8/shared/access/ConfirmedOwnerWithProposal.sol\":1536:1775  function _transferOwnership(address to) private {... */\n    tag_106:\n        /* \"@chainlink/contracts@1.4.0/src/v0.8/shared/access/ConfirmedOwnerWithProposal.sol\":1655:1665  msg.sender */\n      caller\n        /* \"@chainlink/contracts@1.4.0/src/v0.8/shared/access/ConfirmedOwnerWithProposal.sol\":1649:1665  to != msg.sender */\n      0xffffffffffffffffffffffffffffffffffffffff\n      and\n        /* \"@chainlink/contracts@1.4.0/src/v0.8/shared/access/ConfirmedOwnerWithProposal.sol\":1649:1651  to */\n      dup2\n        /* \"@chainlink/contracts@1.4.0/src/v0.8/shared/access/ConfirmedOwnerWithProposal.sol\":1649:1665  to != msg.sender */\n      0xffffffffffffffffffffffffffffffffffffffff\n      and\n      sub\n        /* \"@chainlink/contracts@1.4.0/src/v0.8/shared/access/ConfirmedOwnerWithProposal.sol\":1641:1693  require(to != msg.sender, \"Cannot transfer to self\") */\n      tag_189\n      jumpi\n      mload(0x40)\n      0x08c379a000000000000000000000000000000000000000000000000000000000\n      dup2\n      mstore\n      0x04\n      add\n      tag_190\n      swap1\n      tag_191\n      jump\t// in\n    tag_190:\n      mload(0x40)\n      dup1\n      swap2\n      sub\n      swap1\n      revert\n    tag_189:\n        /* \"@chainlink/contracts@1.4.0/src/v0.8/shared/access/ConfirmedOwnerWithProposal.sol\":1717:1719  to */\n      dup1\n        /* \"@chainlink/contracts@1.4.0/src/v0.8/shared/access/ConfirmedOwnerWithProposal.sol\":1700:1714  s_pendingOwner */\n      0x01\n      0x00\n        /* \"@chainlink/contracts@1.4.0/src/v0.8/shared/access/ConfirmedOwnerWithProposal.sol\":1700:1719  s_pendingOwner = to */\n      0x0100\n      exp\n      dup2\n      sload\n      dup2\n      0xffffffffffffffffffffffffffffffffffffffff\n      mul\n      not\n      and\n      swap1\n      dup4\n      0xffffffffffffffffffffffffffffffffffffffff\n      and\n      mul\n      or\n      swap1\n      sstore\n      pop\n        /* \"@chainlink/contracts@1.4.0/src/v0.8/shared/access/ConfirmedOwnerWithProposal.sol\":1767:1769  to */\n      dup1\n        /* \"@chainlink/contracts@1.4.0/src/v0.8/shared/access/ConfirmedOwnerWithProposal.sol\":1731:1770  OwnershipTransferRequested(s_owner, to) */\n      0xffffffffffffffffffffffffffffffffffffffff\n      and\n        /* \"@chainlink/contracts@1.4.0/src/v0.8/shared/access/ConfirmedOwnerWithProposal.sol\":1758:1765  s_owner */\n      0x00\n      dup1\n      sload\n      swap1\n      0x0100\n      exp\n      swap1\n      div\n      0xffffffffffffffffffffffffffffffffffffffff\n      and\n        /* \"@chainlink/contracts@1.4.0/src/v0.8/shared/access/ConfirmedOwnerWithProposal.sol\":1731:1770  OwnershipTransferRequested(s_owner, to) */\n      0xffffffffffffffffffffffffffffffffffffffff\n      and\n      0xed8889f560326eb138920d842192f0eb3dd22b4f139c87a2c57538e05bae1278\n      mload(0x40)\n      mload(0x40)\n      dup1\n      swap2\n      sub\n      swap1\n      log3\n        /* \"@chainlink/contracts@1.4.0/src/v0.8/shared/access/ConfirmedOwnerWithProposal.sol\":1536:1775  function _transferOwnership(address to) private {... */\n      pop\n      jump\t// out\n        /* \"@chainlink/contracts@1.4.0/src/v0.8/functions/v1_0_0/libraries/FunctionsRequest.sol\":3777:4084  function initializeRequest(... */\n    tag_119:\n        /* \"@chainlink/contracts@1.4.0/src/v0.8/functions/v1_0_0/libraries/FunctionsRequest.sol\":3961:3962  0 */\n      0x00\n        /* \"@chainlink/contracts@1.4.0/src/v0.8/functions/v1_0_0/libraries/FunctionsRequest.sol\":3943:3949  source */\n      dup2\n        /* \"@chainlink/contracts@1.4.0/src/v0.8/functions/v1_0_0/libraries/FunctionsRequest.sol\":3937:3957  bytes(source).length */\n      mload\n        /* \"@chainlink/contracts@1.4.0/src/v0.8/functions/v1_0_0/libraries/FunctionsRequest.sol\":3937:3962  bytes(source).length == 0 */\n      sub\n        /* \"@chainlink/contracts@1.4.0/src/v0.8/functions/v1_0_0/libraries/FunctionsRequest.sol\":3933:3984  if (bytes(source).length == 0) revert EmptySource() */\n      tag_193\n      jumpi\n        /* \"@chainlink/contracts@1.4.0/src/v0.8/functions/v1_0_0/libraries/FunctionsRequest.sol\":3971:3984  EmptySource() */\n      mload(0x40)\n      0x22ce3edd00000000000000000000000000000000000000000000000000000000\n      dup2\n      mstore\n      0x04\n      add\n      mload(0x40)\n      dup1\n      swap2\n      sub\n      swap1\n      revert\n        /* \"@chainlink/contracts@1.4.0/src/v0.8/functions/v1_0_0/libraries/FunctionsRequest.sol\":3933:3984  if (bytes(source).length == 0) revert EmptySource() */\n    tag_193:\n        /* \"@chainlink/contracts@1.4.0/src/v0.8/functions/v1_0_0/libraries/FunctionsRequest.sol\":4011:4023  codeLocation */\n      dup3\n        /* \"@chainlink/contracts@1.4.0/src/v0.8/functions/v1_0_0/libraries/FunctionsRequest.sol\":3991:3995  self */\n      dup5\n        /* \"@chainlink/contracts@1.4.0/src/v0.8/functions/v1_0_0/libraries/FunctionsRequest.sol\":3991:4008  self.codeLocation */\n      0x00\n      add\n        /* \"@chainlink/contracts@1.4.0/src/v0.8/functions/v1_0_0/libraries/FunctionsRequest.sol\":3991:4023  self.codeLocation = codeLocation */\n      swap1\n      0x02\n      dup2\n      gt\n      iszero\n      tag_194\n      jumpi\n      tag_195\n      tag_130\n      jump\t// in\n    tag_195:\n    tag_194:\n      swap1\n      dup2\n      0x02\n      dup2\n      gt\n      iszero\n      tag_196\n      jumpi\n      tag_197\n      tag_130\n      jump\t// in\n    tag_197:\n    tag_196:\n      dup2\n      mstore\n      pop\n      pop\n        /* \"@chainlink/contracts@1.4.0/src/v0.8/functions/v1_0_0/libraries/FunctionsRequest.sol\":4045:4053  language */\n      dup2\n        /* \"@chainlink/contracts@1.4.0/src/v0.8/functions/v1_0_0/libraries/FunctionsRequest.sol\":4029:4033  self */\n      dup5\n        /* \"@chainlink/contracts@1.4.0/src/v0.8/functions/v1_0_0/libraries/FunctionsRequest.sol\":4029:4042  self.language */\n      0x40\n      add\n        /* \"@chainlink/contracts@1.4.0/src/v0.8/functions/v1_0_0/libraries/FunctionsRequest.sol\":4029:4053  self.language = language */\n      swap1\n      0x00\n      dup2\n      gt\n      iszero\n      tag_198\n      jumpi\n      tag_199\n      tag_130\n      jump\t// in\n    tag_199:\n    tag_198:\n      swap1\n      dup2\n      0x00\n      dup2\n      gt\n      iszero\n      tag_200\n      jumpi\n      tag_201\n      tag_130\n      jump\t// in\n    tag_201:\n    tag_200:\n      dup2\n      mstore\n      pop\n      pop\n        /* \"@chainlink/contracts@1.4.0/src/v0.8/functions/v1_0_0/libraries/FunctionsRequest.sol\":4073:4079  source */\n      dup1\n        /* \"@chainlink/contracts@1.4.0/src/v0.8/functions/v1_0_0/libraries/FunctionsRequest.sol\":4059:4063  self */\n      dup5\n        /* \"@chainlink/contracts@1.4.0/src/v0.8/functions/v1_0_0/libraries/FunctionsRequest.sol\":4059:4070  self.source */\n      0x60\n      add\n        /* \"@chainlink/contracts@1.4.0/src/v0.8/functions/v1_0_0/libraries/FunctionsRequest.sol\":4059:4079  self.source = source */\n      dup2\n      swap1\n      mstore\n      pop\n        /* \"@chainlink/contracts@1.4.0/src/v0.8/functions/v1_0_0/libraries/FunctionsRequest.sol\":3777:4084  function initializeRequest(... */\n      pop\n      pop\n      pop\n      pop\n      jump\t// out\n        /* \"@chainlink/contracts@1.4.0/src/v0.8/vendor/solidity-cborutils/v2.0.0/CBOR.sol\":1490:1663  function create(uint256 capacity) internal pure returns(CBORBuffer memory cbor) {... */\n    tag_124:\n        /* \"@chainlink/contracts@1.4.0/src/v0.8/vendor/solidity-cborutils/v2.0.0/CBOR.sol\":1546:1568  CBORBuffer memory cbor */\n      tag_202\n      tag_203\n      jump\t// in\n    tag_202:\n        /* \"@chainlink/contracts@1.4.0/src/v0.8/vendor/solidity-cborutils/v2.0.0/CBOR.sol\":1580:1611  Buffer.init(cbor.buf, capacity) */\n      tag_205\n        /* \"@chainlink/contracts@1.4.0/src/v0.8/vendor/solidity-cborutils/v2.0.0/CBOR.sol\":1592:1596  cbor */\n      dup2\n        /* \"@chainlink/contracts@1.4.0/src/v0.8/vendor/solidity-cborutils/v2.0.0/CBOR.sol\":1592:1600  cbor.buf */\n      0x00\n      add\n      mload\n        /* \"@chainlink/contracts@1.4.0/src/v0.8/vendor/solidity-cborutils/v2.0.0/CBOR.sol\":1602:1610  capacity */\n      dup4\n        /* \"@chainlink/contracts@1.4.0/src/v0.8/vendor/solidity-cborutils/v2.0.0/CBOR.sol\":1580:1591  Buffer.init */\n      tag_206\n        /* \"@chainlink/contracts@1.4.0/src/v0.8/vendor/solidity-cborutils/v2.0.0/CBOR.sol\":1580:1611  Buffer.init(cbor.buf, capacity) */\n      jump\t// in\n    tag_205:\n      pop\n        /* \"@chainlink/contracts@1.4.0/src/v0.8/vendor/solidity-cborutils/v2.0.0/CBOR.sol\":1634:1635  0 */\n      0x00\n        /* \"@chainlink/contracts@1.4.0/src/v0.8/vendor/solidity-cborutils/v2.0.0/CBOR.sol\":1621:1625  cbor */\n      dup2\n        /* \"@chainlink/contracts@1.4.0/src/v0.8/vendor/solidity-cborutils/v2.0.0/CBOR.sol\":1621:1631  cbor.depth */\n      0x20\n      add\n        /* \"@chainlink/contracts@1.4.0/src/v0.8/vendor/solidity-cborutils/v2.0.0/CBOR.sol\":1621:1635  cbor.depth = 0 */\n      dup2\n      dup2\n      mstore\n      pop\n      pop\n        /* \"@chainlink/contracts@1.4.0/src/v0.8/vendor/solidity-cborutils/v2.0.0/CBOR.sol\":1490:1663  function create(uint256 capacity) internal pure returns(CBORBuffer memory cbor) {... */\n      swap2\n      swap1\n      pop\n      jump\t// out\n        /* \"@chainlink/contracts@1.4.0/src/v0.8/vendor/solidity-cborutils/v2.0.0/CBOR.sol\":3021:3225  function writeString(CBORBuffer memory buf, string memory value) internal pure {... */\n    tag_126:\n        /* \"@chainlink/contracts@1.4.0/src/v0.8/vendor/solidity-cborutils/v2.0.0/CBOR.sol\":3110:3180  writeFixedNumeric(buf, MAJOR_TYPE_STRING, uint64(bytes(value).length)) */\n      tag_208\n        /* \"@chainlink/contracts@1.4.0/src/v0.8/vendor/solidity-cborutils/v2.0.0/CBOR.sol\":3128:3131  buf */\n      dup3\n        /* \"@chainlink/contracts@1.4.0/src/v0.8/vendor/solidity-cborutils/v2.0.0/CBOR.sol\":998:999  3 */\n      0x03\n        /* \"@chainlink/contracts@1.4.0/src/v0.8/vendor/solidity-cborutils/v2.0.0/CBOR.sol\":3165:3170  value */\n      dup4\n        /* \"@chainlink/contracts@1.4.0/src/v0.8/vendor/solidity-cborutils/v2.0.0/CBOR.sol\":3159:3178  bytes(value).length */\n      mload\n        /* \"@chainlink/contracts@1.4.0/src/v0.8/vendor/solidity-cborutils/v2.0.0/CBOR.sol\":3110:3127  writeFixedNumeric */\n      tag_209\n        /* \"@chainlink/contracts@1.4.0/src/v0.8/vendor/solidity-cborutils/v2.0.0/CBOR.sol\":3110:3180  writeFixedNumeric(buf, MAJOR_TYPE_STRING, uint64(bytes(value).length)) */\n      jump\t// in\n    tag_208:\n        /* \"@chainlink/contracts@1.4.0/src/v0.8/vendor/solidity-cborutils/v2.0.0/CBOR.sol\":3190:3218  buf.buf.append(bytes(value)) */\n      tag_210\n        /* \"@chainlink/contracts@1.4.0/src/v0.8/vendor/solidity-cborutils/v2.0.0/CBOR.sol\":3211:3216  value */\n      dup2\n        /* \"@chainlink/contracts@1.4.0/src/v0.8/vendor/solidity-cborutils/v2.0.0/CBOR.sol\":3190:3193  buf */\n      dup4\n        /* \"@chainlink/contracts@1.4.0/src/v0.8/vendor/solidity-cborutils/v2.0.0/CBOR.sol\":3190:3197  buf.buf */\n      0x00\n      add\n      mload\n        /* \"@chainlink/contracts@1.4.0/src/v0.8/vendor/solidity-cborutils/v2.0.0/CBOR.sol\":3190:3204  buf.buf.append */\n      tag_211\n      swap1\n        /* \"@chainlink/contracts@1.4.0/src/v0.8/vendor/solidity-cborutils/v2.0.0/CBOR.sol\":3190:3218  buf.buf.append(bytes(value)) */\n      swap2\n      swap1\n      0xffffffff\n      and\n      jump\t// in\n    tag_210:\n      pop\n        /* \"@chainlink/contracts@1.4.0/src/v0.8/vendor/solidity-cborutils/v2.0.0/CBOR.sol\":3021:3225  function writeString(CBORBuffer memory buf, string memory value) internal pure {... */\n      pop\n      pop\n      jump\t// out\n        /* \"@chainlink/contracts@1.4.0/src/v0.8/vendor/solidity-cborutils/v2.0.0/CBOR.sol\":1832:2034  function writeUInt256(CBORBuffer memory buf, uint256 value) internal pure {... */\n    tag_131:\n        /* \"@chainlink/contracts@1.4.0/src/v0.8/vendor/solidity-cborutils/v2.0.0/CBOR.sol\":1916:1983  buf.buf.appendUint8(uint8((MAJOR_TYPE_TAG << 5) | TAG_TYPE_BIGNUM)) */\n      tag_213\n        /* \"@chainlink/contracts@1.4.0/src/v0.8/vendor/solidity-cborutils/v2.0.0/CBOR.sol\":1246:1247  2 */\n      0x02\n        /* \"@chainlink/contracts@1.4.0/src/v0.8/vendor/solidity-cborutils/v2.0.0/CBOR.sol\":1961:1962  5 */\n      0x05\n        /* \"@chainlink/contracts@1.4.0/src/v0.8/vendor/solidity-cborutils/v2.0.0/CBOR.sol\":1141:1142  6 */\n      0x06\n        /* \"@chainlink/contracts@1.4.0/src/v0.8/vendor/solidity-cborutils/v2.0.0/CBOR.sol\":1943:1962  MAJOR_TYPE_TAG << 5 */\n      0xff\n      and\n      swap1\n      shl\n        /* \"@chainlink/contracts@1.4.0/src/v0.8/vendor/solidity-cborutils/v2.0.0/CBOR.sol\":1942:1981  (MAJOR_TYPE_TAG << 5) | TAG_TYPE_BIGNUM */\n      or\n        /* \"@chainlink/contracts@1.4.0/src/v0.8/vendor/solidity-cborutils/v2.0.0/CBOR.sol\":1916:1919  buf */\n      dup4\n        /* \"@chainlink/contracts@1.4.0/src/v0.8/vendor/solidity-cborutils/v2.0.0/CBOR.sol\":1916:1923  buf.buf */\n      0x00\n      add\n      mload\n        /* \"@chainlink/contracts@1.4.0/src/v0.8/vendor/solidity-cborutils/v2.0.0/CBOR.sol\":1916:1935  buf.buf.appendUint8 */\n      tag_214\n      swap1\n        /* \"@chainlink/contracts@1.4.0/src/v0.8/vendor/solidity-cborutils/v2.0.0/CBOR.sol\":1916:1983  buf.buf.appendUint8(uint8((MAJOR_TYPE_TAG << 5) | TAG_TYPE_BIGNUM)) */\n      swap2\n      swap1\n      0xffffffff\n      and\n      jump\t// in\n    tag_213:\n      pop\n        /* \"@chainlink/contracts@1.4.0/src/v0.8/vendor/solidity-cborutils/v2.0.0/CBOR.sol\":1993:2027  writeBytes(buf, abi.encode(value)) */\n      tag_215\n        /* \"@chainlink/contracts@1.4.0/src/v0.8/vendor/solidity-cborutils/v2.0.0/CBOR.sol\":2004:2007  buf */\n      dup3\n        /* \"@chainlink/contracts@1.4.0/src/v0.8/vendor/solidity-cborutils/v2.0.0/CBOR.sol\":2020:2025  value */\n      dup3\n        /* \"@chainlink/contracts@1.4.0/src/v0.8/vendor/solidity-cborutils/v2.0.0/CBOR.sol\":2009:2026  abi.encode(value) */\n      add(0x20, mload(0x40))\n      tag_216\n      swap2\n      swap1\n      tag_23\n      jump\t// in\n    tag_216:\n      mload(0x40)\n      0x20\n      dup2\n      dup4\n      sub\n      sub\n      dup2\n      mstore\n      swap1\n      0x40\n      mstore\n        /* \"@chainlink/contracts@1.4.0/src/v0.8/vendor/solidity-cborutils/v2.0.0/CBOR.sol\":1993:2003  writeBytes */\n      tag_165\n        /* \"@chainlink/contracts@1.4.0/src/v0.8/vendor/solidity-cborutils/v2.0.0/CBOR.sol\":1993:2027  writeBytes(buf, abi.encode(value)) */\n      jump\t// in\n    tag_215:\n        /* \"@chainlink/contracts@1.4.0/src/v0.8/vendor/solidity-cborutils/v2.0.0/CBOR.sol\":1832:2034  function writeUInt256(CBORBuffer memory buf, uint256 value) internal pure {... */\n      pop\n      pop\n      jump\t// out\n        /* \"@chainlink/contracts@1.4.0/src/v0.8/vendor/solidity-cborutils/v2.0.0/CBOR.sol\":3607:3753  function startArray(CBORBuffer memory buf) internal pure {... */\n    tag_141:\n        /* \"@chainlink/contracts@1.4.0/src/v0.8/vendor/solidity-cborutils/v2.0.0/CBOR.sol\":3674:3722  writeIndefiniteLengthType(buf, MAJOR_TYPE_ARRAY) */\n      tag_218\n        /* \"@chainlink/contracts@1.4.0/src/v0.8/vendor/solidity-cborutils/v2.0.0/CBOR.sol\":3700:3703  buf */\n      dup2\n        /* \"@chainlink/contracts@1.4.0/src/v0.8/vendor/solidity-cborutils/v2.0.0/CBOR.sol\":1047:1048  4 */\n      0x04\n        /* \"@chainlink/contracts@1.4.0/src/v0.8/vendor/solidity-cborutils/v2.0.0/CBOR.sol\":3674:3699  writeIndefiniteLengthType */\n      tag_219\n        /* \"@chainlink/contracts@1.4.0/src/v0.8/vendor/solidity-cborutils/v2.0.0/CBOR.sol\":3674:3722  writeIndefiniteLengthType(buf, MAJOR_TYPE_ARRAY) */\n      jump\t// in\n    tag_218:\n        /* \"@chainlink/contracts@1.4.0/src/v0.8/vendor/solidity-cborutils/v2.0.0/CBOR.sol\":3745:3746  1 */\n      0x01\n        /* \"@chainlink/contracts@1.4.0/src/v0.8/vendor/solidity-cborutils/v2.0.0/CBOR.sol\":3732:3735  buf */\n      dup2\n        /* \"@chainlink/contracts@1.4.0/src/v0.8/vendor/solidity-cborutils/v2.0.0/CBOR.sol\":3732:3741  buf.depth */\n      0x20\n      add\n        /* \"@chainlink/contracts@1.4.0/src/v0.8/vendor/solidity-cborutils/v2.0.0/CBOR.sol\":3732:3746  buf.depth += 1 */\n      dup2\n      dup2\n      mload\n      tag_220\n      swap2\n      swap1\n      tag_221\n      jump\t// in\n    tag_220:\n      swap2\n      pop\n      dup2\n      dup2\n      mstore\n      pop\n      pop\n        /* \"@chainlink/contracts@1.4.0/src/v0.8/vendor/solidity-cborutils/v2.0.0/CBOR.sol\":3607:3753  function startArray(CBORBuffer memory buf) internal pure {... */\n      pop\n      jump\t// out\n        /* \"@chainlink/contracts@1.4.0/src/v0.8/vendor/solidity-cborutils/v2.0.0/CBOR.sol\":4211:4365  function endSequence(CBORBuffer memory buf) internal pure {... */\n    tag_152:\n        /* \"@chainlink/contracts@1.4.0/src/v0.8/vendor/solidity-cborutils/v2.0.0/CBOR.sol\":4279:4334  writeIndefiniteLengthType(buf, MAJOR_TYPE_CONTENT_FREE) */\n      tag_223\n        /* \"@chainlink/contracts@1.4.0/src/v0.8/vendor/solidity-cborutils/v2.0.0/CBOR.sol\":4305:4308  buf */\n      dup2\n        /* \"@chainlink/contracts@1.4.0/src/v0.8/vendor/solidity-cborutils/v2.0.0/CBOR.sol\":1197:1198  7 */\n      0x07\n        /* \"@chainlink/contracts@1.4.0/src/v0.8/vendor/solidity-cborutils/v2.0.0/CBOR.sol\":4279:4304  writeIndefiniteLengthType */\n      tag_219\n        /* \"@chainlink/contracts@1.4.0/src/v0.8/vendor/solidity-cborutils/v2.0.0/CBOR.sol\":4279:4334  writeIndefiniteLengthType(buf, MAJOR_TYPE_CONTENT_FREE) */\n      jump\t// in\n    tag_223:\n        /* \"@chainlink/contracts@1.4.0/src/v0.8/vendor/solidity-cborutils/v2.0.0/CBOR.sol\":4357:4358  1 */\n      0x01\n        /* \"@chainlink/contracts@1.4.0/src/v0.8/vendor/solidity-cborutils/v2.0.0/CBOR.sol\":4344:4347  buf */\n      dup2\n        /* \"@chainlink/contracts@1.4.0/src/v0.8/vendor/solidity-cborutils/v2.0.0/CBOR.sol\":4344:4353  buf.depth */\n      0x20\n      add\n        /* \"@chainlink/contracts@1.4.0/src/v0.8/vendor/solidity-cborutils/v2.0.0/CBOR.sol\":4344:4358  buf.depth -= 1 */\n      dup2\n      dup2\n      mload\n      tag_224\n      swap2\n      swap1\n      tag_225\n      jump\t// in\n    tag_224:\n      swap2\n      pop\n      dup2\n      dup2\n      mstore\n      pop\n      pop\n        /* \"@chainlink/contracts@1.4.0/src/v0.8/vendor/solidity-cborutils/v2.0.0/CBOR.sol\":4211:4365  function endSequence(CBORBuffer memory buf) internal pure {... */\n      pop\n      jump\t// out\n        /* \"@chainlink/contracts@1.4.0/src/v0.8/vendor/solidity-cborutils/v2.0.0/CBOR.sol\":2828:3015  function writeBytes(CBORBuffer memory buf, bytes memory value) internal pure {... */\n    tag_165:\n        /* \"@chainlink/contracts@1.4.0/src/v0.8/vendor/solidity-cborutils/v2.0.0/CBOR.sol\":2915:2977  writeFixedNumeric(buf, MAJOR_TYPE_BYTES, uint64(value.length)) */\n      tag_227\n        /* \"@chainlink/contracts@1.4.0/src/v0.8/vendor/solidity-cborutils/v2.0.0/CBOR.sol\":2933:2936  buf */\n      dup3\n        /* \"@chainlink/contracts@1.4.0/src/v0.8/vendor/solidity-cborutils/v2.0.0/CBOR.sol\":948:949  2 */\n      0x02\n        /* \"@chainlink/contracts@1.4.0/src/v0.8/vendor/solidity-cborutils/v2.0.0/CBOR.sol\":2963:2968  value */\n      dup4\n        /* \"@chainlink/contracts@1.4.0/src/v0.8/vendor/solidity-cborutils/v2.0.0/CBOR.sol\":2963:2975  value.length */\n      mload\n        /* \"@chainlink/contracts@1.4.0/src/v0.8/vendor/solidity-cborutils/v2.0.0/CBOR.sol\":2915:2932  writeFixedNumeric */\n      tag_209\n        /* \"@chainlink/contracts@1.4.0/src/v0.8/vendor/solidity-cborutils/v2.0.0/CBOR.sol\":2915:2977  writeFixedNumeric(buf, MAJOR_TYPE_BYTES, uint64(value.length)) */\n      jump\t// in\n    tag_227:\n        /* \"@chainlink/contracts@1.4.0/src/v0.8/vendor/solidity-cborutils/v2.0.0/CBOR.sol\":2987:3008  buf.buf.append(value) */\n      tag_228\n        /* \"@chainlink/contracts@1.4.0/src/v0.8/vendor/solidity-cborutils/v2.0.0/CBOR.sol\":3002:3007  value */\n      dup2\n        /* \"@chainlink/contracts@1.4.0/src/v0.8/vendor/solidity-cborutils/v2.0.0/CBOR.sol\":2987:2990  buf */\n      dup4\n        /* \"@chainlink/contracts@1.4.0/src/v0.8/vendor/solidity-cborutils/v2.0.0/CBOR.sol\":2987:2994  buf.buf */\n      0x00\n      add\n      mload\n        /* \"@chainlink/contracts@1.4.0/src/v0.8/vendor/solidity-cborutils/v2.0.0/CBOR.sol\":2987:3001  buf.buf.append */\n      tag_211\n      swap1\n        /* \"@chainlink/contracts@1.4.0/src/v0.8/vendor/solidity-cborutils/v2.0.0/CBOR.sol\":2987:3008  buf.buf.append(value) */\n      swap2\n      swap1\n      0xffffffff\n      and\n      jump\t// in\n    tag_228:\n      pop\n        /* \"@chainlink/contracts@1.4.0/src/v0.8/vendor/solidity-cborutils/v2.0.0/CBOR.sol\":2828:3015  function writeBytes(CBORBuffer memory buf, bytes memory value) internal pure {... */\n      pop\n      pop\n      jump\t// out\n        /* \"@chainlink/contracts@1.4.0/src/v0.8/vendor/@ensdomains/buffer/v0.1.0/Buffer.sol\":1020:1575  function init(buffer memory buf, uint capacity) internal pure returns(buffer memory) {... */\n    tag_206:\n        /* \"@chainlink/contracts@1.4.0/src/v0.8/vendor/@ensdomains/buffer/v0.1.0/Buffer.sol\":1090:1103  buffer memory */\n      tag_229\n      tag_230\n      jump\t// in\n    tag_229:\n        /* \"@chainlink/contracts@1.4.0/src/v0.8/vendor/@ensdomains/buffer/v0.1.0/Buffer.sol\":1136:1137  0 */\n      0x00\n        /* \"@chainlink/contracts@1.4.0/src/v0.8/vendor/@ensdomains/buffer/v0.1.0/Buffer.sol\":1130:1132  32 */\n      0x20\n        /* \"@chainlink/contracts@1.4.0/src/v0.8/vendor/@ensdomains/buffer/v0.1.0/Buffer.sol\":1119:1127  capacity */\n      dup4\n        /* \"@chainlink/contracts@1.4.0/src/v0.8/vendor/@ensdomains/buffer/v0.1.0/Buffer.sol\":1119:1132  capacity % 32 */\n      tag_232\n      swap2\n      swap1\n      tag_233\n      jump\t// in\n    tag_232:\n        /* \"@chainlink/contracts@1.4.0/src/v0.8/vendor/@ensdomains/buffer/v0.1.0/Buffer.sol\":1119:1137  capacity % 32 != 0 */\n      eq\n        /* \"@chainlink/contracts@1.4.0/src/v0.8/vendor/@ensdomains/buffer/v0.1.0/Buffer.sol\":1115:1196  if (capacity % 32 != 0) {... */\n      tag_234\n      jumpi\n        /* \"@chainlink/contracts@1.4.0/src/v0.8/vendor/@ensdomains/buffer/v0.1.0/Buffer.sol\":1182:1184  32 */\n      0x20\n        /* \"@chainlink/contracts@1.4.0/src/v0.8/vendor/@ensdomains/buffer/v0.1.0/Buffer.sol\":1171:1179  capacity */\n      dup3\n        /* \"@chainlink/contracts@1.4.0/src/v0.8/vendor/@ensdomains/buffer/v0.1.0/Buffer.sol\":1171:1184  capacity % 32 */\n      tag_235\n      swap2\n      swap1\n      tag_233\n      jump\t// in\n    tag_235:\n        /* \"@chainlink/contracts@1.4.0/src/v0.8/vendor/@ensdomains/buffer/v0.1.0/Buffer.sol\":1165:1167  32 */\n      0x20\n        /* \"@chainlink/contracts@1.4.0/src/v0.8/vendor/@ensdomains/buffer/v0.1.0/Buffer.sol\":1165:1185  32 - (capacity % 32) */\n      tag_236\n      swap2\n      swap1\n      tag_225\n      jump\t// in\n    tag_236:\n        /* \"@chainlink/contracts@1.4.0/src/v0.8/vendor/@ensdomains/buffer/v0.1.0/Buffer.sol\":1153:1185  capacity += 32 - (capacity % 32) */\n      dup3\n      tag_237\n      swap2\n      swap1\n      tag_221\n      jump\t// in\n    tag_237:\n      swap2\n      pop\n        /* \"@chainlink/contracts@1.4.0/src/v0.8/vendor/@ensdomains/buffer/v0.1.0/Buffer.sol\":1115:1196  if (capacity % 32 != 0) {... */\n    tag_234:\n        /* \"@chainlink/contracts@1.4.0/src/v0.8/vendor/@ensdomains/buffer/v0.1.0/Buffer.sol\":1266:1274  capacity */\n      dup2\n        /* \"@chainlink/contracts@1.4.0/src/v0.8/vendor/@ensdomains/buffer/v0.1.0/Buffer.sol\":1251:1254  buf */\n      dup4\n        /* \"@chainlink/contracts@1.4.0/src/v0.8/vendor/@ensdomains/buffer/v0.1.0/Buffer.sol\":1251:1263  buf.capacity */\n      0x20\n      add\n        /* \"@chainlink/contracts@1.4.0/src/v0.8/vendor/@ensdomains/buffer/v0.1.0/Buffer.sol\":1251:1274  buf.capacity = capacity */\n      dup2\n      dup2\n      mstore\n      pop\n      pop\n        /* \"@chainlink/contracts@1.4.0/src/v0.8/vendor/@ensdomains/buffer/v0.1.0/Buffer.sol\":1324:1328  0x40 */\n      0x40\n        /* \"@chainlink/contracts@1.4.0/src/v0.8/vendor/@ensdomains/buffer/v0.1.0/Buffer.sol\":1318:1329  mload(0x40) */\n      mload\n        /* \"@chainlink/contracts@1.4.0/src/v0.8/vendor/@ensdomains/buffer/v0.1.0/Buffer.sol\":1354:1357  ptr */\n      dup1\n        /* \"@chainlink/contracts@1.4.0/src/v0.8/vendor/@ensdomains/buffer/v0.1.0/Buffer.sol\":1349:1352  buf */\n      dup5\n        /* \"@chainlink/contracts@1.4.0/src/v0.8/vendor/@ensdomains/buffer/v0.1.0/Buffer.sol\":1342:1358  mstore(buf, ptr) */\n      mstore\n        /* \"@chainlink/contracts@1.4.0/src/v0.8/vendor/@ensdomains/buffer/v0.1.0/Buffer.sol\":1383:1384  0 */\n      0x00\n        /* \"@chainlink/contracts@1.4.0/src/v0.8/vendor/@ensdomains/buffer/v0.1.0/Buffer.sol\":1378:1381  ptr */\n      dup2\n        /* \"@chainlink/contracts@1.4.0/src/v0.8/vendor/@ensdomains/buffer/v0.1.0/Buffer.sol\":1371:1385  mstore(ptr, 0) */\n      mstore\n        /* \"@chainlink/contracts@1.4.0/src/v0.8/vendor/@ensdomains/buffer/v0.1.0/Buffer.sol\":1426:1434  capacity */\n      dup3\n        /* \"@chainlink/contracts@1.4.0/src/v0.8/vendor/@ensdomains/buffer/v0.1.0/Buffer.sol\":1421:1424  ptr */\n      dup2\n        /* \"@chainlink/contracts@1.4.0/src/v0.8/vendor/@ensdomains/buffer/v0.1.0/Buffer.sol\":1417:1435  add(ptr, capacity) */\n      add\n        /* \"@chainlink/contracts@1.4.0/src/v0.8/vendor/@ensdomains/buffer/v0.1.0/Buffer.sol\":1413:1415  32 */\n      0x20\n        /* \"@chainlink/contracts@1.4.0/src/v0.8/vendor/@ensdomains/buffer/v0.1.0/Buffer.sol\":1409:1436  add(32, add(ptr, capacity)) */\n      add\n        /* \"@chainlink/contracts@1.4.0/src/v0.8/vendor/@ensdomains/buffer/v0.1.0/Buffer.sol\":1460:1463  ptr */\n      dup2\n        /* \"@chainlink/contracts@1.4.0/src/v0.8/vendor/@ensdomains/buffer/v0.1.0/Buffer.sol\":1455:1458  fpm */\n      dup2\n        /* \"@chainlink/contracts@1.4.0/src/v0.8/vendor/@ensdomains/buffer/v0.1.0/Buffer.sol\":1452:1464  lt(fpm, ptr) */\n      lt\n        /* \"@chainlink/contracts@1.4.0/src/v0.8/vendor/@ensdomains/buffer/v0.1.0/Buffer.sol\":1449:1509  if lt(fpm, ptr) {... */\n      iszero\n      tag_238\n      jumpi\n        /* \"@chainlink/contracts@1.4.0/src/v0.8/vendor/@ensdomains/buffer/v0.1.0/Buffer.sol\":1493:1494  0 */\n      0x00\n        /* \"@chainlink/contracts@1.4.0/src/v0.8/vendor/@ensdomains/buffer/v0.1.0/Buffer.sol\":1490:1491  0 */\n      dup1\n        /* \"@chainlink/contracts@1.4.0/src/v0.8/vendor/@ensdomains/buffer/v0.1.0/Buffer.sol\":1483:1495  revert(0, 0) */\n      revert\n        /* \"@chainlink/contracts@1.4.0/src/v0.8/vendor/@ensdomains/buffer/v0.1.0/Buffer.sol\":1449:1509  if lt(fpm, ptr) {... */\n    tag_238:\n        /* \"@chainlink/contracts@1.4.0/src/v0.8/vendor/@ensdomains/buffer/v0.1.0/Buffer.sol\":1535:1538  fpm */\n      dup1\n        /* \"@chainlink/contracts@1.4.0/src/v0.8/vendor/@ensdomains/buffer/v0.1.0/Buffer.sol\":1529:1533  0x40 */\n      0x40\n        /* \"@chainlink/contracts@1.4.0/src/v0.8/vendor/@ensdomains/buffer/v0.1.0/Buffer.sol\":1522:1539  mstore(0x40, fpm) */\n      mstore\n        /* \"@chainlink/contracts@1.4.0/src/v0.8/vendor/@ensdomains/buffer/v0.1.0/Buffer.sol\":1293:1549  {... */\n      pop\n      pop\n        /* \"@chainlink/contracts@1.4.0/src/v0.8/vendor/@ensdomains/buffer/v0.1.0/Buffer.sol\":1565:1568  buf */\n      dup3\n        /* \"@chainlink/contracts@1.4.0/src/v0.8/vendor/@ensdomains/buffer/v0.1.0/Buffer.sol\":1558:1568  return buf */\n      swap1\n      pop\n        /* \"@chainlink/contracts@1.4.0/src/v0.8/vendor/@ensdomains/buffer/v0.1.0/Buffer.sol\":1020:1575  function init(buffer memory buf, uint capacity) internal pure returns(buffer memory) {... */\n      swap3\n      swap2\n      pop\n      pop\n      jump\t// out\n        /* \"@chainlink/contracts@1.4.0/src/v0.8/vendor/solidity-cborutils/v2.0.0/CBOR.sol\":6156:6915  function writeFixedNumeric(... */\n    tag_209:\n        /* \"@chainlink/contracts@1.4.0/src/v0.8/vendor/solidity-cborutils/v2.0.0/CBOR.sol\":6299:6301  23 */\n      0x17\n        /* \"@chainlink/contracts@1.4.0/src/v0.8/vendor/solidity-cborutils/v2.0.0/CBOR.sol\":6290:6295  value */\n      dup2\n        /* \"@chainlink/contracts@1.4.0/src/v0.8/vendor/solidity-cborutils/v2.0.0/CBOR.sol\":6290:6301  value <= 23 */\n      0xffffffffffffffff\n      and\n      gt\n        /* \"@chainlink/contracts@1.4.0/src/v0.8/vendor/solidity-cborutils/v2.0.0/CBOR.sol\":6286:6909  if (value <= 23) {... */\n      tag_240\n      jumpi\n        /* \"@chainlink/contracts@1.4.0/src/v0.8/vendor/solidity-cborutils/v2.0.0/CBOR.sol\":6317:6365  buf.buf.appendUint8(uint8((major << 5) | value)) */\n      tag_241\n        /* \"@chainlink/contracts@1.4.0/src/v0.8/vendor/solidity-cborutils/v2.0.0/CBOR.sol\":6358:6363  value */\n      dup2\n        /* \"@chainlink/contracts@1.4.0/src/v0.8/vendor/solidity-cborutils/v2.0.0/CBOR.sol\":6353:6354  5 */\n      0x05\n        /* \"@chainlink/contracts@1.4.0/src/v0.8/vendor/solidity-cborutils/v2.0.0/CBOR.sol\":6344:6349  major */\n      dup5\n        /* \"@chainlink/contracts@1.4.0/src/v0.8/vendor/solidity-cborutils/v2.0.0/CBOR.sol\":6344:6354  major << 5 */\n      0xff\n      and\n      swap1\n      shl\n        /* \"@chainlink/contracts@1.4.0/src/v0.8/vendor/solidity-cborutils/v2.0.0/CBOR.sol\":6343:6363  (major << 5) | value */\n      0xff\n      and\n      or\n        /* \"@chainlink/contracts@1.4.0/src/v0.8/vendor/solidity-cborutils/v2.0.0/CBOR.sol\":6317:6320  buf */\n      dup5\n        /* \"@chainlink/contracts@1.4.0/src/v0.8/vendor/solidity-cborutils/v2.0.0/CBOR.sol\":6317:6324  buf.buf */\n      0x00\n      add\n      mload\n        /* \"@chainlink/contracts@1.4.0/src/v0.8/vendor/solidity-cborutils/v2.0.0/CBOR.sol\":6317:6336  buf.buf.appendUint8 */\n      tag_214\n      swap1\n        /* \"@chainlink/contracts@1.4.0/src/v0.8/vendor/solidity-cborutils/v2.0.0/CBOR.sol\":6317:6365  buf.buf.appendUint8(uint8((major << 5) | value)) */\n      swap2\n      swap1\n      0xffffffff\n      and\n      jump\t// in\n    tag_241:\n      pop\n        /* \"@chainlink/contracts@1.4.0/src/v0.8/vendor/solidity-cborutils/v2.0.0/CBOR.sol\":6286:6909  if (value <= 23) {... */\n      jump(tag_242)\n    tag_240:\n        /* \"@chainlink/contracts@1.4.0/src/v0.8/vendor/solidity-cborutils/v2.0.0/CBOR.sol\":6395:6399  0xFF */\n      0xff\n        /* \"@chainlink/contracts@1.4.0/src/v0.8/vendor/solidity-cborutils/v2.0.0/CBOR.sol\":6386:6391  value */\n      dup2\n        /* \"@chainlink/contracts@1.4.0/src/v0.8/vendor/solidity-cborutils/v2.0.0/CBOR.sol\":6386:6399  value <= 0xFF */\n      0xffffffffffffffff\n      and\n      gt\n        /* \"@chainlink/contracts@1.4.0/src/v0.8/vendor/solidity-cborutils/v2.0.0/CBOR.sol\":6382:6909  if (value <= 0xFF) {... */\n      tag_243\n      jumpi\n        /* \"@chainlink/contracts@1.4.0/src/v0.8/vendor/solidity-cborutils/v2.0.0/CBOR.sol\":6415:6460  buf.buf.appendUint8(uint8((major << 5) | 24)) */\n      tag_244\n        /* \"@chainlink/contracts@1.4.0/src/v0.8/vendor/solidity-cborutils/v2.0.0/CBOR.sol\":6456:6458  24 */\n      0x18\n        /* \"@chainlink/contracts@1.4.0/src/v0.8/vendor/solidity-cborutils/v2.0.0/CBOR.sol\":6451:6452  5 */\n      0x05\n        /* \"@chainlink/contracts@1.4.0/src/v0.8/vendor/solidity-cborutils/v2.0.0/CBOR.sol\":6442:6447  major */\n      dup5\n        /* \"@chainlink/contracts@1.4.0/src/v0.8/vendor/solidity-cborutils/v2.0.0/CBOR.sol\":6442:6452  major << 5 */\n      0xff\n      and\n      swap1\n      shl\n        /* \"@chainlink/contracts@1.4.0/src/v0.8/vendor/solidity-cborutils/v2.0.0/CBOR.sol\":6441:6458  (major << 5) | 24 */\n      or\n        /* \"@chainlink/contracts@1.4.0/src/v0.8/vendor/solidity-cborutils/v2.0.0/CBOR.sol\":6415:6418  buf */\n      dup5\n        /* \"@chainlink/contracts@1.4.0/src/v0.8/vendor/solidity-cborutils/v2.0.0/CBOR.sol\":6415:6422  buf.buf */\n      0x00\n      add\n      mload\n        /* \"@chainlink/contracts@1.4.0/src/v0.8/vendor/solidity-cborutils/v2.0.0/CBOR.sol\":6415:6434  buf.buf.appendUint8 */\n      tag_214\n      swap1\n        /* \"@chainlink/contracts@1.4.0/src/v0.8/vendor/solidity-cborutils/v2.0.0/CBOR.sol\":6415:6460  buf.buf.appendUint8(uint8((major << 5) | 24)) */\n      swap2\n      swap1\n      0xffffffff\n      and\n      jump\t// in\n    tag_244:\n      pop\n        /* \"@chainlink/contracts@1.4.0/src/v0.8/vendor/solidity-cborutils/v2.0.0/CBOR.sol\":6474:6501  buf.buf.appendInt(value, 1) */\n      tag_245\n        /* \"@chainlink/contracts@1.4.0/src/v0.8/vendor/solidity-cborutils/v2.0.0/CBOR.sol\":6492:6497  value */\n      dup2\n        /* \"@chainlink/contracts@1.4.0/src/v0.8/vendor/solidity-cborutils/v2.0.0/CBOR.sol\":6474:6501  buf.buf.appendInt(value, 1) */\n      0xffffffffffffffff\n      and\n        /* \"@chainlink/contracts@1.4.0/src/v0.8/vendor/solidity-cborutils/v2.0.0/CBOR.sol\":6499:6500  1 */\n      0x01\n        /* \"@chainlink/contracts@1.4.0/src/v0.8/vendor/solidity-cborutils/v2.0.0/CBOR.sol\":6474:6477  buf */\n      dup6\n        /* \"@chainlink/contracts@1.4.0/src/v0.8/vendor/solidity-cborutils/v2.0.0/CBOR.sol\":6474:6481  buf.buf */\n      0x00\n      add\n      mload\n        /* \"@chainlink/contracts@1.4.0/src/v0.8/vendor/solidity-cborutils/v2.0.0/CBOR.sol\":6474:6491  buf.buf.appendInt */\n      tag_246\n      swap1\n        /* \"@chainlink/contracts@1.4.0/src/v0.8/vendor/solidity-cborutils/v2.0.0/CBOR.sol\":6474:6501  buf.buf.appendInt(value, 1) */\n      swap3\n      swap2\n      swap1\n      0xffffffff\n      and\n      jump\t// in\n    tag_245:\n      pop\n        /* \"@chainlink/contracts@1.4.0/src/v0.8/vendor/solidity-cborutils/v2.0.0/CBOR.sol\":6382:6909  if (value <= 0xFF) {... */\n      jump(tag_247)\n    tag_243:\n        /* \"@chainlink/contracts@1.4.0/src/v0.8/vendor/solidity-cborutils/v2.0.0/CBOR.sol\":6531:6537  0xFFFF */\n      0xffff\n        /* \"@chainlink/contracts@1.4.0/src/v0.8/vendor/solidity-cborutils/v2.0.0/CBOR.sol\":6522:6527  value */\n      dup2\n        /* \"@chainlink/contracts@1.4.0/src/v0.8/vendor/solidity-cborutils/v2.0.0/CBOR.sol\":6522:6537  value <= 0xFFFF */\n      0xffffffffffffffff\n      and\n      gt\n        /* \"@chainlink/contracts@1.4.0/src/v0.8/vendor/solidity-cborutils/v2.0.0/CBOR.sol\":6518:6909  if (value <= 0xFFFF) {... */\n      tag_248\n      jumpi\n        /* \"@chainlink/contracts@1.4.0/src/v0.8/vendor/solidity-cborutils/v2.0.0/CBOR.sol\":6553:6598  buf.buf.appendUint8(uint8((major << 5) | 25)) */\n      tag_249\n        /* \"@chainlink/contracts@1.4.0/src/v0.8/vendor/solidity-cborutils/v2.0.0/CBOR.sol\":6594:6596  25 */\n      0x19\n        /* \"@chainlink/contracts@1.4.0/src/v0.8/vendor/solidity-cborutils/v2.0.0/CBOR.sol\":6589:6590  5 */\n      0x05\n        /* \"@chainlink/contracts@1.4.0/src/v0.8/vendor/solidity-cborutils/v2.0.0/CBOR.sol\":6580:6585  major */\n      dup5\n        /* \"@chainlink/contracts@1.4.0/src/v0.8/vendor/solidity-cborutils/v2.0.0/CBOR.sol\":6580:6590  major << 5 */\n      0xff\n      and\n      swap1\n      shl\n        /* \"@chainlink/contracts@1.4.0/src/v0.8/vendor/solidity-cborutils/v2.0.0/CBOR.sol\":6579:6596  (major << 5) | 25 */\n      or\n        /* \"@chainlink/contracts@1.4.0/src/v0.8/vendor/solidity-cborutils/v2.0.0/CBOR.sol\":6553:6556  buf */\n      dup5\n        /* \"@chainlink/contracts@1.4.0/src/v0.8/vendor/solidity-cborutils/v2.0.0/CBOR.sol\":6553:6560  buf.buf */\n      0x00\n      add\n      mload\n        /* \"@chainlink/contracts@1.4.0/src/v0.8/vendor/solidity-cborutils/v2.0.0/CBOR.sol\":6553:6572  buf.buf.appendUint8 */\n      tag_214\n      swap1\n        /* \"@chainlink/contracts@1.4.0/src/v0.8/vendor/solidity-cborutils/v2.0.0/CBOR.sol\":6553:6598  buf.buf.appendUint8(uint8((major << 5) | 25)) */\n      swap2\n      swap1\n      0xffffffff\n      and\n      jump\t// in\n    tag_249:\n      pop\n        /* \"@chainlink/contracts@1.4.0/src/v0.8/vendor/solidity-cborutils/v2.0.0/CBOR.sol\":6612:6639  buf.buf.appendInt(value, 2) */\n      tag_250\n        /* \"@chainlink/contracts@1.4.0/src/v0.8/vendor/solidity-cborutils/v2.0.0/CBOR.sol\":6630:6635  value */\n      dup2\n        /* \"@chainlink/contracts@1.4.0/src/v0.8/vendor/solidity-cborutils/v2.0.0/CBOR.sol\":6612:6639  buf.buf.appendInt(value, 2) */\n      0xffffffffffffffff\n      and\n        /* \"@chainlink/contracts@1.4.0/src/v0.8/vendor/solidity-cborutils/v2.0.0/CBOR.sol\":6637:6638  2 */\n      0x02\n        /* \"@chainlink/contracts@1.4.0/src/v0.8/vendor/solidity-cborutils/v2.0.0/CBOR.sol\":6612:6615  buf */\n      dup6\n        /* \"@chainlink/contracts@1.4.0/src/v0.8/vendor/solidity-cborutils/v2.0.0/CBOR.sol\":6612:6619  buf.buf */\n      0x00\n      add\n      mload\n        /* \"@chainlink/contracts@1.4.0/src/v0.8/vendor/solidity-cborutils/v2.0.0/CBOR.sol\":6612:6629  buf.buf.appendInt */\n      tag_246\n      swap1\n        /* \"@chainlink/contracts@1.4.0/src/v0.8/vendor/solidity-cborutils/v2.0.0/CBOR.sol\":6612:6639  buf.buf.appendInt(value, 2) */\n      swap3\n      swap2\n      swap1\n      0xffffffff\n      and\n      jump\t// in\n    tag_250:\n      pop\n        /* \"@chainlink/contracts@1.4.0/src/v0.8/vendor/solidity-cborutils/v2.0.0/CBOR.sol\":6518:6909  if (value <= 0xFFFF) {... */\n      jump(tag_251)\n    tag_248:\n        /* \"@chainlink/contracts@1.4.0/src/v0.8/vendor/solidity-cborutils/v2.0.0/CBOR.sol\":6669:6679  0xFFFFFFFF */\n      0xffffffff\n        /* \"@chainlink/contracts@1.4.0/src/v0.8/vendor/solidity-cborutils/v2.0.0/CBOR.sol\":6660:6665  value */\n      dup2\n        /* \"@chainlink/contracts@1.4.0/src/v0.8/vendor/solidity-cborutils/v2.0.0/CBOR.sol\":6660:6679  value <= 0xFFFFFFFF */\n      0xffffffffffffffff\n      and\n      gt\n        /* \"@chainlink/contracts@1.4.0/src/v0.8/vendor/solidity-cborutils/v2.0.0/CBOR.sol\":6656:6909  if (value <= 0xFFFFFFFF) {... */\n      tag_252\n      jumpi\n        /* \"@chainlink/contracts@1.4.0/src/v0.8/vendor/solidity-cborutils/v2.0.0/CBOR.sol\":6695:6740  buf.buf.appendUint8(uint8((major << 5) | 26)) */\n      tag_253\n        /* \"@chainlink/contracts@1.4.0/src/v0.8/vendor/solidity-cborutils/v2.0.0/CBOR.sol\":6736:6738  26 */\n      0x1a\n        /* \"@chainlink/contracts@1.4.0/src/v0.8/vendor/solidity-cborutils/v2.0.0/CBOR.sol\":6731:6732  5 */\n      0x05\n        /* \"@chainlink/contracts@1.4.0/src/v0.8/vendor/solidity-cborutils/v2.0.0/CBOR.sol\":6722:6727  major */\n      dup5\n        /* \"@chainlink/contracts@1.4.0/src/v0.8/vendor/solidity-cborutils/v2.0.0/CBOR.sol\":6722:6732  major << 5 */\n      0xff\n      and\n      swap1\n      shl\n        /* \"@chainlink/contracts@1.4.0/src/v0.8/vendor/solidity-cborutils/v2.0.0/CBOR.sol\":6721:6738  (major << 5) | 26 */\n      or\n        /* \"@chainlink/contracts@1.4.0/src/v0.8/vendor/solidity-cborutils/v2.0.0/CBOR.sol\":6695:6698  buf */\n      dup5\n        /* \"@chainlink/contracts@1.4.0/src/v0.8/vendor/solidity-cborutils/v2.0.0/CBOR.sol\":6695:6702  buf.buf */\n      0x00\n      add\n      mload\n        /* \"@chainlink/contracts@1.4.0/src/v0.8/vendor/solidity-cborutils/v2.0.0/CBOR.sol\":6695:6714  buf.buf.appendUint8 */\n      tag_214\n      swap1\n        /* \"@chainlink/contracts@1.4.0/src/v0.8/vendor/solidity-cborutils/v2.0.0/CBOR.sol\":6695:6740  buf.buf.appendUint8(uint8((major << 5) | 26)) */\n      swap2\n      swap1\n      0xffffffff\n      and\n      jump\t// in\n    tag_253:\n      pop\n        /* \"@chainlink/contracts@1.4.0/src/v0.8/vendor/solidity-cborutils/v2.0.0/CBOR.sol\":6754:6781  buf.buf.appendInt(value, 4) */\n      tag_254\n        /* \"@chainlink/contracts@1.4.0/src/v0.8/vendor/solidity-cborutils/v2.0.0/CBOR.sol\":6772:6777  value */\n      dup2\n        /* \"@chainlink/contracts@1.4.0/src/v0.8/vendor/solidity-cborutils/v2.0.0/CBOR.sol\":6754:6781  buf.buf.appendInt(value, 4) */\n      0xffffffffffffffff\n      and\n        /* \"@chainlink/contracts@1.4.0/src/v0.8/vendor/solidity-cborutils/v2.0.0/CBOR.sol\":6779:6780  4 */\n      0x04\n        /* \"@chainlink/contracts@1.4.0/src/v0.8/vendor/solidity-cborutils/v2.0.0/CBOR.sol\":6754:6757  buf */\n      dup6\n        /* \"@chainlink/contracts@1.4.0/src/v0.8/vendor/solidity-cborutils/v2.0.0/CBOR.sol\":6754:6761  buf.buf */\n      0x00\n      add\n      mload\n        /* \"@chainlink/contracts@1.4.0/src/v0.8/vendor/solidity-cborutils/v2.0.0/CBOR.sol\":6754:6771  buf.buf.appendInt */\n      tag_246\n      swap1\n        /* \"@chainlink/contracts@1.4.0/src/v0.8/vendor/solidity-cborutils/v2.0.0/CBOR.sol\":6754:6781  buf.buf.appendInt(value, 4) */\n      swap3\n      swap2\n      swap1\n      0xffffffff\n      and\n      jump\t// in\n    tag_254:\n      pop\n        /* \"@chainlink/contracts@1.4.0/src/v0.8/vendor/solidity-cborutils/v2.0.0/CBOR.sol\":6656:6909  if (value <= 0xFFFFFFFF) {... */\n      jump(tag_255)\n    tag_252:\n        /* \"@chainlink/contracts@1.4.0/src/v0.8/vendor/solidity-cborutils/v2.0.0/CBOR.sol\":6812:6857  buf.buf.appendUint8(uint8((major << 5) | 27)) */\n      tag_256\n        /* \"@chainlink/contracts@1.4.0/src/v0.8/vendor/solidity-cborutils/v2.0.0/CBOR.sol\":6853:6855  27 */\n      0x1b\n        /* \"@chainlink/contracts@1.4.0/src/v0.8/vendor/solidity-cborutils/v2.0.0/CBOR.sol\":6848:6849  5 */\n      0x05\n        /* \"@chainlink/contracts@1.4.0/src/v0.8/vendor/solidity-cborutils/v2.0.0/CBOR.sol\":6839:6844  major */\n      dup5\n        /* \"@chainlink/contracts@1.4.0/src/v0.8/vendor/solidity-cborutils/v2.0.0/CBOR.sol\":6839:6849  major << 5 */\n      0xff\n      and\n      swap1\n      shl\n        /* \"@chainlink/contracts@1.4.0/src/v0.8/vendor/solidity-cborutils/v2.0.0/CBOR.sol\":6838:6855  (major << 5) | 27 */\n      or\n        /* \"@chainlink/contracts@1.4.0/src/v0.8/vendor/solidity-cborutils/v2.0.0/CBOR.sol\":6812:6815  buf */\n      dup5\n        /* \"@chainlink/contracts@1.4.0/src/v0.8/vendor/solidity-cborutils/v2.0.0/CBOR.sol\":6812:6819  buf.buf */\n      0x00\n      add\n      mload\n        /* \"@chainlink/contracts@1.4.0/src/v0.8/vendor/solidity-cborutils/v2.0.0/CBOR.sol\":6812:6831  buf.buf.appendUint8 */\n      tag_214\n      swap1\n        /* \"@chainlink/contracts@1.4.0/src/v0.8/vendor/solidity-cborutils/v2.0.0/CBOR.sol\":6812:6857  buf.buf.appendUint8(uint8((major << 5) | 27)) */\n      swap2\n      swap1\n      0xffffffff\n      and\n      jump\t// in\n    tag_256:\n      pop\n        /* \"@chainlink/contracts@1.4.0/src/v0.8/vendor/solidity-cborutils/v2.0.0/CBOR.sol\":6871:6898  buf.buf.appendInt(value, 8) */\n      tag_257\n        /* \"@chainlink/contracts@1.4.0/src/v0.8/vendor/solidity-cborutils/v2.0.0/CBOR.sol\":6889:6894  value */\n      dup2\n        /* \"@chainlink/contracts@1.4.0/src/v0.8/vendor/solidity-cborutils/v2.0.0/CBOR.sol\":6871:6898  buf.buf.appendInt(value, 8) */\n      0xffffffffffffffff\n      and\n        /* \"@chainlink/contracts@1.4.0/src/v0.8/vendor/solidity-cborutils/v2.0.0/CBOR.sol\":6896:6897  8 */\n      0x08\n        /* \"@chainlink/contracts@1.4.0/src/v0.8/vendor/solidity-cborutils/v2.0.0/CBOR.sol\":6871:6874  buf */\n      dup6\n        /* \"@chainlink/contracts@1.4.0/src/v0.8/vendor/solidity-cborutils/v2.0.0/CBOR.sol\":6871:6878  buf.buf */\n      0x00\n      add\n      mload\n        /* \"@chainlink/contracts@1.4.0/src/v0.8/vendor/solidity-cborutils/v2.0.0/CBOR.sol\":6871:6888  buf.buf.appendInt */\n      tag_246\n      swap1\n        /* \"@chainlink/contracts@1.4.0/src/v0.8/vendor/solidity-cborutils/v2.0.0/CBOR.sol\":6871:6898  buf.buf.appendInt(value, 8) */\n      swap3\n      swap2\n      swap1\n      0xffffffff\n      and\n      jump\t// in\n    tag_257:\n      pop\n        /* \"@chainlink/contracts@1.4.0/src/v0.8/vendor/solidity-cborutils/v2.0.0/CBOR.sol\":6656:6909  if (value <= 0xFFFFFFFF) {... */\n    tag_255:\n        /* \"@chainlink/contracts@1.4.0/src/v0.8/vendor/solidity-cborutils/v2.0.0/CBOR.sol\":6518:6909  if (value <= 0xFFFF) {... */\n    tag_251:\n        /* \"@chainlink/contracts@1.4.0/src/v0.8/vendor/solidity-cborutils/v2.0.0/CBOR.sol\":6382:6909  if (value <= 0xFF) {... */\n    tag_247:\n        /* \"@chainlink/contracts@1.4.0/src/v0.8/vendor/solidity-cborutils/v2.0.0/CBOR.sol\":6286:6909  if (value <= 23) {... */\n    tag_242:\n        /* \"@chainlink/contracts@1.4.0/src/v0.8/vendor/solidity-cborutils/v2.0.0/CBOR.sol\":6156:6915  function writeFixedNumeric(... */\n      pop\n      pop\n      pop\n      jump\t// out\n        /* \"@chainlink/contracts@1.4.0/src/v0.8/vendor/@ensdomains/buffer/v0.1.0/Buffer.sol\":4539:4685  function append(buffer memory buf, bytes memory data) internal pure returns (buffer memory) {... */\n    tag_211:\n        /* \"@chainlink/contracts@1.4.0/src/v0.8/vendor/@ensdomains/buffer/v0.1.0/Buffer.sol\":4616:4629  buffer memory */\n      tag_258\n      tag_230\n      jump\t// in\n    tag_258:\n        /* \"@chainlink/contracts@1.4.0/src/v0.8/vendor/@ensdomains/buffer/v0.1.0/Buffer.sol\":4648:4678  append(buf, data, data.length) */\n      tag_260\n        /* \"@chainlink/contracts@1.4.0/src/v0.8/vendor/@ensdomains/buffer/v0.1.0/Buffer.sol\":4655:4658  buf */\n      dup4\n        /* \"@chainlink/contracts@1.4.0/src/v0.8/vendor/@ensdomains/buffer/v0.1.0/Buffer.sol\":4660:4664  data */\n      dup4\n        /* \"@chainlink/contracts@1.4.0/src/v0.8/vendor/@ensdomains/buffer/v0.1.0/Buffer.sol\":4666:4670  data */\n      dup5\n        /* \"@chainlink/contracts@1.4.0/src/v0.8/vendor/@ensdomains/buffer/v0.1.0/Buffer.sol\":4666:4677  data.length */\n      mload\n        /* \"@chainlink/contracts@1.4.0/src/v0.8/vendor/@ensdomains/buffer/v0.1.0/Buffer.sol\":4648:4654  append */\n      tag_261\n        /* \"@chainlink/contracts@1.4.0/src/v0.8/vendor/@ensdomains/buffer/v0.1.0/Buffer.sol\":4648:4678  append(buf, data, data.length) */\n      jump\t// in\n    tag_260:\n        /* \"@chainlink/contracts@1.4.0/src/v0.8/vendor/@ensdomains/buffer/v0.1.0/Buffer.sol\":4641:4678  return append(buf, data, data.length) */\n      swap1\n      pop\n        /* \"@chainlink/contracts@1.4.0/src/v0.8/vendor/@ensdomains/buffer/v0.1.0/Buffer.sol\":4539:4685  function append(buffer memory buf, bytes memory data) internal pure returns (buffer memory) {... */\n      swap3\n      swap2\n      pop\n      pop\n      jump\t// out\n        /* \"@chainlink/contracts@1.4.0/src/v0.8/vendor/@ensdomains/buffer/v0.1.0/Buffer.sol\":4948:5647  function appendUint8(buffer memory buf, uint8 data) internal pure returns(buffer memory) {... */\n    tag_214:\n        /* \"@chainlink/contracts@1.4.0/src/v0.8/vendor/@ensdomains/buffer/v0.1.0/Buffer.sol\":5022:5035  buffer memory */\n      tag_262\n      tag_230\n      jump\t// in\n    tag_262:\n        /* \"@chainlink/contracts@1.4.0/src/v0.8/vendor/@ensdomains/buffer/v0.1.0/Buffer.sol\":5047:5055  uint off */\n      0x00\n        /* \"@chainlink/contracts@1.4.0/src/v0.8/vendor/@ensdomains/buffer/v0.1.0/Buffer.sol\":5058:5061  buf */\n      dup4\n        /* \"@chainlink/contracts@1.4.0/src/v0.8/vendor/@ensdomains/buffer/v0.1.0/Buffer.sol\":5058:5065  buf.buf */\n      0x00\n      add\n      mload\n        /* \"@chainlink/contracts@1.4.0/src/v0.8/vendor/@ensdomains/buffer/v0.1.0/Buffer.sol\":5058:5072  buf.buf.length */\n      mload\n        /* \"@chainlink/contracts@1.4.0/src/v0.8/vendor/@ensdomains/buffer/v0.1.0/Buffer.sol\":5047:5072  uint off = buf.buf.length */\n      swap1\n      pop\n        /* \"@chainlink/contracts@1.4.0/src/v0.8/vendor/@ensdomains/buffer/v0.1.0/Buffer.sol\":5082:5097  uint offPlusOne */\n      0x00\n        /* \"@chainlink/contracts@1.4.0/src/v0.8/vendor/@ensdomains/buffer/v0.1.0/Buffer.sol\":5106:5107  1 */\n      0x01\n        /* \"@chainlink/contracts@1.4.0/src/v0.8/vendor/@ensdomains/buffer/v0.1.0/Buffer.sol\":5100:5103  off */\n      dup3\n        /* \"@chainlink/contracts@1.4.0/src/v0.8/vendor/@ensdomains/buffer/v0.1.0/Buffer.sol\":5100:5107  off + 1 */\n      tag_264\n      swap2\n      swap1\n      tag_221\n      jump\t// in\n    tag_264:\n        /* \"@chainlink/contracts@1.4.0/src/v0.8/vendor/@ensdomains/buffer/v0.1.0/Buffer.sol\":5082:5107  uint offPlusOne = off + 1 */\n      swap1\n      pop\n        /* \"@chainlink/contracts@1.4.0/src/v0.8/vendor/@ensdomains/buffer/v0.1.0/Buffer.sol\":5128:5131  buf */\n      dup5\n        /* \"@chainlink/contracts@1.4.0/src/v0.8/vendor/@ensdomains/buffer/v0.1.0/Buffer.sol\":5128:5140  buf.capacity */\n      0x20\n      add\n      mload\n        /* \"@chainlink/contracts@1.4.0/src/v0.8/vendor/@ensdomains/buffer/v0.1.0/Buffer.sol\":5121:5124  off */\n      dup3\n        /* \"@chainlink/contracts@1.4.0/src/v0.8/vendor/@ensdomains/buffer/v0.1.0/Buffer.sol\":5121:5140  off >= buf.capacity */\n      lt\n        /* \"@chainlink/contracts@1.4.0/src/v0.8/vendor/@ensdomains/buffer/v0.1.0/Buffer.sol\":5117:5194  if (off >= buf.capacity) {... */\n      tag_265\n      jumpi\n        /* \"@chainlink/contracts@1.4.0/src/v0.8/vendor/@ensdomains/buffer/v0.1.0/Buffer.sol\":5156:5183  resize(buf, offPlusOne * 2) */\n      tag_266\n        /* \"@chainlink/contracts@1.4.0/src/v0.8/vendor/@ensdomains/buffer/v0.1.0/Buffer.sol\":5163:5166  buf */\n      dup6\n        /* \"@chainlink/contracts@1.4.0/src/v0.8/vendor/@ensdomains/buffer/v0.1.0/Buffer.sol\":5181:5182  2 */\n      0x02\n        /* \"@chainlink/contracts@1.4.0/src/v0.8/vendor/@ensdomains/buffer/v0.1.0/Buffer.sol\":5168:5178  offPlusOne */\n      dup4\n        /* \"@chainlink/contracts@1.4.0/src/v0.8/vendor/@ensdomains/buffer/v0.1.0/Buffer.sol\":5168:5182  offPlusOne * 2 */\n      tag_267\n      swap2\n      swap1\n      tag_268\n      jump\t// in\n    tag_267:\n        /* \"@chainlink/contracts@1.4.0/src/v0.8/vendor/@ensdomains/buffer/v0.1.0/Buffer.sol\":5156:5162  resize */\n      tag_269\n        /* \"@chainlink/contracts@1.4.0/src/v0.8/vendor/@ensdomains/buffer/v0.1.0/Buffer.sol\":5156:5183  resize(buf, offPlusOne * 2) */\n      jump\t// in\n    tag_266:\n        /* \"@chainlink/contracts@1.4.0/src/v0.8/vendor/@ensdomains/buffer/v0.1.0/Buffer.sol\":5117:5194  if (off >= buf.capacity) {... */\n    tag_265:\n        /* \"@chainlink/contracts@1.4.0/src/v0.8/vendor/@ensdomains/buffer/v0.1.0/Buffer.sol\":5296:5299  buf */\n      dup5\n        /* \"@chainlink/contracts@1.4.0/src/v0.8/vendor/@ensdomains/buffer/v0.1.0/Buffer.sol\":5290:5300  mload(buf) */\n      mload\n        /* \"@chainlink/contracts@1.4.0/src/v0.8/vendor/@ensdomains/buffer/v0.1.0/Buffer.sol\":5417:5419  32 */\n      0x20\n        /* \"@chainlink/contracts@1.4.0/src/v0.8/vendor/@ensdomains/buffer/v0.1.0/Buffer.sol\":5411:5414  off */\n      dup4\n        /* \"@chainlink/contracts@1.4.0/src/v0.8/vendor/@ensdomains/buffer/v0.1.0/Buffer.sol\":5403:5409  bufptr */\n      dup3\n        /* \"@chainlink/contracts@1.4.0/src/v0.8/vendor/@ensdomains/buffer/v0.1.0/Buffer.sol\":5399:5415  add(bufptr, off) */\n      add\n        /* \"@chainlink/contracts@1.4.0/src/v0.8/vendor/@ensdomains/buffer/v0.1.0/Buffer.sol\":5395:5420  add(add(bufptr, off), 32) */\n      add\n        /* \"@chainlink/contracts@1.4.0/src/v0.8/vendor/@ensdomains/buffer/v0.1.0/Buffer.sol\":5447:5451  data */\n      dup6\n        /* \"@chainlink/contracts@1.4.0/src/v0.8/vendor/@ensdomains/buffer/v0.1.0/Buffer.sol\":5441:5445  dest */\n      dup2\n        /* \"@chainlink/contracts@1.4.0/src/v0.8/vendor/@ensdomains/buffer/v0.1.0/Buffer.sol\":5433:5452  mstore8(dest, data) */\n      mstore8\n        /* \"@chainlink/contracts@1.4.0/src/v0.8/vendor/@ensdomains/buffer/v0.1.0/Buffer.sol\":5543:5549  bufptr */\n      dup2\n        /* \"@chainlink/contracts@1.4.0/src/v0.8/vendor/@ensdomains/buffer/v0.1.0/Buffer.sol\":5537:5550  mload(bufptr) */\n      mload\n        /* \"@chainlink/contracts@1.4.0/src/v0.8/vendor/@ensdomains/buffer/v0.1.0/Buffer.sol\":5525:5535  offPlusOne */\n      dup4\n        /* \"@chainlink/contracts@1.4.0/src/v0.8/vendor/@ensdomains/buffer/v0.1.0/Buffer.sol\":5522:5551  gt(offPlusOne, mload(bufptr)) */\n      gt\n        /* \"@chainlink/contracts@1.4.0/src/v0.8/vendor/@ensdomains/buffer/v0.1.0/Buffer.sol\":5519:5610  if gt(offPlusOne, mload(bufptr)) {... */\n      iszero\n      tag_270\n      jumpi\n        /* \"@chainlink/contracts@1.4.0/src/v0.8/vendor/@ensdomains/buffer/v0.1.0/Buffer.sol\":5585:5595  offPlusOne */\n      dup3\n        /* \"@chainlink/contracts@1.4.0/src/v0.8/vendor/@ensdomains/buffer/v0.1.0/Buffer.sol\":5577:5583  bufptr */\n      dup3\n        /* \"@chainlink/contracts@1.4.0/src/v0.8/vendor/@ensdomains/buffer/v0.1.0/Buffer.sol\":5570:5596  mstore(bufptr, offPlusOne) */\n      mstore\n        /* \"@chainlink/contracts@1.4.0/src/v0.8/vendor/@ensdomains/buffer/v0.1.0/Buffer.sol\":5519:5610  if gt(offPlusOne, mload(bufptr)) {... */\n    tag_270:\n        /* \"@chainlink/contracts@1.4.0/src/v0.8/vendor/@ensdomains/buffer/v0.1.0/Buffer.sol\":5213:5620  {... */\n      pop\n      pop\n        /* \"@chainlink/contracts@1.4.0/src/v0.8/vendor/@ensdomains/buffer/v0.1.0/Buffer.sol\":5637:5640  buf */\n      dup5\n        /* \"@chainlink/contracts@1.4.0/src/v0.8/vendor/@ensdomains/buffer/v0.1.0/Buffer.sol\":5630:5640  return buf */\n      swap3\n      pop\n      pop\n      pop\n        /* \"@chainlink/contracts@1.4.0/src/v0.8/vendor/@ensdomains/buffer/v0.1.0/Buffer.sol\":4948:5647  function appendUint8(buffer memory buf, uint8 data) internal pure returns(buffer memory) {... */\n      swap3\n      swap2\n      pop\n      pop\n      jump\t// out\n        /* \"@chainlink/contracts@1.4.0/src/v0.8/vendor/solidity-cborutils/v2.0.0/CBOR.sol\":6921:7087  function writeIndefiniteLengthType(CBORBuffer memory buf, uint8 major)... */\n    tag_219:\n        /* \"@chainlink/contracts@1.4.0/src/v0.8/vendor/solidity-cborutils/v2.0.0/CBOR.sol\":7035:7080  buf.buf.appendUint8(uint8((major << 5) | 31)) */\n      tag_272\n        /* \"@chainlink/contracts@1.4.0/src/v0.8/vendor/solidity-cborutils/v2.0.0/CBOR.sol\":7076:7078  31 */\n      0x1f\n        /* \"@chainlink/contracts@1.4.0/src/v0.8/vendor/solidity-cborutils/v2.0.0/CBOR.sol\":7071:7072  5 */\n      0x05\n        /* \"@chainlink/contracts@1.4.0/src/v0.8/vendor/solidity-cborutils/v2.0.0/CBOR.sol\":7062:7067  major */\n      dup4\n        /* \"@chainlink/contracts@1.4.0/src/v0.8/vendor/solidity-cborutils/v2.0.0/CBOR.sol\":7062:7072  major << 5 */\n      0xff\n      and\n      swap1\n      shl\n        /* \"@chainlink/contracts@1.4.0/src/v0.8/vendor/solidity-cborutils/v2.0.0/CBOR.sol\":7061:7078  (major << 5) | 31 */\n      or\n        /* \"@chainlink/contracts@1.4.0/src/v0.8/vendor/solidity-cborutils/v2.0.0/CBOR.sol\":7035:7038  buf */\n      dup4\n        /* \"@chainlink/contracts@1.4.0/src/v0.8/vendor/solidity-cborutils/v2.0.0/CBOR.sol\":7035:7042  buf.buf */\n      0x00\n      add\n      mload\n        /* \"@chainlink/contracts@1.4.0/src/v0.8/vendor/solidity-cborutils/v2.0.0/CBOR.sol\":7035:7054  buf.buf.appendUint8 */\n      tag_214\n      swap1\n        /* \"@chainlink/contracts@1.4.0/src/v0.8/vendor/solidity-cborutils/v2.0.0/CBOR.sol\":7035:7080  buf.buf.appendUint8(uint8((major << 5) | 31)) */\n      swap2\n      swap1\n      0xffffffff\n      and\n      jump\t// in\n    tag_272:\n      pop\n        /* \"@chainlink/contracts@1.4.0/src/v0.8/vendor/solidity-cborutils/v2.0.0/CBOR.sol\":6921:7087  function writeIndefiniteLengthType(CBORBuffer memory buf, uint8 major)... */\n      pop\n      pop\n      jump\t// out\n        /* \"@chainlink/contracts@1.4.0/src/v0.8/vendor/@ensdomains/buffer/v0.1.0/Buffer.sol\":8083:8878  function appendInt(buffer memory buf, uint data, uint len) internal pure returns(buffer memory) {... */\n    tag_246:\n        /* \"@chainlink/contracts@1.4.0/src/v0.8/vendor/@ensdomains/buffer/v0.1.0/Buffer.sol\":8164:8177  buffer memory */\n      tag_273\n      tag_230\n      jump\t// in\n    tag_273:\n        /* \"@chainlink/contracts@1.4.0/src/v0.8/vendor/@ensdomains/buffer/v0.1.0/Buffer.sol\":8189:8197  uint off */\n      0x00\n        /* \"@chainlink/contracts@1.4.0/src/v0.8/vendor/@ensdomains/buffer/v0.1.0/Buffer.sol\":8200:8203  buf */\n      dup5\n        /* \"@chainlink/contracts@1.4.0/src/v0.8/vendor/@ensdomains/buffer/v0.1.0/Buffer.sol\":8200:8207  buf.buf */\n      0x00\n      add\n      mload\n        /* \"@chainlink/contracts@1.4.0/src/v0.8/vendor/@ensdomains/buffer/v0.1.0/Buffer.sol\":8200:8214  buf.buf.length */\n      mload\n        /* \"@chainlink/contracts@1.4.0/src/v0.8/vendor/@ensdomains/buffer/v0.1.0/Buffer.sol\":8189:8214  uint off = buf.buf.length */\n      swap1\n      pop\n        /* \"@chainlink/contracts@1.4.0/src/v0.8/vendor/@ensdomains/buffer/v0.1.0/Buffer.sol\":8224:8240  uint newCapacity */\n      0x00\n        /* \"@chainlink/contracts@1.4.0/src/v0.8/vendor/@ensdomains/buffer/v0.1.0/Buffer.sol\":8249:8252  off */\n      dup2\n        /* \"@chainlink/contracts@1.4.0/src/v0.8/vendor/@ensdomains/buffer/v0.1.0/Buffer.sol\":8243:8246  len */\n      dup5\n        /* \"@chainlink/contracts@1.4.0/src/v0.8/vendor/@ensdomains/buffer/v0.1.0/Buffer.sol\":8243:8252  len + off */\n      tag_275\n      swap2\n      swap1\n      tag_221\n      jump\t// in\n    tag_275:\n        /* \"@chainlink/contracts@1.4.0/src/v0.8/vendor/@ensdomains/buffer/v0.1.0/Buffer.sol\":8224:8252  uint newCapacity = len + off */\n      swap1\n      pop\n        /* \"@chainlink/contracts@1.4.0/src/v0.8/vendor/@ensdomains/buffer/v0.1.0/Buffer.sol\":8280:8283  buf */\n      dup6\n        /* \"@chainlink/contracts@1.4.0/src/v0.8/vendor/@ensdomains/buffer/v0.1.0/Buffer.sol\":8280:8292  buf.capacity */\n      0x20\n      add\n      mload\n        /* \"@chainlink/contracts@1.4.0/src/v0.8/vendor/@ensdomains/buffer/v0.1.0/Buffer.sol\":8266:8277  newCapacity */\n      dup2\n        /* \"@chainlink/contracts@1.4.0/src/v0.8/vendor/@ensdomains/buffer/v0.1.0/Buffer.sol\":8266:8292  newCapacity > buf.capacity */\n      gt\n        /* \"@chainlink/contracts@1.4.0/src/v0.8/vendor/@ensdomains/buffer/v0.1.0/Buffer.sol\":8262:8347  if (newCapacity > buf.capacity) {... */\n      iszero\n      tag_276\n      jumpi\n        /* \"@chainlink/contracts@1.4.0/src/v0.8/vendor/@ensdomains/buffer/v0.1.0/Buffer.sol\":8308:8336  resize(buf, newCapacity * 2) */\n      tag_277\n        /* \"@chainlink/contracts@1.4.0/src/v0.8/vendor/@ensdomains/buffer/v0.1.0/Buffer.sol\":8315:8318  buf */\n      dup7\n        /* \"@chainlink/contracts@1.4.0/src/v0.8/vendor/@ensdomains/buffer/v0.1.0/Buffer.sol\":8334:8335  2 */\n      0x02\n        /* \"@chainlink/contracts@1.4.0/src/v0.8/vendor/@ensdomains/buffer/v0.1.0/Buffer.sol\":8320:8331  newCapacity */\n      dup4\n        /* \"@chainlink/contracts@1.4.0/src/v0.8/vendor/@ensdomains/buffer/v0.1.0/Buffer.sol\":8320:8335  newCapacity * 2 */\n      tag_278\n      swap2\n      swap1\n      tag_268\n      jump\t// in\n    tag_278:\n        /* \"@chainlink/contracts@1.4.0/src/v0.8/vendor/@ensdomains/buffer/v0.1.0/Buffer.sol\":8308:8314  resize */\n      tag_269\n        /* \"@chainlink/contracts@1.4.0/src/v0.8/vendor/@ensdomains/buffer/v0.1.0/Buffer.sol\":8308:8336  resize(buf, newCapacity * 2) */\n      jump\t// in\n    tag_277:\n        /* \"@chainlink/contracts@1.4.0/src/v0.8/vendor/@ensdomains/buffer/v0.1.0/Buffer.sol\":8262:8347  if (newCapacity > buf.capacity) {... */\n    tag_276:\n        /* \"@chainlink/contracts@1.4.0/src/v0.8/vendor/@ensdomains/buffer/v0.1.0/Buffer.sol\":8357:8366  uint mask */\n      0x00\n        /* \"@chainlink/contracts@1.4.0/src/v0.8/vendor/@ensdomains/buffer/v0.1.0/Buffer.sol\":8384:8385  1 */\n      0x01\n        /* \"@chainlink/contracts@1.4.0/src/v0.8/vendor/@ensdomains/buffer/v0.1.0/Buffer.sol\":8377:8380  len */\n      dup6\n        /* \"@chainlink/contracts@1.4.0/src/v0.8/vendor/@ensdomains/buffer/v0.1.0/Buffer.sol\":8370:8373  256 */\n      0x0100\n        /* \"@chainlink/contracts@1.4.0/src/v0.8/vendor/@ensdomains/buffer/v0.1.0/Buffer.sol\":8370:8380  256 ** len */\n      tag_279\n      swap2\n      swap1\n      tag_280\n      jump\t// in\n    tag_279:\n        /* \"@chainlink/contracts@1.4.0/src/v0.8/vendor/@ensdomains/buffer/v0.1.0/Buffer.sol\":8369:8385  (256 ** len) - 1 */\n      tag_281\n      swap2\n      swap1\n      tag_225\n      jump\t// in\n    tag_281:\n        /* \"@chainlink/contracts@1.4.0/src/v0.8/vendor/@ensdomains/buffer/v0.1.0/Buffer.sol\":8357:8385  uint mask = (256 ** len) - 1 */\n      swap1\n      pop\n        /* \"@chainlink/contracts@1.4.0/src/v0.8/vendor/@ensdomains/buffer/v0.1.0/Buffer.sol\":8487:8490  buf */\n      dup7\n        /* \"@chainlink/contracts@1.4.0/src/v0.8/vendor/@ensdomains/buffer/v0.1.0/Buffer.sol\":8481:8491  mload(buf) */\n      mload\n        /* \"@chainlink/contracts@1.4.0/src/v0.8/vendor/@ensdomains/buffer/v0.1.0/Buffer.sol\":8606:8617  newCapacity */\n      dup3\n        /* \"@chainlink/contracts@1.4.0/src/v0.8/vendor/@ensdomains/buffer/v0.1.0/Buffer.sol\":8598:8604  bufptr */\n      dup2\n        /* \"@chainlink/contracts@1.4.0/src/v0.8/vendor/@ensdomains/buffer/v0.1.0/Buffer.sol\":8594:8618  add(bufptr, newCapacity) */\n      add\n        /* \"@chainlink/contracts@1.4.0/src/v0.8/vendor/@ensdomains/buffer/v0.1.0/Buffer.sol\":8676:8680  data */\n      dup8\n        /* \"@chainlink/contracts@1.4.0/src/v0.8/vendor/@ensdomains/buffer/v0.1.0/Buffer.sol\":8668:8672  mask */\n      dup4\n        /* \"@chainlink/contracts@1.4.0/src/v0.8/vendor/@ensdomains/buffer/v0.1.0/Buffer.sol\":8664:8673  not(mask) */\n      not\n        /* \"@chainlink/contracts@1.4.0/src/v0.8/vendor/@ensdomains/buffer/v0.1.0/Buffer.sol\":8657:8661  dest */\n      dup3\n        /* \"@chainlink/contracts@1.4.0/src/v0.8/vendor/@ensdomains/buffer/v0.1.0/Buffer.sol\":8651:8662  mload(dest) */\n      mload\n        /* \"@chainlink/contracts@1.4.0/src/v0.8/vendor/@ensdomains/buffer/v0.1.0/Buffer.sol\":8647:8674  and(mload(dest), not(mask)) */\n      and\n        /* \"@chainlink/contracts@1.4.0/src/v0.8/vendor/@ensdomains/buffer/v0.1.0/Buffer.sol\":8644:8681  or(and(mload(dest), not(mask)), data) */\n      or\n        /* \"@chainlink/contracts@1.4.0/src/v0.8/vendor/@ensdomains/buffer/v0.1.0/Buffer.sol\":8638:8642  dest */\n      dup2\n        /* \"@chainlink/contracts@1.4.0/src/v0.8/vendor/@ensdomains/buffer/v0.1.0/Buffer.sol\":8631:8682  mstore(dest, or(and(mload(dest), not(mask)), data)) */\n      mstore\n        /* \"@chainlink/contracts@1.4.0/src/v0.8/vendor/@ensdomains/buffer/v0.1.0/Buffer.sol\":8774:8780  bufptr */\n      dup2\n        /* \"@chainlink/contracts@1.4.0/src/v0.8/vendor/@ensdomains/buffer/v0.1.0/Buffer.sol\":8768:8781  mload(bufptr) */\n      mload\n        /* \"@chainlink/contracts@1.4.0/src/v0.8/vendor/@ensdomains/buffer/v0.1.0/Buffer.sol\":8755:8766  newCapacity */\n      dup5\n        /* \"@chainlink/contracts@1.4.0/src/v0.8/vendor/@ensdomains/buffer/v0.1.0/Buffer.sol\":8752:8782  gt(newCapacity, mload(bufptr)) */\n      gt\n        /* \"@chainlink/contracts@1.4.0/src/v0.8/vendor/@ensdomains/buffer/v0.1.0/Buffer.sol\":8749:8842  if gt(newCapacity, mload(bufptr)) {... */\n      iszero\n      tag_282\n      jumpi\n        /* \"@chainlink/contracts@1.4.0/src/v0.8/vendor/@ensdomains/buffer/v0.1.0/Buffer.sol\":8816:8827  newCapacity */\n      dup4\n        /* \"@chainlink/contracts@1.4.0/src/v0.8/vendor/@ensdomains/buffer/v0.1.0/Buffer.sol\":8808:8814  bufptr */\n      dup3\n        /* \"@chainlink/contracts@1.4.0/src/v0.8/vendor/@ensdomains/buffer/v0.1.0/Buffer.sol\":8801:8828  mstore(bufptr, newCapacity) */\n      mstore\n        /* \"@chainlink/contracts@1.4.0/src/v0.8/vendor/@ensdomains/buffer/v0.1.0/Buffer.sol\":8749:8842  if gt(newCapacity, mload(bufptr)) {... */\n    tag_282:\n        /* \"@chainlink/contracts@1.4.0/src/v0.8/vendor/@ensdomains/buffer/v0.1.0/Buffer.sol\":8404:8852  {... */\n      pop\n      pop\n        /* \"@chainlink/contracts@1.4.0/src/v0.8/vendor/@ensdomains/buffer/v0.1.0/Buffer.sol\":8868:8871  buf */\n      dup7\n        /* \"@chainlink/contracts@1.4.0/src/v0.8/vendor/@ensdomains/buffer/v0.1.0/Buffer.sol\":8861:8871  return buf */\n      swap4\n      pop\n      pop\n      pop\n      pop\n        /* \"@chainlink/contracts@1.4.0/src/v0.8/vendor/@ensdomains/buffer/v0.1.0/Buffer.sol\":8083:8878  function appendInt(buffer memory buf, uint data, uint len) internal pure returns(buffer memory) {... */\n      swap4\n      swap3\n      pop\n      pop\n      pop\n      jump\t// out\n        /* \"@chainlink/contracts@1.4.0/src/v0.8/vendor/@ensdomains/buffer/v0.1.0/Buffer.sol\":2844:4271  function append(buffer memory buf, bytes memory data, uint len) internal pure returns(buffer memory) {... */\n    tag_261:\n        /* \"@chainlink/contracts@1.4.0/src/v0.8/vendor/@ensdomains/buffer/v0.1.0/Buffer.sol\":2930:2943  buffer memory */\n      tag_283\n      tag_230\n      jump\t// in\n    tag_283:\n        /* \"@chainlink/contracts@1.4.0/src/v0.8/vendor/@ensdomains/buffer/v0.1.0/Buffer.sol\":2970:2974  data */\n      dup3\n        /* \"@chainlink/contracts@1.4.0/src/v0.8/vendor/@ensdomains/buffer/v0.1.0/Buffer.sol\":2970:2981  data.length */\n      mload\n        /* \"@chainlink/contracts@1.4.0/src/v0.8/vendor/@ensdomains/buffer/v0.1.0/Buffer.sol\":2963:2966  len */\n      dup3\n        /* \"@chainlink/contracts@1.4.0/src/v0.8/vendor/@ensdomains/buffer/v0.1.0/Buffer.sol\":2963:2981  len <= data.length */\n      gt\n      iszero\n        /* \"@chainlink/contracts@1.4.0/src/v0.8/vendor/@ensdomains/buffer/v0.1.0/Buffer.sol\":2955:2982  require(len <= data.length) */\n      tag_285\n      jumpi\n      0x00\n      dup1\n      revert\n    tag_285:\n        /* \"@chainlink/contracts@1.4.0/src/v0.8/vendor/@ensdomains/buffer/v0.1.0/Buffer.sol\":2993:3001  uint off */\n      0x00\n        /* \"@chainlink/contracts@1.4.0/src/v0.8/vendor/@ensdomains/buffer/v0.1.0/Buffer.sol\":3004:3007  buf */\n      dup5\n        /* \"@chainlink/contracts@1.4.0/src/v0.8/vendor/@ensdomains/buffer/v0.1.0/Buffer.sol\":3004:3011  buf.buf */\n      0x00\n      add\n      mload\n        /* \"@chainlink/contracts@1.4.0/src/v0.8/vendor/@ensdomains/buffer/v0.1.0/Buffer.sol\":3004:3018  buf.buf.length */\n      mload\n        /* \"@chainlink/contracts@1.4.0/src/v0.8/vendor/@ensdomains/buffer/v0.1.0/Buffer.sol\":2993:3018  uint off = buf.buf.length */\n      swap1\n      pop\n        /* \"@chainlink/contracts@1.4.0/src/v0.8/vendor/@ensdomains/buffer/v0.1.0/Buffer.sol\":3028:3044  uint newCapacity */\n      0x00\n        /* \"@chainlink/contracts@1.4.0/src/v0.8/vendor/@ensdomains/buffer/v0.1.0/Buffer.sol\":3053:3056  len */\n      dup4\n        /* \"@chainlink/contracts@1.4.0/src/v0.8/vendor/@ensdomains/buffer/v0.1.0/Buffer.sol\":3047:3050  off */\n      dup3\n        /* \"@chainlink/contracts@1.4.0/src/v0.8/vendor/@ensdomains/buffer/v0.1.0/Buffer.sol\":3047:3056  off + len */\n      tag_286\n      swap2\n      swap1\n      tag_221\n      jump\t// in\n    tag_286:\n        /* \"@chainlink/contracts@1.4.0/src/v0.8/vendor/@ensdomains/buffer/v0.1.0/Buffer.sol\":3028:3056  uint newCapacity = off + len */\n      swap1\n      pop\n        /* \"@chainlink/contracts@1.4.0/src/v0.8/vendor/@ensdomains/buffer/v0.1.0/Buffer.sol\":3084:3087  buf */\n      dup6\n        /* \"@chainlink/contracts@1.4.0/src/v0.8/vendor/@ensdomains/buffer/v0.1.0/Buffer.sol\":3084:3096  buf.capacity */\n      0x20\n      add\n      mload\n        /* \"@chainlink/contracts@1.4.0/src/v0.8/vendor/@ensdomains/buffer/v0.1.0/Buffer.sol\":3070:3081  newCapacity */\n      dup2\n        /* \"@chainlink/contracts@1.4.0/src/v0.8/vendor/@ensdomains/buffer/v0.1.0/Buffer.sol\":3070:3096  newCapacity > buf.capacity */\n      gt\n        /* \"@chainlink/contracts@1.4.0/src/v0.8/vendor/@ensdomains/buffer/v0.1.0/Buffer.sol\":3066:3151  if (newCapacity > buf.capacity) {... */\n      iszero\n      tag_287\n      jumpi\n        /* \"@chainlink/contracts@1.4.0/src/v0.8/vendor/@ensdomains/buffer/v0.1.0/Buffer.sol\":3112:3140  resize(buf, newCapacity * 2) */\n      tag_288\n        /* \"@chainlink/contracts@1.4.0/src/v0.8/vendor/@ensdomains/buffer/v0.1.0/Buffer.sol\":3119:3122  buf */\n      dup7\n        /* \"@chainlink/contracts@1.4.0/src/v0.8/vendor/@ensdomains/buffer/v0.1.0/Buffer.sol\":3138:3139  2 */\n      0x02\n        /* \"@chainlink/contracts@1.4.0/src/v0.8/vendor/@ensdomains/buffer/v0.1.0/Buffer.sol\":3124:3135  newCapacity */\n      dup4\n        /* \"@chainlink/contracts@1.4.0/src/v0.8/vendor/@ensdomains/buffer/v0.1.0/Buffer.sol\":3124:3139  newCapacity * 2 */\n      tag_289\n      swap2\n      swap1\n      tag_268\n      jump\t// in\n    tag_289:\n        /* \"@chainlink/contracts@1.4.0/src/v0.8/vendor/@ensdomains/buffer/v0.1.0/Buffer.sol\":3112:3118  resize */\n      tag_269\n        /* \"@chainlink/contracts@1.4.0/src/v0.8/vendor/@ensdomains/buffer/v0.1.0/Buffer.sol\":3112:3140  resize(buf, newCapacity * 2) */\n      jump\t// in\n    tag_288:\n        /* \"@chainlink/contracts@1.4.0/src/v0.8/vendor/@ensdomains/buffer/v0.1.0/Buffer.sol\":3066:3151  if (newCapacity > buf.capacity) {... */\n    tag_287:\n        /* \"@chainlink/contracts@1.4.0/src/v0.8/vendor/@ensdomains/buffer/v0.1.0/Buffer.sol\":3161:3170  uint dest */\n      0x00\n        /* \"@chainlink/contracts@1.4.0/src/v0.8/vendor/@ensdomains/buffer/v0.1.0/Buffer.sol\":3180:3188  uint src */\n      dup1\n        /* \"@chainlink/contracts@1.4.0/src/v0.8/vendor/@ensdomains/buffer/v0.1.0/Buffer.sol\":3290:3293  buf */\n      dup8\n        /* \"@chainlink/contracts@1.4.0/src/v0.8/vendor/@ensdomains/buffer/v0.1.0/Buffer.sol\":3284:3294  mload(buf) */\n      mload\n        /* \"@chainlink/contracts@1.4.0/src/v0.8/vendor/@ensdomains/buffer/v0.1.0/Buffer.sol\":3373:3379  bufptr */\n      dup1\n        /* \"@chainlink/contracts@1.4.0/src/v0.8/vendor/@ensdomains/buffer/v0.1.0/Buffer.sol\":3367:3380  mload(bufptr) */\n      mload\n        /* \"@chainlink/contracts@1.4.0/src/v0.8/vendor/@ensdomains/buffer/v0.1.0/Buffer.sol\":3501:3504  off */\n      dup6\n        /* \"@chainlink/contracts@1.4.0/src/v0.8/vendor/@ensdomains/buffer/v0.1.0/Buffer.sol\":3496:3498  32 */\n      0x20\n        /* \"@chainlink/contracts@1.4.0/src/v0.8/vendor/@ensdomains/buffer/v0.1.0/Buffer.sol\":3488:3494  bufptr */\n      dup4\n        /* \"@chainlink/contracts@1.4.0/src/v0.8/vendor/@ensdomains/buffer/v0.1.0/Buffer.sol\":3484:3499  add(bufptr, 32) */\n      add\n        /* \"@chainlink/contracts@1.4.0/src/v0.8/vendor/@ensdomains/buffer/v0.1.0/Buffer.sol\":3480:3505  add(add(bufptr, 32), off) */\n      add\n        /* \"@chainlink/contracts@1.4.0/src/v0.8/vendor/@ensdomains/buffer/v0.1.0/Buffer.sol\":3472:3505  dest := add(add(bufptr, 32), off) */\n      swap4\n      pop\n        /* \"@chainlink/contracts@1.4.0/src/v0.8/vendor/@ensdomains/buffer/v0.1.0/Buffer.sol\":3595:3601  buflen */\n      dup1\n        /* \"@chainlink/contracts@1.4.0/src/v0.8/vendor/@ensdomains/buffer/v0.1.0/Buffer.sol\":3582:3593  newCapacity */\n      dup6\n        /* \"@chainlink/contracts@1.4.0/src/v0.8/vendor/@ensdomains/buffer/v0.1.0/Buffer.sol\":3579:3602  gt(newCapacity, buflen) */\n      gt\n        /* \"@chainlink/contracts@1.4.0/src/v0.8/vendor/@ensdomains/buffer/v0.1.0/Buffer.sol\":3576:3662  if gt(newCapacity, buflen) {... */\n      iszero\n      tag_290\n      jumpi\n        /* \"@chainlink/contracts@1.4.0/src/v0.8/vendor/@ensdomains/buffer/v0.1.0/Buffer.sol\":3636:3647  newCapacity */\n      dup5\n        /* \"@chainlink/contracts@1.4.0/src/v0.8/vendor/@ensdomains/buffer/v0.1.0/Buffer.sol\":3628:3634  bufptr */\n      dup3\n        /* \"@chainlink/contracts@1.4.0/src/v0.8/vendor/@ensdomains/buffer/v0.1.0/Buffer.sol\":3621:3648  mstore(bufptr, newCapacity) */\n      mstore\n        /* \"@chainlink/contracts@1.4.0/src/v0.8/vendor/@ensdomains/buffer/v0.1.0/Buffer.sol\":3576:3662  if gt(newCapacity, buflen) {... */\n    tag_290:\n        /* \"@chainlink/contracts@1.4.0/src/v0.8/vendor/@ensdomains/buffer/v0.1.0/Buffer.sol\":3692:3694  32 */\n      0x20\n        /* \"@chainlink/contracts@1.4.0/src/v0.8/vendor/@ensdomains/buffer/v0.1.0/Buffer.sol\":3686:3690  data */\n      dup10\n        /* \"@chainlink/contracts@1.4.0/src/v0.8/vendor/@ensdomains/buffer/v0.1.0/Buffer.sol\":3682:3695  add(data, 32) */\n      add\n        /* \"@chainlink/contracts@1.4.0/src/v0.8/vendor/@ensdomains/buffer/v0.1.0/Buffer.sol\":3675:3695  src := add(data, 32) */\n      swap3\n      pop\n        /* \"@chainlink/contracts@1.4.0/src/v0.8/vendor/@ensdomains/buffer/v0.1.0/Buffer.sol\":3207:3705  {... */\n      pop\n      pop\n        /* \"@chainlink/contracts@1.4.0/src/v0.8/vendor/@ensdomains/buffer/v0.1.0/Buffer.sol\":3765:3930  for (; len >= 32; len -= 32) {... */\n    tag_291:\n        /* \"@chainlink/contracts@1.4.0/src/v0.8/vendor/@ensdomains/buffer/v0.1.0/Buffer.sol\":3779:3781  32 */\n      0x20\n        /* \"@chainlink/contracts@1.4.0/src/v0.8/vendor/@ensdomains/buffer/v0.1.0/Buffer.sol\":3772:3775  len */\n      dup7\n        /* \"@chainlink/contracts@1.4.0/src/v0.8/vendor/@ensdomains/buffer/v0.1.0/Buffer.sol\":3772:3781  len >= 32 */\n      lt\n        /* \"@chainlink/contracts@1.4.0/src/v0.8/vendor/@ensdomains/buffer/v0.1.0/Buffer.sol\":3765:3930  for (; len >= 32; len -= 32) {... */\n      tag_292\n      jumpi\n        /* \"@chainlink/contracts@1.4.0/src/v0.8/vendor/@ensdomains/buffer/v0.1.0/Buffer.sol\":3854:3857  src */\n      dup1\n        /* \"@chainlink/contracts@1.4.0/src/v0.8/vendor/@ensdomains/buffer/v0.1.0/Buffer.sol\":3848:3858  mload(src) */\n      mload\n        /* \"@chainlink/contracts@1.4.0/src/v0.8/vendor/@ensdomains/buffer/v0.1.0/Buffer.sol\":3842:3846  dest */\n      dup3\n        /* \"@chainlink/contracts@1.4.0/src/v0.8/vendor/@ensdomains/buffer/v0.1.0/Buffer.sol\":3835:3859  mstore(dest, mload(src)) */\n      mstore\n        /* \"@chainlink/contracts@1.4.0/src/v0.8/vendor/@ensdomains/buffer/v0.1.0/Buffer.sol\":3894:3896  32 */\n      0x20\n        /* \"@chainlink/contracts@1.4.0/src/v0.8/vendor/@ensdomains/buffer/v0.1.0/Buffer.sol\":3886:3896  dest += 32 */\n      dup3\n      tag_294\n      swap2\n      swap1\n      tag_221\n      jump\t// in\n    tag_294:\n      swap2\n      pop\n        /* \"@chainlink/contracts@1.4.0/src/v0.8/vendor/@ensdomains/buffer/v0.1.0/Buffer.sol\":3917:3919  32 */\n      0x20\n        /* \"@chainlink/contracts@1.4.0/src/v0.8/vendor/@ensdomains/buffer/v0.1.0/Buffer.sol\":3910:3919  src += 32 */\n      dup2\n      tag_295\n      swap2\n      swap1\n      tag_221\n      jump\t// in\n    tag_295:\n      swap1\n      pop\n        /* \"@chainlink/contracts@1.4.0/src/v0.8/vendor/@ensdomains/buffer/v0.1.0/Buffer.sol\":3790:3792  32 */\n      0x20\n        /* \"@chainlink/contracts@1.4.0/src/v0.8/vendor/@ensdomains/buffer/v0.1.0/Buffer.sol\":3783:3792  len -= 32 */\n      dup7\n      tag_296\n      swap2\n      swap1\n      tag_225\n      jump\t// in\n    tag_296:\n      swap6\n      pop\n        /* \"@chainlink/contracts@1.4.0/src/v0.8/vendor/@ensdomains/buffer/v0.1.0/Buffer.sol\":3765:3930  for (; len >= 32; len -= 32) {... */\n      jump(tag_291)\n    tag_292:\n        /* \"@chainlink/contracts@1.4.0/src/v0.8/vendor/@ensdomains/buffer/v0.1.0/Buffer.sol\":3996:4005  uint mask */\n      0x00\n        /* \"@chainlink/contracts@1.4.0/src/v0.8/vendor/@ensdomains/buffer/v0.1.0/Buffer.sol\":4030:4031  1 */\n      0x01\n        /* \"@chainlink/contracts@1.4.0/src/v0.8/vendor/@ensdomains/buffer/v0.1.0/Buffer.sol\":4022:4025  len */\n      dup8\n        /* \"@chainlink/contracts@1.4.0/src/v0.8/vendor/@ensdomains/buffer/v0.1.0/Buffer.sol\":4017:4019  32 */\n      0x20\n        /* \"@chainlink/contracts@1.4.0/src/v0.8/vendor/@ensdomains/buffer/v0.1.0/Buffer.sol\":4017:4025  32 - len */\n      sub\n        /* \"@chainlink/contracts@1.4.0/src/v0.8/vendor/@ensdomains/buffer/v0.1.0/Buffer.sol\":4009:4012  256 */\n      0x0100\n        /* \"@chainlink/contracts@1.4.0/src/v0.8/vendor/@ensdomains/buffer/v0.1.0/Buffer.sol\":4009:4026  256 ** (32 - len) */\n      exp\n        /* \"@chainlink/contracts@1.4.0/src/v0.8/vendor/@ensdomains/buffer/v0.1.0/Buffer.sol\":4008:4031  (256 ** (32 - len)) - 1 */\n      sub\n        /* \"@chainlink/contracts@1.4.0/src/v0.8/vendor/@ensdomains/buffer/v0.1.0/Buffer.sol\":3996:4031  uint mask = (256 ** (32 - len)) - 1 */\n      swap1\n      pop\n        /* \"@chainlink/contracts@1.4.0/src/v0.8/vendor/@ensdomains/buffer/v0.1.0/Buffer.sol\":4107:4111  mask */\n      dup1\n        /* \"@chainlink/contracts@1.4.0/src/v0.8/vendor/@ensdomains/buffer/v0.1.0/Buffer.sol\":4103:4112  not(mask) */\n      not\n        /* \"@chainlink/contracts@1.4.0/src/v0.8/vendor/@ensdomains/buffer/v0.1.0/Buffer.sol\":4097:4100  src */\n      dup3\n        /* \"@chainlink/contracts@1.4.0/src/v0.8/vendor/@ensdomains/buffer/v0.1.0/Buffer.sol\":4091:4101  mload(src) */\n      mload\n        /* \"@chainlink/contracts@1.4.0/src/v0.8/vendor/@ensdomains/buffer/v0.1.0/Buffer.sol\":4087:4113  and(mload(src), not(mask)) */\n      and\n        /* \"@chainlink/contracts@1.4.0/src/v0.8/vendor/@ensdomains/buffer/v0.1.0/Buffer.sol\":4163:4167  mask */\n      dup2\n        /* \"@chainlink/contracts@1.4.0/src/v0.8/vendor/@ensdomains/buffer/v0.1.0/Buffer.sol\":4156:4160  dest */\n      dup5\n        /* \"@chainlink/contracts@1.4.0/src/v0.8/vendor/@ensdomains/buffer/v0.1.0/Buffer.sol\":4150:4161  mload(dest) */\n      mload\n        /* \"@chainlink/contracts@1.4.0/src/v0.8/vendor/@ensdomains/buffer/v0.1.0/Buffer.sol\":4146:4168  and(mload(dest), mask) */\n      and\n        /* \"@chainlink/contracts@1.4.0/src/v0.8/vendor/@ensdomains/buffer/v0.1.0/Buffer.sol\":4211:4218  srcpart */\n      dup2\n        /* \"@chainlink/contracts@1.4.0/src/v0.8/vendor/@ensdomains/buffer/v0.1.0/Buffer.sol\":4201:4209  destpart */\n      dup2\n        /* \"@chainlink/contracts@1.4.0/src/v0.8/vendor/@ensdomains/buffer/v0.1.0/Buffer.sol\":4198:4219  or(destpart, srcpart) */\n      or\n        /* \"@chainlink/contracts@1.4.0/src/v0.8/vendor/@ensdomains/buffer/v0.1.0/Buffer.sol\":4192:4196  dest */\n      dup6\n        /* \"@chainlink/contracts@1.4.0/src/v0.8/vendor/@ensdomains/buffer/v0.1.0/Buffer.sol\":4185:4220  mstore(dest, or(destpart, srcpart)) */\n      mstore\n        /* \"@chainlink/contracts@1.4.0/src/v0.8/vendor/@ensdomains/buffer/v0.1.0/Buffer.sol\":4054:4234  {... */\n      pop\n      pop\n      pop\n        /* \"@chainlink/contracts@1.4.0/src/v0.8/vendor/@ensdomains/buffer/v0.1.0/Buffer.sol\":4261:4264  buf */\n      dup8\n        /* \"@chainlink/contracts@1.4.0/src/v0.8/vendor/@ensdomains/buffer/v0.1.0/Buffer.sol\":4254:4264  return buf */\n      swap5\n      pop\n      pop\n      pop\n      pop\n      pop\n        /* \"@chainlink/contracts@1.4.0/src/v0.8/vendor/@ensdomains/buffer/v0.1.0/Buffer.sol\":2844:4271  function append(buffer memory buf, bytes memory data, uint len) internal pure returns(buffer memory) {... */\n      swap4\n      swap3\n      pop\n      pop\n      pop\n      jump\t// out\n        /* \"@chainlink/contracts@1.4.0/src/v0.8/vendor/@ensdomains/buffer/v0.1.0/Buffer.sol\":2004:2171  function resize(buffer memory buf, uint capacity) private pure {... */\n    tag_269:\n        /* \"@chainlink/contracts@1.4.0/src/v0.8/vendor/@ensdomains/buffer/v0.1.0/Buffer.sol\":2077:2096  bytes memory oldbuf */\n      0x00\n        /* \"@chainlink/contracts@1.4.0/src/v0.8/vendor/@ensdomains/buffer/v0.1.0/Buffer.sol\":2099:2102  buf */\n      dup3\n        /* \"@chainlink/contracts@1.4.0/src/v0.8/vendor/@ensdomains/buffer/v0.1.0/Buffer.sol\":2099:2106  buf.buf */\n      0x00\n      add\n      mload\n        /* \"@chainlink/contracts@1.4.0/src/v0.8/vendor/@ensdomains/buffer/v0.1.0/Buffer.sol\":2077:2106  bytes memory oldbuf = buf.buf */\n      swap1\n      pop\n        /* \"@chainlink/contracts@1.4.0/src/v0.8/vendor/@ensdomains/buffer/v0.1.0/Buffer.sol\":2116:2135  init(buf, capacity) */\n      tag_298\n        /* \"@chainlink/contracts@1.4.0/src/v0.8/vendor/@ensdomains/buffer/v0.1.0/Buffer.sol\":2121:2124  buf */\n      dup4\n        /* \"@chainlink/contracts@1.4.0/src/v0.8/vendor/@ensdomains/buffer/v0.1.0/Buffer.sol\":2126:2134  capacity */\n      dup4\n        /* \"@chainlink/contracts@1.4.0/src/v0.8/vendor/@ensdomains/buffer/v0.1.0/Buffer.sol\":2116:2120  init */\n      tag_206\n        /* \"@chainlink/contracts@1.4.0/src/v0.8/vendor/@ensdomains/buffer/v0.1.0/Buffer.sol\":2116:2135  init(buf, capacity) */\n      jump\t// in\n    tag_298:\n      pop\n        /* \"@chainlink/contracts@1.4.0/src/v0.8/vendor/@ensdomains/buffer/v0.1.0/Buffer.sol\":2145:2164  append(buf, oldbuf) */\n      tag_299\n        /* \"@chainlink/contracts@1.4.0/src/v0.8/vendor/@ensdomains/buffer/v0.1.0/Buffer.sol\":2152:2155  buf */\n      dup4\n        /* \"@chainlink/contracts@1.4.0/src/v0.8/vendor/@ensdomains/buffer/v0.1.0/Buffer.sol\":2157:2163  oldbuf */\n      dup3\n        /* \"@chainlink/contracts@1.4.0/src/v0.8/vendor/@ensdomains/buffer/v0.1.0/Buffer.sol\":2145:2151  append */\n      tag_211\n        /* \"@chainlink/contracts@1.4.0/src/v0.8/vendor/@ensdomains/buffer/v0.1.0/Buffer.sol\":2145:2164  append(buf, oldbuf) */\n      jump\t// in\n    tag_299:\n      pop\n        /* \"@chainlink/contracts@1.4.0/src/v0.8/vendor/@ensdomains/buffer/v0.1.0/Buffer.sol\":2067:2171  {... */\n      pop\n        /* \"@chainlink/contracts@1.4.0/src/v0.8/vendor/@ensdomains/buffer/v0.1.0/Buffer.sol\":2004:2171  function resize(buffer memory buf, uint capacity) private pure {... */\n      pop\n      pop\n      jump\t// out\n    tag_73:\n      mload(0x40)\n      dup1\n      0xe0\n      add\n      0x40\n      mstore\n      dup1\n      0x00\n      0x02\n      dup2\n      gt\n      iszero\n      tag_300\n      jumpi\n      tag_301\n      tag_130\n      jump\t// in\n    tag_301:\n    tag_300:\n      dup2\n      mstore\n      0x20\n      add\n      0x00\n      0x02\n      dup2\n      gt\n      iszero\n      tag_302\n      jumpi\n      tag_303\n      tag_130\n      jump\t// in\n    tag_303:\n    tag_302:\n      dup2\n      mstore\n      0x20\n      add\n      0x00\n      dup1\n      dup2\n      gt\n      iszero\n      tag_304\n      jumpi\n      tag_305\n      tag_130\n      jump\t// in\n    tag_305:\n    tag_304:\n      dup2\n      mstore\n      0x20\n      add\n      0x60\n      dup2\n      mstore\n      0x20\n      add\n      0x60\n      dup2\n      mstore\n      0x20\n      add\n      0x60\n      dup2\n      mstore\n      0x20\n      add\n      0x60\n      dup2\n      mstore\n      pop\n      swap1\n      jump\t// out\n    tag_203:\n      mload(0x40)\n      dup1\n      0x40\n      add\n      0x40\n      mstore\n      dup1\n      tag_306\n      tag_230\n      jump\t// in\n    tag_306:\n      dup2\n      mstore\n      0x20\n      add\n      0x00\n      dup2\n      mstore\n      pop\n      swap1\n      jump\t// out\n    tag_230:\n      mload(0x40)\n      dup1\n      0x40\n      add\n      0x40\n      mstore\n      dup1\n      0x60\n      dup2\n      mstore\n      0x20\n      add\n      0x00\n      dup2\n      mstore\n      pop\n      swap1\n      jump\t// out\n        /* \"#utility.yul\":7:82   */\n    tag_307:\n        /* \"#utility.yul\":40:46   */\n      0x00\n        /* \"#utility.yul\":73:75   */\n      0x40\n        /* \"#utility.yul\":67:76   */\n      mload\n        /* \"#utility.yul\":57:76   */\n      swap1\n      pop\n        /* \"#utility.yul\":7:82   */\n      swap1\n      jump\t// out\n        /* \"#utility.yul\":88:205   */\n    tag_308:\n        /* \"#utility.yul\":197:198   */\n      0x00\n        /* \"#utility.yul\":194:195   */\n      dup1\n        /* \"#utility.yul\":187:199   */\n      revert\n        /* \"#utility.yul\":211:328   */\n    tag_309:\n        /* \"#utility.yul\":320:321   */\n      0x00\n        /* \"#utility.yul\":317:318   */\n      dup1\n        /* \"#utility.yul\":310:322   */\n      revert\n        /* \"#utility.yul\":334:411   */\n    tag_310:\n        /* \"#utility.yul\":371:378   */\n      0x00\n        /* \"#utility.yul\":400:405   */\n      dup2\n        /* \"#utility.yul\":389:405   */\n      swap1\n      pop\n        /* \"#utility.yul\":334:411   */\n      swap2\n      swap1\n      pop\n      jump\t// out\n        /* \"#utility.yul\":417:539   */\n    tag_311:\n        /* \"#utility.yul\":490:514   */\n      tag_389\n        /* \"#utility.yul\":508:513   */\n      dup2\n        /* \"#utility.yul\":490:514   */\n      tag_310\n      jump\t// in\n    tag_389:\n        /* \"#utility.yul\":483:488   */\n      dup2\n        /* \"#utility.yul\":480:515   */\n      eq\n        /* \"#utility.yul\":470:533   */\n      tag_390\n      jumpi\n        /* \"#utility.yul\":529:530   */\n      0x00\n        /* \"#utility.yul\":526:527   */\n      dup1\n        /* \"#utility.yul\":519:531   */\n      revert\n        /* \"#utility.yul\":470:533   */\n    tag_390:\n        /* \"#utility.yul\":417:539   */\n      pop\n      jump\t// out\n        /* \"#utility.yul\":545:684   */\n    tag_312:\n        /* \"#utility.yul\":591:596   */\n      0x00\n        /* \"#utility.yul\":629:635   */\n      dup2\n        /* \"#utility.yul\":616:636   */\n      calldataload\n        /* \"#utility.yul\":607:636   */\n      swap1\n      pop\n        /* \"#utility.yul\":645:678   */\n      tag_392\n        /* \"#utility.yul\":672:677   */\n      dup2\n        /* \"#utility.yul\":645:678   */\n      tag_311\n      jump\t// in\n    tag_392:\n        /* \"#utility.yul\":545:684   */\n      swap3\n      swap2\n      pop\n      pop\n      jump\t// out\n        /* \"#utility.yul\":690:807   */\n    tag_313:\n        /* \"#utility.yul\":799:800   */\n      0x00\n        /* \"#utility.yul\":796:797   */\n      dup1\n        /* \"#utility.yul\":789:801   */\n      revert\n        /* \"#utility.yul\":813:930   */\n    tag_314:\n        /* \"#utility.yul\":922:923   */\n      0x00\n        /* \"#utility.yul\":919:920   */\n      dup1\n        /* \"#utility.yul\":912:924   */\n      revert\n        /* \"#utility.yul\":936:1038   */\n    tag_315:\n        /* \"#utility.yul\":977:983   */\n      0x00\n        /* \"#utility.yul\":1028:1030   */\n      0x1f\n        /* \"#utility.yul\":1024:1031   */\n      not\n        /* \"#utility.yul\":1019:1021   */\n      0x1f\n        /* \"#utility.yul\":1012:1017   */\n      dup4\n        /* \"#utility.yul\":1008:1022   */\n      add\n        /* \"#utility.yul\":1004:1032   */\n      and\n        /* \"#utility.yul\":994:1032   */\n      swap1\n      pop\n        /* \"#utility.yul\":936:1038   */\n      swap2\n      swap1\n      pop\n      jump\t// out\n        /* \"#utility.yul\":1044:1224   */\n    tag_316:\n        /* \"#utility.yul\":1092:1169   */\n      0x4e487b7100000000000000000000000000000000000000000000000000000000\n        /* \"#utility.yul\":1089:1090   */\n      0x00\n        /* \"#utility.yul\":1082:1170   */\n      mstore\n        /* \"#utility.yul\":1189:1193   */\n      0x41\n        /* \"#utility.yul\":1186:1187   */\n      0x04\n        /* \"#utility.yul\":1179:1194   */\n      mstore\n        /* \"#utility.yul\":1213:1217   */\n      0x24\n        /* \"#utility.yul\":1210:1211   */\n      0x00\n        /* \"#utility.yul\":1203:1218   */\n      revert\n        /* \"#utility.yul\":1230:1511   */\n    tag_317:\n        /* \"#utility.yul\":1313:1340   */\n      tag_398\n        /* \"#utility.yul\":1335:1339   */\n      dup3\n        /* \"#utility.yul\":1313:1340   */\n      tag_315\n      jump\t// in\n    tag_398:\n        /* \"#utility.yul\":1305:1311   */\n      dup2\n        /* \"#utility.yul\":1301:1341   */\n      add\n        /* \"#utility.yul\":1443:1449   */\n      dup2\n        /* \"#utility.yul\":1431:1441   */\n      dup2\n        /* \"#utility.yul\":1428:1450   */\n      lt\n        /* \"#utility.yul\":1407:1425   */\n      0xffffffffffffffff\n        /* \"#utility.yul\":1395:1405   */\n      dup3\n        /* \"#utility.yul\":1392:1426   */\n      gt\n        /* \"#utility.yul\":1389:1451   */\n      or\n        /* \"#utility.yul\":1386:1474   */\n      iszero\n      tag_399\n      jumpi\n        /* \"#utility.yul\":1454:1472   */\n      tag_400\n      tag_316\n      jump\t// in\n    tag_400:\n        /* \"#utility.yul\":1386:1474   */\n    tag_399:\n        /* \"#utility.yul\":1494:1504   */\n      dup1\n        /* \"#utility.yul\":1490:1492   */\n      0x40\n        /* \"#utility.yul\":1483:1505   */\n      mstore\n        /* \"#utility.yul\":1273:1511   */\n      pop\n        /* \"#utility.yul\":1230:1511   */\n      pop\n      pop\n      jump\t// out\n        /* \"#utility.yul\":1517:1646   */\n    tag_318:\n        /* \"#utility.yul\":1551:1557   */\n      0x00\n        /* \"#utility.yul\":1578:1598   */\n      tag_402\n      tag_307\n      jump\t// in\n    tag_402:\n        /* \"#utility.yul\":1568:1598   */\n      swap1\n      pop\n        /* \"#utility.yul\":1607:1640   */\n      tag_403\n        /* \"#utility.yul\":1635:1639   */\n      dup3\n        /* \"#utility.yul\":1627:1633   */\n      dup3\n        /* \"#utility.yul\":1607:1640   */\n      tag_317\n      jump\t// in\n    tag_403:\n        /* \"#utility.yul\":1517:1646   */\n      swap2\n      swap1\n      pop\n      jump\t// out\n        /* \"#utility.yul\":1652:1959   */\n    tag_319:\n        /* \"#utility.yul\":1713:1717   */\n      0x00\n        /* \"#utility.yul\":1803:1821   */\n      0xffffffffffffffff\n        /* \"#utility.yul\":1795:1801   */\n      dup3\n        /* \"#utility.yul\":1792:1822   */\n      gt\n        /* \"#utility.yul\":1789:1845   */\n      iszero\n      tag_405\n      jumpi\n        /* \"#utility.yul\":1825:1843   */\n      tag_406\n      tag_316\n      jump\t// in\n    tag_406:\n        /* \"#utility.yul\":1789:1845   */\n    tag_405:\n        /* \"#utility.yul\":1863:1892   */\n      tag_407\n        /* \"#utility.yul\":1885:1891   */\n      dup3\n        /* \"#utility.yul\":1863:1892   */\n      tag_315\n      jump\t// in\n    tag_407:\n        /* \"#utility.yul\":1855:1892   */\n      swap1\n      pop\n        /* \"#utility.yul\":1947:1951   */\n      0x20\n        /* \"#utility.yul\":1941:1945   */\n      dup2\n        /* \"#utility.yul\":1937:1952   */\n      add\n        /* \"#utility.yul\":1929:1952   */\n      swap1\n      pop\n        /* \"#utility.yul\":1652:1959   */\n      swap2\n      swap1\n      pop\n      jump\t// out\n        /* \"#utility.yul\":1965:2111   */\n    tag_320:\n        /* \"#utility.yul\":2062:2068   */\n      dup3\n        /* \"#utility.yul\":2057:2060   */\n      dup2\n        /* \"#utility.yul\":2052:2055   */\n      dup4\n        /* \"#utility.yul\":2039:2069   */\n      calldatacopy\n        /* \"#utility.yul\":2103:2104   */\n      0x00\n        /* \"#utility.yul\":2094:2100   */\n      dup4\n        /* \"#utility.yul\":2089:2092   */\n      dup4\n        /* \"#utility.yul\":2085:2101   */\n      add\n        /* \"#utility.yul\":2078:2105   */\n      mstore\n        /* \"#utility.yul\":1965:2111   */\n      pop\n      pop\n      pop\n      jump\t// out\n        /* \"#utility.yul\":2117:2540   */\n    tag_321:\n        /* \"#utility.yul\":2194:2199   */\n      0x00\n        /* \"#utility.yul\":2219:2284   */\n      tag_410\n        /* \"#utility.yul\":2235:2283   */\n      tag_411\n        /* \"#utility.yul\":2276:2282   */\n      dup5\n        /* \"#utility.yul\":2235:2283   */\n      tag_319\n      jump\t// in\n    tag_411:\n        /* \"#utility.yul\":2219:2284   */\n      tag_318\n      jump\t// in\n    tag_410:\n        /* \"#utility.yul\":2210:2284   */\n      swap1\n      pop\n        /* \"#utility.yul\":2307:2313   */\n      dup3\n        /* \"#utility.yul\":2300:2305   */\n      dup2\n        /* \"#utility.yul\":2293:2314   */\n      mstore\n        /* \"#utility.yul\":2345:2349   */\n      0x20\n        /* \"#utility.yul\":2338:2343   */\n      dup2\n        /* \"#utility.yul\":2334:2350   */\n      add\n        /* \"#utility.yul\":2383:2386   */\n      dup5\n        /* \"#utility.yul\":2374:2380   */\n      dup5\n        /* \"#utility.yul\":2369:2372   */\n      dup5\n        /* \"#utility.yul\":2365:2381   */\n      add\n        /* \"#utility.yul\":2362:2387   */\n      gt\n        /* \"#utility.yul\":2359:2471   */\n      iszero\n      tag_412\n      jumpi\n        /* \"#utility.yul\":2390:2469   */\n      tag_413\n      tag_314\n      jump\t// in\n    tag_413:\n        /* \"#utility.yul\":2359:2471   */\n    tag_412:\n        /* \"#utility.yul\":2480:2534   */\n      tag_414\n        /* \"#utility.yul\":2527:2533   */\n      dup5\n        /* \"#utility.yul\":2522:2525   */\n      dup3\n        /* \"#utility.yul\":2517:2520   */\n      dup6\n        /* \"#utility.yul\":2480:2534   */\n      tag_320\n      jump\t// in\n    tag_414:\n        /* \"#utility.yul\":2200:2540   */\n      pop\n        /* \"#utility.yul\":2117:2540   */\n      swap4\n      swap3\n      pop\n      pop\n      pop\n      jump\t// out\n        /* \"#utility.yul\":2559:2897   */\n    tag_322:\n        /* \"#utility.yul\":2614:2619   */\n      0x00\n        /* \"#utility.yul\":2663:2666   */\n      dup3\n        /* \"#utility.yul\":2656:2660   */\n      0x1f\n        /* \"#utility.yul\":2648:2654   */\n      dup4\n        /* \"#utility.yul\":2644:2661   */\n      add\n        /* \"#utility.yul\":2640:2667   */\n      slt\n        /* \"#utility.yul\":2630:2752   */\n      tag_416\n      jumpi\n        /* \"#utility.yul\":2671:2750   */\n      tag_417\n      tag_313\n      jump\t// in\n    tag_417:\n        /* \"#utility.yul\":2630:2752   */\n    tag_416:\n        /* \"#utility.yul\":2788:2794   */\n      dup2\n        /* \"#utility.yul\":2775:2795   */\n      calldataload\n        /* \"#utility.yul\":2813:2891   */\n      tag_418\n        /* \"#utility.yul\":2887:2890   */\n      dup5\n        /* \"#utility.yul\":2879:2885   */\n      dup3\n        /* \"#utility.yul\":2872:2876   */\n      0x20\n        /* \"#utility.yul\":2864:2870   */\n      dup7\n        /* \"#utility.yul\":2860:2877   */\n      add\n        /* \"#utility.yul\":2813:2891   */\n      tag_321\n      jump\t// in\n    tag_418:\n        /* \"#utility.yul\":2804:2891   */\n      swap2\n      pop\n        /* \"#utility.yul\":2620:2897   */\n      pop\n        /* \"#utility.yul\":2559:2897   */\n      swap3\n      swap2\n      pop\n      pop\n      jump\t// out\n        /* \"#utility.yul\":2903:3878   */\n    tag_18:\n        /* \"#utility.yul\":2998:3004   */\n      0x00\n        /* \"#utility.yul\":3006:3012   */\n      dup1\n        /* \"#utility.yul\":3014:3020   */\n      0x00\n        /* \"#utility.yul\":3063:3065   */\n      0x60\n        /* \"#utility.yul\":3051:3060   */\n      dup5\n        /* \"#utility.yul\":3042:3049   */\n      dup7\n        /* \"#utility.yul\":3038:3061   */\n      sub\n        /* \"#utility.yul\":3034:3066   */\n      slt\n        /* \"#utility.yul\":3031:3150   */\n      iszero\n      tag_420\n      jumpi\n        /* \"#utility.yul\":3069:3148   */\n      tag_421\n      tag_308\n      jump\t// in\n    tag_421:\n        /* \"#utility.yul\":3031:3150   */\n    tag_420:\n        /* \"#utility.yul\":3189:3190   */\n      0x00\n        /* \"#utility.yul\":3214:3267   */\n      tag_422\n        /* \"#utility.yul\":3259:3266   */\n      dup7\n        /* \"#utility.yul\":3250:3256   */\n      dup3\n        /* \"#utility.yul\":3239:3248   */\n      dup8\n        /* \"#utility.yul\":3235:3257   */\n      add\n        /* \"#utility.yul\":3214:3267   */\n      tag_312\n      jump\t// in\n    tag_422:\n        /* \"#utility.yul\":3204:3267   */\n      swap4\n      pop\n        /* \"#utility.yul\":3160:3277   */\n      pop\n        /* \"#utility.yul\":3344:3346   */\n      0x20\n        /* \"#utility.yul\":3333:3342   */\n      dup5\n        /* \"#utility.yul\":3329:3347   */\n      add\n        /* \"#utility.yul\":3316:3348   */\n      calldataload\n        /* \"#utility.yul\":3375:3393   */\n      0xffffffffffffffff\n        /* \"#utility.yul\":3367:3373   */\n      dup2\n        /* \"#utility.yul\":3364:3394   */\n      gt\n        /* \"#utility.yul\":3361:3478   */\n      iszero\n      tag_423\n      jumpi\n        /* \"#utility.yul\":3397:3476   */\n      tag_424\n      tag_309\n      jump\t// in\n    tag_424:\n        /* \"#utility.yul\":3361:3478   */\n    tag_423:\n        /* \"#utility.yul\":3502:3564   */\n      tag_425\n        /* \"#utility.yul\":3556:3563   */\n      dup7\n        /* \"#utility.yul\":3547:3553   */\n      dup3\n        /* \"#utility.yul\":3536:3545   */\n      dup8\n        /* \"#utility.yul\":3532:3554   */\n      add\n        /* \"#utility.yul\":3502:3564   */\n      tag_322\n      jump\t// in\n    tag_425:\n        /* \"#utility.yul\":3492:3564   */\n      swap3\n      pop\n        /* \"#utility.yul\":3287:3574   */\n      pop\n        /* \"#utility.yul\":3641:3643   */\n      0x40\n        /* \"#utility.yul\":3630:3639   */\n      dup5\n        /* \"#utility.yul\":3626:3644   */\n      add\n        /* \"#utility.yul\":3613:3645   */\n      calldataload\n        /* \"#utility.yul\":3672:3690   */\n      0xffffffffffffffff\n        /* \"#utility.yul\":3664:3670   */\n      dup2\n        /* \"#utility.yul\":3661:3691   */\n      gt\n        /* \"#utility.yul\":3658:3775   */\n      iszero\n      tag_426\n      jumpi\n        /* \"#utility.yul\":3694:3773   */\n      tag_427\n      tag_309\n      jump\t// in\n    tag_427:\n        /* \"#utility.yul\":3658:3775   */\n    tag_426:\n        /* \"#utility.yul\":3799:3861   */\n      tag_428\n        /* \"#utility.yul\":3853:3860   */\n      dup7\n        /* \"#utility.yul\":3844:3850   */\n      dup3\n        /* \"#utility.yul\":3833:3842   */\n      dup8\n        /* \"#utility.yul\":3829:3851   */\n      add\n        /* \"#utility.yul\":3799:3861   */\n      tag_322\n      jump\t// in\n    tag_428:\n        /* \"#utility.yul\":3789:3861   */\n      swap2\n      pop\n        /* \"#utility.yul\":3584:3871   */\n      pop\n        /* \"#utility.yul\":2903:3878   */\n      swap3\n      pop\n      swap3\n      pop\n      swap3\n      jump\t// out\n        /* \"#utility.yul\":3884:3961   */\n    tag_323:\n        /* \"#utility.yul\":3921:3928   */\n      0x00\n        /* \"#utility.yul\":3950:3955   */\n      dup2\n        /* \"#utility.yul\":3939:3955   */\n      swap1\n      pop\n        /* \"#utility.yul\":3884:3961   */\n      swap2\n      swap1\n      pop\n      jump\t// out\n        /* \"#utility.yul\":3967:4085   */\n    tag_324:\n        /* \"#utility.yul\":4054:4078   */\n      tag_431\n        /* \"#utility.yul\":4072:4077   */\n      dup2\n        /* \"#utility.yul\":4054:4078   */\n      tag_323\n      jump\t// in\n    tag_431:\n        /* \"#utility.yul\":4049:4052   */\n      dup3\n        /* \"#utility.yul\":4042:4079   */\n      mstore\n        /* \"#utility.yul\":3967:4085   */\n      pop\n      pop\n      jump\t// out\n        /* \"#utility.yul\":4091:4313   */\n    tag_23:\n        /* \"#utility.yul\":4184:4188   */\n      0x00\n        /* \"#utility.yul\":4222:4224   */\n      0x20\n        /* \"#utility.yul\":4211:4220   */\n      dup3\n        /* \"#utility.yul\":4207:4225   */\n      add\n        /* \"#utility.yul\":4199:4225   */\n      swap1\n      pop\n        /* \"#utility.yul\":4235:4306   */\n      tag_433\n        /* \"#utility.yul\":4303:4304   */\n      0x00\n        /* \"#utility.yul\":4292:4301   */\n      dup4\n        /* \"#utility.yul\":4288:4305   */\n      add\n        /* \"#utility.yul\":4279:4285   */\n      dup5\n        /* \"#utility.yul\":4235:4306   */\n      tag_324\n      jump\t// in\n    tag_433:\n        /* \"#utility.yul\":4091:4313   */\n      swap3\n      swap2\n      pop\n      pop\n      jump\t// out\n        /* \"#utility.yul\":4319:4417   */\n    tag_325:\n        /* \"#utility.yul\":4370:4376   */\n      0x00\n        /* \"#utility.yul\":4404:4409   */\n      dup2\n        /* \"#utility.yul\":4398:4410   */\n      mload\n        /* \"#utility.yul\":4388:4410   */\n      swap1\n      pop\n        /* \"#utility.yul\":4319:4417   */\n      swap2\n      swap1\n      pop\n      jump\t// out\n        /* \"#utility.yul\":4423:4591   */\n    tag_326:\n        /* \"#utility.yul\":4506:4517   */\n      0x00\n        /* \"#utility.yul\":4540:4546   */\n      dup3\n        /* \"#utility.yul\":4535:4538   */\n      dup3\n        /* \"#utility.yul\":4528:4547   */\n      mstore\n        /* \"#utility.yul\":4580:4584   */\n      0x20\n        /* \"#utility.yul\":4575:4578   */\n      dup3\n        /* \"#utility.yul\":4571:4585   */\n      add\n        /* \"#utility.yul\":4556:4585   */\n      swap1\n      pop\n        /* \"#utility.yul\":4423:4591   */\n      swap3\n      swap2\n      pop\n      pop\n      jump\t// out\n        /* \"#utility.yul\":4597:4843   */\n    tag_327:\n        /* \"#utility.yul\":4678:4679   */\n      0x00\n        /* \"#utility.yul\":4688:4801   */\n    tag_437:\n        /* \"#utility.yul\":4702:4708   */\n      dup4\n        /* \"#utility.yul\":4699:4700   */\n      dup2\n        /* \"#utility.yul\":4696:4709   */\n      lt\n        /* \"#utility.yul\":4688:4801   */\n      iszero\n      tag_439\n      jumpi\n        /* \"#utility.yul\":4787:4788   */\n      dup1\n        /* \"#utility.yul\":4782:4785   */\n      dup3\n        /* \"#utility.yul\":4778:4789   */\n      add\n        /* \"#utility.yul\":4772:4790   */\n      mload\n        /* \"#utility.yul\":4768:4769   */\n      dup2\n        /* \"#utility.yul\":4763:4766   */\n      dup5\n        /* \"#utility.yul\":4759:4770   */\n      add\n        /* \"#utility.yul\":4752:4791   */\n      mstore\n        /* \"#utility.yul\":4724:4726   */\n      0x20\n        /* \"#utility.yul\":4721:4722   */\n      dup2\n        /* \"#utility.yul\":4717:4727   */\n      add\n        /* \"#utility.yul\":4712:4727   */\n      swap1\n      pop\n        /* \"#utility.yul\":4688:4801   */\n      jump(tag_437)\n    tag_439:\n        /* \"#utility.yul\":4835:4836   */\n      0x00\n        /* \"#utility.yul\":4826:4832   */\n      dup5\n        /* \"#utility.yul\":4821:4824   */\n      dup5\n        /* \"#utility.yul\":4817:4833   */\n      add\n        /* \"#utility.yul\":4810:4837   */\n      mstore\n        /* \"#utility.yul\":4659:4843   */\n      pop\n        /* \"#utility.yul\":4597:4843   */\n      pop\n      pop\n      pop\n      jump\t// out\n        /* \"#utility.yul\":4849:5222   */\n    tag_328:\n        /* \"#utility.yul\":4935:4938   */\n      0x00\n        /* \"#utility.yul\":4963:5001   */\n      tag_441\n        /* \"#utility.yul\":4995:5000   */\n      dup3\n        /* \"#utility.yul\":4963:5001   */\n      tag_325\n      jump\t// in\n    tag_441:\n        /* \"#utility.yul\":5017:5087   */\n      tag_442\n        /* \"#utility.yul\":5080:5086   */\n      dup2\n        /* \"#utility.yul\":5075:5078   */\n      dup6\n        /* \"#utility.yul\":5017:5087   */\n      tag_326\n      jump\t// in\n    tag_442:\n        /* \"#utility.yul\":5010:5087   */\n      swap4\n      pop\n        /* \"#utility.yul\":5096:5161   */\n      tag_443\n        /* \"#utility.yul\":5154:5160   */\n      dup2\n        /* \"#utility.yul\":5149:5152   */\n      dup6\n        /* \"#utility.yul\":5142:5146   */\n      0x20\n        /* \"#utility.yul\":5135:5140   */\n      dup7\n        /* \"#utility.yul\":5131:5147   */\n      add\n        /* \"#utility.yul\":5096:5161   */\n      tag_327\n      jump\t// in\n    tag_443:\n        /* \"#utility.yul\":5186:5215   */\n      tag_444\n        /* \"#utility.yul\":5208:5214   */\n      dup2\n        /* \"#utility.yul\":5186:5215   */\n      tag_315\n      jump\t// in\n    tag_444:\n        /* \"#utility.yul\":5181:5184   */\n      dup5\n        /* \"#utility.yul\":5177:5216   */\n      add\n        /* \"#utility.yul\":5170:5216   */\n      swap2\n      pop\n        /* \"#utility.yul\":4939:5222   */\n      pop\n        /* \"#utility.yul\":4849:5222   */\n      swap3\n      swap2\n      pop\n      pop\n      jump\t// out\n        /* \"#utility.yul\":5228:5537   */\n    tag_27:\n        /* \"#utility.yul\":5339:5343   */\n      0x00\n        /* \"#utility.yul\":5377:5379   */\n      0x20\n        /* \"#utility.yul\":5366:5375   */\n      dup3\n        /* \"#utility.yul\":5362:5380   */\n      add\n        /* \"#utility.yul\":5354:5380   */\n      swap1\n      pop\n        /* \"#utility.yul\":5426:5435   */\n      dup2\n        /* \"#utility.yul\":5420:5424   */\n      dup2\n        /* \"#utility.yul\":5416:5436   */\n      sub\n        /* \"#utility.yul\":5412:5413   */\n      0x00\n        /* \"#utility.yul\":5401:5410   */\n      dup4\n        /* \"#utility.yul\":5397:5414   */\n      add\n        /* \"#utility.yul\":5390:5437   */\n      mstore\n        /* \"#utility.yul\":5454:5530   */\n      tag_446\n        /* \"#utility.yul\":5525:5529   */\n      dup2\n        /* \"#utility.yul\":5516:5522   */\n      dup5\n        /* \"#utility.yul\":5454:5530   */\n      tag_328\n      jump\t// in\n    tag_446:\n        /* \"#utility.yul\":5446:5530   */\n      swap1\n      pop\n        /* \"#utility.yul\":5228:5537   */\n      swap3\n      swap2\n      pop\n      pop\n      jump\t// out\n        /* \"#utility.yul\":5543:5644   */\n    tag_329:\n        /* \"#utility.yul\":5579:5586   */\n      0x00\n        /* \"#utility.yul\":5619:5637   */\n      0xffffffffffffffff\n        /* \"#utility.yul\":5612:5617   */\n      dup3\n        /* \"#utility.yul\":5608:5638   */\n      and\n        /* \"#utility.yul\":5597:5638   */\n      swap1\n      pop\n        /* \"#utility.yul\":5543:5644   */\n      swap2\n      swap1\n      pop\n      jump\t// out\n        /* \"#utility.yul\":5650:5770   */\n    tag_330:\n        /* \"#utility.yul\":5722:5745   */\n      tag_449\n        /* \"#utility.yul\":5739:5744   */\n      dup2\n        /* \"#utility.yul\":5722:5745   */\n      tag_329\n      jump\t// in\n    tag_449:\n        /* \"#utility.yul\":5715:5720   */\n      dup2\n        /* \"#utility.yul\":5712:5746   */\n      eq\n        /* \"#utility.yul\":5702:5764   */\n      tag_450\n      jumpi\n        /* \"#utility.yul\":5760:5761   */\n      0x00\n        /* \"#utility.yul\":5757:5758   */\n      dup1\n        /* \"#utility.yul\":5750:5762   */\n      revert\n        /* \"#utility.yul\":5702:5764   */\n    tag_450:\n        /* \"#utility.yul\":5650:5770   */\n      pop\n      jump\t// out\n        /* \"#utility.yul\":5776:5913   */\n    tag_331:\n        /* \"#utility.yul\":5821:5826   */\n      0x00\n        /* \"#utility.yul\":5859:5865   */\n      dup2\n        /* \"#utility.yul\":5846:5866   */\n      calldataload\n        /* \"#utility.yul\":5837:5866   */\n      swap1\n      pop\n        /* \"#utility.yul\":5875:5907   */\n      tag_452\n        /* \"#utility.yul\":5901:5906   */\n      dup2\n        /* \"#utility.yul\":5875:5907   */\n      tag_330\n      jump\t// in\n    tag_452:\n        /* \"#utility.yul\":5776:5913   */\n      swap3\n      swap2\n      pop\n      pop\n      jump\t// out\n        /* \"#utility.yul\":5919:6036   */\n    tag_332:\n        /* \"#utility.yul\":6028:6029   */\n      0x00\n        /* \"#utility.yul\":6025:6026   */\n      dup1\n        /* \"#utility.yul\":6018:6030   */\n      revert\n        /* \"#utility.yul\":6042:6159   */\n    tag_333:\n        /* \"#utility.yul\":6151:6152   */\n      0x00\n        /* \"#utility.yul\":6148:6149   */\n      dup1\n        /* \"#utility.yul\":6141:6153   */\n      revert\n        /* \"#utility.yul\":6181:6761   */\n    tag_334:\n        /* \"#utility.yul\":6266:6274   */\n      0x00\n        /* \"#utility.yul\":6276:6282   */\n      dup1\n        /* \"#utility.yul\":6326:6329   */\n      dup4\n        /* \"#utility.yul\":6319:6323   */\n      0x1f\n        /* \"#utility.yul\":6311:6317   */\n      dup5\n        /* \"#utility.yul\":6307:6324   */\n      add\n        /* \"#utility.yul\":6303:6330   */\n      slt\n        /* \"#utility.yul\":6293:6415   */\n      tag_456\n      jumpi\n        /* \"#utility.yul\":6334:6413   */\n      tag_457\n      tag_313\n      jump\t// in\n    tag_457:\n        /* \"#utility.yul\":6293:6415   */\n    tag_456:\n        /* \"#utility.yul\":6447:6453   */\n      dup3\n        /* \"#utility.yul\":6434:6454   */\n      calldataload\n        /* \"#utility.yul\":6424:6454   */\n      swap1\n      pop\n        /* \"#utility.yul\":6477:6495   */\n      0xffffffffffffffff\n        /* \"#utility.yul\":6469:6475   */\n      dup2\n        /* \"#utility.yul\":6466:6496   */\n      gt\n        /* \"#utility.yul\":6463:6580   */\n      iszero\n      tag_458\n      jumpi\n        /* \"#utility.yul\":6499:6578   */\n      tag_459\n      tag_332\n      jump\t// in\n    tag_459:\n        /* \"#utility.yul\":6463:6580   */\n    tag_458:\n        /* \"#utility.yul\":6613:6617   */\n      0x20\n        /* \"#utility.yul\":6605:6611   */\n      dup4\n        /* \"#utility.yul\":6601:6618   */\n      add\n        /* \"#utility.yul\":6589:6618   */\n      swap2\n      pop\n        /* \"#utility.yul\":6667:6670   */\n      dup4\n        /* \"#utility.yul\":6659:6663   */\n      0x20\n        /* \"#utility.yul\":6651:6657   */\n      dup3\n        /* \"#utility.yul\":6647:6664   */\n      mul\n        /* \"#utility.yul\":6637:6645   */\n      dup4\n        /* \"#utility.yul\":6633:6665   */\n      add\n        /* \"#utility.yul\":6630:6671   */\n      gt\n        /* \"#utility.yul\":6627:6755   */\n      iszero\n      tag_460\n      jumpi\n        /* \"#utility.yul\":6674:6753   */\n      tag_461\n      tag_333\n      jump\t// in\n    tag_461:\n        /* \"#utility.yul\":6627:6755   */\n    tag_460:\n        /* \"#utility.yul\":6181:6761   */\n      swap3\n      pop\n      swap3\n      swap1\n      pop\n      jump\t// out\n        /* \"#utility.yul\":6767:7493   */\n    tag_30:\n        /* \"#utility.yul\":6873:6879   */\n      0x00\n        /* \"#utility.yul\":6881:6887   */\n      dup1\n        /* \"#utility.yul\":6889:6895   */\n      0x00\n        /* \"#utility.yul\":6938:6940   */\n      0x40\n        /* \"#utility.yul\":6926:6935   */\n      dup5\n        /* \"#utility.yul\":6917:6924   */\n      dup7\n        /* \"#utility.yul\":6913:6936   */\n      sub\n        /* \"#utility.yul\":6909:6941   */\n      slt\n        /* \"#utility.yul\":6906:7025   */\n      iszero\n      tag_463\n      jumpi\n        /* \"#utility.yul\":6944:7023   */\n      tag_464\n      tag_308\n      jump\t// in\n    tag_464:\n        /* \"#utility.yul\":6906:7025   */\n    tag_463:\n        /* \"#utility.yul\":7064:7065   */\n      0x00\n        /* \"#utility.yul\":7089:7141   */\n      tag_465\n        /* \"#utility.yul\":7133:7140   */\n      dup7\n        /* \"#utility.yul\":7124:7130   */\n      dup3\n        /* \"#utility.yul\":7113:7122   */\n      dup8\n        /* \"#utility.yul\":7109:7131   */\n      add\n        /* \"#utility.yul\":7089:7141   */\n      tag_331\n      jump\t// in\n    tag_465:\n        /* \"#utility.yul\":7079:7141   */\n      swap4\n      pop\n        /* \"#utility.yul\":7035:7151   */\n      pop\n        /* \"#utility.yul\":7218:7220   */\n      0x20\n        /* \"#utility.yul\":7207:7216   */\n      dup5\n        /* \"#utility.yul\":7203:7221   */\n      add\n        /* \"#utility.yul\":7190:7222   */\n      calldataload\n        /* \"#utility.yul\":7249:7267   */\n      0xffffffffffffffff\n        /* \"#utility.yul\":7241:7247   */\n      dup2\n        /* \"#utility.yul\":7238:7268   */\n      gt\n        /* \"#utility.yul\":7235:7352   */\n      iszero\n      tag_466\n      jumpi\n        /* \"#utility.yul\":7271:7350   */\n      tag_467\n      tag_309\n      jump\t// in\n    tag_467:\n        /* \"#utility.yul\":7235:7352   */\n    tag_466:\n        /* \"#utility.yul\":7384:7476   */\n      tag_468\n        /* \"#utility.yul\":7468:7475   */\n      dup7\n        /* \"#utility.yul\":7459:7465   */\n      dup3\n        /* \"#utility.yul\":7448:7457   */\n      dup8\n        /* \"#utility.yul\":7444:7466   */\n      add\n        /* \"#utility.yul\":7384:7476   */\n      tag_334\n      jump\t// in\n    tag_468:\n        /* \"#utility.yul\":7366:7476   */\n      swap3\n      pop\n      swap3\n      pop\n        /* \"#utility.yul\":7161:7486   */\n      pop\n        /* \"#utility.yul\":6767:7493   */\n      swap3\n      pop\n      swap3\n      pop\n      swap3\n      jump\t// out\n        /* \"#utility.yul\":7499:7617   */\n    tag_335:\n        /* \"#utility.yul\":7586:7610   */\n      tag_470\n        /* \"#utility.yul\":7604:7609   */\n      dup2\n        /* \"#utility.yul\":7586:7610   */\n      tag_310\n      jump\t// in\n    tag_470:\n        /* \"#utility.yul\":7581:7584   */\n      dup3\n        /* \"#utility.yul\":7574:7611   */\n      mstore\n        /* \"#utility.yul\":7499:7617   */\n      pop\n      pop\n      jump\t// out\n        /* \"#utility.yul\":7623:7845   */\n    tag_33:\n        /* \"#utility.yul\":7716:7720   */\n      0x00\n        /* \"#utility.yul\":7754:7756   */\n      0x20\n        /* \"#utility.yul\":7743:7752   */\n      dup3\n        /* \"#utility.yul\":7739:7757   */\n      add\n        /* \"#utility.yul\":7731:7757   */\n      swap1\n      pop\n        /* \"#utility.yul\":7767:7838   */\n      tag_472\n        /* \"#utility.yul\":7835:7836   */\n      0x00\n        /* \"#utility.yul\":7824:7833   */\n      dup4\n        /* \"#utility.yul\":7820:7837   */\n      add\n        /* \"#utility.yul\":7811:7817   */\n      dup5\n        /* \"#utility.yul\":7767:7838   */\n      tag_335\n      jump\t// in\n    tag_472:\n        /* \"#utility.yul\":7623:7845   */\n      swap3\n      swap2\n      pop\n      pop\n      jump\t// out\n        /* \"#utility.yul\":7851:7977   */\n    tag_336:\n        /* \"#utility.yul\":7888:7895   */\n      0x00\n        /* \"#utility.yul\":7928:7970   */\n      0xffffffffffffffffffffffffffffffffffffffff\n        /* \"#utility.yul\":7921:7926   */\n      dup3\n        /* \"#utility.yul\":7917:7971   */\n      and\n        /* \"#utility.yul\":7906:7971   */\n      swap1\n      pop\n        /* \"#utility.yul\":7851:7977   */\n      swap2\n      swap1\n      pop\n      jump\t// out\n        /* \"#utility.yul\":7983:8079   */\n    tag_337:\n        /* \"#utility.yul\":8020:8027   */\n      0x00\n        /* \"#utility.yul\":8049:8073   */\n      tag_475\n        /* \"#utility.yul\":8067:8072   */\n      dup3\n        /* \"#utility.yul\":8049:8073   */\n      tag_336\n      jump\t// in\n    tag_475:\n        /* \"#utility.yul\":8038:8073   */\n      swap1\n      pop\n        /* \"#utility.yul\":7983:8079   */\n      swap2\n      swap1\n      pop\n      jump\t// out\n        /* \"#utility.yul\":8085:8203   */\n    tag_338:\n        /* \"#utility.yul\":8172:8196   */\n      tag_477\n        /* \"#utility.yul\":8190:8195   */\n      dup2\n        /* \"#utility.yul\":8172:8196   */\n      tag_337\n      jump\t// in\n    tag_477:\n        /* \"#utility.yul\":8167:8170   */\n      dup3\n        /* \"#utility.yul\":8160:8197   */\n      mstore\n        /* \"#utility.yul\":8085:8203   */\n      pop\n      pop\n      jump\t// out\n        /* \"#utility.yul\":8209:8431   */\n    tag_42:\n        /* \"#utility.yul\":8302:8306   */\n      0x00\n        /* \"#utility.yul\":8340:8342   */\n      0x20\n        /* \"#utility.yul\":8329:8338   */\n      dup3\n        /* \"#utility.yul\":8325:8343   */\n      add\n        /* \"#utility.yul\":8317:8343   */\n      swap1\n      pop\n        /* \"#utility.yul\":8353:8424   */\n      tag_479\n        /* \"#utility.yul\":8421:8422   */\n      0x00\n        /* \"#utility.yul\":8410:8419   */\n      dup4\n        /* \"#utility.yul\":8406:8423   */\n      add\n        /* \"#utility.yul\":8397:8403   */\n      dup5\n        /* \"#utility.yul\":8353:8424   */\n      tag_338\n      jump\t// in\n    tag_479:\n        /* \"#utility.yul\":8209:8431   */\n      swap3\n      swap2\n      pop\n      pop\n      jump\t// out\n        /* \"#utility.yul\":8437:8559   */\n    tag_339:\n        /* \"#utility.yul\":8510:8534   */\n      tag_481\n        /* \"#utility.yul\":8528:8533   */\n      dup2\n        /* \"#utility.yul\":8510:8534   */\n      tag_337\n      jump\t// in\n    tag_481:\n        /* \"#utility.yul\":8503:8508   */\n      dup2\n        /* \"#utility.yul\":8500:8535   */\n      eq\n        /* \"#utility.yul\":8490:8553   */\n      tag_482\n      jumpi\n        /* \"#utility.yul\":8549:8550   */\n      0x00\n        /* \"#utility.yul\":8546:8547   */\n      dup1\n        /* \"#utility.yul\":8539:8551   */\n      revert\n        /* \"#utility.yul\":8490:8553   */\n    tag_482:\n        /* \"#utility.yul\":8437:8559   */\n      pop\n      jump\t// out\n        /* \"#utility.yul\":8565:8704   */\n    tag_340:\n        /* \"#utility.yul\":8611:8616   */\n      0x00\n        /* \"#utility.yul\":8649:8655   */\n      dup2\n        /* \"#utility.yul\":8636:8656   */\n      calldataload\n        /* \"#utility.yul\":8627:8656   */\n      swap1\n      pop\n        /* \"#utility.yul\":8665:8698   */\n      tag_484\n        /* \"#utility.yul\":8692:8697   */\n      dup2\n        /* \"#utility.yul\":8665:8698   */\n      tag_339\n      jump\t// in\n    tag_484:\n        /* \"#utility.yul\":8565:8704   */\n      swap3\n      swap2\n      pop\n      pop\n      jump\t// out\n        /* \"#utility.yul\":8710:9039   */\n    tag_51:\n        /* \"#utility.yul\":8769:8775   */\n      0x00\n        /* \"#utility.yul\":8818:8820   */\n      0x20\n        /* \"#utility.yul\":8806:8815   */\n      dup3\n        /* \"#utility.yul\":8797:8804   */\n      dup5\n        /* \"#utility.yul\":8793:8816   */\n      sub\n        /* \"#utility.yul\":8789:8821   */\n      slt\n        /* \"#utility.yul\":8786:8905   */\n      iszero\n      tag_486\n      jumpi\n        /* \"#utility.yul\":8824:8903   */\n      tag_487\n      tag_308\n      jump\t// in\n    tag_487:\n        /* \"#utility.yul\":8786:8905   */\n    tag_486:\n        /* \"#utility.yul\":8944:8945   */\n      0x00\n        /* \"#utility.yul\":8969:9022   */\n      tag_488\n        /* \"#utility.yul\":9014:9021   */\n      dup5\n        /* \"#utility.yul\":9005:9011   */\n      dup3\n        /* \"#utility.yul\":8994:9003   */\n      dup6\n        /* \"#utility.yul\":8990:9012   */\n      add\n        /* \"#utility.yul\":8969:9022   */\n      tag_340\n      jump\t// in\n    tag_488:\n        /* \"#utility.yul\":8959:9022   */\n      swap2\n      pop\n        /* \"#utility.yul\":8915:9032   */\n      pop\n        /* \"#utility.yul\":8710:9039   */\n      swap3\n      swap2\n      pop\n      pop\n      jump\t// out\n        /* \"#utility.yul\":9045:9225   */\n    tag_341:\n        /* \"#utility.yul\":9093:9170   */\n      0x4e487b7100000000000000000000000000000000000000000000000000000000\n        /* \"#utility.yul\":9090:9091   */\n      0x00\n        /* \"#utility.yul\":9083:9171   */\n      mstore\n        /* \"#utility.yul\":9190:9194   */\n      0x22\n        /* \"#utility.yul\":9187:9188   */\n      0x04\n        /* \"#utility.yul\":9180:9195   */\n      mstore\n        /* \"#utility.yul\":9214:9218   */\n      0x24\n        /* \"#utility.yul\":9211:9212   */\n      0x00\n        /* \"#utility.yul\":9204:9219   */\n      revert\n        /* \"#utility.yul\":9231:9551   */\n    tag_66:\n        /* \"#utility.yul\":9275:9281   */\n      0x00\n        /* \"#utility.yul\":9312:9313   */\n      0x02\n        /* \"#utility.yul\":9306:9310   */\n      dup3\n        /* \"#utility.yul\":9302:9314   */\n      div\n        /* \"#utility.yul\":9292:9314   */\n      swap1\n      pop\n        /* \"#utility.yul\":9359:9360   */\n      0x01\n        /* \"#utility.yul\":9353:9357   */\n      dup3\n        /* \"#utility.yul\":9349:9361   */\n      and\n        /* \"#utility.yul\":9380:9398   */\n      dup1\n        /* \"#utility.yul\":9370:9451   */\n      tag_491\n      jumpi\n        /* \"#utility.yul\":9436:9440   */\n      0x7f\n        /* \"#utility.yul\":9428:9434   */\n      dup3\n        /* \"#utility.yul\":9424:9441   */\n      and\n        /* \"#utility.yul\":9414:9441   */\n      swap2\n      pop\n        /* \"#utility.yul\":9370:9451   */\n    tag_491:\n        /* \"#utility.yul\":9498:9500   */\n      0x20\n        /* \"#utility.yul\":9490:9496   */\n      dup3\n        /* \"#utility.yul\":9487:9501   */\n      lt\n        /* \"#utility.yul\":9467:9485   */\n      dup2\n        /* \"#utility.yul\":9464:9502   */\n      sub\n        /* \"#utility.yul\":9461:9545   */\n      tag_492\n      jumpi\n        /* \"#utility.yul\":9517:9535   */\n      tag_493\n      tag_341\n      jump\t// in\n    tag_493:\n        /* \"#utility.yul\":9461:9545   */\n    tag_492:\n        /* \"#utility.yul\":9282:9551   */\n      pop\n        /* \"#utility.yul\":9231:9551   */\n      swap2\n      swap1\n      pop\n      jump\t// out\n        /* \"#utility.yul\":9557:9878   */\n    tag_342:\n        /* \"#utility.yul\":9644:9648   */\n      0x00\n        /* \"#utility.yul\":9734:9752   */\n      0xffffffffffffffff\n        /* \"#utility.yul\":9726:9732   */\n      dup3\n        /* \"#utility.yul\":9723:9753   */\n      gt\n        /* \"#utility.yul\":9720:9776   */\n      iszero\n      tag_495\n      jumpi\n        /* \"#utility.yul\":9756:9774   */\n      tag_496\n      tag_316\n      jump\t// in\n    tag_496:\n        /* \"#utility.yul\":9720:9776   */\n    tag_495:\n        /* \"#utility.yul\":9806:9810   */\n      0x20\n        /* \"#utility.yul\":9798:9804   */\n      dup3\n        /* \"#utility.yul\":9794:9811   */\n      mul\n        /* \"#utility.yul\":9786:9811   */\n      swap1\n      pop\n        /* \"#utility.yul\":9866:9870   */\n      0x20\n        /* \"#utility.yul\":9860:9864   */\n      dup2\n        /* \"#utility.yul\":9856:9871   */\n      add\n        /* \"#utility.yul\":9848:9871   */\n      swap1\n      pop\n        /* \"#utility.yul\":9557:9878   */\n      swap2\n      swap1\n      pop\n      jump\t// out\n        /* \"#utility.yul\":9884:10192   */\n    tag_343:\n        /* \"#utility.yul\":9946:9950   */\n      0x00\n        /* \"#utility.yul\":10036:10054   */\n      0xffffffffffffffff\n        /* \"#utility.yul\":10028:10034   */\n      dup3\n        /* \"#utility.yul\":10025:10055   */\n      gt\n        /* \"#utility.yul\":10022:10078   */\n      iszero\n      tag_498\n      jumpi\n        /* \"#utility.yul\":10058:10076   */\n      tag_499\n      tag_316\n      jump\t// in\n    tag_499:\n        /* \"#utility.yul\":10022:10078   */\n    tag_498:\n        /* \"#utility.yul\":10096:10125   */\n      tag_500\n        /* \"#utility.yul\":10118:10124   */\n      dup3\n        /* \"#utility.yul\":10096:10125   */\n      tag_315\n      jump\t// in\n    tag_500:\n        /* \"#utility.yul\":10088:10125   */\n      swap1\n      pop\n        /* \"#utility.yul\":10180:10184   */\n      0x20\n        /* \"#utility.yul\":10174:10178   */\n      dup2\n        /* \"#utility.yul\":10170:10185   */\n      add\n        /* \"#utility.yul\":10162:10185   */\n      swap1\n      pop\n        /* \"#utility.yul\":9884:10192   */\n      swap2\n      swap1\n      pop\n      jump\t// out\n        /* \"#utility.yul\":10198:10623   */\n    tag_344:\n        /* \"#utility.yul\":10276:10281   */\n      0x00\n        /* \"#utility.yul\":10301:10367   */\n      tag_502\n        /* \"#utility.yul\":10317:10366   */\n      tag_503\n        /* \"#utility.yul\":10359:10365   */\n      dup5\n        /* \"#utility.yul\":10317:10366   */\n      tag_343\n      jump\t// in\n    tag_503:\n        /* \"#utility.yul\":10301:10367   */\n      tag_318\n      jump\t// in\n    tag_502:\n        /* \"#utility.yul\":10292:10367   */\n      swap1\n      pop\n        /* \"#utility.yul\":10390:10396   */\n      dup3\n        /* \"#utility.yul\":10383:10388   */\n      dup2\n        /* \"#utility.yul\":10376:10397   */\n      mstore\n        /* \"#utility.yul\":10428:10432   */\n      0x20\n        /* \"#utility.yul\":10421:10426   */\n      dup2\n        /* \"#utility.yul\":10417:10433   */\n      add\n        /* \"#utility.yul\":10466:10469   */\n      dup5\n        /* \"#utility.yul\":10457:10463   */\n      dup5\n        /* \"#utility.yul\":10452:10455   */\n      dup5\n        /* \"#utility.yul\":10448:10464   */\n      add\n        /* \"#utility.yul\":10445:10470   */\n      gt\n        /* \"#utility.yul\":10442:10554   */\n      iszero\n      tag_504\n      jumpi\n        /* \"#utility.yul\":10473:10552   */\n      tag_505\n      tag_314\n      jump\t// in\n    tag_505:\n        /* \"#utility.yul\":10442:10554   */\n    tag_504:\n        /* \"#utility.yul\":10563:10617   */\n      tag_506\n        /* \"#utility.yul\":10610:10616   */\n      dup5\n        /* \"#utility.yul\":10605:10608   */\n      dup3\n        /* \"#utility.yul\":10600:10603   */\n      dup6\n        /* \"#utility.yul\":10563:10617   */\n      tag_320\n      jump\t// in\n    tag_506:\n        /* \"#utility.yul\":10282:10623   */\n      pop\n        /* \"#utility.yul\":10198:10623   */\n      swap4\n      swap3\n      pop\n      pop\n      pop\n      jump\t// out\n        /* \"#utility.yul\":10643:10983   */\n    tag_345:\n        /* \"#utility.yul\":10699:10704   */\n      0x00\n        /* \"#utility.yul\":10748:10751   */\n      dup3\n        /* \"#utility.yul\":10741:10745   */\n      0x1f\n        /* \"#utility.yul\":10733:10739   */\n      dup4\n        /* \"#utility.yul\":10729:10746   */\n      add\n        /* \"#utility.yul\":10725:10752   */\n      slt\n        /* \"#utility.yul\":10715:10837   */\n      tag_508\n      jumpi\n        /* \"#utility.yul\":10756:10835   */\n      tag_509\n      tag_313\n      jump\t// in\n    tag_509:\n        /* \"#utility.yul\":10715:10837   */\n    tag_508:\n        /* \"#utility.yul\":10873:10879   */\n      dup2\n        /* \"#utility.yul\":10860:10880   */\n      calldataload\n        /* \"#utility.yul\":10898:10977   */\n      tag_510\n        /* \"#utility.yul\":10973:10976   */\n      dup5\n        /* \"#utility.yul\":10965:10971   */\n      dup3\n        /* \"#utility.yul\":10958:10962   */\n      0x20\n        /* \"#utility.yul\":10950:10956   */\n      dup7\n        /* \"#utility.yul\":10946:10963   */\n      add\n        /* \"#utility.yul\":10898:10977   */\n      tag_344\n      jump\t// in\n    tag_510:\n        /* \"#utility.yul\":10889:10977   */\n      swap2\n      pop\n        /* \"#utility.yul\":10705:10983   */\n      pop\n        /* \"#utility.yul\":10643:10983   */\n      swap3\n      swap2\n      pop\n      pop\n      jump\t// out\n        /* \"#utility.yul\":11005:11950   */\n    tag_346:\n        /* \"#utility.yul\":11111:11116   */\n      0x00\n        /* \"#utility.yul\":11136:11227   */\n      tag_512\n        /* \"#utility.yul\":11152:11226   */\n      tag_513\n        /* \"#utility.yul\":11219:11225   */\n      dup5\n        /* \"#utility.yul\":11152:11226   */\n      tag_342\n      jump\t// in\n    tag_513:\n        /* \"#utility.yul\":11136:11227   */\n      tag_318\n      jump\t// in\n    tag_512:\n        /* \"#utility.yul\":11127:11227   */\n      swap1\n      pop\n        /* \"#utility.yul\":11247:11252   */\n      dup1\n        /* \"#utility.yul\":11276:11282   */\n      dup4\n        /* \"#utility.yul\":11269:11274   */\n      dup3\n        /* \"#utility.yul\":11262:11283   */\n      mstore\n        /* \"#utility.yul\":11310:11314   */\n      0x20\n        /* \"#utility.yul\":11303:11308   */\n      dup3\n        /* \"#utility.yul\":11299:11315   */\n      add\n        /* \"#utility.yul\":11292:11315   */\n      swap1\n      pop\n        /* \"#utility.yul\":11363:11367   */\n      0x20\n        /* \"#utility.yul\":11355:11361   */\n      dup5\n        /* \"#utility.yul\":11351:11368   */\n      mul\n        /* \"#utility.yul\":11343:11349   */\n      dup4\n        /* \"#utility.yul\":11339:11369   */\n      add\n        /* \"#utility.yul\":11392:11395   */\n      dup6\n        /* \"#utility.yul\":11384:11390   */\n      dup2\n        /* \"#utility.yul\":11381:11396   */\n      gt\n        /* \"#utility.yul\":11378:11500   */\n      iszero\n      tag_514\n      jumpi\n        /* \"#utility.yul\":11411:11490   */\n      tag_515\n      tag_333\n      jump\t// in\n    tag_515:\n        /* \"#utility.yul\":11378:11500   */\n    tag_514:\n        /* \"#utility.yul\":11526:11532   */\n      dup4\n        /* \"#utility.yul\":11509:11944   */\n    tag_516:\n        /* \"#utility.yul\":11543:11549   */\n      dup2\n        /* \"#utility.yul\":11538:11541   */\n      dup2\n        /* \"#utility.yul\":11535:11550   */\n      lt\n        /* \"#utility.yul\":11509:11944   */\n      iszero\n      tag_518\n      jumpi\n        /* \"#utility.yul\":11632:11635   */\n      dup1\n        /* \"#utility.yul\":11619:11636   */\n      calldataload\n        /* \"#utility.yul\":11668:11686   */\n      0xffffffffffffffff\n        /* \"#utility.yul\":11655:11666   */\n      dup2\n        /* \"#utility.yul\":11652:11687   */\n      gt\n        /* \"#utility.yul\":11649:11771   */\n      iszero\n      tag_519\n      jumpi\n        /* \"#utility.yul\":11690:11769   */\n      tag_520\n      tag_313\n      jump\t// in\n    tag_520:\n        /* \"#utility.yul\":11649:11771   */\n    tag_519:\n        /* \"#utility.yul\":11814:11825   */\n      dup1\n        /* \"#utility.yul\":11806:11812   */\n      dup7\n        /* \"#utility.yul\":11802:11826   */\n      add\n        /* \"#utility.yul\":11852:11899   */\n      tag_521\n        /* \"#utility.yul\":11895:11898   */\n      dup10\n        /* \"#utility.yul\":11883:11893   */\n      dup3\n        /* \"#utility.yul\":11852:11899   */\n      tag_345\n      jump\t// in\n    tag_521:\n        /* \"#utility.yul\":11847:11850   */\n      dup6\n        /* \"#utility.yul\":11840:11900   */\n      mstore\n        /* \"#utility.yul\":11929:11933   */\n      0x20\n        /* \"#utility.yul\":11924:11927   */\n      dup6\n        /* \"#utility.yul\":11920:11934   */\n      add\n        /* \"#utility.yul\":11913:11934   */\n      swap5\n      pop\n        /* \"#utility.yul\":11585:11944   */\n      pop\n      pop\n        /* \"#utility.yul\":11569:11573   */\n      0x20\n        /* \"#utility.yul\":11564:11567   */\n      dup2\n        /* \"#utility.yul\":11560:11574   */\n      add\n        /* \"#utility.yul\":11553:11574   */\n      swap1\n      pop\n        /* \"#utility.yul\":11509:11944   */\n      jump(tag_516)\n    tag_518:\n        /* \"#utility.yul\":11513:11534   */\n      pop\n        /* \"#utility.yul\":11117:11950   */\n      pop\n      pop\n        /* \"#utility.yul\":11005:11950   */\n      swap4\n      swap3\n      pop\n      pop\n      pop\n      jump\t// out\n        /* \"#utility.yul\":11956:12303   */\n    tag_84:\n        /* \"#utility.yul\":12094:12103   */\n      0x00\n        /* \"#utility.yul\":12193:12296   */\n      tag_523\n        /* \"#utility.yul\":12281:12295   */\n      calldatasize\n        /* \"#utility.yul\":12273:12279   */\n      dup5\n        /* \"#utility.yul\":12266:12271   */\n      dup5\n        /* \"#utility.yul\":12193:12296   */\n      tag_346\n      jump\t// in\n    tag_523:\n        /* \"#utility.yul\":12171:12296   */\n      swap1\n      pop\n        /* \"#utility.yul\":11956:12303   */\n      swap3\n      swap2\n      pop\n      pop\n      jump\t// out\n        /* \"#utility.yul\":12309:12478   */\n    tag_347:\n        /* \"#utility.yul\":12393:12404   */\n      0x00\n        /* \"#utility.yul\":12427:12433   */\n      dup3\n        /* \"#utility.yul\":12422:12425   */\n      dup3\n        /* \"#utility.yul\":12415:12434   */\n      mstore\n        /* \"#utility.yul\":12467:12471   */\n      0x20\n        /* \"#utility.yul\":12462:12465   */\n      dup3\n        /* \"#utility.yul\":12458:12472   */\n      add\n        /* \"#utility.yul\":12443:12472   */\n      swap1\n      pop\n        /* \"#utility.yul\":12309:12478   */\n      swap3\n      swap2\n      pop\n      pop\n      jump\t// out\n        /* \"#utility.yul\":12484:12656   */\n    tag_348:\n        /* \"#utility.yul\":12624:12648   */\n      0x4d7573742062652070726f706f736564206f776e657200000000000000000000\n        /* \"#utility.yul\":12620:12621   */\n      0x00\n        /* \"#utility.yul\":12612:12618   */\n      dup3\n        /* \"#utility.yul\":12608:12622   */\n      add\n        /* \"#utility.yul\":12601:12649   */\n      mstore\n        /* \"#utility.yul\":12484:12656   */\n      pop\n      jump\t// out\n        /* \"#utility.yul\":12662:13028   */\n    tag_349:\n        /* \"#utility.yul\":12804:12807   */\n      0x00\n        /* \"#utility.yul\":12825:12892   */\n      tag_527\n        /* \"#utility.yul\":12889:12891   */\n      0x16\n        /* \"#utility.yul\":12884:12887   */\n      dup4\n        /* \"#utility.yul\":12825:12892   */\n      tag_347\n      jump\t// in\n    tag_527:\n        /* \"#utility.yul\":12818:12892   */\n      swap2\n      pop\n        /* \"#utility.yul\":12901:12994   */\n      tag_528\n        /* \"#utility.yul\":12990:12993   */\n      dup3\n        /* \"#utility.yul\":12901:12994   */\n      tag_348\n      jump\t// in\n    tag_528:\n        /* \"#utility.yul\":13019:13021   */\n      0x20\n        /* \"#utility.yul\":13014:13017   */\n      dup3\n        /* \"#utility.yul\":13010:13022   */\n      add\n        /* \"#utility.yul\":13003:13022   */\n      swap1\n      pop\n        /* \"#utility.yul\":12662:13028   */\n      swap2\n      swap1\n      pop\n      jump\t// out\n        /* \"#utility.yul\":13034:13453   */\n    tag_98:\n        /* \"#utility.yul\":13200:13204   */\n      0x00\n        /* \"#utility.yul\":13238:13240   */\n      0x20\n        /* \"#utility.yul\":13227:13236   */\n      dup3\n        /* \"#utility.yul\":13223:13241   */\n      add\n        /* \"#utility.yul\":13215:13241   */\n      swap1\n      pop\n        /* \"#utility.yul\":13287:13296   */\n      dup2\n        /* \"#utility.yul\":13281:13285   */\n      dup2\n        /* \"#utility.yul\":13277:13297   */\n      sub\n        /* \"#utility.yul\":13273:13274   */\n      0x00\n        /* \"#utility.yul\":13262:13271   */\n      dup4\n        /* \"#utility.yul\":13258:13275   */\n      add\n        /* \"#utility.yul\":13251:13298   */\n      mstore\n        /* \"#utility.yul\":13315:13446   */\n      tag_530\n        /* \"#utility.yul\":13441:13445   */\n      dup2\n        /* \"#utility.yul\":13315:13446   */\n      tag_349\n      jump\t// in\n    tag_530:\n        /* \"#utility.yul\":13307:13446   */\n      swap1\n      pop\n        /* \"#utility.yul\":13034:13453   */\n      swap2\n      swap1\n      pop\n      jump\t// out\n        /* \"#utility.yul\":13459:13599   */\n    tag_350:\n        /* \"#utility.yul\":13507:13511   */\n      0x00\n        /* \"#utility.yul\":13530:13533   */\n      dup2\n        /* \"#utility.yul\":13522:13533   */\n      swap1\n      pop\n        /* \"#utility.yul\":13553:13556   */\n      dup2\n        /* \"#utility.yul\":13550:13551   */\n      0x00\n        /* \"#utility.yul\":13543:13557   */\n      mstore\n        /* \"#utility.yul\":13587:13591   */\n      0x20\n        /* \"#utility.yul\":13584:13585   */\n      0x00\n        /* \"#utility.yul\":13574:13592   */\n      keccak256\n        /* \"#utility.yul\":13566:13592   */\n      swap1\n      pop\n        /* \"#utility.yul\":13459:13599   */\n      swap2\n      swap1\n      pop\n      jump\t// out\n        /* \"#utility.yul\":13605:13698   */\n    tag_351:\n        /* \"#utility.yul\":13642:13648   */\n      0x00\n        /* \"#utility.yul\":13689:13691   */\n      0x20\n        /* \"#utility.yul\":13684:13686   */\n      0x1f\n        /* \"#utility.yul\":13677:13682   */\n      dup4\n        /* \"#utility.yul\":13673:13687   */\n      add\n        /* \"#utility.yul\":13669:13692   */\n      div\n        /* \"#utility.yul\":13659:13692   */\n      swap1\n      pop\n        /* \"#utility.yul\":13605:13698   */\n      swap2\n      swap1\n      pop\n      jump\t// out\n        /* \"#utility.yul\":13704:13811   */\n    tag_352:\n        /* \"#utility.yul\":13748:13756   */\n      0x00\n        /* \"#utility.yul\":13798:13803   */\n      dup3\n        /* \"#utility.yul\":13792:13796   */\n      dup3\n        /* \"#utility.yul\":13788:13804   */\n      shl\n        /* \"#utility.yul\":13767:13804   */\n      swap1\n      pop\n        /* \"#utility.yul\":13704:13811   */\n      swap3\n      swap2\n      pop\n      pop\n      jump\t// out\n        /* \"#utility.yul\":13817:14210   */\n    tag_353:\n        /* \"#utility.yul\":13886:13892   */\n      0x00\n        /* \"#utility.yul\":13936:13937   */\n      0x08\n        /* \"#utility.yul\":13924:13934   */\n      dup4\n        /* \"#utility.yul\":13920:13938   */\n      mul\n        /* \"#utility.yul\":13959:14056   */\n      tag_535\n        /* \"#utility.yul\":13989:14055   */\n      0xffffffffffffffffffffffffffffffffffffffffffffffffffffffffffffffff\n        /* \"#utility.yul\":13978:13987   */\n      dup3\n        /* \"#utility.yul\":13959:14056   */\n      tag_352\n      jump\t// in\n    tag_535:\n        /* \"#utility.yul\":14077:14116   */\n      tag_536\n        /* \"#utility.yul\":14107:14115   */\n      dup7\n        /* \"#utility.yul\":14096:14105   */\n      dup4\n        /* \"#utility.yul\":14077:14116   */\n      tag_352\n      jump\t// in\n    tag_536:\n        /* \"#utility.yul\":14065:14116   */\n      swap6\n      pop\n        /* \"#utility.yul\":14149:14153   */\n      dup1\n        /* \"#utility.yul\":14145:14154   */\n      not\n        /* \"#utility.yul\":14138:14143   */\n      dup5\n        /* \"#utility.yul\":14134:14155   */\n      and\n        /* \"#utility.yul\":14125:14155   */\n      swap4\n      pop\n        /* \"#utility.yul\":14198:14202   */\n      dup1\n        /* \"#utility.yul\":14188:14196   */\n      dup7\n        /* \"#utility.yul\":14184:14203   */\n      and\n        /* \"#utility.yul\":14177:14182   */\n      dup5\n        /* \"#utility.yul\":14174:14204   */\n      or\n        /* \"#utility.yul\":14164:14204   */\n      swap3\n      pop\n        /* \"#utility.yul\":13893:14210   */\n      pop\n      pop\n        /* \"#utility.yul\":13817:14210   */\n      swap4\n      swap3\n      pop\n      pop\n      pop\n      jump\t// out\n        /* \"#utility.yul\":14216:14276   */\n    tag_354:\n        /* \"#utility.yul\":14244:14247   */\n      0x00\n        /* \"#utility.yul\":14265:14270   */\n      dup2\n        /* \"#utility.yul\":14258:14270   */\n      swap1\n      pop\n        /* \"#utility.yul\":14216:14276   */\n      swap2\n      swap1\n      pop\n      jump\t// out\n        /* \"#utility.yul\":14282:14424   */\n    tag_355:\n        /* \"#utility.yul\":14332:14341   */\n      0x00\n        /* \"#utility.yul\":14365:14418   */\n      tag_539\n        /* \"#utility.yul\":14383:14417   */\n      tag_540\n        /* \"#utility.yul\":14392:14416   */\n      tag_541\n        /* \"#utility.yul\":14410:14415   */\n      dup5\n        /* \"#utility.yul\":14392:14416   */\n      tag_323\n      jump\t// in\n    tag_541:\n        /* \"#utility.yul\":14383:14417   */\n      tag_354\n      jump\t// in\n    tag_540:\n        /* \"#utility.yul\":14365:14418   */\n      tag_323\n      jump\t// in\n    tag_539:\n        /* \"#utility.yul\":14352:14418   */\n      swap1\n      pop\n        /* \"#utility.yul\":14282:14424   */\n      swap2\n      swap1\n      pop\n      jump\t// out\n        /* \"#utility.yul\":14430:14505   */\n    tag_356:\n        /* \"#utility.yul\":14473:14476   */\n      0x00\n        /* \"#utility.yul\":14494:14499   */\n      dup2\n        /* \"#utility.yul\":14487:14499   */\n      swap1\n      pop\n        /* \"#utility.yul\":14430:14505   */\n      swap2\n      swap1\n      pop\n      jump\t// out\n        /* \"#utility.yul\":14511:14780   */\n    tag_357:\n        /* \"#utility.yul\":14621:14660   */\n      tag_544\n        /* \"#utility.yul\":14652:14659   */\n      dup4\n        /* \"#utility.yul\":14621:14660   */\n      tag_355\n      jump\t// in\n    tag_544:\n        /* \"#utility.yul\":14682:14773   */\n      tag_545\n        /* \"#utility.yul\":14731:14772   */\n      tag_546\n        /* \"#utility.yul\":14755:14771   */\n      dup3\n        /* \"#utility.yul\":14731:14772   */\n      tag_356\n      jump\t// in\n    tag_546:\n        /* \"#utility.yul\":14723:14729   */\n      dup5\n        /* \"#utility.yul\":14716:14720   */\n      dup5\n        /* \"#utility.yul\":14710:14721   */\n      sload\n        /* \"#utility.yul\":14682:14773   */\n      tag_353\n      jump\t// in\n    tag_545:\n        /* \"#utility.yul\":14676:14680   */\n      dup3\n        /* \"#utility.yul\":14669:14774   */\n      sstore\n        /* \"#utility.yul\":14587:14780   */\n      pop\n        /* \"#utility.yul\":14511:14780   */\n      pop\n      pop\n      pop\n      jump\t// out\n        /* \"#utility.yul\":14786:14859   */\n    tag_358:\n        /* \"#utility.yul\":14831:14834   */\n      0x00\n        /* \"#utility.yul\":14786:14859   */\n      swap1\n      jump\t// out\n        /* \"#utility.yul\":14865:15054   */\n    tag_359:\n        /* \"#utility.yul\":14942:14974   */\n      tag_549\n      tag_358\n      jump\t// in\n    tag_549:\n        /* \"#utility.yul\":14983:15048   */\n      tag_550\n        /* \"#utility.yul\":15041:15047   */\n      dup2\n        /* \"#utility.yul\":15033:15039   */\n      dup5\n        /* \"#utility.yul\":15027:15031   */\n      dup5\n        /* \"#utility.yul\":14983:15048   */\n      tag_357\n      jump\t// in\n    tag_550:\n        /* \"#utility.yul\":14918:15054   */\n      pop\n        /* \"#utility.yul\":14865:15054   */\n      pop\n      pop\n      jump\t// out\n        /* \"#utility.yul\":15060:15246   */\n    tag_360:\n        /* \"#utility.yul\":15120:15240   */\n    tag_552:\n        /* \"#utility.yul\":15137:15140   */\n      dup2\n        /* \"#utility.yul\":15130:15135   */\n      dup2\n        /* \"#utility.yul\":15127:15141   */\n      lt\n        /* \"#utility.yul\":15120:15240   */\n      iszero\n      tag_554\n      jumpi\n        /* \"#utility.yul\":15191:15230   */\n      tag_555\n        /* \"#utility.yul\":15228:15229   */\n      0x00\n        /* \"#utility.yul\":15221:15226   */\n      dup3\n        /* \"#utility.yul\":15191:15230   */\n      tag_359\n      jump\t// in\n    tag_555:\n        /* \"#utility.yul\":15164:15165   */\n      0x01\n        /* \"#utility.yul\":15157:15162   */\n      dup2\n        /* \"#utility.yul\":15153:15166   */\n      add\n        /* \"#utility.yul\":15144:15166   */\n      swap1\n      pop\n        /* \"#utility.yul\":15120:15240   */\n      jump(tag_552)\n    tag_554:\n        /* \"#utility.yul\":15060:15246   */\n      pop\n      pop\n      jump\t// out\n        /* \"#utility.yul\":15252:15793   */\n    tag_361:\n        /* \"#utility.yul\":15352:15354   */\n      0x1f\n        /* \"#utility.yul\":15347:15350   */\n      dup3\n        /* \"#utility.yul\":15344:15355   */\n      gt\n        /* \"#utility.yul\":15341:15786   */\n      iszero\n      tag_557\n      jumpi\n        /* \"#utility.yul\":15386:15423   */\n      tag_558\n        /* \"#utility.yul\":15417:15422   */\n      dup2\n        /* \"#utility.yul\":15386:15423   */\n      tag_350\n      jump\t// in\n    tag_558:\n        /* \"#utility.yul\":15469:15498   */\n      tag_559\n        /* \"#utility.yul\":15487:15497   */\n      dup5\n        /* \"#utility.yul\":15469:15498   */\n      tag_351\n      jump\t// in\n    tag_559:\n        /* \"#utility.yul\":15459:15467   */\n      dup2\n        /* \"#utility.yul\":15455:15499   */\n      add\n        /* \"#utility.yul\":15652:15654   */\n      0x20\n        /* \"#utility.yul\":15640:15650   */\n      dup6\n        /* \"#utility.yul\":15637:15655   */\n      lt\n        /* \"#utility.yul\":15634:15683   */\n      iszero\n      tag_560\n      jumpi\n        /* \"#utility.yul\":15673:15681   */\n      dup2\n        /* \"#utility.yul\":15658:15681   */\n      swap1\n      pop\n        /* \"#utility.yul\":15634:15683   */\n    tag_560:\n        /* \"#utility.yul\":15696:15776   */\n      tag_561\n        /* \"#utility.yul\":15752:15774   */\n      tag_562\n        /* \"#utility.yul\":15770:15773   */\n      dup6\n        /* \"#utility.yul\":15752:15774   */\n      tag_351\n      jump\t// in\n    tag_562:\n        /* \"#utility.yul\":15742:15750   */\n      dup4\n        /* \"#utility.yul\":15738:15775   */\n      add\n        /* \"#utility.yul\":15725:15736   */\n      dup3\n        /* \"#utility.yul\":15696:15776   */\n      tag_360\n      jump\t// in\n    tag_561:\n        /* \"#utility.yul\":15356:15786   */\n      pop\n      pop\n        /* \"#utility.yul\":15341:15786   */\n    tag_557:\n        /* \"#utility.yul\":15252:15793   */\n      pop\n      pop\n      pop\n      jump\t// out\n        /* \"#utility.yul\":15799:15916   */\n    tag_362:\n        /* \"#utility.yul\":15853:15861   */\n      0x00\n        /* \"#utility.yul\":15903:15908   */\n      dup3\n        /* \"#utility.yul\":15897:15901   */\n      dup3\n        /* \"#utility.yul\":15893:15909   */\n      shr\n        /* \"#utility.yul\":15872:15909   */\n      swap1\n      pop\n        /* \"#utility.yul\":15799:15916   */\n      swap3\n      swap2\n      pop\n      pop\n      jump\t// out\n        /* \"#utility.yul\":15922:16091   */\n    tag_363:\n        /* \"#utility.yul\":15966:15972   */\n      0x00\n        /* \"#utility.yul\":15999:16050   */\n      tag_565\n        /* \"#utility.yul\":16047:16048   */\n      0x00\n        /* \"#utility.yul\":16043:16049   */\n      not\n        /* \"#utility.yul\":16035:16040   */\n      dup5\n        /* \"#utility.yul\":16032:16033   */\n      0x08\n        /* \"#utility.yul\":16028:16041   */\n      mul\n        /* \"#utility.yul\":15999:16050   */\n      tag_362\n      jump\t// in\n    tag_565:\n        /* \"#utility.yul\":15995:16051   */\n      not\n        /* \"#utility.yul\":16080:16084   */\n      dup1\n        /* \"#utility.yul\":16074:16078   */\n      dup4\n        /* \"#utility.yul\":16070:16085   */\n      and\n        /* \"#utility.yul\":16060:16085   */\n      swap2\n      pop\n        /* \"#utility.yul\":15973:16091   */\n      pop\n        /* \"#utility.yul\":15922:16091   */\n      swap3\n      swap2\n      pop\n      pop\n      jump\t// out\n        /* \"#utility.yul\":16096:16391   */\n    tag_364:\n        /* \"#utility.yul\":16172:16176   */\n      0x00\n        /* \"#utility.yul\":16318:16347   */\n      tag_567\n        /* \"#utility.yul\":16343:16346   */\n      dup4\n        /* \"#utility.yul\":16337:16341   */\n      dup4\n        /* \"#utility.yul\":16318:16347   */\n      tag_363\n      jump\t// in\n    tag_567:\n        /* \"#utility.yul\":16310:16347   */\n      swap2\n      pop\n        /* \"#utility.yul\":16380:16383   */\n      dup3\n        /* \"#utility.yul\":16377:16378   */\n      0x02\n        /* \"#utility.yul\":16373:16384   */\n      mul\n        /* \"#utility.yul\":16367:16371   */\n      dup3\n        /* \"#utility.yul\":16364:16385   */\n      or\n        /* \"#utility.yul\":16356:16385   */\n      swap1\n      pop\n        /* \"#utility.yul\":16096:16391   */\n      swap3\n      swap2\n      pop\n      pop\n      jump\t// out\n        /* \"#utility.yul\":16396:17786   */\n    tag_111:\n        /* \"#utility.yul\":16511:16547   */\n      tag_569\n        /* \"#utility.yul\":16543:16546   */\n      dup3\n        /* \"#utility.yul\":16511:16547   */\n      tag_325\n      jump\t// in\n    tag_569:\n        /* \"#utility.yul\":16612:16630   */\n      0xffffffffffffffff\n        /* \"#utility.yul\":16604:16610   */\n      dup2\n        /* \"#utility.yul\":16601:16631   */\n      gt\n        /* \"#utility.yul\":16598:16654   */\n      iszero\n      tag_570\n      jumpi\n        /* \"#utility.yul\":16634:16652   */\n      tag_571\n      tag_316\n      jump\t// in\n    tag_571:\n        /* \"#utility.yul\":16598:16654   */\n    tag_570:\n        /* \"#utility.yul\":16678:16716   */\n      tag_572\n        /* \"#utility.yul\":16710:16714   */\n      dup3\n        /* \"#utility.yul\":16704:16715   */\n      sload\n        /* \"#utility.yul\":16678:16716   */\n      tag_66\n      jump\t// in\n    tag_572:\n        /* \"#utility.yul\":16763:16829   */\n      tag_573\n        /* \"#utility.yul\":16822:16828   */\n      dup3\n        /* \"#utility.yul\":16814:16820   */\n      dup3\n        /* \"#utility.yul\":16808:16812   */\n      dup6\n        /* \"#utility.yul\":16763:16829   */\n      tag_361\n      jump\t// in\n    tag_573:\n        /* \"#utility.yul\":16856:16857   */\n      0x00\n        /* \"#utility.yul\":16880:16884   */\n      0x20\n        /* \"#utility.yul\":16867:16884   */\n      swap1\n      pop\n        /* \"#utility.yul\":16912:16914   */\n      0x1f\n        /* \"#utility.yul\":16904:16910   */\n      dup4\n        /* \"#utility.yul\":16901:16915   */\n      gt\n        /* \"#utility.yul\":16929:16930   */\n      0x01\n        /* \"#utility.yul\":16924:17541   */\n      dup2\n      eq\n      tag_575\n      jumpi\n        /* \"#utility.yul\":17585:17586   */\n      0x00\n        /* \"#utility.yul\":17602:17608   */\n      dup5\n        /* \"#utility.yul\":17599:17676   */\n      iszero\n      tag_576\n      jumpi\n        /* \"#utility.yul\":17651:17660   */\n      dup3\n        /* \"#utility.yul\":17646:17649   */\n      dup8\n        /* \"#utility.yul\":17642:17661   */\n      add\n        /* \"#utility.yul\":17636:17662   */\n      mload\n        /* \"#utility.yul\":17627:17662   */\n      swap1\n      pop\n        /* \"#utility.yul\":17599:17676   */\n    tag_576:\n        /* \"#utility.yul\":17702:17769   */\n      tag_577\n        /* \"#utility.yul\":17762:17768   */\n      dup6\n        /* \"#utility.yul\":17755:17760   */\n      dup3\n        /* \"#utility.yul\":17702:17769   */\n      tag_364\n      jump\t// in\n    tag_577:\n        /* \"#utility.yul\":17696:17700   */\n      dup7\n        /* \"#utility.yul\":17689:17770   */\n      sstore\n        /* \"#utility.yul\":17558:17780   */\n      pop\n        /* \"#utility.yul\":16894:17780   */\n      jump(tag_574)\n        /* \"#utility.yul\":16924:17541   */\n    tag_575:\n        /* \"#utility.yul\":16976:16980   */\n      0x1f\n        /* \"#utility.yul\":16972:16981   */\n      not\n        /* \"#utility.yul\":16964:16970   */\n      dup5\n        /* \"#utility.yul\":16960:16982   */\n      and\n        /* \"#utility.yul\":17010:17046   */\n      tag_578\n        /* \"#utility.yul\":17041:17045   */\n      dup7\n        /* \"#utility.yul\":17010:17046   */\n      tag_350\n      jump\t// in\n    tag_578:\n        /* \"#utility.yul\":17068:17069   */\n      0x00\n        /* \"#utility.yul\":17082:17290   */\n    tag_579:\n        /* \"#utility.yul\":17096:17103   */\n      dup3\n        /* \"#utility.yul\":17093:17094   */\n      dup2\n        /* \"#utility.yul\":17090:17104   */\n      lt\n        /* \"#utility.yul\":17082:17290   */\n      iszero\n      tag_581\n      jumpi\n        /* \"#utility.yul\":17175:17184   */\n      dup5\n        /* \"#utility.yul\":17170:17173   */\n      dup10\n        /* \"#utility.yul\":17166:17185   */\n      add\n        /* \"#utility.yul\":17160:17186   */\n      mload\n        /* \"#utility.yul\":17152:17158   */\n      dup3\n        /* \"#utility.yul\":17145:17187   */\n      sstore\n        /* \"#utility.yul\":17226:17227   */\n      0x01\n        /* \"#utility.yul\":17218:17224   */\n      dup3\n        /* \"#utility.yul\":17214:17228   */\n      add\n        /* \"#utility.yul\":17204:17228   */\n      swap2\n      pop\n        /* \"#utility.yul\":17273:17275   */\n      0x20\n        /* \"#utility.yul\":17262:17271   */\n      dup6\n        /* \"#utility.yul\":17258:17276   */\n      add\n        /* \"#utility.yul\":17245:17276   */\n      swap5\n      pop\n        /* \"#utility.yul\":17119:17123   */\n      0x20\n        /* \"#utility.yul\":17116:17117   */\n      dup2\n        /* \"#utility.yul\":17112:17124   */\n      add\n        /* \"#utility.yul\":17107:17124   */\n      swap1\n      pop\n        /* \"#utility.yul\":17082:17290   */\n      jump(tag_579)\n    tag_581:\n        /* \"#utility.yul\":17318:17324   */\n      dup7\n        /* \"#utility.yul\":17309:17316   */\n      dup4\n        /* \"#utility.yul\":17306:17325   */\n      lt\n        /* \"#utility.yul\":17303:17482   */\n      iszero\n      tag_582\n      jumpi\n        /* \"#utility.yul\":17376:17385   */\n      dup5\n        /* \"#utility.yul\":17371:17374   */\n      dup10\n        /* \"#utility.yul\":17367:17386   */\n      add\n        /* \"#utility.yul\":17361:17387   */\n      mload\n        /* \"#utility.yul\":17419:17467   */\n      tag_583\n        /* \"#utility.yul\":17461:17465   */\n      0x1f\n        /* \"#utility.yul\":17453:17459   */\n      dup10\n        /* \"#utility.yul\":17449:17466   */\n      and\n        /* \"#utility.yul\":17438:17447   */\n      dup3\n        /* \"#utility.yul\":17419:17467   */\n      tag_363\n      jump\t// in\n    tag_583:\n        /* \"#utility.yul\":17411:17417   */\n      dup4\n        /* \"#utility.yul\":17404:17468   */\n      sstore\n        /* \"#utility.yul\":17326:17482   */\n      pop\n        /* \"#utility.yul\":17303:17482   */\n    tag_582:\n        /* \"#utility.yul\":17528:17529   */\n      0x01\n        /* \"#utility.yul\":17524:17525   */\n      0x02\n        /* \"#utility.yul\":17516:17522   */\n      dup9\n        /* \"#utility.yul\":17512:17526   */\n      mul\n        /* \"#utility.yul\":17508:17530   */\n      add\n        /* \"#utility.yul\":17502:17506   */\n      dup9\n        /* \"#utility.yul\":17495:17531   */\n      sstore\n        /* \"#utility.yul\":16931:17541   */\n      pop\n      pop\n      pop\n        /* \"#utility.yul\":16894:17780   */\n    tag_574:\n      pop\n        /* \"#utility.yul\":16486:17786   */\n      pop\n      pop\n      pop\n        /* \"#utility.yul\":16396:17786   */\n      pop\n      pop\n      jump\t// out\n        /* \"#utility.yul\":17792:17914   */\n    tag_365:\n        /* \"#utility.yul\":17865:17889   */\n      tag_585\n        /* \"#utility.yul\":17883:17888   */\n      dup2\n        /* \"#utility.yul\":17865:17889   */\n      tag_323\n      jump\t// in\n    tag_585:\n        /* \"#utility.yul\":17858:17863   */\n      dup2\n        /* \"#utility.yul\":17855:17890   */\n      eq\n        /* \"#utility.yul\":17845:17908   */\n      tag_586\n      jumpi\n        /* \"#utility.yul\":17904:17905   */\n      0x00\n        /* \"#utility.yul\":17901:17902   */\n      dup1\n        /* \"#utility.yul\":17894:17906   */\n      revert\n        /* \"#utility.yul\":17845:17908   */\n    tag_586:\n        /* \"#utility.yul\":17792:17914   */\n      pop\n      jump\t// out\n        /* \"#utility.yul\":17920:18063   */\n    tag_366:\n        /* \"#utility.yul\":17977:17982   */\n      0x00\n        /* \"#utility.yul\":18008:18014   */\n      dup2\n        /* \"#utility.yul\":18002:18015   */\n      mload\n        /* \"#utility.yul\":17993:18015   */\n      swap1\n      pop\n        /* \"#utility.yul\":18024:18057   */\n      tag_588\n        /* \"#utility.yul\":18051:18056   */\n      dup2\n        /* \"#utility.yul\":18024:18057   */\n      tag_365\n      jump\t// in\n    tag_588:\n        /* \"#utility.yul\":17920:18063   */\n      swap3\n      swap2\n      pop\n      pop\n      jump\t// out\n        /* \"#utility.yul\":18069:18420   */\n    tag_113:\n        /* \"#utility.yul\":18139:18145   */\n      0x00\n        /* \"#utility.yul\":18188:18190   */\n      0x20\n        /* \"#utility.yul\":18176:18185   */\n      dup3\n        /* \"#utility.yul\":18167:18174   */\n      dup5\n        /* \"#utility.yul\":18163:18186   */\n      sub\n        /* \"#utility.yul\":18159:18191   */\n      slt\n        /* \"#utility.yul\":18156:18275   */\n      iszero\n      tag_590\n      jumpi\n        /* \"#utility.yul\":18194:18273   */\n      tag_591\n      tag_308\n      jump\t// in\n    tag_591:\n        /* \"#utility.yul\":18156:18275   */\n    tag_590:\n        /* \"#utility.yul\":18314:18315   */\n      0x00\n        /* \"#utility.yul\":18339:18403   */\n      tag_592\n        /* \"#utility.yul\":18395:18402   */\n      dup5\n        /* \"#utility.yul\":18386:18392   */\n      dup3\n        /* \"#utility.yul\":18375:18384   */\n      dup6\n        /* \"#utility.yul\":18371:18393   */\n      add\n        /* \"#utility.yul\":18339:18403   */\n      tag_366\n      jump\t// in\n    tag_592:\n        /* \"#utility.yul\":18329:18403   */\n      swap2\n      pop\n        /* \"#utility.yul\":18285:18413   */\n      pop\n        /* \"#utility.yul\":18069:18420   */\n      swap3\n      swap2\n      pop\n      pop\n      jump\t// out\n        /* \"#utility.yul\":18448:19275   */\n    tag_367:\n        /* \"#utility.yul\":18531:18534   */\n      0x00\n        /* \"#utility.yul\":18568:18573   */\n      dup2\n        /* \"#utility.yul\":18562:18574   */\n      sload\n        /* \"#utility.yul\":18597:18633   */\n      tag_594\n        /* \"#utility.yul\":18623:18632   */\n      dup2\n        /* \"#utility.yul\":18597:18633   */\n      tag_66\n      jump\t// in\n    tag_594:\n        /* \"#utility.yul\":18649:18719   */\n      tag_595\n        /* \"#utility.yul\":18712:18718   */\n      dup2\n        /* \"#utility.yul\":18707:18710   */\n      dup7\n        /* \"#utility.yul\":18649:18719   */\n      tag_326\n      jump\t// in\n    tag_595:\n        /* \"#utility.yul\":18642:18719   */\n      swap5\n      pop\n        /* \"#utility.yul\":18750:18751   */\n      0x01\n        /* \"#utility.yul\":18739:18748   */\n      dup3\n        /* \"#utility.yul\":18735:18752   */\n      and\n        /* \"#utility.yul\":18766:18767   */\n      0x00\n        /* \"#utility.yul\":18761:18925   */\n      dup2\n      eq\n      tag_597\n      jumpi\n        /* \"#utility.yul\":18939:18940   */\n      0x01\n        /* \"#utility.yul\":18934:19269   */\n      dup2\n      eq\n      tag_598\n      jumpi\n        /* \"#utility.yul\":18728:19269   */\n      jump(tag_596)\n        /* \"#utility.yul\":18761:18925   */\n    tag_597:\n        /* \"#utility.yul\":18845:18849   */\n      0xff\n        /* \"#utility.yul\":18841:18850   */\n      not\n        /* \"#utility.yul\":18830:18839   */\n      dup4\n        /* \"#utility.yul\":18826:18851   */\n      and\n        /* \"#utility.yul\":18821:18824   */\n      dup7\n        /* \"#utility.yul\":18814:18852   */\n      mstore\n        /* \"#utility.yul\":18905:18911   */\n      dup2\n        /* \"#utility.yul\":18898:18912   */\n      iszero\n        /* \"#utility.yul\":18891:18913   */\n      iszero\n        /* \"#utility.yul\":18885:18889   */\n      0x20\n        /* \"#utility.yul\":18881:18914   */\n      mul\n        /* \"#utility.yul\":18876:18879   */\n      dup7\n        /* \"#utility.yul\":18872:18915   */\n      add\n        /* \"#utility.yul\":18865:18915   */\n      swap4\n      pop\n        /* \"#utility.yul\":18761:18925   */\n      jump(tag_596)\n        /* \"#utility.yul\":18934:19269   */\n    tag_598:\n        /* \"#utility.yul\":19001:19038   */\n      tag_599\n        /* \"#utility.yul\":19032:19037   */\n      dup6\n        /* \"#utility.yul\":19001:19038   */\n      tag_350\n      jump\t// in\n    tag_599:\n        /* \"#utility.yul\":19060:19061   */\n      0x00\n        /* \"#utility.yul\":19074:19228   */\n    tag_600:\n        /* \"#utility.yul\":19088:19094   */\n      dup4\n        /* \"#utility.yul\":19085:19086   */\n      dup2\n        /* \"#utility.yul\":19082:19095   */\n      lt\n        /* \"#utility.yul\":19074:19228   */\n      iszero\n      tag_602\n      jumpi\n        /* \"#utility.yul\":19162:19169   */\n      dup2\n        /* \"#utility.yul\":19156:19170   */\n      sload\n        /* \"#utility.yul\":19152:19153   */\n      dup2\n        /* \"#utility.yul\":19147:19150   */\n      dup10\n        /* \"#utility.yul\":19143:19154   */\n      add\n        /* \"#utility.yul\":19136:19171   */\n      mstore\n        /* \"#utility.yul\":19212:19213   */\n      0x01\n        /* \"#utility.yul\":19203:19210   */\n      dup3\n        /* \"#utility.yul\":19199:19214   */\n      add\n        /* \"#utility.yul\":19188:19214   */\n      swap2\n      pop\n        /* \"#utility.yul\":19110:19114   */\n      0x20\n        /* \"#utility.yul\":19107:19108   */\n      dup2\n        /* \"#utility.yul\":19103:19115   */\n      add\n        /* \"#utility.yul\":19098:19115   */\n      swap1\n      pop\n        /* \"#utility.yul\":19074:19228   */\n      jump(tag_600)\n    tag_602:\n        /* \"#utility.yul\":19257:19258   */\n      dup1\n        /* \"#utility.yul\":19252:19255   */\n      dup9\n        /* \"#utility.yul\":19248:19259   */\n      add\n        /* \"#utility.yul\":19241:19259   */\n      swap6\n      pop\n        /* \"#utility.yul\":18941:19269   */\n      pop\n      pop\n        /* \"#utility.yul\":18728:19269   */\n    tag_596:\n      pop\n        /* \"#utility.yul\":18535:19275   */\n      pop\n      pop\n        /* \"#utility.yul\":18448:19275   */\n      swap3\n      swap2\n      pop\n      pop\n      jump\t// out\n        /* \"#utility.yul\":19281:19885   */\n    tag_116:\n        /* \"#utility.yul\":19460:19464   */\n      0x00\n        /* \"#utility.yul\":19498:19500   */\n      0x60\n        /* \"#utility.yul\":19487:19496   */\n      dup3\n        /* \"#utility.yul\":19483:19501   */\n      add\n        /* \"#utility.yul\":19475:19501   */\n      swap1\n      pop\n        /* \"#utility.yul\":19511:19582   */\n      tag_604\n        /* \"#utility.yul\":19579:19580   */\n      0x00\n        /* \"#utility.yul\":19568:19577   */\n      dup4\n        /* \"#utility.yul\":19564:19581   */\n      add\n        /* \"#utility.yul\":19555:19561   */\n      dup7\n        /* \"#utility.yul\":19511:19582   */\n      tag_324\n      jump\t// in\n    tag_604:\n        /* \"#utility.yul\":19629:19638   */\n      dup2\n        /* \"#utility.yul\":19623:19627   */\n      dup2\n        /* \"#utility.yul\":19619:19639   */\n      sub\n        /* \"#utility.yul\":19614:19616   */\n      0x20\n        /* \"#utility.yul\":19603:19612   */\n      dup4\n        /* \"#utility.yul\":19599:19617   */\n      add\n        /* \"#utility.yul\":19592:19640   */\n      mstore\n        /* \"#utility.yul\":19657:19730   */\n      tag_605\n        /* \"#utility.yul\":19725:19729   */\n      dup2\n        /* \"#utility.yul\":19716:19722   */\n      dup6\n        /* \"#utility.yul\":19657:19730   */\n      tag_367\n      jump\t// in\n    tag_605:\n        /* \"#utility.yul\":19649:19730   */\n      swap1\n      pop\n        /* \"#utility.yul\":19777:19786   */\n      dup2\n        /* \"#utility.yul\":19771:19775   */\n      dup2\n        /* \"#utility.yul\":19767:19787   */\n      sub\n        /* \"#utility.yul\":19762:19764   */\n      0x40\n        /* \"#utility.yul\":19751:19760   */\n      dup4\n        /* \"#utility.yul\":19747:19765   */\n      add\n        /* \"#utility.yul\":19740:19788   */\n      mstore\n        /* \"#utility.yul\":19805:19878   */\n      tag_606\n        /* \"#utility.yul\":19873:19877   */\n      dup2\n        /* \"#utility.yul\":19864:19870   */\n      dup5\n        /* \"#utility.yul\":19805:19878   */\n      tag_367\n      jump\t// in\n    tag_606:\n        /* \"#utility.yul\":19797:19878   */\n      swap1\n      pop\n        /* \"#utility.yul\":19281:19885   */\n      swap5\n      swap4\n      pop\n      pop\n      pop\n      pop\n      jump\t// out\n        /* \"#utility.yul\":19891:20071   */\n    tag_130:\n        /* \"#utility.yul\":19939:20016   */\n      0x4e487b7100000000000000000000000000000000000000000000000000000000\n        /* \"#utility.yul\":19936:19937   */\n      0x00\n        /* \"#utility.yul\":19929:20017   */\n      mstore\n        /* \"#utility.yul\":20036:20040   */\n      0x21\n        /* \"#utility.yul\":20033:20034   */\n      0x04\n        /* \"#utility.yul\":20026:20041   */\n      mstore\n        /* \"#utility.yul\":20060:20064   */\n      0x24\n        /* \"#utility.yul\":20057:20058   */\n      0x00\n        /* \"#utility.yul\":20050:20065   */\n      revert\n        /* \"#utility.yul\":20077:20257   */\n    tag_148:\n        /* \"#utility.yul\":20125:20202   */\n      0x4e487b7100000000000000000000000000000000000000000000000000000000\n        /* \"#utility.yul\":20122:20123   */\n      0x00\n        /* \"#utility.yul\":20115:20203   */\n      mstore\n        /* \"#utility.yul\":20222:20226   */\n      0x32\n        /* \"#utility.yul\":20219:20220   */\n      0x04\n        /* \"#utility.yul\":20212:20227   */\n      mstore\n        /* \"#utility.yul\":20246:20250   */\n      0x24\n        /* \"#utility.yul\":20243:20244   */\n      0x00\n        /* \"#utility.yul\":20236:20251   */\n      revert\n        /* \"#utility.yul\":20263:20443   */\n    tag_368:\n        /* \"#utility.yul\":20311:20388   */\n      0x4e487b7100000000000000000000000000000000000000000000000000000000\n        /* \"#utility.yul\":20308:20309   */\n      0x00\n        /* \"#utility.yul\":20301:20389   */\n      mstore\n        /* \"#utility.yul\":20408:20412   */\n      0x11\n        /* \"#utility.yul\":20405:20406   */\n      0x04\n        /* \"#utility.yul\":20398:20413   */\n      mstore\n        /* \"#utility.yul\":20432:20436   */\n      0x24\n        /* \"#utility.yul\":20429:20430   */\n      0x00\n        /* \"#utility.yul\":20422:20437   */\n      revert\n        /* \"#utility.yul\":20449:20682   */\n    tag_150:\n        /* \"#utility.yul\":20488:20491   */\n      0x00\n        /* \"#utility.yul\":20511:20535   */\n      tag_611\n        /* \"#utility.yul\":20529:20534   */\n      dup3\n        /* \"#utility.yul\":20511:20535   */\n      tag_323\n      jump\t// in\n    tag_611:\n        /* \"#utility.yul\":20502:20535   */\n      swap2\n      pop\n        /* \"#utility.yul\":20557:20623   */\n      0xffffffffffffffffffffffffffffffffffffffffffffffffffffffffffffffff\n        /* \"#utility.yul\":20550:20555   */\n      dup3\n        /* \"#utility.yul\":20547:20624   */\n      sub\n        /* \"#utility.yul\":20544:20647   */\n      tag_612\n      jumpi\n        /* \"#utility.yul\":20627:20645   */\n      tag_613\n      tag_368\n      jump\t// in\n    tag_613:\n        /* \"#utility.yul\":20544:20647   */\n    tag_612:\n        /* \"#utility.yul\":20674:20675   */\n      0x01\n        /* \"#utility.yul\":20667:20672   */\n      dup3\n        /* \"#utility.yul\":20663:20676   */\n      add\n        /* \"#utility.yul\":20656:20676   */\n      swap1\n      pop\n        /* \"#utility.yul\":20449:20682   */\n      swap2\n      swap1\n      pop\n      jump\t// out\n        /* \"#utility.yul\":20688:20803   */\n    tag_369:\n        /* \"#utility.yul\":20773:20796   */\n      tag_615\n        /* \"#utility.yul\":20790:20795   */\n      dup2\n        /* \"#utility.yul\":20773:20796   */\n      tag_329\n      jump\t// in\n    tag_615:\n        /* \"#utility.yul\":20768:20771   */\n      dup3\n        /* \"#utility.yul\":20761:20797   */\n      mstore\n        /* \"#utility.yul\":20688:20803   */\n      pop\n      pop\n      jump\t// out\n        /* \"#utility.yul\":20809:20898   */\n    tag_370:\n        /* \"#utility.yul\":20845:20852   */\n      0x00\n        /* \"#utility.yul\":20885:20891   */\n      0xffff\n        /* \"#utility.yul\":20878:20883   */\n      dup3\n        /* \"#utility.yul\":20874:20892   */\n      and\n        /* \"#utility.yul\":20863:20892   */\n      swap1\n      pop\n        /* \"#utility.yul\":20809:20898   */\n      swap2\n      swap1\n      pop\n      jump\t// out\n        /* \"#utility.yul\":20904:21019   */\n    tag_371:\n        /* \"#utility.yul\":20989:21012   */\n      tag_618\n        /* \"#utility.yul\":21006:21011   */\n      dup2\n        /* \"#utility.yul\":20989:21012   */\n      tag_370\n      jump\t// in\n    tag_618:\n        /* \"#utility.yul\":20984:20987   */\n      dup3\n        /* \"#utility.yul\":20977:21013   */\n      mstore\n        /* \"#utility.yul\":20904:21019   */\n      pop\n      pop\n      jump\t// out\n        /* \"#utility.yul\":21025:21118   */\n    tag_372:\n        /* \"#utility.yul\":21061:21068   */\n      0x00\n        /* \"#utility.yul\":21101:21111   */\n      0xffffffff\n        /* \"#utility.yul\":21094:21099   */\n      dup3\n        /* \"#utility.yul\":21090:21112   */\n      and\n        /* \"#utility.yul\":21079:21112   */\n      swap1\n      pop\n        /* \"#utility.yul\":21025:21118   */\n      swap2\n      swap1\n      pop\n      jump\t// out\n        /* \"#utility.yul\":21124:21239   */\n    tag_373:\n        /* \"#utility.yul\":21209:21232   */\n      tag_621\n        /* \"#utility.yul\":21226:21231   */\n      dup2\n        /* \"#utility.yul\":21209:21232   */\n      tag_372\n      jump\t// in\n    tag_621:\n        /* \"#utility.yul\":21204:21207   */\n      dup3\n        /* \"#utility.yul\":21197:21233   */\n      mstore\n        /* \"#utility.yul\":21124:21239   */\n      pop\n      pop\n      jump\t// out\n        /* \"#utility.yul\":21245:21984   */\n    tag_179:\n        /* \"#utility.yul\":21462:21466   */\n      0x00\n        /* \"#utility.yul\":21500:21503   */\n      0xa0\n        /* \"#utility.yul\":21489:21498   */\n      dup3\n        /* \"#utility.yul\":21485:21504   */\n      add\n        /* \"#utility.yul\":21477:21504   */\n      swap1\n      pop\n        /* \"#utility.yul\":21514:21583   */\n      tag_623\n        /* \"#utility.yul\":21580:21581   */\n      0x00\n        /* \"#utility.yul\":21569:21578   */\n      dup4\n        /* \"#utility.yul\":21565:21582   */\n      add\n        /* \"#utility.yul\":21556:21562   */\n      dup9\n        /* \"#utility.yul\":21514:21583   */\n      tag_369\n      jump\t// in\n    tag_623:\n        /* \"#utility.yul\":21630:21639   */\n      dup2\n        /* \"#utility.yul\":21624:21628   */\n      dup2\n        /* \"#utility.yul\":21620:21640   */\n      sub\n        /* \"#utility.yul\":21615:21617   */\n      0x20\n        /* \"#utility.yul\":21604:21613   */\n      dup4\n        /* \"#utility.yul\":21600:21618   */\n      add\n        /* \"#utility.yul\":21593:21641   */\n      mstore\n        /* \"#utility.yul\":21658:21734   */\n      tag_624\n        /* \"#utility.yul\":21729:21733   */\n      dup2\n        /* \"#utility.yul\":21720:21726   */\n      dup8\n        /* \"#utility.yul\":21658:21734   */\n      tag_328\n      jump\t// in\n    tag_624:\n        /* \"#utility.yul\":21650:21734   */\n      swap1\n      pop\n        /* \"#utility.yul\":21744:21814   */\n      tag_625\n        /* \"#utility.yul\":21810:21812   */\n      0x40\n        /* \"#utility.yul\":21799:21808   */\n      dup4\n        /* \"#utility.yul\":21795:21813   */\n      add\n        /* \"#utility.yul\":21786:21792   */\n      dup7\n        /* \"#utility.yul\":21744:21814   */\n      tag_371\n      jump\t// in\n    tag_625:\n        /* \"#utility.yul\":21824:21894   */\n      tag_626\n        /* \"#utility.yul\":21890:21892   */\n      0x60\n        /* \"#utility.yul\":21879:21888   */\n      dup4\n        /* \"#utility.yul\":21875:21893   */\n      add\n        /* \"#utility.yul\":21866:21872   */\n      dup6\n        /* \"#utility.yul\":21824:21894   */\n      tag_373\n      jump\t// in\n    tag_626:\n        /* \"#utility.yul\":21904:21977   */\n      tag_627\n        /* \"#utility.yul\":21972:21975   */\n      0x80\n        /* \"#utility.yul\":21961:21970   */\n      dup4\n        /* \"#utility.yul\":21957:21976   */\n      add\n        /* \"#utility.yul\":21948:21954   */\n      dup5\n        /* \"#utility.yul\":21904:21977   */\n      tag_335\n      jump\t// in\n    tag_627:\n        /* \"#utility.yul\":21245:21984   */\n      swap7\n      swap6\n      pop\n      pop\n      pop\n      pop\n      pop\n      pop\n      jump\t// out\n        /* \"#utility.yul\":21990:22133   */\n    tag_374:\n        /* \"#utility.yul\":22047:22052   */\n      0x00\n        /* \"#utility.yul\":22078:22084   */\n      dup2\n        /* \"#utility.yul\":22072:22085   */\n      mload\n        /* \"#utility.yul\":22063:22085   */\n      swap1\n      pop\n        /* \"#utility.yul\":22094:22127   */\n      tag_629\n        /* \"#utility.yul\":22121:22126   */\n      dup2\n        /* \"#utility.yul\":22094:22127   */\n      tag_311\n      jump\t// in\n    tag_629:\n        /* \"#utility.yul\":21990:22133   */\n      swap3\n      swap2\n      pop\n      pop\n      jump\t// out\n        /* \"#utility.yul\":22139:22490   */\n    tag_183:\n        /* \"#utility.yul\":22209:22215   */\n      0x00\n        /* \"#utility.yul\":22258:22260   */\n      0x20\n        /* \"#utility.yul\":22246:22255   */\n      dup3\n        /* \"#utility.yul\":22237:22244   */\n      dup5\n        /* \"#utility.yul\":22233:22256   */\n      sub\n        /* \"#utility.yul\":22229:22261   */\n      slt\n        /* \"#utility.yul\":22226:22345   */\n      iszero\n      tag_631\n      jumpi\n        /* \"#utility.yul\":22264:22343   */\n      tag_632\n      tag_308\n      jump\t// in\n    tag_632:\n        /* \"#utility.yul\":22226:22345   */\n    tag_631:\n        /* \"#utility.yul\":22384:22385   */\n      0x00\n        /* \"#utility.yul\":22409:22473   */\n      tag_633\n        /* \"#utility.yul\":22465:22472   */\n      dup5\n        /* \"#utility.yul\":22456:22462   */\n      dup3\n        /* \"#utility.yul\":22445:22454   */\n      dup6\n        /* \"#utility.yul\":22441:22463   */\n      add\n        /* \"#utility.yul\":22409:22473   */\n      tag_374\n      jump\t// in\n    tag_633:\n        /* \"#utility.yul\":22399:22473   */\n      swap2\n      pop\n        /* \"#utility.yul\":22355:22483   */\n      pop\n        /* \"#utility.yul\":22139:22490   */\n      swap3\n      swap2\n      pop\n      pop\n      jump\t// out\n        /* \"#utility.yul\":22496:22668   */\n    tag_375:\n        /* \"#utility.yul\":22636:22660   */\n      0x4f6e6c792063616c6c61626c65206279206f776e657200000000000000000000\n        /* \"#utility.yul\":22632:22633   */\n      0x00\n        /* \"#utility.yul\":22624:22630   */\n      dup3\n        /* \"#utility.yul\":22620:22634   */\n      add\n        /* \"#utility.yul\":22613:22661   */\n      mstore\n        /* \"#utility.yul\":22496:22668   */\n      pop\n      jump\t// out\n        /* \"#utility.yul\":22674:23040   */\n    tag_376:\n        /* \"#utility.yul\":22816:22819   */\n      0x00\n        /* \"#utility.yul\":22837:22904   */\n      tag_636\n        /* \"#utility.yul\":22901:22903   */\n      0x16\n        /* \"#utility.yul\":22896:22899   */\n      dup4\n        /* \"#utility.yul\":22837:22904   */\n      tag_347\n      jump\t// in\n    tag_636:\n        /* \"#utility.yul\":22830:22904   */\n      swap2\n      pop\n        /* \"#utility.yul\":22913:23006   */\n      tag_637\n        /* \"#utility.yul\":23002:23005   */\n      dup3\n        /* \"#utility.yul\":22913:23006   */\n      tag_375\n      jump\t// in\n    tag_637:\n        /* \"#utility.yul\":23031:23033   */\n      0x20\n        /* \"#utility.yul\":23026:23029   */\n      dup3\n        /* \"#utility.yul\":23022:23034   */\n      add\n        /* \"#utility.yul\":23015:23034   */\n      swap1\n      pop\n        /* \"#utility.yul\":22674:23040   */\n      swap2\n      swap1\n      pop\n      jump\t// out\n        /* \"#utility.yul\":23046:23465   */\n    tag_187:\n        /* \"#utility.yul\":23212:23216   */\n      0x00\n        /* \"#utility.yul\":23250:23252   */\n      0x20\n        /* \"#utility.yul\":23239:23248   */\n      dup3\n        /* \"#utility.yul\":23235:23253   */\n      add\n        /* \"#utility.yul\":23227:23253   */\n      swap1\n      pop\n        /* \"#utility.yul\":23299:23308   */\n      dup2\n        /* \"#utility.yul\":23293:23297   */\n      dup2\n        /* \"#utility.yul\":23289:23309   */\n      sub\n        /* \"#utility.yul\":23285:23286   */\n      0x00\n        /* \"#utility.yul\":23274:23283   */\n      dup4\n        /* \"#utility.yul\":23270:23287   */\n      add\n        /* \"#utility.yul\":23263:23310   */\n      mstore\n        /* \"#utility.yul\":23327:23458   */\n      tag_639\n        /* \"#utility.yul\":23453:23457   */\n      dup2\n        /* \"#utility.yul\":23327:23458   */\n      tag_376\n      jump\t// in\n    tag_639:\n        /* \"#utility.yul\":23319:23458   */\n      swap1\n      pop\n        /* \"#utility.yul\":23046:23465   */\n      swap2\n      swap1\n      pop\n      jump\t// out\n        /* \"#utility.yul\":23471:23644   */\n    tag_377:\n        /* \"#utility.yul\":23611:23636   */\n      0x43616e6e6f74207472616e7366657220746f2073656c66000000000000000000\n        /* \"#utility.yul\":23607:23608   */\n      0x00\n        /* \"#utility.yul\":23599:23605   */\n      dup3\n        /* \"#utility.yul\":23595:23609   */\n      add\n        /* \"#utility.yul\":23588:23637   */\n      mstore\n        /* \"#utility.yul\":23471:23644   */\n      pop\n      jump\t// out\n        /* \"#utility.yul\":23650:24016   */\n    tag_378:\n        /* \"#utility.yul\":23792:23795   */\n      0x00\n        /* \"#utility.yul\":23813:23880   */\n      tag_642\n        /* \"#utility.yul\":23877:23879   */\n      0x17\n        /* \"#utility.yul\":23872:23875   */\n      dup4\n        /* \"#utility.yul\":23813:23880   */\n      tag_347\n      jump\t// in\n    tag_642:\n        /* \"#utility.yul\":23806:23880   */\n      swap2\n      pop\n        /* \"#utility.yul\":23889:23982   */\n      tag_643\n        /* \"#utility.yul\":23978:23981   */\n      dup3\n        /* \"#utility.yul\":23889:23982   */\n      tag_377\n      jump\t// in\n    tag_643:\n        /* \"#utility.yul\":24007:24009   */\n      0x20\n        /* \"#utility.yul\":24002:24005   */\n      dup3\n        /* \"#utility.yul\":23998:24010   */\n      add\n        /* \"#utility.yul\":23991:24010   */\n      swap1\n      pop\n        /* \"#utility.yul\":23650:24016   */\n      swap2\n      swap1\n      pop\n      jump\t// out\n        /* \"#utility.yul\":24022:24441   */\n    tag_191:\n        /* \"#utility.yul\":24188:24192   */\n      0x00\n        /* \"#utility.yul\":24226:24228   */\n      0x20\n        /* \"#utility.yul\":24215:24224   */\n      dup3\n        /* \"#utility.yul\":24211:24229   */\n      add\n        /* \"#utility.yul\":24203:24229   */\n      swap1\n      pop\n        /* \"#utility.yul\":24275:24284   */\n      dup2\n        /* \"#utility.yul\":24269:24273   */\n      dup2\n        /* \"#utility.yul\":24265:24285   */\n      sub\n        /* \"#utility.yul\":24261:24262   */\n      0x00\n        /* \"#utility.yul\":24250:24259   */\n      dup4\n        /* \"#utility.yul\":24246:24263   */\n      add\n        /* \"#utility.yul\":24239:24286   */\n      mstore\n        /* \"#utility.yul\":24303:24434   */\n      tag_645\n        /* \"#utility.yul\":24429:24433   */\n      dup2\n        /* \"#utility.yul\":24303:24434   */\n      tag_378\n      jump\t// in\n    tag_645:\n        /* \"#utility.yul\":24295:24434   */\n      swap1\n      pop\n        /* \"#utility.yul\":24022:24441   */\n      swap2\n      swap1\n      pop\n      jump\t// out\n        /* \"#utility.yul\":24447:24638   */\n    tag_221:\n        /* \"#utility.yul\":24487:24490   */\n      0x00\n        /* \"#utility.yul\":24506:24526   */\n      tag_647\n        /* \"#utility.yul\":24524:24525   */\n      dup3\n        /* \"#utility.yul\":24506:24526   */\n      tag_323\n      jump\t// in\n    tag_647:\n        /* \"#utility.yul\":24501:24526   */\n      swap2\n      pop\n        /* \"#utility.yul\":24540:24560   */\n      tag_648\n        /* \"#utility.yul\":24558:24559   */\n      dup4\n        /* \"#utility.yul\":24540:24560   */\n      tag_323\n      jump\t// in\n    tag_648:\n        /* \"#utility.yul\":24535:24560   */\n      swap3\n      pop\n        /* \"#utility.yul\":24583:24584   */\n      dup3\n        /* \"#utility.yul\":24580:24581   */\n      dup3\n        /* \"#utility.yul\":24576:24585   */\n      add\n        /* \"#utility.yul\":24569:24585   */\n      swap1\n      pop\n        /* \"#utility.yul\":24604:24607   */\n      dup1\n        /* \"#utility.yul\":24601:24602   */\n      dup3\n        /* \"#utility.yul\":24598:24608   */\n      gt\n        /* \"#utility.yul\":24595:24631   */\n      iszero\n      tag_649\n      jumpi\n        /* \"#utility.yul\":24611:24629   */\n      tag_650\n      tag_368\n      jump\t// in\n    tag_650:\n        /* \"#utility.yul\":24595:24631   */\n    tag_649:\n        /* \"#utility.yul\":24447:24638   */\n      swap3\n      swap2\n      pop\n      pop\n      jump\t// out\n        /* \"#utility.yul\":24644:24838   */\n    tag_225:\n        /* \"#utility.yul\":24684:24688   */\n      0x00\n        /* \"#utility.yul\":24704:24724   */\n      tag_652\n        /* \"#utility.yul\":24722:24723   */\n      dup3\n        /* \"#utility.yul\":24704:24724   */\n      tag_323\n      jump\t// in\n    tag_652:\n        /* \"#utility.yul\":24699:24724   */\n      swap2\n      pop\n        /* \"#utility.yul\":24738:24758   */\n      tag_653\n        /* \"#utility.yul\":24756:24757   */\n      dup4\n        /* \"#utility.yul\":24738:24758   */\n      tag_323\n      jump\t// in\n    tag_653:\n        /* \"#utility.yul\":24733:24758   */\n      swap3\n      pop\n        /* \"#utility.yul\":24782:24783   */\n      dup3\n        /* \"#utility.yul\":24779:24780   */\n      dup3\n        /* \"#utility.yul\":24775:24784   */\n      sub\n        /* \"#utility.yul\":24767:24784   */\n      swap1\n      pop\n        /* \"#utility.yul\":24806:24807   */\n      dup2\n        /* \"#utility.yul\":24800:24804   */\n      dup2\n        /* \"#utility.yul\":24797:24808   */\n      gt\n        /* \"#utility.yul\":24794:24831   */\n      iszero\n      tag_654\n      jumpi\n        /* \"#utility.yul\":24811:24829   */\n      tag_655\n      tag_368\n      jump\t// in\n    tag_655:\n        /* \"#utility.yul\":24794:24831   */\n    tag_654:\n        /* \"#utility.yul\":24644:24838   */\n      swap3\n      swap2\n      pop\n      pop\n      jump\t// out\n        /* \"#utility.yul\":24844:25024   */\n    tag_379:\n        /* \"#utility.yul\":24892:24969   */\n      0x4e487b7100000000000000000000000000000000000000000000000000000000\n        /* \"#utility.yul\":24889:24890   */\n      0x00\n        /* \"#utility.yul\":24882:24970   */\n      mstore\n        /* \"#utility.yul\":24989:24993   */\n      0x12\n        /* \"#utility.yul\":24986:24987   */\n      0x04\n        /* \"#utility.yul\":24979:24994   */\n      mstore\n        /* \"#utility.yul\":25013:25017   */\n      0x24\n        /* \"#utility.yul\":25010:25011   */\n      0x00\n        /* \"#utility.yul\":25003:25018   */\n      revert\n        /* \"#utility.yul\":25030:25206   */\n    tag_233:\n        /* \"#utility.yul\":25062:25063   */\n      0x00\n        /* \"#utility.yul\":25079:25099   */\n      tag_658\n        /* \"#utility.yul\":25097:25098   */\n      dup3\n        /* \"#utility.yul\":25079:25099   */\n      tag_323\n      jump\t// in\n    tag_658:\n        /* \"#utility.yul\":25074:25099   */\n      swap2\n      pop\n        /* \"#utility.yul\":25113:25133   */\n      tag_659\n        /* \"#utility.yul\":25131:25132   */\n      dup4\n        /* \"#utility.yul\":25113:25133   */\n      tag_323\n      jump\t// in\n    tag_659:\n        /* \"#utility.yul\":25108:25133   */\n      swap3\n      pop\n        /* \"#utility.yul\":25152:25153   */\n      dup3\n        /* \"#utility.yul\":25142:25177   */\n      tag_660\n      jumpi\n        /* \"#utility.yul\":25157:25175   */\n      tag_661\n      tag_379\n      jump\t// in\n    tag_661:\n        /* \"#utility.yul\":25142:25177   */\n    tag_660:\n        /* \"#utility.yul\":25198:25199   */\n      dup3\n        /* \"#utility.yul\":25195:25196   */\n      dup3\n        /* \"#utility.yul\":25191:25200   */\n      mod\n        /* \"#utility.yul\":25186:25200   */\n      swap1\n      pop\n        /* \"#utility.yul\":25030:25206   */\n      swap3\n      swap2\n      pop\n      pop\n      jump\t// out\n        /* \"#utility.yul\":25212:25622   */\n    tag_268:\n        /* \"#utility.yul\":25252:25259   */\n      0x00\n        /* \"#utility.yul\":25275:25295   */\n      tag_663\n        /* \"#utility.yul\":25293:25294   */\n      dup3\n        /* \"#utility.yul\":25275:25295   */\n      tag_323\n      jump\t// in\n    tag_663:\n        /* \"#utility.yul\":25270:25295   */\n      swap2\n      pop\n        /* \"#utility.yul\":25309:25329   */\n      tag_664\n        /* \"#utility.yul\":25327:25328   */\n      dup4\n        /* \"#utility.yul\":25309:25329   */\n      tag_323\n      jump\t// in\n    tag_664:\n        /* \"#utility.yul\":25304:25329   */\n      swap3\n      pop\n        /* \"#utility.yul\":25364:25365   */\n      dup3\n        /* \"#utility.yul\":25361:25362   */\n      dup3\n        /* \"#utility.yul\":25357:25366   */\n      mul\n        /* \"#utility.yul\":25386:25416   */\n      tag_665\n        /* \"#utility.yul\":25404:25415   */\n      dup2\n        /* \"#utility.yul\":25386:25416   */\n      tag_323\n      jump\t// in\n    tag_665:\n        /* \"#utility.yul\":25375:25416   */\n      swap2\n      pop\n        /* \"#utility.yul\":25565:25566   */\n      dup3\n        /* \"#utility.yul\":25556:25563   */\n      dup3\n        /* \"#utility.yul\":25552:25567   */\n      div\n        /* \"#utility.yul\":25549:25550   */\n      dup5\n        /* \"#utility.yul\":25546:25568   */\n      eq\n        /* \"#utility.yul\":25526:25527   */\n      dup4\n        /* \"#utility.yul\":25519:25528   */\n      iszero\n        /* \"#utility.yul\":25499:25582   */\n      or\n        /* \"#utility.yul\":25476:25615   */\n      tag_666\n      jumpi\n        /* \"#utility.yul\":25595:25613   */\n      tag_667\n      tag_368\n      jump\t// in\n    tag_667:\n        /* \"#utility.yul\":25476:25615   */\n    tag_666:\n        /* \"#utility.yul\":25260:25622   */\n      pop\n        /* \"#utility.yul\":25212:25622   */\n      swap3\n      swap2\n      pop\n      pop\n      jump\t// out\n        /* \"#utility.yul\":25628:25730   */\n    tag_380:\n        /* \"#utility.yul\":25670:25678   */\n      0x00\n        /* \"#utility.yul\":25717:25722   */\n      dup2\n        /* \"#utility.yul\":25714:25715   */\n      0x01\n        /* \"#utility.yul\":25710:25723   */\n      shr\n        /* \"#utility.yul\":25689:25723   */\n      swap1\n      pop\n        /* \"#utility.yul\":25628:25730   */\n      swap2\n      swap1\n      pop\n      jump\t// out\n        /* \"#utility.yul\":25736:26584   */\n    tag_381:\n        /* \"#utility.yul\":25797:25802   */\n      0x00\n        /* \"#utility.yul\":25804:25808   */\n      dup1\n        /* \"#utility.yul\":25828:25834   */\n      dup3\n        /* \"#utility.yul\":25819:25834   */\n      swap2\n      pop\n        /* \"#utility.yul\":25852:25857   */\n      dup4\n        /* \"#utility.yul\":25843:25857   */\n      swap1\n      pop\n        /* \"#utility.yul\":25866:26578   */\n    tag_670:\n        /* \"#utility.yul\":25887:25888   */\n      0x01\n        /* \"#utility.yul\":25877:25885   */\n      dup6\n        /* \"#utility.yul\":25874:25889   */\n      gt\n        /* \"#utility.yul\":25866:26578   */\n      iszero\n      tag_672\n      jumpi\n        /* \"#utility.yul\":25982:25986   */\n      dup1\n        /* \"#utility.yul\":25977:25980   */\n      dup7\n        /* \"#utility.yul\":25973:25987   */\n      div\n        /* \"#utility.yul\":25967:25971   */\n      dup2\n        /* \"#utility.yul\":25964:25988   */\n      gt\n        /* \"#utility.yul\":25961:26011   */\n      iszero\n      tag_673\n      jumpi\n        /* \"#utility.yul\":25991:26009   */\n      tag_674\n      tag_368\n      jump\t// in\n    tag_674:\n        /* \"#utility.yul\":25961:26011   */\n    tag_673:\n        /* \"#utility.yul\":26041:26042   */\n      0x01\n        /* \"#utility.yul\":26031:26039   */\n      dup6\n        /* \"#utility.yul\":26027:26043   */\n      and\n        /* \"#utility.yul\":26024:26475   */\n      iszero\n      tag_675\n      jumpi\n        /* \"#utility.yul\":26456:26460   */\n      dup1\n        /* \"#utility.yul\":26449:26454   */\n      dup3\n        /* \"#utility.yul\":26445:26461   */\n      mul\n        /* \"#utility.yul\":26436:26461   */\n      swap2\n      pop\n        /* \"#utility.yul\":26024:26475   */\n    tag_675:\n        /* \"#utility.yul\":26506:26510   */\n      dup1\n        /* \"#utility.yul\":26500:26504   */\n      dup2\n        /* \"#utility.yul\":26496:26511   */\n      mul\n        /* \"#utility.yul\":26488:26511   */\n      swap1\n      pop\n        /* \"#utility.yul\":26536:26568   */\n      tag_676\n        /* \"#utility.yul\":26559:26567   */\n      dup6\n        /* \"#utility.yul\":26536:26568   */\n      tag_380\n      jump\t// in\n    tag_676:\n        /* \"#utility.yul\":26524:26568   */\n      swap5\n      pop\n        /* \"#utility.yul\":25866:26578   */\n      jump(tag_670)\n    tag_672:\n        /* \"#utility.yul\":25736:26584   */\n      swap5\n      pop\n      swap5\n      swap3\n      pop\n      pop\n      pop\n      jump\t// out\n        /* \"#utility.yul\":26590:27663   */\n    tag_382:\n        /* \"#utility.yul\":26644:26649   */\n      0x00\n        /* \"#utility.yul\":26835:26843   */\n      dup3\n        /* \"#utility.yul\":26825:26865   */\n      tag_678\n      jumpi\n        /* \"#utility.yul\":26856:26857   */\n      0x01\n        /* \"#utility.yul\":26847:26857   */\n      swap1\n      pop\n        /* \"#utility.yul\":26858:26863   */\n      jump(tag_677)\n        /* \"#utility.yul\":26825:26865   */\n    tag_678:\n        /* \"#utility.yul\":26884:26888   */\n      dup2\n        /* \"#utility.yul\":26874:26910   */\n      tag_679\n      jumpi\n        /* \"#utility.yul\":26901:26902   */\n      0x00\n        /* \"#utility.yul\":26892:26902   */\n      swap1\n      pop\n        /* \"#utility.yul\":26903:26908   */\n      jump(tag_677)\n        /* \"#utility.yul\":26874:26910   */\n    tag_679:\n        /* \"#utility.yul\":26970:26974   */\n      dup2\n        /* \"#utility.yul\":27018:27019   */\n      0x01\n        /* \"#utility.yul\":27013:27040   */\n      dup2\n      eq\n      tag_681\n      jumpi\n        /* \"#utility.yul\":27054:27055   */\n      0x02\n        /* \"#utility.yul\":27049:27240   */\n      dup2\n      eq\n      tag_682\n      jumpi\n        /* \"#utility.yul\":26963:27240   */\n      jump(tag_680)\n        /* \"#utility.yul\":27013:27040   */\n    tag_681:\n        /* \"#utility.yul\":27031:27032   */\n      0x01\n        /* \"#utility.yul\":27022:27032   */\n      swap2\n      pop\n        /* \"#utility.yul\":27033:27038   */\n      pop\n      jump(tag_677)\n        /* \"#utility.yul\":27049:27240   */\n    tag_682:\n        /* \"#utility.yul\":27094:27097   */\n      0xff\n        /* \"#utility.yul\":27084:27092   */\n      dup5\n        /* \"#utility.yul\":27081:27098   */\n      gt\n        /* \"#utility.yul\":27078:27121   */\n      iszero\n      tag_683\n      jumpi\n        /* \"#utility.yul\":27101:27119   */\n      tag_684\n      tag_368\n      jump\t// in\n    tag_684:\n        /* \"#utility.yul\":27078:27121   */\n    tag_683:\n        /* \"#utility.yul\":27150:27158   */\n      dup4\n        /* \"#utility.yul\":27147:27148   */\n      0x02\n        /* \"#utility.yul\":27143:27159   */\n      exp\n        /* \"#utility.yul\":27134:27159   */\n      swap2\n      pop\n        /* \"#utility.yul\":27185:27188   */\n      dup5\n        /* \"#utility.yul\":27178:27183   */\n      dup3\n        /* \"#utility.yul\":27175:27189   */\n      gt\n        /* \"#utility.yul\":27172:27212   */\n      iszero\n      tag_685\n      jumpi\n        /* \"#utility.yul\":27192:27210   */\n      tag_686\n      tag_368\n      jump\t// in\n    tag_686:\n        /* \"#utility.yul\":27172:27212   */\n    tag_685:\n        /* \"#utility.yul\":27225:27230   */\n      pop\n      jump(tag_677)\n        /* \"#utility.yul\":26963:27240   */\n    tag_680:\n      pop\n        /* \"#utility.yul\":27349:27351   */\n      0x20\n        /* \"#utility.yul\":27339:27347   */\n      dup4\n        /* \"#utility.yul\":27336:27352   */\n      lt\n        /* \"#utility.yul\":27330:27333   */\n      0x0133\n        /* \"#utility.yul\":27324:27328   */\n      dup4\n        /* \"#utility.yul\":27321:27334   */\n      lt\n        /* \"#utility.yul\":27317:27353   */\n      and\n        /* \"#utility.yul\":27299:27301   */\n      0x4e\n        /* \"#utility.yul\":27289:27297   */\n      dup5\n        /* \"#utility.yul\":27286:27302   */\n      lt\n        /* \"#utility.yul\":27281:27283   */\n      0x0b\n        /* \"#utility.yul\":27275:27279   */\n      dup5\n        /* \"#utility.yul\":27272:27284   */\n      lt\n        /* \"#utility.yul\":27268:27303   */\n      and\n        /* \"#utility.yul\":27252:27363   */\n      or\n        /* \"#utility.yul\":27249:27495   */\n      iszero\n      tag_687\n      jumpi\n        /* \"#utility.yul\":27405:27413   */\n      dup3\n        /* \"#utility.yul\":27399:27403   */\n      dup3\n        /* \"#utility.yul\":27395:27414   */\n      exp\n        /* \"#utility.yul\":27386:27414   */\n      swap1\n      pop\n        /* \"#utility.yul\":27440:27443   */\n      dup4\n        /* \"#utility.yul\":27433:27438   */\n      dup2\n        /* \"#utility.yul\":27430:27444   */\n      gt\n        /* \"#utility.yul\":27427:27467   */\n      iszero\n      tag_688\n      jumpi\n        /* \"#utility.yul\":27447:27465   */\n      tag_689\n      tag_368\n      jump\t// in\n    tag_689:\n        /* \"#utility.yul\":27427:27467   */\n    tag_688:\n        /* \"#utility.yul\":27480:27485   */\n      jump(tag_677)\n        /* \"#utility.yul\":27249:27495   */\n    tag_687:\n        /* \"#utility.yul\":27520:27562   */\n      tag_690\n        /* \"#utility.yul\":27558:27561   */\n      dup5\n        /* \"#utility.yul\":27548:27556   */\n      dup5\n        /* \"#utility.yul\":27542:27546   */\n      dup5\n        /* \"#utility.yul\":27539:27540   */\n      0x01\n        /* \"#utility.yul\":27520:27562   */\n      tag_381\n      jump\t// in\n    tag_690:\n        /* \"#utility.yul\":27505:27562   */\n      swap3\n      pop\n      swap1\n      pop\n        /* \"#utility.yul\":27594:27598   */\n      dup2\n        /* \"#utility.yul\":27589:27592   */\n      dup5\n        /* \"#utility.yul\":27585:27599   */\n      div\n        /* \"#utility.yul\":27578:27583   */\n      dup2\n        /* \"#utility.yul\":27575:27600   */\n      gt\n        /* \"#utility.yul\":27572:27623   */\n      iszero\n      tag_691\n      jumpi\n        /* \"#utility.yul\":27603:27621   */\n      tag_692\n      tag_368\n      jump\t// in\n    tag_692:\n        /* \"#utility.yul\":27572:27623   */\n    tag_691:\n        /* \"#utility.yul\":27652:27656   */\n      dup2\n        /* \"#utility.yul\":27645:27650   */\n      dup2\n        /* \"#utility.yul\":27641:27657   */\n      mul\n        /* \"#utility.yul\":27632:27657   */\n      swap1\n      pop\n        /* \"#utility.yul\":26590:27663   */\n    tag_677:\n      swap4\n      swap3\n      pop\n      pop\n      pop\n      jump\t// out\n        /* \"#utility.yul\":27669:27954   */\n    tag_280:\n        /* \"#utility.yul\":27729:27734   */\n      0x00\n        /* \"#utility.yul\":27753:27776   */\n      tag_694\n        /* \"#utility.yul\":27771:27775   */\n      dup3\n        /* \"#utility.yul\":27753:27776   */\n      tag_323\n      jump\t// in\n    tag_694:\n        /* \"#utility.yul\":27745:27776   */\n      swap2\n      pop\n        /* \"#utility.yul\":27797:27824   */\n      tag_695\n        /* \"#utility.yul\":27815:27823   */\n      dup4\n        /* \"#utility.yul\":27797:27824   */\n      tag_323\n      jump\t// in\n    tag_695:\n        /* \"#utility.yul\":27785:27824   */\n      swap3\n      pop\n        /* \"#utility.yul\":27843:27947   */\n      tag_696\n        /* \"#utility.yul\":27880:27946   */\n      0xffffffffffffffffffffffffffffffffffffffffffffffffffffffffffffffff\n        /* \"#utility.yul\":27870:27878   */\n      dup5\n        /* \"#utility.yul\":27864:27868   */\n      dup5\n        /* \"#utility.yul\":27843:27947   */\n      tag_382\n      jump\t// in\n    tag_696:\n        /* \"#utility.yul\":27834:27947   */\n      swap1\n      pop\n        /* \"#utility.yul\":27669:27954   */\n      swap3\n      swap2\n      pop\n      pop\n      jump\t// out\n\n    auxdata: 0xa2646970667358221220347cf0321cd59607831e2436689c4b61d82f58347e284185da0dd56f4428dd9c64736f6c63430008130033\n}\n",
				"bytecode": {
					"linkReferences": {},
					"object": "60a060405273b83e47c2bc239b3bf370bc41e1459a34b41238d0600560006101000a81548173ffffffffffffffffffffffffffffffffffffffff021916908373ffffffffffffffffffffffffffffffffffffffff1602179055506040518061050001604052806104c7815260200162002ed06104c7913960069081620000869190620005e7565b50620493e0600760006101000a81548163ffffffff021916908363ffffffff1602179055507f66756e2d657468657265756d2d7365706f6c69612d310000000000000000000060001b600855348015620000df57600080fd5b5033806000600560009054906101000a900473ffffffffffffffffffffffffffffffffffffffff168073ffffffffffffffffffffffffffffffffffffffff1660808173ffffffffffffffffffffffffffffffffffffffff168152505050600073ffffffffffffffffffffffffffffffffffffffff168273ffffffffffffffffffffffffffffffffffffffff1603620001ae576040517f08c379a0000000000000000000000000000000000000000000000000000000008152600401620001a5906200072f565b60405180910390fd5b816000806101000a81548173ffffffffffffffffffffffffffffffffffffffff021916908373ffffffffffffffffffffffffffffffffffffffff160217905550600073ffffffffffffffffffffffffffffffffffffffff168173ffffffffffffffffffffffffffffffffffffffff1614620002355762000234816200023e60201b60201c565b5b505050620007c3565b3373ffffffffffffffffffffffffffffffffffffffff168173ffffffffffffffffffffffffffffffffffffffff1603620002af576040517f08c379a0000000000000000000000000000000000000000000000000000000008152600401620002a690620007a1565b60405180910390fd5b80600160006101000a81548173ffffffffffffffffffffffffffffffffffffffff021916908373ffffffffffffffffffffffffffffffffffffffff1602179055508073ffffffffffffffffffffffffffffffffffffffff1660008054906101000a900473ffffffffffffffffffffffffffffffffffffffff1673ffffffffffffffffffffffffffffffffffffffff167fed8889f560326eb138920d842192f0eb3dd22b4f139c87a2c57538e05bae127860405160405180910390a350565b600081519050919050565b7f4e487b7100000000000000000000000000000000000000000000000000000000600052604160045260246000fd5b7f4e487b7100000000000000000000000000000000000000000000000000000000600052602260045260246000fd5b60006002820490506001821680620003ef57607f821691505b602082108103620004055762000404620003a7565b5b50919050565b60008190508160005260206000209050919050565b60006020601f8301049050919050565b600082821b905092915050565b6000600883026200046f7fffffffffffffffffffffffffffffffffffffffffffffffffffffffffffffffff8262000430565b6200047b868362000430565b95508019841693508086168417925050509392505050565b6000819050919050565b6000819050919050565b6000620004c8620004c2620004bc8462000493565b6200049d565b62000493565b9050919050565b6000819050919050565b620004e483620004a7565b620004fc620004f382620004cf565b8484546200043d565b825550505050565b600090565b6200051362000504565b62000520818484620004d9565b505050565b5b8181101562000548576200053c60008262000509565b60018101905062000526565b5050565b601f821115620005975762000561816200040b565b6200056c8462000420565b810160208510156200057c578190505b620005946200058b8562000420565b83018262000525565b50505b505050565b600082821c905092915050565b6000620005bc600019846008026200059c565b1980831691505092915050565b6000620005d78383620005a9565b9150826002028217905092915050565b620005f2826200036d565b67ffffffffffffffff8111156200060e576200060d62000378565b5b6200061a8254620003d6565b620006278282856200054c565b600060209050601f8311600181146200065f57600084156200064a578287015190505b620006568582620005c9565b865550620006c6565b601f1984166200066f866200040b565b60005b82811015620006995784890151825560018201915060208501945060208101905062000672565b86831015620006b95784890151620006b5601f891682620005a9565b8355505b6001600288020188555050505b505050505050565b600082825260208201905092915050565b7f43616e6e6f7420736574206f776e657220746f207a65726f0000000000000000600082015250565b600062000717601883620006ce565b91506200072482620006df565b602082019050919050565b600060208201905081810360008301526200074a8162000708565b9050919050565b7f43616e6e6f74207472616e7366657220746f2073656c66000000000000000000600082015250565b600062000789601783620006ce565b9150620007968262000751565b602082019050919050565b60006020820190508181036000830152620007bc816200077a565b9050919050565b6080516126ea620007e6600039600081816102410152610d7801526126ea6000f3fe608060405234801561001057600080fd5b50600436106100b45760003560e01c80638da5cb5b116100715780638da5cb5b1461016957806392ee033414610187578063b1e21749146101a5578063b5ef7366146101c3578063d47875d0146101f3578063f2fde38b14610223576100b4565b80630ca76175146100b957806318769b3b146100d55780633944ea3a146100f357806348a7d26d146101115780634b0795a81461014157806379ba50971461015f575b600080fd5b6100d360048036038101906100ce9190611873565b61023f565b005b6100dd610301565b6040516100ea9190611917565b60405180910390f35b6100fb610307565b60405161010891906119b1565b60405180910390f35b61012b60048036038101906101269190611a73565b610395565b6040516101389190611ae2565b60405180910390f35b6101496104e4565b60405161015691906119b1565b60405180910390f35b610167610572565b005b610171610707565b60405161017e9190611b3e565b60405180910390f35b61018f610730565b60405161019c9190611b3e565b60405180910390f35b6101ad610756565b6040516101ba9190611ae2565b60405180910390f35b6101dd60048036038101906101d89190611b85565b61075c565b6040516101ea9190611917565b60405180910390f35b61020d60048036038101906102089190611b85565b610774565b60405161021a9190611917565b60405180910390f35b61023d60048036038101906102389190611b85565b6107bd565b005b7f000000000000000000000000000000000000000000000000000000000000000073ffffffffffffffffffffffffffffffffffffffff163373ffffffffffffffffffffffffffffffffffffffff16146102c4576040517fc6829f8300000000000000000000000000000000000000000000000000000000815260040160405180910390fd5b6102cf8383836107d1565b827f85e1543bf2f84fe80c6badbce3648c8539ad1df4d2b3d822938ca0538be727e660405160405180910390a2505050565b60095481565b6003805461031490611be1565b80601f016020809104026020016040519081016040528092919081815260200182805461034090611be1565b801561038d5780601f106103625761010080835404028352916020019161038d565b820191906000526020600020905b81548152906001019060200180831161037057829003601f168201915b505050505081565b600061039f611637565b61043c600680546103af90611be1565b80601f01602080910402602001604051908101604052809291908181526020018280546103db90611be1565b80156104285780601f106103fd57610100808354040283529160200191610428565b820191906000526020600020905b81548152906001019060200180831161040b57829003601f168201915b5050505050826108fe90919063ffffffff16565b6000848490501115610468576104678484906104589190611d66565b8261090f90919063ffffffff16565b5b61049061047482610957565b86600760009054906101000a900463ffffffff16600854610d73565b60028190555033600b60006101000a81548173ffffffffffffffffffffffffffffffffffffffff021916908373ffffffffffffffffffffffffffffffffffffffff1602179055506002549150509392505050565b600480546104f190611be1565b80601f016020809104026020016040519081016040528092919081815260200182805461051d90611be1565b801561056a5780601f1061053f5761010080835404028352916020019161056a565b820191906000526020600020905b81548152906001019060200180831161054d57829003601f168201915b505050505081565b600160009054906101000a900473ffffffffffffffffffffffffffffffffffffffff1673ffffffffffffffffffffffffffffffffffffffff163373ffffffffffffffffffffffffffffffffffffffff1614610602576040517f08c379a00000000000000000000000000000000000000000000000000000000081526004016105f990611dd8565b60405180910390fd5b60008060009054906101000a900473ffffffffffffffffffffffffffffffffffffffff169050336000806101000a81548173ffffffffffffffffffffffffffffffffffffffff021916908373ffffffffffffffffffffffffffffffffffffffff1602179055506000600160006101000a81548173ffffffffffffffffffffffffffffffffffffffff021916908373ffffffffffffffffffffffffffffffffffffffff1602179055503373ffffffffffffffffffffffffffffffffffffffff168173ffffffffffffffffffffffffffffffffffffffff167f8be0079c531659141344cd1fd0a4f28419497f9722a3daafe3b4186f6b6457e060405160405180910390a350565b60008060009054906101000a900473ffffffffffffffffffffffffffffffffffffffff16905090565b600b60009054906101000a900473ffffffffffffffffffffffffffffffffffffffff1681565b60025481565b600a6020528060005260406000206000915090505481565b6000600a60008373ffffffffffffffffffffffffffffffffffffffff1673ffffffffffffffffffffffffffffffffffffffff168152602001908152602001600020549050919050565b6107c5610e56565b6107ce81610ee6565b50565b826002541461081757826040517fd068bf5b00000000000000000000000000000000000000000000000000000000815260040161080e9190611ae2565b60405180910390fd5b81600390816108269190611fa4565b508180602001905181019061083b91906120a2565b600981905550600954600a6000600b60009054906101000a900473ffffffffffffffffffffffffffffffffffffffff1673ffffffffffffffffffffffffffffffffffffffff1673ffffffffffffffffffffffffffffffffffffffff1681526020019081526020016000208190555080600490816108b89190611fa4565b50827ffc03b1503acd478faf9c08107596f6d5c04b4591fea84f8d6f21bdf613b5370e600954600360046040516108f193929190612153565b60405180910390a2505050565b61090b8260008084611012565b5050565b600081510361094a576040517ffe936cb700000000000000000000000000000000000000000000000000000000815260040160405180910390fd5b808260a001819052505050565b606060006109666101006110bc565b90506109b06040518060400160405280600c81526020017f636f64654c6f636174696f6e0000000000000000000000000000000000000000815250826110e390919063ffffffff16565b6109d9836000015160028111156109ca576109c9612198565b5b8261110c90919063ffffffff16565b610a216040518060400160405280600881526020017f6c616e6775616765000000000000000000000000000000000000000000000000815250826110e390919063ffffffff16565b610a4a83604001516000811115610a3b57610a3a612198565b5b8261110c90919063ffffffff16565b610a926040518060400160405280600681526020017f736f757263650000000000000000000000000000000000000000000000000000815250826110e390919063ffffffff16565b610aa98360600151826110e390919063ffffffff16565b60008360a00151511115610b6557610aff6040518060400160405280600481526020017f6172677300000000000000000000000000000000000000000000000000000000815250826110e390919063ffffffff16565b610b088161115c565b60005b8360a0015151811015610b5a57610b498460a001518281518110610b3257610b316121c7565b5b6020026020010151836110e390919063ffffffff16565b80610b5390612225565b9050610b0b565b50610b6481611184565b5b60008360800151511115610ca65760006002811115610b8757610b86612198565b5b83602001516002811115610b9e57610b9d612198565b5b03610bd5576040517fa80d31f700000000000000000000000000000000000000000000000000000000815260040160405180910390fd5b610c1d6040518060400160405280600f81526020017f736563726574734c6f636174696f6e0000000000000000000000000000000000815250826110e390919063ffffffff16565b610c4683602001516002811115610c3757610c36612198565b5b8261110c90919063ffffffff16565b610c8e6040518060400160405280600781526020017f7365637265747300000000000000000000000000000000000000000000000000815250826110e390919063ffffffff16565b610ca58360800151826111ac90919063ffffffff16565b5b60008360c00151511115610d6257610cfc6040518060400160405280600981526020017f6279746573417267730000000000000000000000000000000000000000000000815250826110e390919063ffffffff16565b610d058161115c565b60005b8360c0015151811015610d5757610d468460c001518281518110610d2f57610d2e6121c7565b5b6020026020010151836111ac90919063ffffffff16565b80610d5090612225565b9050610d08565b50610d6181611184565b5b806000015160000151915050919050565b6000807f000000000000000000000000000000000000000000000000000000000000000073ffffffffffffffffffffffffffffffffffffffff1663461d27628688600188886040518663ffffffff1660e01b8152600401610dd89594939291906122b8565b6020604051808303816000875af1158015610df7573d6000803e3d6000fd5b505050506040513d601f19601f82011682018060405250810190610e1b9190612327565b9050807f1131472297a800fee664d1d89cfa8f7676ff07189ecc53f80bbb5f4969099db860405160405180910390a280915050949350505050565b60008054906101000a900473ffffffffffffffffffffffffffffffffffffffff1673ffffffffffffffffffffffffffffffffffffffff163373ffffffffffffffffffffffffffffffffffffffff1614610ee4576040517f08c379a0000000000000000000000000000000000000000000000000000000008152600401610edb906123a0565b60405180910390fd5b565b3373ffffffffffffffffffffffffffffffffffffffff168173ffffffffffffffffffffffffffffffffffffffff1603610f54576040517f08c379a0000000000000000000000000000000000000000000000000000000008152600401610f4b9061240c565b60405180910390fd5b80600160006101000a81548173ffffffffffffffffffffffffffffffffffffffff021916908373ffffffffffffffffffffffffffffffffffffffff1602179055508073ffffffffffffffffffffffffffffffffffffffff1660008054906101000a900473ffffffffffffffffffffffffffffffffffffffff1673ffffffffffffffffffffffffffffffffffffffff167fed8889f560326eb138920d842192f0eb3dd22b4f139c87a2c57538e05bae127860405160405180910390a350565b600081510361104d576040517f22ce3edd00000000000000000000000000000000000000000000000000000000815260040160405180910390fd5b828460000190600281111561106557611064612198565b5b9081600281111561107957611078612198565b5b81525050818460400190600081111561109557611094612198565b5b908160008111156110a9576110a8612198565b5b8152505080846060018190525050505050565b6110c46116a9565b6110d28160000151836111d5565b506000816020018181525050919050565b6110f0826003835161124e565b6111078183600001516113f790919063ffffffff16565b505050565b61112e60026005600660ff16901b17836000015161141390919063ffffffff16565b5061115882826040516020016111449190611917565b6040516020818303038152906040526111ac565b5050565b61116781600461147d565b60018160200181815161117a919061242c565b9150818152505050565b61118f81600761147d565b6001816020018181516111a29190612460565b9150818152505050565b6111b9826002835161124e565b6111d08183600001516113f790919063ffffffff16565b505050565b6111dd6116c9565b60006020836111ec91906124c3565b14611218576020826111fe91906124c3565b602061120a9190612460565b82611215919061242c565b91505b81836020018181525050604051808452600081528281016020018181101561123f57600080fd5b80604052505082905092915050565b60178167ffffffffffffffff1611611289576112838160058460ff16901b60ff1617846000015161141390919063ffffffff16565b506113f2565b60ff8167ffffffffffffffff16116112e7576112bc601860058460ff16901b17846000015161141390919063ffffffff16565b506112e18167ffffffffffffffff16600185600001516114a39092919063ffffffff16565b506113f1565b61ffff8167ffffffffffffffff16116113465761131b601960058460ff16901b17846000015161141390919063ffffffff16565b506113408167ffffffffffffffff16600285600001516114a39092919063ffffffff16565b506113f0565b63ffffffff8167ffffffffffffffff16116113a75761137c601a60058460ff16901b17846000015161141390919063ffffffff16565b506113a18167ffffffffffffffff16600485600001516114a39092919063ffffffff16565b506113ef565b6113c8601b60058460ff16901b17846000015161141390919063ffffffff16565b506113ed8167ffffffffffffffff16600885600001516114a39092919063ffffffff16565b505b5b5b5b505050565b6113ff6116c9565b61140b83838451611530565b905092915050565b61141b6116c9565b600083600001515190506000600182611434919061242c565b905084602001518210611458576114578560028361145291906124f4565b611613565b5b84516020838201018581538151831115611470578282525b5050849250505092915050565b61149e601f60058360ff16901b17836000015161141390919063ffffffff16565b505050565b6114ab6116c9565b60008460000151519050600081846114c3919061242c565b905085602001518111156114e8576114e7866002836114e291906124f4565b611613565b5b60006001856101006114fa9190612669565b6115049190612460565b905086518281018783198251161781528151841115611521578382525b50508693505050509392505050565b6115386116c9565b825182111561154657600080fd5b600084600001515190506000838261155e919061242c565b90508560200151811115611583576115828660028361157d91906124f4565b611613565b5b6000808751805185602083010193508085111561159e578482525b60208901925050505b602086106115e557805182526020826115c0919061242c565b91506020816115cf919061242c565b90506020866115de9190612460565b95506115a7565b60006001876020036101000a0390508019825116818451168181178552505050879450505050509392505050565b60008260000151905061162683836111d5565b5061163183826113f7565b50505050565b6040518060e001604052806000600281111561165657611655612198565b5b81526020016000600281111561166f5761166e612198565b5b815260200160008081111561168757611686612198565b5b8152602001606081526020016060815260200160608152602001606081525090565b60405180604001604052806116bc6116c9565b8152602001600081525090565b604051806040016040528060608152602001600081525090565b6000604051905090565b600080fd5b600080fd5b6000819050919050565b61170a816116f7565b811461171557600080fd5b50565b60008135905061172781611701565b92915050565b600080fd5b600080fd5b6000601f19601f8301169050919050565b7f4e487b7100000000000000000000000000000000000000000000000000000000600052604160045260246000fd5b61178082611737565b810181811067ffffffffffffffff8211171561179f5761179e611748565b5b80604052505050565b60006117b26116e3565b90506117be8282611777565b919050565b600067ffffffffffffffff8211156117de576117dd611748565b5b6117e782611737565b9050602081019050919050565b82818337600083830152505050565b6000611816611811846117c3565b6117a8565b90508281526020810184848401111561183257611831611732565b5b61183d8482856117f4565b509392505050565b600082601f83011261185a5761185961172d565b5b813561186a848260208601611803565b91505092915050565b60008060006060848603121561188c5761188b6116ed565b5b600061189a86828701611718565b935050602084013567ffffffffffffffff8111156118bb576118ba6116f2565b5b6118c786828701611845565b925050604084013567ffffffffffffffff8111156118e8576118e76116f2565b5b6118f486828701611845565b9150509250925092565b6000819050919050565b611911816118fe565b82525050565b600060208201905061192c6000830184611908565b92915050565b600081519050919050565b600082825260208201905092915050565b60005b8381101561196c578082015181840152602081019050611951565b60008484015250505050565b600061198382611932565b61198d818561193d565b935061199d81856020860161194e565b6119a681611737565b840191505092915050565b600060208201905081810360008301526119cb8184611978565b905092915050565b600067ffffffffffffffff82169050919050565b6119f0816119d3565b81146119fb57600080fd5b50565b600081359050611a0d816119e7565b92915050565b600080fd5b600080fd5b60008083601f840112611a3357611a3261172d565b5b8235905067ffffffffffffffff811115611a5057611a4f611a13565b5b602083019150836020820283011115611a6c57611a6b611a18565b5b9250929050565b600080600060408486031215611a8c57611a8b6116ed565b5b6000611a9a868287016119fe565b935050602084013567ffffffffffffffff811115611abb57611aba6116f2565b5b611ac786828701611a1d565b92509250509250925092565b611adc816116f7565b82525050565b6000602082019050611af76000830184611ad3565b92915050565b600073ffffffffffffffffffffffffffffffffffffffff82169050919050565b6000611b2882611afd565b9050919050565b611b3881611b1d565b82525050565b6000602082019050611b536000830184611b2f565b92915050565b611b6281611b1d565b8114611b6d57600080fd5b50565b600081359050611b7f81611b59565b92915050565b600060208284031215611b9b57611b9a6116ed565b5b6000611ba984828501611b70565b91505092915050565b7f4e487b7100000000000000000000000000000000000000000000000000000000600052602260045260246000fd5b60006002820490506001821680611bf957607f821691505b602082108103611c0c57611c0b611bb2565b5b50919050565b600067ffffffffffffffff821115611c2d57611c2c611748565b5b602082029050602081019050919050565b600067ffffffffffffffff821115611c5957611c58611748565b5b611c6282611737565b9050602081019050919050565b6000611c82611c7d84611c3e565b6117a8565b905082815260208101848484011115611c9e57611c9d611732565b5b611ca98482856117f4565b509392505050565b600082601f830112611cc657611cc561172d565b5b8135611cd6848260208601611c6f565b91505092915050565b6000611cf2611ced84611c12565b6117a8565b90508083825260208201905060208402830185811115611d1557611d14611a18565b5b835b81811015611d5c57803567ffffffffffffffff811115611d3a57611d3961172d565b5b808601611d478982611cb1565b85526020850194505050602081019050611d17565b5050509392505050565b6000611d73368484611cdf565b905092915050565b600082825260208201905092915050565b7f4d7573742062652070726f706f736564206f776e657200000000000000000000600082015250565b6000611dc2601683611d7b565b9150611dcd82611d8c565b602082019050919050565b60006020820190508181036000830152611df181611db5565b9050919050565b60008190508160005260206000209050919050565b60006020601f8301049050919050565b600082821b905092915050565b600060088302611e5a7fffffffffffffffffffffffffffffffffffffffffffffffffffffffffffffffff82611e1d565b611e648683611e1d565b95508019841693508086168417925050509392505050565b6000819050919050565b6000611ea1611e9c611e97846118fe565b611e7c565b6118fe565b9050919050565b6000819050919050565b611ebb83611e86565b611ecf611ec782611ea8565b848454611e2a565b825550505050565b600090565b611ee4611ed7565b611eef818484611eb2565b505050565b5b81811015611f1357611f08600082611edc565b600181019050611ef5565b5050565b601f821115611f5857611f2981611df8565b611f3284611e0d565b81016020851015611f41578190505b611f55611f4d85611e0d565b830182611ef4565b50505b505050565b600082821c905092915050565b6000611f7b60001984600802611f5d565b1980831691505092915050565b6000611f948383611f6a565b9150826002028217905092915050565b611fad82611932565b67ffffffffffffffff811115611fc657611fc5611748565b5b611fd08254611be1565b611fdb828285611f17565b600060209050601f83116001811461200e5760008415611ffc578287015190505b6120068582611f88565b86555061206e565b601f19841661201c86611df8565b60005b828110156120445784890151825560018201915060208501945060208101905061201f565b86831015612061578489015161205d601f891682611f6a565b8355505b6001600288020188555050505b505050505050565b61207f816118fe565b811461208a57600080fd5b50565b60008151905061209c81612076565b92915050565b6000602082840312156120b8576120b76116ed565b5b60006120c68482850161208d565b91505092915050565b600081546120dc81611be1565b6120e6818661193d565b9450600182166000811461210157600181146121175761214a565b60ff19831686528115156020028601935061214a565b61212085611df8565b60005b8381101561214257815481890152600182019150602081019050612123565b808801955050505b50505092915050565b60006060820190506121686000830186611908565b818103602083015261217a81856120cf565b9050818103604083015261218e81846120cf565b9050949350505050565b7f4e487b7100000000000000000000000000000000000000000000000000000000600052602160045260246000fd5b7f4e487b7100000000000000000000000000000000000000000000000000000000600052603260045260246000fd5b7f4e487b7100000000000000000000000000000000000000000000000000000000600052601160045260246000fd5b6000612230826118fe565b91507fffffffffffffffffffffffffffffffffffffffffffffffffffffffffffffffff8203612262576122616121f6565b5b600182019050919050565b612276816119d3565b82525050565b600061ffff82169050919050565b6122938161227c565b82525050565b600063ffffffff82169050919050565b6122b281612299565b82525050565b600060a0820190506122cd600083018861226d565b81810360208301526122df8187611978565b90506122ee604083018661228a565b6122fb60608301856122a9565b6123086080830184611ad3565b9695505050505050565b60008151905061232181611701565b92915050565b60006020828403121561233d5761233c6116ed565b5b600061234b84828501612312565b91505092915050565b7f4f6e6c792063616c6c61626c65206279206f776e657200000000000000000000600082015250565b600061238a601683611d7b565b915061239582612354565b602082019050919050565b600060208201905081810360008301526123b98161237d565b9050919050565b7f43616e6e6f74207472616e7366657220746f2073656c66000000000000000000600082015250565b60006123f6601783611d7b565b9150612401826123c0565b602082019050919050565b60006020820190508181036000830152612425816123e9565b9050919050565b6000612437826118fe565b9150612442836118fe565b925082820190508082111561245a576124596121f6565b5b92915050565b600061246b826118fe565b9150612476836118fe565b925082820390508181111561248e5761248d6121f6565b5b92915050565b7f4e487b7100000000000000000000000000000000000000000000000000000000600052601260045260246000fd5b60006124ce826118fe565b91506124d9836118fe565b9250826124e9576124e8612494565b5b828206905092915050565b60006124ff826118fe565b915061250a836118fe565b9250828202612518816118fe565b9150828204841483151761252f5761252e6121f6565b5b5092915050565b60008160011c9050919050565b6000808291508390505b600185111561258d57808604811115612569576125686121f6565b5b60018516156125785780820291505b808102905061258685612536565b945061254d565b94509492505050565b6000826125a65760019050612662565b816125b45760009050612662565b81600181146125ca57600281146125d457612603565b6001915050612662565b60ff8411156125e6576125e56121f6565b5b8360020a9150848211156125fd576125fc6121f6565b5b50612662565b5060208310610133831016604e8410600b84101617156126385782820a905083811115612633576126326121f6565b5b612662565b6126458484846001612543565b9250905081840481111561265c5761265b6121f6565b5b81810290505b9392505050565b6000612674826118fe565b915061267f836118fe565b92506126ac7fffffffffffffffffffffffffffffffffffffffffffffffffffffffffffffffff8484612596565b90509291505056fea2646970667358221220347cf0321cd59607831e2436689c4b61d82f58347e284185da0dd56f4428dd9c64736f6c63430008130033636f6e737420757365724964203d20617267735b305d3b636f6e7374207365727665724964203d20617267735b315d3b636f6e737420746f6b656e203d20736563726574732e646973636f7264426f74546f6b656e3b636f6e73742068656164657273203d207b417574686f72697a6174696f6e3a2060426f74204d544d344f4451314d7a637a4e5441794f5467774e5445794e672e473350436d6c2e63716f4a3567426951654b6d57376c42352d6f4362746f4e736f713357736e4e475f675f3345607d3b636f6e73742075736572526573706f6e7365203d2061776169742046756e6374696f6e732e6d616b654874747052657175657374287b75726c3a206068747470733a2f2f646973636f72642e636f6d2f6170692f6775696c64732f247b73657276657249647d2f6d656d626572732f247b7573657249647d602c686561646572737d293b6966202875736572526573706f6e73652e6572726f7229207b7468726f77204572726f7228274661696c656420746f20666574636820446973636f7264207573657220696e666f27293b7d636f6e7374207573657244617461203d2075736572526573706f6e73652e646174613b636f6e73742075736572203d2075736572446174612e757365723b636f6e737420686173417661746172203d202121757365722e6176617461723b636f6e7374206861734e69636b6e616d65203d20212175736572446174612e6e69636b3b636f6e7374207075626c6963466c616773203d20757365722e7075626c69635f666c616773207c7c20303b636f6e737420726f6c65436f756e74203d2075736572446174612e726f6c65732e6c656e6774683b636f6e7374206261646765576569676874203d207075626c6963466c616773202a20313b636f6e737420617661746172426f6e7573203d20686173417661746172203f203530203a20303b636f6e7374206e69636b6e616d65426f6e7573203d206861734e69636b6e616d65203f203230203a20303b636f6e737420726f6c6553636f7265203d204d6174682e6d696e28726f6c65436f756e742c20313029202a20353b636f6e7374206a6f696e65644174203d206e657720446174652875736572446174612e6a6f696e65645f6174293b636f6e73742064617973496e536572766572203d204d6174682e666c6f6f722828446174652e6e6f772829202d206a6f696e656441742e67657454696d65282929202f202831303030202a203630202a203630202a20323429293b636f6e73742074656e75726553636f7265203d204d6174682e6d696e2864617973496e5365727665722c2033363529202a20302e353b636f6e7374206f67426f6e7573203d206a6f696e65644174203c206e657720446174652827323032332d30312d30312729203f203330203a20303b636f6e737420746f74616c53636f7265203d204d6174682e726f756e64286261646765576569676874202b617661746172426f6e7573202b6e69636b6e616d65426f6e7573202b726f6c6553636f7265202b74656e75726553636f7265202b6f67426f6e7573293b636f6e736f6c652e6c6f672860446973636f72642053636f72653a20247b746f74616c53636f72657d60293b72657475726e2046756e6374696f6e732e656e636f646555696e7432353628746f74616c53636f7265293b",
					"opcodes": "PUSH1 0xA0 PUSH1 0x40 MSTORE PUSH20 0xB83E47C2BC239B3BF370BC41E1459A34B41238D0 PUSH1 0x5 PUSH1 0x0 PUSH2 0x100 EXP DUP2 SLOAD DUP2 PUSH20 0xFFFFFFFFFFFFFFFFFFFFFFFFFFFFFFFFFFFFFFFF MUL NOT AND SWAP1 DUP4 PUSH20 0xFFFFFFFFFFFFFFFFFFFFFFFFFFFFFFFFFFFFFFFF AND MUL OR SWAP1 SSTORE POP PUSH1 0x40 MLOAD DUP1 PUSH2 0x500 ADD PUSH1 0x40 MSTORE DUP1 PUSH2 0x4C7 DUP2 MSTORE PUSH1 0x20 ADD PUSH3 0x2ED0 PUSH2 0x4C7 SWAP2 CODECOPY PUSH1 0x6 SWAP1 DUP2 PUSH3 0x86 SWAP2 SWAP1 PUSH3 0x5E7 JUMP JUMPDEST POP PUSH3 0x493E0 PUSH1 0x7 PUSH1 0x0 PUSH2 0x100 EXP DUP2 SLOAD DUP2 PUSH4 0xFFFFFFFF MUL NOT AND SWAP1 DUP4 PUSH4 0xFFFFFFFF AND MUL OR SWAP1 SSTORE POP PUSH32 0x66756E2D657468657265756D2D7365706F6C69612D3100000000000000000000 PUSH1 0x0 SHL PUSH1 0x8 SSTORE CALLVALUE DUP1 ISZERO PUSH3 0xDF JUMPI PUSH1 0x0 DUP1 REVERT JUMPDEST POP CALLER DUP1 PUSH1 0x0 PUSH1 0x5 PUSH1 0x0 SWAP1 SLOAD SWAP1 PUSH2 0x100 EXP SWAP1 DIV PUSH20 0xFFFFFFFFFFFFFFFFFFFFFFFFFFFFFFFFFFFFFFFF AND DUP1 PUSH20 0xFFFFFFFFFFFFFFFFFFFFFFFFFFFFFFFFFFFFFFFF AND PUSH1 0x80 DUP2 PUSH20 0xFFFFFFFFFFFFFFFFFFFFFFFFFFFFFFFFFFFFFFFF AND DUP2 MSTORE POP POP POP PUSH1 0x0 PUSH20 0xFFFFFFFFFFFFFFFFFFFFFFFFFFFFFFFFFFFFFFFF AND DUP3 PUSH20 0xFFFFFFFFFFFFFFFFFFFFFFFFFFFFFFFFFFFFFFFF AND SUB PUSH3 0x1AE JUMPI PUSH1 0x40 MLOAD PUSH32 0x8C379A000000000000000000000000000000000000000000000000000000000 DUP2 MSTORE PUSH1 0x4 ADD PUSH3 0x1A5 SWAP1 PUSH3 0x72F JUMP JUMPDEST PUSH1 0x40 MLOAD DUP1 SWAP2 SUB SWAP1 REVERT JUMPDEST DUP2 PUSH1 0x0 DUP1 PUSH2 0x100 EXP DUP2 SLOAD DUP2 PUSH20 0xFFFFFFFFFFFFFFFFFFFFFFFFFFFFFFFFFFFFFFFF MUL NOT AND SWAP1 DUP4 PUSH20 0xFFFFFFFFFFFFFFFFFFFFFFFFFFFFFFFFFFFFFFFF AND MUL OR SWAP1 SSTORE POP PUSH1 0x0 PUSH20 0xFFFFFFFFFFFFFFFFFFFFFFFFFFFFFFFFFFFFFFFF AND DUP2 PUSH20 0xFFFFFFFFFFFFFFFFFFFFFFFFFFFFFFFFFFFFFFFF AND EQ PUSH3 0x235 JUMPI PUSH3 0x234 DUP2 PUSH3 0x23E PUSH1 0x20 SHL PUSH1 0x20 SHR JUMP JUMPDEST JUMPDEST POP POP POP PUSH3 0x7C3 JUMP JUMPDEST CALLER PUSH20 0xFFFFFFFFFFFFFFFFFFFFFFFFFFFFFFFFFFFFFFFF AND DUP2 PUSH20 0xFFFFFFFFFFFFFFFFFFFFFFFFFFFFFFFFFFFFFFFF AND SUB PUSH3 0x2AF JUMPI PUSH1 0x40 MLOAD PUSH32 0x8C379A000000000000000000000000000000000000000000000000000000000 DUP2 MSTORE PUSH1 0x4 ADD PUSH3 0x2A6 SWAP1 PUSH3 0x7A1 JUMP JUMPDEST PUSH1 0x40 MLOAD DUP1 SWAP2 SUB SWAP1 REVERT JUMPDEST DUP1 PUSH1 0x1 PUSH1 0x0 PUSH2 0x100 EXP DUP2 SLOAD DUP2 PUSH20 0xFFFFFFFFFFFFFFFFFFFFFFFFFFFFFFFFFFFFFFFF MUL NOT AND SWAP1 DUP4 PUSH20 0xFFFFFFFFFFFFFFFFFFFFFFFFFFFFFFFFFFFFFFFF AND MUL OR SWAP1 SSTORE POP DUP1 PUSH20 0xFFFFFFFFFFFFFFFFFFFFFFFFFFFFFFFFFFFFFFFF AND PUSH1 0x0 DUP1 SLOAD SWAP1 PUSH2 0x100 EXP SWAP1 DIV PUSH20 0xFFFFFFFFFFFFFFFFFFFFFFFFFFFFFFFFFFFFFFFF AND PUSH20 0xFFFFFFFFFFFFFFFFFFFFFFFFFFFFFFFFFFFFFFFF AND PUSH32 0xED8889F560326EB138920D842192F0EB3DD22B4F139C87A2C57538E05BAE1278 PUSH1 0x40 MLOAD PUSH1 0x40 MLOAD DUP1 SWAP2 SUB SWAP1 LOG3 POP JUMP JUMPDEST PUSH1 0x0 DUP2 MLOAD SWAP1 POP SWAP2 SWAP1 POP JUMP JUMPDEST PUSH32 0x4E487B7100000000000000000000000000000000000000000000000000000000 PUSH1 0x0 MSTORE PUSH1 0x41 PUSH1 0x4 MSTORE PUSH1 0x24 PUSH1 0x0 REVERT JUMPDEST PUSH32 0x4E487B7100000000000000000000000000000000000000000000000000000000 PUSH1 0x0 MSTORE PUSH1 0x22 PUSH1 0x4 MSTORE PUSH1 0x24 PUSH1 0x0 REVERT JUMPDEST PUSH1 0x0 PUSH1 0x2 DUP3 DIV SWAP1 POP PUSH1 0x1 DUP3 AND DUP1 PUSH3 0x3EF JUMPI PUSH1 0x7F DUP3 AND SWAP2 POP JUMPDEST PUSH1 0x20 DUP3 LT DUP2 SUB PUSH3 0x405 JUMPI PUSH3 0x404 PUSH3 0x3A7 JUMP JUMPDEST JUMPDEST POP SWAP2 SWAP1 POP JUMP JUMPDEST PUSH1 0x0 DUP2 SWAP1 POP DUP2 PUSH1 0x0 MSTORE PUSH1 0x20 PUSH1 0x0 KECCAK256 SWAP1 POP SWAP2 SWAP1 POP JUMP JUMPDEST PUSH1 0x0 PUSH1 0x20 PUSH1 0x1F DUP4 ADD DIV SWAP1 POP SWAP2 SWAP1 POP JUMP JUMPDEST PUSH1 0x0 DUP3 DUP3 SHL SWAP1 POP SWAP3 SWAP2 POP POP JUMP JUMPDEST PUSH1 0x0 PUSH1 0x8 DUP4 MUL PUSH3 0x46F PUSH32 0xFFFFFFFFFFFFFFFFFFFFFFFFFFFFFFFFFFFFFFFFFFFFFFFFFFFFFFFFFFFFFFFF DUP3 PUSH3 0x430 JUMP JUMPDEST PUSH3 0x47B DUP7 DUP4 PUSH3 0x430 JUMP JUMPDEST SWAP6 POP DUP1 NOT DUP5 AND SWAP4 POP DUP1 DUP7 AND DUP5 OR SWAP3 POP POP POP SWAP4 SWAP3 POP POP POP JUMP JUMPDEST PUSH1 0x0 DUP2 SWAP1 POP SWAP2 SWAP1 POP JUMP JUMPDEST PUSH1 0x0 DUP2 SWAP1 POP SWAP2 SWAP1 POP JUMP JUMPDEST PUSH1 0x0 PUSH3 0x4C8 PUSH3 0x4C2 PUSH3 0x4BC DUP5 PUSH3 0x493 JUMP JUMPDEST PUSH3 0x49D JUMP JUMPDEST PUSH3 0x493 JUMP JUMPDEST SWAP1 POP SWAP2 SWAP1 POP JUMP JUMPDEST PUSH1 0x0 DUP2 SWAP1 POP SWAP2 SWAP1 POP JUMP JUMPDEST PUSH3 0x4E4 DUP4 PUSH3 0x4A7 JUMP JUMPDEST PUSH3 0x4FC PUSH3 0x4F3 DUP3 PUSH3 0x4CF JUMP JUMPDEST DUP5 DUP5 SLOAD PUSH3 0x43D JUMP JUMPDEST DUP3 SSTORE POP POP POP POP JUMP JUMPDEST PUSH1 0x0 SWAP1 JUMP JUMPDEST PUSH3 0x513 PUSH3 0x504 JUMP JUMPDEST PUSH3 0x520 DUP2 DUP5 DUP5 PUSH3 0x4D9 JUMP JUMPDEST POP POP POP JUMP JUMPDEST JUMPDEST DUP2 DUP2 LT ISZERO PUSH3 0x548 JUMPI PUSH3 0x53C PUSH1 0x0 DUP3 PUSH3 0x509 JUMP JUMPDEST PUSH1 0x1 DUP2 ADD SWAP1 POP PUSH3 0x526 JUMP JUMPDEST POP POP JUMP JUMPDEST PUSH1 0x1F DUP3 GT ISZERO PUSH3 0x597 JUMPI PUSH3 0x561 DUP2 PUSH3 0x40B JUMP JUMPDEST PUSH3 0x56C DUP5 PUSH3 0x420 JUMP JUMPDEST DUP2 ADD PUSH1 0x20 DUP6 LT ISZERO PUSH3 0x57C JUMPI DUP2 SWAP1 POP JUMPDEST PUSH3 0x594 PUSH3 0x58B DUP6 PUSH3 0x420 JUMP JUMPDEST DUP4 ADD DUP3 PUSH3 0x525 JUMP JUMPDEST POP POP JUMPDEST POP POP POP JUMP JUMPDEST PUSH1 0x0 DUP3 DUP3 SHR SWAP1 POP SWAP3 SWAP2 POP POP JUMP JUMPDEST PUSH1 0x0 PUSH3 0x5BC PUSH1 0x0 NOT DUP5 PUSH1 0x8 MUL PUSH3 0x59C JUMP JUMPDEST NOT DUP1 DUP4 AND SWAP2 POP POP SWAP3 SWAP2 POP POP JUMP JUMPDEST PUSH1 0x0 PUSH3 0x5D7 DUP4 DUP4 PUSH3 0x5A9 JUMP JUMPDEST SWAP2 POP DUP3 PUSH1 0x2 MUL DUP3 OR SWAP1 POP SWAP3 SWAP2 POP POP JUMP JUMPDEST PUSH3 0x5F2 DUP3 PUSH3 0x36D JUMP JUMPDEST PUSH8 0xFFFFFFFFFFFFFFFF DUP2 GT ISZERO PUSH3 0x60E JUMPI PUSH3 0x60D PUSH3 0x378 JUMP JUMPDEST JUMPDEST PUSH3 0x61A DUP3 SLOAD PUSH3 0x3D6 JUMP JUMPDEST PUSH3 0x627 DUP3 DUP3 DUP6 PUSH3 0x54C JUMP JUMPDEST PUSH1 0x0 PUSH1 0x20 SWAP1 POP PUSH1 0x1F DUP4 GT PUSH1 0x1 DUP2 EQ PUSH3 0x65F JUMPI PUSH1 0x0 DUP5 ISZERO PUSH3 0x64A JUMPI DUP3 DUP8 ADD MLOAD SWAP1 POP JUMPDEST PUSH3 0x656 DUP6 DUP3 PUSH3 0x5C9 JUMP JUMPDEST DUP7 SSTORE POP PUSH3 0x6C6 JUMP JUMPDEST PUSH1 0x1F NOT DUP5 AND PUSH3 0x66F DUP7 PUSH3 0x40B JUMP JUMPDEST PUSH1 0x0 JUMPDEST DUP3 DUP2 LT ISZERO PUSH3 0x699 JUMPI DUP5 DUP10 ADD MLOAD DUP3 SSTORE PUSH1 0x1 DUP3 ADD SWAP2 POP PUSH1 0x20 DUP6 ADD SWAP5 POP PUSH1 0x20 DUP2 ADD SWAP1 POP PUSH3 0x672 JUMP JUMPDEST DUP7 DUP4 LT ISZERO PUSH3 0x6B9 JUMPI DUP5 DUP10 ADD MLOAD PUSH3 0x6B5 PUSH1 0x1F DUP10 AND DUP3 PUSH3 0x5A9 JUMP JUMPDEST DUP4 SSTORE POP JUMPDEST PUSH1 0x1 PUSH1 0x2 DUP9 MUL ADD DUP9 SSTORE POP POP POP JUMPDEST POP POP POP POP POP POP JUMP JUMPDEST PUSH1 0x0 DUP3 DUP3 MSTORE PUSH1 0x20 DUP3 ADD SWAP1 POP SWAP3 SWAP2 POP POP JUMP JUMPDEST PUSH32 0x43616E6E6F7420736574206F776E657220746F207A65726F0000000000000000 PUSH1 0x0 DUP3 ADD MSTORE POP JUMP JUMPDEST PUSH1 0x0 PUSH3 0x717 PUSH1 0x18 DUP4 PUSH3 0x6CE JUMP JUMPDEST SWAP2 POP PUSH3 0x724 DUP3 PUSH3 0x6DF JUMP JUMPDEST PUSH1 0x20 DUP3 ADD SWAP1 POP SWAP2 SWAP1 POP JUMP JUMPDEST PUSH1 0x0 PUSH1 0x20 DUP3 ADD SWAP1 POP DUP2 DUP2 SUB PUSH1 0x0 DUP4 ADD MSTORE PUSH3 0x74A DUP2 PUSH3 0x708 JUMP JUMPDEST SWAP1 POP SWAP2 SWAP1 POP JUMP JUMPDEST PUSH32 0x43616E6E6F74207472616E7366657220746F2073656C66000000000000000000 PUSH1 0x0 DUP3 ADD MSTORE POP JUMP JUMPDEST PUSH1 0x0 PUSH3 0x789 PUSH1 0x17 DUP4 PUSH3 0x6CE JUMP JUMPDEST SWAP2 POP PUSH3 0x796 DUP3 PUSH3 0x751 JUMP JUMPDEST PUSH1 0x20 DUP3 ADD SWAP1 POP SWAP2 SWAP1 POP JUMP JUMPDEST PUSH1 0x0 PUSH1 0x20 DUP3 ADD SWAP1 POP DUP2 DUP2 SUB PUSH1 0x0 DUP4 ADD MSTORE PUSH3 0x7BC DUP2 PUSH3 0x77A JUMP JUMPDEST SWAP1 POP SWAP2 SWAP1 POP JUMP JUMPDEST PUSH1 0x80 MLOAD PUSH2 0x26EA PUSH3 0x7E6 PUSH1 0x0 CODECOPY PUSH1 0x0 DUP2 DUP2 PUSH2 0x241 ADD MSTORE PUSH2 0xD78 ADD MSTORE PUSH2 0x26EA PUSH1 0x0 RETURN INVALID PUSH1 0x80 PUSH1 0x40 MSTORE CALLVALUE DUP1 ISZERO PUSH2 0x10 JUMPI PUSH1 0x0 DUP1 REVERT JUMPDEST POP PUSH1 0x4 CALLDATASIZE LT PUSH2 0xB4 JUMPI PUSH1 0x0 CALLDATALOAD PUSH1 0xE0 SHR DUP1 PUSH4 0x8DA5CB5B GT PUSH2 0x71 JUMPI DUP1 PUSH4 0x8DA5CB5B EQ PUSH2 0x169 JUMPI DUP1 PUSH4 0x92EE0334 EQ PUSH2 0x187 JUMPI DUP1 PUSH4 0xB1E21749 EQ PUSH2 0x1A5 JUMPI DUP1 PUSH4 0xB5EF7366 EQ PUSH2 0x1C3 JUMPI DUP1 PUSH4 0xD47875D0 EQ PUSH2 0x1F3 JUMPI DUP1 PUSH4 0xF2FDE38B EQ PUSH2 0x223 JUMPI PUSH2 0xB4 JUMP JUMPDEST DUP1 PUSH4 0xCA76175 EQ PUSH2 0xB9 JUMPI DUP1 PUSH4 0x18769B3B EQ PUSH2 0xD5 JUMPI DUP1 PUSH4 0x3944EA3A EQ PUSH2 0xF3 JUMPI DUP1 PUSH4 0x48A7D26D EQ PUSH2 0x111 JUMPI DUP1 PUSH4 0x4B0795A8 EQ PUSH2 0x141 JUMPI DUP1 PUSH4 0x79BA5097 EQ PUSH2 0x15F JUMPI JUMPDEST PUSH1 0x0 DUP1 REVERT JUMPDEST PUSH2 0xD3 PUSH1 0x4 DUP1 CALLDATASIZE SUB DUP2 ADD SWAP1 PUSH2 0xCE SWAP2 SWAP1 PUSH2 0x1873 JUMP JUMPDEST PUSH2 0x23F JUMP JUMPDEST STOP JUMPDEST PUSH2 0xDD PUSH2 0x301 JUMP JUMPDEST PUSH1 0x40 MLOAD PUSH2 0xEA SWAP2 SWAP1 PUSH2 0x1917 JUMP JUMPDEST PUSH1 0x40 MLOAD DUP1 SWAP2 SUB SWAP1 RETURN JUMPDEST PUSH2 0xFB PUSH2 0x307 JUMP JUMPDEST PUSH1 0x40 MLOAD PUSH2 0x108 SWAP2 SWAP1 PUSH2 0x19B1 JUMP JUMPDEST PUSH1 0x40 MLOAD DUP1 SWAP2 SUB SWAP1 RETURN JUMPDEST PUSH2 0x12B PUSH1 0x4 DUP1 CALLDATASIZE SUB DUP2 ADD SWAP1 PUSH2 0x126 SWAP2 SWAP1 PUSH2 0x1A73 JUMP JUMPDEST PUSH2 0x395 JUMP JUMPDEST PUSH1 0x40 MLOAD PUSH2 0x138 SWAP2 SWAP1 PUSH2 0x1AE2 JUMP JUMPDEST PUSH1 0x40 MLOAD DUP1 SWAP2 SUB SWAP1 RETURN JUMPDEST PUSH2 0x149 PUSH2 0x4E4 JUMP JUMPDEST PUSH1 0x40 MLOAD PUSH2 0x156 SWAP2 SWAP1 PUSH2 0x19B1 JUMP JUMPDEST PUSH1 0x40 MLOAD DUP1 SWAP2 SUB SWAP1 RETURN JUMPDEST PUSH2 0x167 PUSH2 0x572 JUMP JUMPDEST STOP JUMPDEST PUSH2 0x171 PUSH2 0x707 JUMP JUMPDEST PUSH1 0x40 MLOAD PUSH2 0x17E SWAP2 SWAP1 PUSH2 0x1B3E JUMP JUMPDEST PUSH1 0x40 MLOAD DUP1 SWAP2 SUB SWAP1 RETURN JUMPDEST PUSH2 0x18F PUSH2 0x730 JUMP JUMPDEST PUSH1 0x40 MLOAD PUSH2 0x19C SWAP2 SWAP1 PUSH2 0x1B3E JUMP JUMPDEST PUSH1 0x40 MLOAD DUP1 SWAP2 SUB SWAP1 RETURN JUMPDEST PUSH2 0x1AD PUSH2 0x756 JUMP JUMPDEST PUSH1 0x40 MLOAD PUSH2 0x1BA SWAP2 SWAP1 PUSH2 0x1AE2 JUMP JUMPDEST PUSH1 0x40 MLOAD DUP1 SWAP2 SUB SWAP1 RETURN JUMPDEST PUSH2 0x1DD PUSH1 0x4 DUP1 CALLDATASIZE SUB DUP2 ADD SWAP1 PUSH2 0x1D8 SWAP2 SWAP1 PUSH2 0x1B85 JUMP JUMPDEST PUSH2 0x75C JUMP JUMPDEST PUSH1 0x40 MLOAD PUSH2 0x1EA SWAP2 SWAP1 PUSH2 0x1917 JUMP JUMPDEST PUSH1 0x40 MLOAD DUP1 SWAP2 SUB SWAP1 RETURN JUMPDEST PUSH2 0x20D PUSH1 0x4 DUP1 CALLDATASIZE SUB DUP2 ADD SWAP1 PUSH2 0x208 SWAP2 SWAP1 PUSH2 0x1B85 JUMP JUMPDEST PUSH2 0x774 JUMP JUMPDEST PUSH1 0x40 MLOAD PUSH2 0x21A SWAP2 SWAP1 PUSH2 0x1917 JUMP JUMPDEST PUSH1 0x40 MLOAD DUP1 SWAP2 SUB SWAP1 RETURN JUMPDEST PUSH2 0x23D PUSH1 0x4 DUP1 CALLDATASIZE SUB DUP2 ADD SWAP1 PUSH2 0x238 SWAP2 SWAP1 PUSH2 0x1B85 JUMP JUMPDEST PUSH2 0x7BD JUMP JUMPDEST STOP JUMPDEST PUSH32 0x0 PUSH20 0xFFFFFFFFFFFFFFFFFFFFFFFFFFFFFFFFFFFFFFFF AND CALLER PUSH20 0xFFFFFFFFFFFFFFFFFFFFFFFFFFFFFFFFFFFFFFFF AND EQ PUSH2 0x2C4 JUMPI PUSH1 0x40 MLOAD PUSH32 0xC6829F8300000000000000000000000000000000000000000000000000000000 DUP2 MSTORE PUSH1 0x4 ADD PUSH1 0x40 MLOAD DUP1 SWAP2 SUB SWAP1 REVERT JUMPDEST PUSH2 0x2CF DUP4 DUP4 DUP4 PUSH2 0x7D1 JUMP JUMPDEST DUP3 PUSH32 0x85E1543BF2F84FE80C6BADBCE3648C8539AD1DF4D2B3D822938CA0538BE727E6 PUSH1 0x40 MLOAD PUSH1 0x40 MLOAD DUP1 SWAP2 SUB SWAP1 LOG2 POP POP POP JUMP JUMPDEST PUSH1 0x9 SLOAD DUP2 JUMP JUMPDEST PUSH1 0x3 DUP1 SLOAD PUSH2 0x314 SWAP1 PUSH2 0x1BE1 JUMP JUMPDEST DUP1 PUSH1 0x1F ADD PUSH1 0x20 DUP1 SWAP2 DIV MUL PUSH1 0x20 ADD PUSH1 0x40 MLOAD SWAP1 DUP2 ADD PUSH1 0x40 MSTORE DUP1 SWAP3 SWAP2 SWAP1 DUP2 DUP2 MSTORE PUSH1 0x20 ADD DUP3 DUP1 SLOAD PUSH2 0x340 SWAP1 PUSH2 0x1BE1 JUMP JUMPDEST DUP1 ISZERO PUSH2 0x38D JUMPI DUP1 PUSH1 0x1F LT PUSH2 0x362 JUMPI PUSH2 0x100 DUP1 DUP4 SLOAD DIV MUL DUP4 MSTORE SWAP2 PUSH1 0x20 ADD SWAP2 PUSH2 0x38D JUMP JUMPDEST DUP3 ADD SWAP2 SWAP1 PUSH1 0x0 MSTORE PUSH1 0x20 PUSH1 0x0 KECCAK256 SWAP1 JUMPDEST DUP2 SLOAD DUP2 MSTORE SWAP1 PUSH1 0x1 ADD SWAP1 PUSH1 0x20 ADD DUP1 DUP4 GT PUSH2 0x370 JUMPI DUP3 SWAP1 SUB PUSH1 0x1F AND DUP3 ADD SWAP2 JUMPDEST POP POP POP POP POP DUP2 JUMP JUMPDEST PUSH1 0x0 PUSH2 0x39F PUSH2 0x1637 JUMP JUMPDEST PUSH2 0x43C PUSH1 0x6 DUP1 SLOAD PUSH2 0x3AF SWAP1 PUSH2 0x1BE1 JUMP JUMPDEST DUP1 PUSH1 0x1F ADD PUSH1 0x20 DUP1 SWAP2 DIV MUL PUSH1 0x20 ADD PUSH1 0x40 MLOAD SWAP1 DUP2 ADD PUSH1 0x40 MSTORE DUP1 SWAP3 SWAP2 SWAP1 DUP2 DUP2 MSTORE PUSH1 0x20 ADD DUP3 DUP1 SLOAD PUSH2 0x3DB SWAP1 PUSH2 0x1BE1 JUMP JUMPDEST DUP1 ISZERO PUSH2 0x428 JUMPI DUP1 PUSH1 0x1F LT PUSH2 0x3FD JUMPI PUSH2 0x100 DUP1 DUP4 SLOAD DIV MUL DUP4 MSTORE SWAP2 PUSH1 0x20 ADD SWAP2 PUSH2 0x428 JUMP JUMPDEST DUP3 ADD SWAP2 SWAP1 PUSH1 0x0 MSTORE PUSH1 0x20 PUSH1 0x0 KECCAK256 SWAP1 JUMPDEST DUP2 SLOAD DUP2 MSTORE SWAP1 PUSH1 0x1 ADD SWAP1 PUSH1 0x20 ADD DUP1 DUP4 GT PUSH2 0x40B JUMPI DUP3 SWAP1 SUB PUSH1 0x1F AND DUP3 ADD SWAP2 JUMPDEST POP POP POP POP POP DUP3 PUSH2 0x8FE SWAP1 SWAP2 SWAP1 PUSH4 0xFFFFFFFF AND JUMP JUMPDEST PUSH1 0x0 DUP5 DUP5 SWAP1 POP GT ISZERO PUSH2 0x468 JUMPI PUSH2 0x467 DUP5 DUP5 SWAP1 PUSH2 0x458 SWAP2 SWAP1 PUSH2 0x1D66 JUMP JUMPDEST DUP3 PUSH2 0x90F SWAP1 SWAP2 SWAP1 PUSH4 0xFFFFFFFF AND JUMP JUMPDEST JUMPDEST PUSH2 0x490 PUSH2 0x474 DUP3 PUSH2 0x957 JUMP JUMPDEST DUP7 PUSH1 0x7 PUSH1 0x0 SWAP1 SLOAD SWAP1 PUSH2 0x100 EXP SWAP1 DIV PUSH4 0xFFFFFFFF AND PUSH1 0x8 SLOAD PUSH2 0xD73 JUMP JUMPDEST PUSH1 0x2 DUP2 SWAP1 SSTORE POP CALLER PUSH1 0xB PUSH1 0x0 PUSH2 0x100 EXP DUP2 SLOAD DUP2 PUSH20 0xFFFFFFFFFFFFFFFFFFFFFFFFFFFFFFFFFFFFFFFF MUL NOT AND SWAP1 DUP4 PUSH20 0xFFFFFFFFFFFFFFFFFFFFFFFFFFFFFFFFFFFFFFFF AND MUL OR SWAP1 SSTORE POP PUSH1 0x2 SLOAD SWAP2 POP POP SWAP4 SWAP3 POP POP POP JUMP JUMPDEST PUSH1 0x4 DUP1 SLOAD PUSH2 0x4F1 SWAP1 PUSH2 0x1BE1 JUMP JUMPDEST DUP1 PUSH1 0x1F ADD PUSH1 0x20 DUP1 SWAP2 DIV MUL PUSH1 0x20 ADD PUSH1 0x40 MLOAD SWAP1 DUP2 ADD PUSH1 0x40 MSTORE DUP1 SWAP3 SWAP2 SWAP1 DUP2 DUP2 MSTORE PUSH1 0x20 ADD DUP3 DUP1 SLOAD PUSH2 0x51D SWAP1 PUSH2 0x1BE1 JUMP JUMPDEST DUP1 ISZERO PUSH2 0x56A JUMPI DUP1 PUSH1 0x1F LT PUSH2 0x53F JUMPI PUSH2 0x100 DUP1 DUP4 SLOAD DIV MUL DUP4 MSTORE SWAP2 PUSH1 0x20 ADD SWAP2 PUSH2 0x56A JUMP JUMPDEST DUP3 ADD SWAP2 SWAP1 PUSH1 0x0 MSTORE PUSH1 0x20 PUSH1 0x0 KECCAK256 SWAP1 JUMPDEST DUP2 SLOAD DUP2 MSTORE SWAP1 PUSH1 0x1 ADD SWAP1 PUSH1 0x20 ADD DUP1 DUP4 GT PUSH2 0x54D JUMPI DUP3 SWAP1 SUB PUSH1 0x1F AND DUP3 ADD SWAP2 JUMPDEST POP POP POP POP POP DUP2 JUMP JUMPDEST PUSH1 0x1 PUSH1 0x0 SWAP1 SLOAD SWAP1 PUSH2 0x100 EXP SWAP1 DIV PUSH20 0xFFFFFFFFFFFFFFFFFFFFFFFFFFFFFFFFFFFFFFFF AND PUSH20 0xFFFFFFFFFFFFFFFFFFFFFFFFFFFFFFFFFFFFFFFF AND CALLER PUSH20 0xFFFFFFFFFFFFFFFFFFFFFFFFFFFFFFFFFFFFFFFF AND EQ PUSH2 0x602 JUMPI PUSH1 0x40 MLOAD PUSH32 0x8C379A000000000000000000000000000000000000000000000000000000000 DUP2 MSTORE PUSH1 0x4 ADD PUSH2 0x5F9 SWAP1 PUSH2 0x1DD8 JUMP JUMPDEST PUSH1 0x40 MLOAD DUP1 SWAP2 SUB SWAP1 REVERT JUMPDEST PUSH1 0x0 DUP1 PUSH1 0x0 SWAP1 SLOAD SWAP1 PUSH2 0x100 EXP SWAP1 DIV PUSH20 0xFFFFFFFFFFFFFFFFFFFFFFFFFFFFFFFFFFFFFFFF AND SWAP1 POP CALLER PUSH1 0x0 DUP1 PUSH2 0x100 EXP DUP2 SLOAD DUP2 PUSH20 0xFFFFFFFFFFFFFFFFFFFFFFFFFFFFFFFFFFFFFFFF MUL NOT AND SWAP1 DUP4 PUSH20 0xFFFFFFFFFFFFFFFFFFFFFFFFFFFFFFFFFFFFFFFF AND MUL OR SWAP1 SSTORE POP PUSH1 0x0 PUSH1 0x1 PUSH1 0x0 PUSH2 0x100 EXP DUP2 SLOAD DUP2 PUSH20 0xFFFFFFFFFFFFFFFFFFFFFFFFFFFFFFFFFFFFFFFF MUL NOT AND SWAP1 DUP4 PUSH20 0xFFFFFFFFFFFFFFFFFFFFFFFFFFFFFFFFFFFFFFFF AND MUL OR SWAP1 SSTORE POP CALLER PUSH20 0xFFFFFFFFFFFFFFFFFFFFFFFFFFFFFFFFFFFFFFFF AND DUP2 PUSH20 0xFFFFFFFFFFFFFFFFFFFFFFFFFFFFFFFFFFFFFFFF AND PUSH32 0x8BE0079C531659141344CD1FD0A4F28419497F9722A3DAAFE3B4186F6B6457E0 PUSH1 0x40 MLOAD PUSH1 0x40 MLOAD DUP1 SWAP2 SUB SWAP1 LOG3 POP JUMP JUMPDEST PUSH1 0x0 DUP1 PUSH1 0x0 SWAP1 SLOAD SWAP1 PUSH2 0x100 EXP SWAP1 DIV PUSH20 0xFFFFFFFFFFFFFFFFFFFFFFFFFFFFFFFFFFFFFFFF AND SWAP1 POP SWAP1 JUMP JUMPDEST PUSH1 0xB PUSH1 0x0 SWAP1 SLOAD SWAP1 PUSH2 0x100 EXP SWAP1 DIV PUSH20 0xFFFFFFFFFFFFFFFFFFFFFFFFFFFFFFFFFFFFFFFF AND DUP2 JUMP JUMPDEST PUSH1 0x2 SLOAD DUP2 JUMP JUMPDEST PUSH1 0xA PUSH1 0x20 MSTORE DUP1 PUSH1 0x0 MSTORE PUSH1 0x40 PUSH1 0x0 KECCAK256 PUSH1 0x0 SWAP2 POP SWAP1 POP SLOAD DUP2 JUMP JUMPDEST PUSH1 0x0 PUSH1 0xA PUSH1 0x0 DUP4 PUSH20 0xFFFFFFFFFFFFFFFFFFFFFFFFFFFFFFFFFFFFFFFF AND PUSH20 0xFFFFFFFFFFFFFFFFFFFFFFFFFFFFFFFFFFFFFFFF AND DUP2 MSTORE PUSH1 0x20 ADD SWAP1 DUP2 MSTORE PUSH1 0x20 ADD PUSH1 0x0 KECCAK256 SLOAD SWAP1 POP SWAP2 SWAP1 POP JUMP JUMPDEST PUSH2 0x7C5 PUSH2 0xE56 JUMP JUMPDEST PUSH2 0x7CE DUP2 PUSH2 0xEE6 JUMP JUMPDEST POP JUMP JUMPDEST DUP3 PUSH1 0x2 SLOAD EQ PUSH2 0x817 JUMPI DUP3 PUSH1 0x40 MLOAD PUSH32 0xD068BF5B00000000000000000000000000000000000000000000000000000000 DUP2 MSTORE PUSH1 0x4 ADD PUSH2 0x80E SWAP2 SWAP1 PUSH2 0x1AE2 JUMP JUMPDEST PUSH1 0x40 MLOAD DUP1 SWAP2 SUB SWAP1 REVERT JUMPDEST DUP2 PUSH1 0x3 SWAP1 DUP2 PUSH2 0x826 SWAP2 SWAP1 PUSH2 0x1FA4 JUMP JUMPDEST POP DUP2 DUP1 PUSH1 0x20 ADD SWAP1 MLOAD DUP2 ADD SWAP1 PUSH2 0x83B SWAP2 SWAP1 PUSH2 0x20A2 JUMP JUMPDEST PUSH1 0x9 DUP2 SWAP1 SSTORE POP PUSH1 0x9 SLOAD PUSH1 0xA PUSH1 0x0 PUSH1 0xB PUSH1 0x0 SWAP1 SLOAD SWAP1 PUSH2 0x100 EXP SWAP1 DIV PUSH20 0xFFFFFFFFFFFFFFFFFFFFFFFFFFFFFFFFFFFFFFFF AND PUSH20 0xFFFFFFFFFFFFFFFFFFFFFFFFFFFFFFFFFFFFFFFF AND PUSH20 0xFFFFFFFFFFFFFFFFFFFFFFFFFFFFFFFFFFFFFFFF AND DUP2 MSTORE PUSH1 0x20 ADD SWAP1 DUP2 MSTORE PUSH1 0x20 ADD PUSH1 0x0 KECCAK256 DUP2 SWAP1 SSTORE POP DUP1 PUSH1 0x4 SWAP1 DUP2 PUSH2 0x8B8 SWAP2 SWAP1 PUSH2 0x1FA4 JUMP JUMPDEST POP DUP3 PUSH32 0xFC03B1503ACD478FAF9C08107596F6D5C04B4591FEA84F8D6F21BDF613B5370E PUSH1 0x9 SLOAD PUSH1 0x3 PUSH1 0x4 PUSH1 0x40 MLOAD PUSH2 0x8F1 SWAP4 SWAP3 SWAP2 SWAP1 PUSH2 0x2153 JUMP JUMPDEST PUSH1 0x40 MLOAD DUP1 SWAP2 SUB SWAP1 LOG2 POP POP POP JUMP JUMPDEST PUSH2 0x90B DUP3 PUSH1 0x0 DUP1 DUP5 PUSH2 0x1012 JUMP JUMPDEST POP POP JUMP JUMPDEST PUSH1 0x0 DUP2 MLOAD SUB PUSH2 0x94A JUMPI PUSH1 0x40 MLOAD PUSH32 0xFE936CB700000000000000000000000000000000000000000000000000000000 DUP2 MSTORE PUSH1 0x4 ADD PUSH1 0x40 MLOAD DUP1 SWAP2 SUB SWAP1 REVERT JUMPDEST DUP1 DUP3 PUSH1 0xA0 ADD DUP2 SWAP1 MSTORE POP POP POP JUMP JUMPDEST PUSH1 0x60 PUSH1 0x0 PUSH2 0x966 PUSH2 0x100 PUSH2 0x10BC JUMP JUMPDEST SWAP1 POP PUSH2 0x9B0 PUSH1 0x40 MLOAD DUP1 PUSH1 0x40 ADD PUSH1 0x40 MSTORE DUP1 PUSH1 0xC DUP2 MSTORE PUSH1 0x20 ADD PUSH32 0x636F64654C6F636174696F6E0000000000000000000000000000000000000000 DUP2 MSTORE POP DUP3 PUSH2 0x10E3 SWAP1 SWAP2 SWAP1 PUSH4 0xFFFFFFFF AND JUMP JUMPDEST PUSH2 0x9D9 DUP4 PUSH1 0x0 ADD MLOAD PUSH1 0x2 DUP2 GT ISZERO PUSH2 0x9CA JUMPI PUSH2 0x9C9 PUSH2 0x2198 JUMP JUMPDEST JUMPDEST DUP3 PUSH2 0x110C SWAP1 SWAP2 SWAP1 PUSH4 0xFFFFFFFF AND JUMP JUMPDEST PUSH2 0xA21 PUSH1 0x40 MLOAD DUP1 PUSH1 0x40 ADD PUSH1 0x40 MSTORE DUP1 PUSH1 0x8 DUP2 MSTORE PUSH1 0x20 ADD PUSH32 0x6C616E6775616765000000000000000000000000000000000000000000000000 DUP2 MSTORE POP DUP3 PUSH2 0x10E3 SWAP1 SWAP2 SWAP1 PUSH4 0xFFFFFFFF AND JUMP JUMPDEST PUSH2 0xA4A DUP4 PUSH1 0x40 ADD MLOAD PUSH1 0x0 DUP2 GT ISZERO PUSH2 0xA3B JUMPI PUSH2 0xA3A PUSH2 0x2198 JUMP JUMPDEST JUMPDEST DUP3 PUSH2 0x110C SWAP1 SWAP2 SWAP1 PUSH4 0xFFFFFFFF AND JUMP JUMPDEST PUSH2 0xA92 PUSH1 0x40 MLOAD DUP1 PUSH1 0x40 ADD PUSH1 0x40 MSTORE DUP1 PUSH1 0x6 DUP2 MSTORE PUSH1 0x20 ADD PUSH32 0x736F757263650000000000000000000000000000000000000000000000000000 DUP2 MSTORE POP DUP3 PUSH2 0x10E3 SWAP1 SWAP2 SWAP1 PUSH4 0xFFFFFFFF AND JUMP JUMPDEST PUSH2 0xAA9 DUP4 PUSH1 0x60 ADD MLOAD DUP3 PUSH2 0x10E3 SWAP1 SWAP2 SWAP1 PUSH4 0xFFFFFFFF AND JUMP JUMPDEST PUSH1 0x0 DUP4 PUSH1 0xA0 ADD MLOAD MLOAD GT ISZERO PUSH2 0xB65 JUMPI PUSH2 0xAFF PUSH1 0x40 MLOAD DUP1 PUSH1 0x40 ADD PUSH1 0x40 MSTORE DUP1 PUSH1 0x4 DUP2 MSTORE PUSH1 0x20 ADD PUSH32 0x6172677300000000000000000000000000000000000000000000000000000000 DUP2 MSTORE POP DUP3 PUSH2 0x10E3 SWAP1 SWAP2 SWAP1 PUSH4 0xFFFFFFFF AND JUMP JUMPDEST PUSH2 0xB08 DUP2 PUSH2 0x115C JUMP JUMPDEST PUSH1 0x0 JUMPDEST DUP4 PUSH1 0xA0 ADD MLOAD MLOAD DUP2 LT ISZERO PUSH2 0xB5A JUMPI PUSH2 0xB49 DUP5 PUSH1 0xA0 ADD MLOAD DUP3 DUP2 MLOAD DUP2 LT PUSH2 0xB32 JUMPI PUSH2 0xB31 PUSH2 0x21C7 JUMP JUMPDEST JUMPDEST PUSH1 0x20 MUL PUSH1 0x20 ADD ADD MLOAD DUP4 PUSH2 0x10E3 SWAP1 SWAP2 SWAP1 PUSH4 0xFFFFFFFF AND JUMP JUMPDEST DUP1 PUSH2 0xB53 SWAP1 PUSH2 0x2225 JUMP JUMPDEST SWAP1 POP PUSH2 0xB0B JUMP JUMPDEST POP PUSH2 0xB64 DUP2 PUSH2 0x1184 JUMP JUMPDEST JUMPDEST PUSH1 0x0 DUP4 PUSH1 0x80 ADD MLOAD MLOAD GT ISZERO PUSH2 0xCA6 JUMPI PUSH1 0x0 PUSH1 0x2 DUP2 GT ISZERO PUSH2 0xB87 JUMPI PUSH2 0xB86 PUSH2 0x2198 JUMP JUMPDEST JUMPDEST DUP4 PUSH1 0x20 ADD MLOAD PUSH1 0x2 DUP2 GT ISZERO PUSH2 0xB9E JUMPI PUSH2 0xB9D PUSH2 0x2198 JUMP JUMPDEST JUMPDEST SUB PUSH2 0xBD5 JUMPI PUSH1 0x40 MLOAD PUSH32 0xA80D31F700000000000000000000000000000000000000000000000000000000 DUP2 MSTORE PUSH1 0x4 ADD PUSH1 0x40 MLOAD DUP1 SWAP2 SUB SWAP1 REVERT JUMPDEST PUSH2 0xC1D PUSH1 0x40 MLOAD DUP1 PUSH1 0x40 ADD PUSH1 0x40 MSTORE DUP1 PUSH1 0xF DUP2 MSTORE PUSH1 0x20 ADD PUSH32 0x736563726574734C6F636174696F6E0000000000000000000000000000000000 DUP2 MSTORE POP DUP3 PUSH2 0x10E3 SWAP1 SWAP2 SWAP1 PUSH4 0xFFFFFFFF AND JUMP JUMPDEST PUSH2 0xC46 DUP4 PUSH1 0x20 ADD MLOAD PUSH1 0x2 DUP2 GT ISZERO PUSH2 0xC37 JUMPI PUSH2 0xC36 PUSH2 0x2198 JUMP JUMPDEST JUMPDEST DUP3 PUSH2 0x110C SWAP1 SWAP2 SWAP1 PUSH4 0xFFFFFFFF AND JUMP JUMPDEST PUSH2 0xC8E PUSH1 0x40 MLOAD DUP1 PUSH1 0x40 ADD PUSH1 0x40 MSTORE DUP1 PUSH1 0x7 DUP2 MSTORE PUSH1 0x20 ADD PUSH32 0x7365637265747300000000000000000000000000000000000000000000000000 DUP2 MSTORE POP DUP3 PUSH2 0x10E3 SWAP1 SWAP2 SWAP1 PUSH4 0xFFFFFFFF AND JUMP JUMPDEST PUSH2 0xCA5 DUP4 PUSH1 0x80 ADD MLOAD DUP3 PUSH2 0x11AC SWAP1 SWAP2 SWAP1 PUSH4 0xFFFFFFFF AND JUMP JUMPDEST JUMPDEST PUSH1 0x0 DUP4 PUSH1 0xC0 ADD MLOAD MLOAD GT ISZERO PUSH2 0xD62 JUMPI PUSH2 0xCFC PUSH1 0x40 MLOAD DUP1 PUSH1 0x40 ADD PUSH1 0x40 MSTORE DUP1 PUSH1 0x9 DUP2 MSTORE PUSH1 0x20 ADD PUSH32 0x6279746573417267730000000000000000000000000000000000000000000000 DUP2 MSTORE POP DUP3 PUSH2 0x10E3 SWAP1 SWAP2 SWAP1 PUSH4 0xFFFFFFFF AND JUMP JUMPDEST PUSH2 0xD05 DUP2 PUSH2 0x115C JUMP JUMPDEST PUSH1 0x0 JUMPDEST DUP4 PUSH1 0xC0 ADD MLOAD MLOAD DUP2 LT ISZERO PUSH2 0xD57 JUMPI PUSH2 0xD46 DUP5 PUSH1 0xC0 ADD MLOAD DUP3 DUP2 MLOAD DUP2 LT PUSH2 0xD2F JUMPI PUSH2 0xD2E PUSH2 0x21C7 JUMP JUMPDEST JUMPDEST PUSH1 0x20 MUL PUSH1 0x20 ADD ADD MLOAD DUP4 PUSH2 0x11AC SWAP1 SWAP2 SWAP1 PUSH4 0xFFFFFFFF AND JUMP JUMPDEST DUP1 PUSH2 0xD50 SWAP1 PUSH2 0x2225 JUMP JUMPDEST SWAP1 POP PUSH2 0xD08 JUMP JUMPDEST POP PUSH2 0xD61 DUP2 PUSH2 0x1184 JUMP JUMPDEST JUMPDEST DUP1 PUSH1 0x0 ADD MLOAD PUSH1 0x0 ADD MLOAD SWAP2 POP POP SWAP2 SWAP1 POP JUMP JUMPDEST PUSH1 0x0 DUP1 PUSH32 0x0 PUSH20 0xFFFFFFFFFFFFFFFFFFFFFFFFFFFFFFFFFFFFFFFF AND PUSH4 0x461D2762 DUP7 DUP9 PUSH1 0x1 DUP9 DUP9 PUSH1 0x40 MLOAD DUP7 PUSH4 0xFFFFFFFF AND PUSH1 0xE0 SHL DUP2 MSTORE PUSH1 0x4 ADD PUSH2 0xDD8 SWAP6 SWAP5 SWAP4 SWAP3 SWAP2 SWAP1 PUSH2 0x22B8 JUMP JUMPDEST PUSH1 0x20 PUSH1 0x40 MLOAD DUP1 DUP4 SUB DUP2 PUSH1 0x0 DUP8 GAS CALL ISZERO DUP1 ISZERO PUSH2 0xDF7 JUMPI RETURNDATASIZE PUSH1 0x0 DUP1 RETURNDATACOPY RETURNDATASIZE PUSH1 0x0 REVERT JUMPDEST POP POP POP POP PUSH1 0x40 MLOAD RETURNDATASIZE PUSH1 0x1F NOT PUSH1 0x1F DUP3 ADD AND DUP3 ADD DUP1 PUSH1 0x40 MSTORE POP DUP2 ADD SWAP1 PUSH2 0xE1B SWAP2 SWAP1 PUSH2 0x2327 JUMP JUMPDEST SWAP1 POP DUP1 PUSH32 0x1131472297A800FEE664D1D89CFA8F7676FF07189ECC53F80BBB5F4969099DB8 PUSH1 0x40 MLOAD PUSH1 0x40 MLOAD DUP1 SWAP2 SUB SWAP1 LOG2 DUP1 SWAP2 POP POP SWAP5 SWAP4 POP POP POP POP JUMP JUMPDEST PUSH1 0x0 DUP1 SLOAD SWAP1 PUSH2 0x100 EXP SWAP1 DIV PUSH20 0xFFFFFFFFFFFFFFFFFFFFFFFFFFFFFFFFFFFFFFFF AND PUSH20 0xFFFFFFFFFFFFFFFFFFFFFFFFFFFFFFFFFFFFFFFF AND CALLER PUSH20 0xFFFFFFFFFFFFFFFFFFFFFFFFFFFFFFFFFFFFFFFF AND EQ PUSH2 0xEE4 JUMPI PUSH1 0x40 MLOAD PUSH32 0x8C379A000000000000000000000000000000000000000000000000000000000 DUP2 MSTORE PUSH1 0x4 ADD PUSH2 0xEDB SWAP1 PUSH2 0x23A0 JUMP JUMPDEST PUSH1 0x40 MLOAD DUP1 SWAP2 SUB SWAP1 REVERT JUMPDEST JUMP JUMPDEST CALLER PUSH20 0xFFFFFFFFFFFFFFFFFFFFFFFFFFFFFFFFFFFFFFFF AND DUP2 PUSH20 0xFFFFFFFFFFFFFFFFFFFFFFFFFFFFFFFFFFFFFFFF AND SUB PUSH2 0xF54 JUMPI PUSH1 0x40 MLOAD PUSH32 0x8C379A000000000000000000000000000000000000000000000000000000000 DUP2 MSTORE PUSH1 0x4 ADD PUSH2 0xF4B SWAP1 PUSH2 0x240C JUMP JUMPDEST PUSH1 0x40 MLOAD DUP1 SWAP2 SUB SWAP1 REVERT JUMPDEST DUP1 PUSH1 0x1 PUSH1 0x0 PUSH2 0x100 EXP DUP2 SLOAD DUP2 PUSH20 0xFFFFFFFFFFFFFFFFFFFFFFFFFFFFFFFFFFFFFFFF MUL NOT AND SWAP1 DUP4 PUSH20 0xFFFFFFFFFFFFFFFFFFFFFFFFFFFFFFFFFFFFFFFF AND MUL OR SWAP1 SSTORE POP DUP1 PUSH20 0xFFFFFFFFFFFFFFFFFFFFFFFFFFFFFFFFFFFFFFFF AND PUSH1 0x0 DUP1 SLOAD SWAP1 PUSH2 0x100 EXP SWAP1 DIV PUSH20 0xFFFFFFFFFFFFFFFFFFFFFFFFFFFFFFFFFFFFFFFF AND PUSH20 0xFFFFFFFFFFFFFFFFFFFFFFFFFFFFFFFFFFFFFFFF AND PUSH32 0xED8889F560326EB138920D842192F0EB3DD22B4F139C87A2C57538E05BAE1278 PUSH1 0x40 MLOAD PUSH1 0x40 MLOAD DUP1 SWAP2 SUB SWAP1 LOG3 POP JUMP JUMPDEST PUSH1 0x0 DUP2 MLOAD SUB PUSH2 0x104D JUMPI PUSH1 0x40 MLOAD PUSH32 0x22CE3EDD00000000000000000000000000000000000000000000000000000000 DUP2 MSTORE PUSH1 0x4 ADD PUSH1 0x40 MLOAD DUP1 SWAP2 SUB SWAP1 REVERT JUMPDEST DUP3 DUP5 PUSH1 0x0 ADD SWAP1 PUSH1 0x2 DUP2 GT ISZERO PUSH2 0x1065 JUMPI PUSH2 0x1064 PUSH2 0x2198 JUMP JUMPDEST JUMPDEST SWAP1 DUP2 PUSH1 0x2 DUP2 GT ISZERO PUSH2 0x1079 JUMPI PUSH2 0x1078 PUSH2 0x2198 JUMP JUMPDEST JUMPDEST DUP2 MSTORE POP POP DUP2 DUP5 PUSH1 0x40 ADD SWAP1 PUSH1 0x0 DUP2 GT ISZERO PUSH2 0x1095 JUMPI PUSH2 0x1094 PUSH2 0x2198 JUMP JUMPDEST JUMPDEST SWAP1 DUP2 PUSH1 0x0 DUP2 GT ISZERO PUSH2 0x10A9 JUMPI PUSH2 0x10A8 PUSH2 0x2198 JUMP JUMPDEST JUMPDEST DUP2 MSTORE POP POP DUP1 DUP5 PUSH1 0x60 ADD DUP2 SWAP1 MSTORE POP POP POP POP POP JUMP JUMPDEST PUSH2 0x10C4 PUSH2 0x16A9 JUMP JUMPDEST PUSH2 0x10D2 DUP2 PUSH1 0x0 ADD MLOAD DUP4 PUSH2 0x11D5 JUMP JUMPDEST POP PUSH1 0x0 DUP2 PUSH1 0x20 ADD DUP2 DUP2 MSTORE POP POP SWAP2 SWAP1 POP JUMP JUMPDEST PUSH2 0x10F0 DUP3 PUSH1 0x3 DUP4 MLOAD PUSH2 0x124E JUMP JUMPDEST PUSH2 0x1107 DUP2 DUP4 PUSH1 0x0 ADD MLOAD PUSH2 0x13F7 SWAP1 SWAP2 SWAP1 PUSH4 0xFFFFFFFF AND JUMP JUMPDEST POP POP POP JUMP JUMPDEST PUSH2 0x112E PUSH1 0x2 PUSH1 0x5 PUSH1 0x6 PUSH1 0xFF AND SWAP1 SHL OR DUP4 PUSH1 0x0 ADD MLOAD PUSH2 0x1413 SWAP1 SWAP2 SWAP1 PUSH4 0xFFFFFFFF AND JUMP JUMPDEST POP PUSH2 0x1158 DUP3 DUP3 PUSH1 0x40 MLOAD PUSH1 0x20 ADD PUSH2 0x1144 SWAP2 SWAP1 PUSH2 0x1917 JUMP JUMPDEST PUSH1 0x40 MLOAD PUSH1 0x20 DUP2 DUP4 SUB SUB DUP2 MSTORE SWAP1 PUSH1 0x40 MSTORE PUSH2 0x11AC JUMP JUMPDEST POP POP JUMP JUMPDEST PUSH2 0x1167 DUP2 PUSH1 0x4 PUSH2 0x147D JUMP JUMPDEST PUSH1 0x1 DUP2 PUSH1 0x20 ADD DUP2 DUP2 MLOAD PUSH2 0x117A SWAP2 SWAP1 PUSH2 0x242C JUMP JUMPDEST SWAP2 POP DUP2 DUP2 MSTORE POP POP POP JUMP JUMPDEST PUSH2 0x118F DUP2 PUSH1 0x7 PUSH2 0x147D JUMP JUMPDEST PUSH1 0x1 DUP2 PUSH1 0x20 ADD DUP2 DUP2 MLOAD PUSH2 0x11A2 SWAP2 SWAP1 PUSH2 0x2460 JUMP JUMPDEST SWAP2 POP DUP2 DUP2 MSTORE POP POP POP JUMP JUMPDEST PUSH2 0x11B9 DUP3 PUSH1 0x2 DUP4 MLOAD PUSH2 0x124E JUMP JUMPDEST PUSH2 0x11D0 DUP2 DUP4 PUSH1 0x0 ADD MLOAD PUSH2 0x13F7 SWAP1 SWAP2 SWAP1 PUSH4 0xFFFFFFFF AND JUMP JUMPDEST POP POP POP JUMP JUMPDEST PUSH2 0x11DD PUSH2 0x16C9 JUMP JUMPDEST PUSH1 0x0 PUSH1 0x20 DUP4 PUSH2 0x11EC SWAP2 SWAP1 PUSH2 0x24C3 JUMP JUMPDEST EQ PUSH2 0x1218 JUMPI PUSH1 0x20 DUP3 PUSH2 0x11FE SWAP2 SWAP1 PUSH2 0x24C3 JUMP JUMPDEST PUSH1 0x20 PUSH2 0x120A SWAP2 SWAP1 PUSH2 0x2460 JUMP JUMPDEST DUP3 PUSH2 0x1215 SWAP2 SWAP1 PUSH2 0x242C JUMP JUMPDEST SWAP2 POP JUMPDEST DUP2 DUP4 PUSH1 0x20 ADD DUP2 DUP2 MSTORE POP POP PUSH1 0x40 MLOAD DUP1 DUP5 MSTORE PUSH1 0x0 DUP2 MSTORE DUP3 DUP2 ADD PUSH1 0x20 ADD DUP2 DUP2 LT ISZERO PUSH2 0x123F JUMPI PUSH1 0x0 DUP1 REVERT JUMPDEST DUP1 PUSH1 0x40 MSTORE POP POP DUP3 SWAP1 POP SWAP3 SWAP2 POP POP JUMP JUMPDEST PUSH1 0x17 DUP2 PUSH8 0xFFFFFFFFFFFFFFFF AND GT PUSH2 0x1289 JUMPI PUSH2 0x1283 DUP2 PUSH1 0x5 DUP5 PUSH1 0xFF AND SWAP1 SHL PUSH1 0xFF AND OR DUP5 PUSH1 0x0 ADD MLOAD PUSH2 0x1413 SWAP1 SWAP2 SWAP1 PUSH4 0xFFFFFFFF AND JUMP JUMPDEST POP PUSH2 0x13F2 JUMP JUMPDEST PUSH1 0xFF DUP2 PUSH8 0xFFFFFFFFFFFFFFFF AND GT PUSH2 0x12E7 JUMPI PUSH2 0x12BC PUSH1 0x18 PUSH1 0x5 DUP5 PUSH1 0xFF AND SWAP1 SHL OR DUP5 PUSH1 0x0 ADD MLOAD PUSH2 0x1413 SWAP1 SWAP2 SWAP1 PUSH4 0xFFFFFFFF AND JUMP JUMPDEST POP PUSH2 0x12E1 DUP2 PUSH8 0xFFFFFFFFFFFFFFFF AND PUSH1 0x1 DUP6 PUSH1 0x0 ADD MLOAD PUSH2 0x14A3 SWAP1 SWAP3 SWAP2 SWAP1 PUSH4 0xFFFFFFFF AND JUMP JUMPDEST POP PUSH2 0x13F1 JUMP JUMPDEST PUSH2 0xFFFF DUP2 PUSH8 0xFFFFFFFFFFFFFFFF AND GT PUSH2 0x1346 JUMPI PUSH2 0x131B PUSH1 0x19 PUSH1 0x5 DUP5 PUSH1 0xFF AND SWAP1 SHL OR DUP5 PUSH1 0x0 ADD MLOAD PUSH2 0x1413 SWAP1 SWAP2 SWAP1 PUSH4 0xFFFFFFFF AND JUMP JUMPDEST POP PUSH2 0x1340 DUP2 PUSH8 0xFFFFFFFFFFFFFFFF AND PUSH1 0x2 DUP6 PUSH1 0x0 ADD MLOAD PUSH2 0x14A3 SWAP1 SWAP3 SWAP2 SWAP1 PUSH4 0xFFFFFFFF AND JUMP JUMPDEST POP PUSH2 0x13F0 JUMP JUMPDEST PUSH4 0xFFFFFFFF DUP2 PUSH8 0xFFFFFFFFFFFFFFFF AND GT PUSH2 0x13A7 JUMPI PUSH2 0x137C PUSH1 0x1A PUSH1 0x5 DUP5 PUSH1 0xFF AND SWAP1 SHL OR DUP5 PUSH1 0x0 ADD MLOAD PUSH2 0x1413 SWAP1 SWAP2 SWAP1 PUSH4 0xFFFFFFFF AND JUMP JUMPDEST POP PUSH2 0x13A1 DUP2 PUSH8 0xFFFFFFFFFFFFFFFF AND PUSH1 0x4 DUP6 PUSH1 0x0 ADD MLOAD PUSH2 0x14A3 SWAP1 SWAP3 SWAP2 SWAP1 PUSH4 0xFFFFFFFF AND JUMP JUMPDEST POP PUSH2 0x13EF JUMP JUMPDEST PUSH2 0x13C8 PUSH1 0x1B PUSH1 0x5 DUP5 PUSH1 0xFF AND SWAP1 SHL OR DUP5 PUSH1 0x0 ADD MLOAD PUSH2 0x1413 SWAP1 SWAP2 SWAP1 PUSH4 0xFFFFFFFF AND JUMP JUMPDEST POP PUSH2 0x13ED DUP2 PUSH8 0xFFFFFFFFFFFFFFFF AND PUSH1 0x8 DUP6 PUSH1 0x0 ADD MLOAD PUSH2 0x14A3 SWAP1 SWAP3 SWAP2 SWAP1 PUSH4 0xFFFFFFFF AND JUMP JUMPDEST POP JUMPDEST JUMPDEST JUMPDEST JUMPDEST POP POP POP JUMP JUMPDEST PUSH2 0x13FF PUSH2 0x16C9 JUMP JUMPDEST PUSH2 0x140B DUP4 DUP4 DUP5 MLOAD PUSH2 0x1530 JUMP JUMPDEST SWAP1 POP SWAP3 SWAP2 POP POP JUMP JUMPDEST PUSH2 0x141B PUSH2 0x16C9 JUMP JUMPDEST PUSH1 0x0 DUP4 PUSH1 0x0 ADD MLOAD MLOAD SWAP1 POP PUSH1 0x0 PUSH1 0x1 DUP3 PUSH2 0x1434 SWAP2 SWAP1 PUSH2 0x242C JUMP JUMPDEST SWAP1 POP DUP5 PUSH1 0x20 ADD MLOAD DUP3 LT PUSH2 0x1458 JUMPI PUSH2 0x1457 DUP6 PUSH1 0x2 DUP4 PUSH2 0x1452 SWAP2 SWAP1 PUSH2 0x24F4 JUMP JUMPDEST PUSH2 0x1613 JUMP JUMPDEST JUMPDEST DUP5 MLOAD PUSH1 0x20 DUP4 DUP3 ADD ADD DUP6 DUP2 MSTORE8 DUP2 MLOAD DUP4 GT ISZERO PUSH2 0x1470 JUMPI DUP3 DUP3 MSTORE JUMPDEST POP POP DUP5 SWAP3 POP POP POP SWAP3 SWAP2 POP POP JUMP JUMPDEST PUSH2 0x149E PUSH1 0x1F PUSH1 0x5 DUP4 PUSH1 0xFF AND SWAP1 SHL OR DUP4 PUSH1 0x0 ADD MLOAD PUSH2 0x1413 SWAP1 SWAP2 SWAP1 PUSH4 0xFFFFFFFF AND JUMP JUMPDEST POP POP POP JUMP JUMPDEST PUSH2 0x14AB PUSH2 0x16C9 JUMP JUMPDEST PUSH1 0x0 DUP5 PUSH1 0x0 ADD MLOAD MLOAD SWAP1 POP PUSH1 0x0 DUP2 DUP5 PUSH2 0x14C3 SWAP2 SWAP1 PUSH2 0x242C JUMP JUMPDEST SWAP1 POP DUP6 PUSH1 0x20 ADD MLOAD DUP2 GT ISZERO PUSH2 0x14E8 JUMPI PUSH2 0x14E7 DUP7 PUSH1 0x2 DUP4 PUSH2 0x14E2 SWAP2 SWAP1 PUSH2 0x24F4 JUMP JUMPDEST PUSH2 0x1613 JUMP JUMPDEST JUMPDEST PUSH1 0x0 PUSH1 0x1 DUP6 PUSH2 0x100 PUSH2 0x14FA SWAP2 SWAP1 PUSH2 0x2669 JUMP JUMPDEST PUSH2 0x1504 SWAP2 SWAP1 PUSH2 0x2460 JUMP JUMPDEST SWAP1 POP DUP7 MLOAD DUP3 DUP2 ADD DUP8 DUP4 NOT DUP3 MLOAD AND OR DUP2 MSTORE DUP2 MLOAD DUP5 GT ISZERO PUSH2 0x1521 JUMPI DUP4 DUP3 MSTORE JUMPDEST POP POP DUP7 SWAP4 POP POP POP POP SWAP4 SWAP3 POP POP POP JUMP JUMPDEST PUSH2 0x1538 PUSH2 0x16C9 JUMP JUMPDEST DUP3 MLOAD DUP3 GT ISZERO PUSH2 0x1546 JUMPI PUSH1 0x0 DUP1 REVERT JUMPDEST PUSH1 0x0 DUP5 PUSH1 0x0 ADD MLOAD MLOAD SWAP1 POP PUSH1 0x0 DUP4 DUP3 PUSH2 0x155E SWAP2 SWAP1 PUSH2 0x242C JUMP JUMPDEST SWAP1 POP DUP6 PUSH1 0x20 ADD MLOAD DUP2 GT ISZERO PUSH2 0x1583 JUMPI PUSH2 0x1582 DUP7 PUSH1 0x2 DUP4 PUSH2 0x157D SWAP2 SWAP1 PUSH2 0x24F4 JUMP JUMPDEST PUSH2 0x1613 JUMP JUMPDEST JUMPDEST PUSH1 0x0 DUP1 DUP8 MLOAD DUP1 MLOAD DUP6 PUSH1 0x20 DUP4 ADD ADD SWAP4 POP DUP1 DUP6 GT ISZERO PUSH2 0x159E JUMPI DUP5 DUP3 MSTORE JUMPDEST PUSH1 0x20 DUP10 ADD SWAP3 POP POP POP JUMPDEST PUSH1 0x20 DUP7 LT PUSH2 0x15E5 JUMPI DUP1 MLOAD DUP3 MSTORE PUSH1 0x20 DUP3 PUSH2 0x15C0 SWAP2 SWAP1 PUSH2 0x242C JUMP JUMPDEST SWAP2 POP PUSH1 0x20 DUP2 PUSH2 0x15CF SWAP2 SWAP1 PUSH2 0x242C JUMP JUMPDEST SWAP1 POP PUSH1 0x20 DUP7 PUSH2 0x15DE SWAP2 SWAP1 PUSH2 0x2460 JUMP JUMPDEST SWAP6 POP PUSH2 0x15A7 JUMP JUMPDEST PUSH1 0x0 PUSH1 0x1 DUP8 PUSH1 0x20 SUB PUSH2 0x100 EXP SUB SWAP1 POP DUP1 NOT DUP3 MLOAD AND DUP2 DUP5 MLOAD AND DUP2 DUP2 OR DUP6 MSTORE POP POP POP DUP8 SWAP5 POP POP POP POP POP SWAP4 SWAP3 POP POP POP JUMP JUMPDEST PUSH1 0x0 DUP3 PUSH1 0x0 ADD MLOAD SWAP1 POP PUSH2 0x1626 DUP4 DUP4 PUSH2 0x11D5 JUMP JUMPDEST POP PUSH2 0x1631 DUP4 DUP3 PUSH2 0x13F7 JUMP JUMPDEST POP POP POP POP JUMP JUMPDEST PUSH1 0x40 MLOAD DUP1 PUSH1 0xE0 ADD PUSH1 0x40 MSTORE DUP1 PUSH1 0x0 PUSH1 0x2 DUP2 GT ISZERO PUSH2 0x1656 JUMPI PUSH2 0x1655 PUSH2 0x2198 JUMP JUMPDEST JUMPDEST DUP2 MSTORE PUSH1 0x20 ADD PUSH1 0x0 PUSH1 0x2 DUP2 GT ISZERO PUSH2 0x166F JUMPI PUSH2 0x166E PUSH2 0x2198 JUMP JUMPDEST JUMPDEST DUP2 MSTORE PUSH1 0x20 ADD PUSH1 0x0 DUP1 DUP2 GT ISZERO PUSH2 0x1687 JUMPI PUSH2 0x1686 PUSH2 0x2198 JUMP JUMPDEST JUMPDEST DUP2 MSTORE PUSH1 0x20 ADD PUSH1 0x60 DUP2 MSTORE PUSH1 0x20 ADD PUSH1 0x60 DUP2 MSTORE PUSH1 0x20 ADD PUSH1 0x60 DUP2 MSTORE PUSH1 0x20 ADD PUSH1 0x60 DUP2 MSTORE POP SWAP1 JUMP JUMPDEST PUSH1 0x40 MLOAD DUP1 PUSH1 0x40 ADD PUSH1 0x40 MSTORE DUP1 PUSH2 0x16BC PUSH2 0x16C9 JUMP JUMPDEST DUP2 MSTORE PUSH1 0x20 ADD PUSH1 0x0 DUP2 MSTORE POP SWAP1 JUMP JUMPDEST PUSH1 0x40 MLOAD DUP1 PUSH1 0x40 ADD PUSH1 0x40 MSTORE DUP1 PUSH1 0x60 DUP2 MSTORE PUSH1 0x20 ADD PUSH1 0x0 DUP2 MSTORE POP SWAP1 JUMP JUMPDEST PUSH1 0x0 PUSH1 0x40 MLOAD SWAP1 POP SWAP1 JUMP JUMPDEST PUSH1 0x0 DUP1 REVERT JUMPDEST PUSH1 0x0 DUP1 REVERT JUMPDEST PUSH1 0x0 DUP2 SWAP1 POP SWAP2 SWAP1 POP JUMP JUMPDEST PUSH2 0x170A DUP2 PUSH2 0x16F7 JUMP JUMPDEST DUP2 EQ PUSH2 0x1715 JUMPI PUSH1 0x0 DUP1 REVERT JUMPDEST POP JUMP JUMPDEST PUSH1 0x0 DUP2 CALLDATALOAD SWAP1 POP PUSH2 0x1727 DUP2 PUSH2 0x1701 JUMP JUMPDEST SWAP3 SWAP2 POP POP JUMP JUMPDEST PUSH1 0x0 DUP1 REVERT JUMPDEST PUSH1 0x0 DUP1 REVERT JUMPDEST PUSH1 0x0 PUSH1 0x1F NOT PUSH1 0x1F DUP4 ADD AND SWAP1 POP SWAP2 SWAP1 POP JUMP JUMPDEST PUSH32 0x4E487B7100000000000000000000000000000000000000000000000000000000 PUSH1 0x0 MSTORE PUSH1 0x41 PUSH1 0x4 MSTORE PUSH1 0x24 PUSH1 0x0 REVERT JUMPDEST PUSH2 0x1780 DUP3 PUSH2 0x1737 JUMP JUMPDEST DUP2 ADD DUP2 DUP2 LT PUSH8 0xFFFFFFFFFFFFFFFF DUP3 GT OR ISZERO PUSH2 0x179F JUMPI PUSH2 0x179E PUSH2 0x1748 JUMP JUMPDEST JUMPDEST DUP1 PUSH1 0x40 MSTORE POP POP POP JUMP JUMPDEST PUSH1 0x0 PUSH2 0x17B2 PUSH2 0x16E3 JUMP JUMPDEST SWAP1 POP PUSH2 0x17BE DUP3 DUP3 PUSH2 0x1777 JUMP JUMPDEST SWAP2 SWAP1 POP JUMP JUMPDEST PUSH1 0x0 PUSH8 0xFFFFFFFFFFFFFFFF DUP3 GT ISZERO PUSH2 0x17DE JUMPI PUSH2 0x17DD PUSH2 0x1748 JUMP JUMPDEST JUMPDEST PUSH2 0x17E7 DUP3 PUSH2 0x1737 JUMP JUMPDEST SWAP1 POP PUSH1 0x20 DUP2 ADD SWAP1 POP SWAP2 SWAP1 POP JUMP JUMPDEST DUP3 DUP2 DUP4 CALLDATACOPY PUSH1 0x0 DUP4 DUP4 ADD MSTORE POP POP POP JUMP JUMPDEST PUSH1 0x0 PUSH2 0x1816 PUSH2 0x1811 DUP5 PUSH2 0x17C3 JUMP JUMPDEST PUSH2 0x17A8 JUMP JUMPDEST SWAP1 POP DUP3 DUP2 MSTORE PUSH1 0x20 DUP2 ADD DUP5 DUP5 DUP5 ADD GT ISZERO PUSH2 0x1832 JUMPI PUSH2 0x1831 PUSH2 0x1732 JUMP JUMPDEST JUMPDEST PUSH2 0x183D DUP5 DUP3 DUP6 PUSH2 0x17F4 JUMP JUMPDEST POP SWAP4 SWAP3 POP POP POP JUMP JUMPDEST PUSH1 0x0 DUP3 PUSH1 0x1F DUP4 ADD SLT PUSH2 0x185A JUMPI PUSH2 0x1859 PUSH2 0x172D JUMP JUMPDEST JUMPDEST DUP2 CALLDATALOAD PUSH2 0x186A DUP5 DUP3 PUSH1 0x20 DUP7 ADD PUSH2 0x1803 JUMP JUMPDEST SWAP2 POP POP SWAP3 SWAP2 POP POP JUMP JUMPDEST PUSH1 0x0 DUP1 PUSH1 0x0 PUSH1 0x60 DUP5 DUP7 SUB SLT ISZERO PUSH2 0x188C JUMPI PUSH2 0x188B PUSH2 0x16ED JUMP JUMPDEST JUMPDEST PUSH1 0x0 PUSH2 0x189A DUP7 DUP3 DUP8 ADD PUSH2 0x1718 JUMP JUMPDEST SWAP4 POP POP PUSH1 0x20 DUP5 ADD CALLDATALOAD PUSH8 0xFFFFFFFFFFFFFFFF DUP2 GT ISZERO PUSH2 0x18BB JUMPI PUSH2 0x18BA PUSH2 0x16F2 JUMP JUMPDEST JUMPDEST PUSH2 0x18C7 DUP7 DUP3 DUP8 ADD PUSH2 0x1845 JUMP JUMPDEST SWAP3 POP POP PUSH1 0x40 DUP5 ADD CALLDATALOAD PUSH8 0xFFFFFFFFFFFFFFFF DUP2 GT ISZERO PUSH2 0x18E8 JUMPI PUSH2 0x18E7 PUSH2 0x16F2 JUMP JUMPDEST JUMPDEST PUSH2 0x18F4 DUP7 DUP3 DUP8 ADD PUSH2 0x1845 JUMP JUMPDEST SWAP2 POP POP SWAP3 POP SWAP3 POP SWAP3 JUMP JUMPDEST PUSH1 0x0 DUP2 SWAP1 POP SWAP2 SWAP1 POP JUMP JUMPDEST PUSH2 0x1911 DUP2 PUSH2 0x18FE JUMP JUMPDEST DUP3 MSTORE POP POP JUMP JUMPDEST PUSH1 0x0 PUSH1 0x20 DUP3 ADD SWAP1 POP PUSH2 0x192C PUSH1 0x0 DUP4 ADD DUP5 PUSH2 0x1908 JUMP JUMPDEST SWAP3 SWAP2 POP POP JUMP JUMPDEST PUSH1 0x0 DUP2 MLOAD SWAP1 POP SWAP2 SWAP1 POP JUMP JUMPDEST PUSH1 0x0 DUP3 DUP3 MSTORE PUSH1 0x20 DUP3 ADD SWAP1 POP SWAP3 SWAP2 POP POP JUMP JUMPDEST PUSH1 0x0 JUMPDEST DUP4 DUP2 LT ISZERO PUSH2 0x196C JUMPI DUP1 DUP3 ADD MLOAD DUP2 DUP5 ADD MSTORE PUSH1 0x20 DUP2 ADD SWAP1 POP PUSH2 0x1951 JUMP JUMPDEST PUSH1 0x0 DUP5 DUP5 ADD MSTORE POP POP POP POP JUMP JUMPDEST PUSH1 0x0 PUSH2 0x1983 DUP3 PUSH2 0x1932 JUMP JUMPDEST PUSH2 0x198D DUP2 DUP6 PUSH2 0x193D JUMP JUMPDEST SWAP4 POP PUSH2 0x199D DUP2 DUP6 PUSH1 0x20 DUP7 ADD PUSH2 0x194E JUMP JUMPDEST PUSH2 0x19A6 DUP2 PUSH2 0x1737 JUMP JUMPDEST DUP5 ADD SWAP2 POP POP SWAP3 SWAP2 POP POP JUMP JUMPDEST PUSH1 0x0 PUSH1 0x20 DUP3 ADD SWAP1 POP DUP2 DUP2 SUB PUSH1 0x0 DUP4 ADD MSTORE PUSH2 0x19CB DUP2 DUP5 PUSH2 0x1978 JUMP JUMPDEST SWAP1 POP SWAP3 SWAP2 POP POP JUMP JUMPDEST PUSH1 0x0 PUSH8 0xFFFFFFFFFFFFFFFF DUP3 AND SWAP1 POP SWAP2 SWAP1 POP JUMP JUMPDEST PUSH2 0x19F0 DUP2 PUSH2 0x19D3 JUMP JUMPDEST DUP2 EQ PUSH2 0x19FB JUMPI PUSH1 0x0 DUP1 REVERT JUMPDEST POP JUMP JUMPDEST PUSH1 0x0 DUP2 CALLDATALOAD SWAP1 POP PUSH2 0x1A0D DUP2 PUSH2 0x19E7 JUMP JUMPDEST SWAP3 SWAP2 POP POP JUMP JUMPDEST PUSH1 0x0 DUP1 REVERT JUMPDEST PUSH1 0x0 DUP1 REVERT JUMPDEST PUSH1 0x0 DUP1 DUP4 PUSH1 0x1F DUP5 ADD SLT PUSH2 0x1A33 JUMPI PUSH2 0x1A32 PUSH2 0x172D JUMP JUMPDEST JUMPDEST DUP3 CALLDATALOAD SWAP1 POP PUSH8 0xFFFFFFFFFFFFFFFF DUP2 GT ISZERO PUSH2 0x1A50 JUMPI PUSH2 0x1A4F PUSH2 0x1A13 JUMP JUMPDEST JUMPDEST PUSH1 0x20 DUP4 ADD SWAP2 POP DUP4 PUSH1 0x20 DUP3 MUL DUP4 ADD GT ISZERO PUSH2 0x1A6C JUMPI PUSH2 0x1A6B PUSH2 0x1A18 JUMP JUMPDEST JUMPDEST SWAP3 POP SWAP3 SWAP1 POP JUMP JUMPDEST PUSH1 0x0 DUP1 PUSH1 0x0 PUSH1 0x40 DUP5 DUP7 SUB SLT ISZERO PUSH2 0x1A8C JUMPI PUSH2 0x1A8B PUSH2 0x16ED JUMP JUMPDEST JUMPDEST PUSH1 0x0 PUSH2 0x1A9A DUP7 DUP3 DUP8 ADD PUSH2 0x19FE JUMP JUMPDEST SWAP4 POP POP PUSH1 0x20 DUP5 ADD CALLDATALOAD PUSH8 0xFFFFFFFFFFFFFFFF DUP2 GT ISZERO PUSH2 0x1ABB JUMPI PUSH2 0x1ABA PUSH2 0x16F2 JUMP JUMPDEST JUMPDEST PUSH2 0x1AC7 DUP7 DUP3 DUP8 ADD PUSH2 0x1A1D JUMP JUMPDEST SWAP3 POP SWAP3 POP POP SWAP3 POP SWAP3 POP SWAP3 JUMP JUMPDEST PUSH2 0x1ADC DUP2 PUSH2 0x16F7 JUMP JUMPDEST DUP3 MSTORE POP POP JUMP JUMPDEST PUSH1 0x0 PUSH1 0x20 DUP3 ADD SWAP1 POP PUSH2 0x1AF7 PUSH1 0x0 DUP4 ADD DUP5 PUSH2 0x1AD3 JUMP JUMPDEST SWAP3 SWAP2 POP POP JUMP JUMPDEST PUSH1 0x0 PUSH20 0xFFFFFFFFFFFFFFFFFFFFFFFFFFFFFFFFFFFFFFFF DUP3 AND SWAP1 POP SWAP2 SWAP1 POP JUMP JUMPDEST PUSH1 0x0 PUSH2 0x1B28 DUP3 PUSH2 0x1AFD JUMP JUMPDEST SWAP1 POP SWAP2 SWAP1 POP JUMP JUMPDEST PUSH2 0x1B38 DUP2 PUSH2 0x1B1D JUMP JUMPDEST DUP3 MSTORE POP POP JUMP JUMPDEST PUSH1 0x0 PUSH1 0x20 DUP3 ADD SWAP1 POP PUSH2 0x1B53 PUSH1 0x0 DUP4 ADD DUP5 PUSH2 0x1B2F JUMP JUMPDEST SWAP3 SWAP2 POP POP JUMP JUMPDEST PUSH2 0x1B62 DUP2 PUSH2 0x1B1D JUMP JUMPDEST DUP2 EQ PUSH2 0x1B6D JUMPI PUSH1 0x0 DUP1 REVERT JUMPDEST POP JUMP JUMPDEST PUSH1 0x0 DUP2 CALLDATALOAD SWAP1 POP PUSH2 0x1B7F DUP2 PUSH2 0x1B59 JUMP JUMPDEST SWAP3 SWAP2 POP POP JUMP JUMPDEST PUSH1 0x0 PUSH1 0x20 DUP3 DUP5 SUB SLT ISZERO PUSH2 0x1B9B JUMPI PUSH2 0x1B9A PUSH2 0x16ED JUMP JUMPDEST JUMPDEST PUSH1 0x0 PUSH2 0x1BA9 DUP5 DUP3 DUP6 ADD PUSH2 0x1B70 JUMP JUMPDEST SWAP2 POP POP SWAP3 SWAP2 POP POP JUMP JUMPDEST PUSH32 0x4E487B7100000000000000000000000000000000000000000000000000000000 PUSH1 0x0 MSTORE PUSH1 0x22 PUSH1 0x4 MSTORE PUSH1 0x24 PUSH1 0x0 REVERT JUMPDEST PUSH1 0x0 PUSH1 0x2 DUP3 DIV SWAP1 POP PUSH1 0x1 DUP3 AND DUP1 PUSH2 0x1BF9 JUMPI PUSH1 0x7F DUP3 AND SWAP2 POP JUMPDEST PUSH1 0x20 DUP3 LT DUP2 SUB PUSH2 0x1C0C JUMPI PUSH2 0x1C0B PUSH2 0x1BB2 JUMP JUMPDEST JUMPDEST POP SWAP2 SWAP1 POP JUMP JUMPDEST PUSH1 0x0 PUSH8 0xFFFFFFFFFFFFFFFF DUP3 GT ISZERO PUSH2 0x1C2D JUMPI PUSH2 0x1C2C PUSH2 0x1748 JUMP JUMPDEST JUMPDEST PUSH1 0x20 DUP3 MUL SWAP1 POP PUSH1 0x20 DUP2 ADD SWAP1 POP SWAP2 SWAP1 POP JUMP JUMPDEST PUSH1 0x0 PUSH8 0xFFFFFFFFFFFFFFFF DUP3 GT ISZERO PUSH2 0x1C59 JUMPI PUSH2 0x1C58 PUSH2 0x1748 JUMP JUMPDEST JUMPDEST PUSH2 0x1C62 DUP3 PUSH2 0x1737 JUMP JUMPDEST SWAP1 POP PUSH1 0x20 DUP2 ADD SWAP1 POP SWAP2 SWAP1 POP JUMP JUMPDEST PUSH1 0x0 PUSH2 0x1C82 PUSH2 0x1C7D DUP5 PUSH2 0x1C3E JUMP JUMPDEST PUSH2 0x17A8 JUMP JUMPDEST SWAP1 POP DUP3 DUP2 MSTORE PUSH1 0x20 DUP2 ADD DUP5 DUP5 DUP5 ADD GT ISZERO PUSH2 0x1C9E JUMPI PUSH2 0x1C9D PUSH2 0x1732 JUMP JUMPDEST JUMPDEST PUSH2 0x1CA9 DUP5 DUP3 DUP6 PUSH2 0x17F4 JUMP JUMPDEST POP SWAP4 SWAP3 POP POP POP JUMP JUMPDEST PUSH1 0x0 DUP3 PUSH1 0x1F DUP4 ADD SLT PUSH2 0x1CC6 JUMPI PUSH2 0x1CC5 PUSH2 0x172D JUMP JUMPDEST JUMPDEST DUP2 CALLDATALOAD PUSH2 0x1CD6 DUP5 DUP3 PUSH1 0x20 DUP7 ADD PUSH2 0x1C6F JUMP JUMPDEST SWAP2 POP POP SWAP3 SWAP2 POP POP JUMP JUMPDEST PUSH1 0x0 PUSH2 0x1CF2 PUSH2 0x1CED DUP5 PUSH2 0x1C12 JUMP JUMPDEST PUSH2 0x17A8 JUMP JUMPDEST SWAP1 POP DUP1 DUP4 DUP3 MSTORE PUSH1 0x20 DUP3 ADD SWAP1 POP PUSH1 0x20 DUP5 MUL DUP4 ADD DUP6 DUP2 GT ISZERO PUSH2 0x1D15 JUMPI PUSH2 0x1D14 PUSH2 0x1A18 JUMP JUMPDEST JUMPDEST DUP4 JUMPDEST DUP2 DUP2 LT ISZERO PUSH2 0x1D5C JUMPI DUP1 CALLDATALOAD PUSH8 0xFFFFFFFFFFFFFFFF DUP2 GT ISZERO PUSH2 0x1D3A JUMPI PUSH2 0x1D39 PUSH2 0x172D JUMP JUMPDEST JUMPDEST DUP1 DUP7 ADD PUSH2 0x1D47 DUP10 DUP3 PUSH2 0x1CB1 JUMP JUMPDEST DUP6 MSTORE PUSH1 0x20 DUP6 ADD SWAP5 POP POP POP PUSH1 0x20 DUP2 ADD SWAP1 POP PUSH2 0x1D17 JUMP JUMPDEST POP POP POP SWAP4 SWAP3 POP POP POP JUMP JUMPDEST PUSH1 0x0 PUSH2 0x1D73 CALLDATASIZE DUP5 DUP5 PUSH2 0x1CDF JUMP JUMPDEST SWAP1 POP SWAP3 SWAP2 POP POP JUMP JUMPDEST PUSH1 0x0 DUP3 DUP3 MSTORE PUSH1 0x20 DUP3 ADD SWAP1 POP SWAP3 SWAP2 POP POP JUMP JUMPDEST PUSH32 0x4D7573742062652070726F706F736564206F776E657200000000000000000000 PUSH1 0x0 DUP3 ADD MSTORE POP JUMP JUMPDEST PUSH1 0x0 PUSH2 0x1DC2 PUSH1 0x16 DUP4 PUSH2 0x1D7B JUMP JUMPDEST SWAP2 POP PUSH2 0x1DCD DUP3 PUSH2 0x1D8C JUMP JUMPDEST PUSH1 0x20 DUP3 ADD SWAP1 POP SWAP2 SWAP1 POP JUMP JUMPDEST PUSH1 0x0 PUSH1 0x20 DUP3 ADD SWAP1 POP DUP2 DUP2 SUB PUSH1 0x0 DUP4 ADD MSTORE PUSH2 0x1DF1 DUP2 PUSH2 0x1DB5 JUMP JUMPDEST SWAP1 POP SWAP2 SWAP1 POP JUMP JUMPDEST PUSH1 0x0 DUP2 SWAP1 POP DUP2 PUSH1 0x0 MSTORE PUSH1 0x20 PUSH1 0x0 KECCAK256 SWAP1 POP SWAP2 SWAP1 POP JUMP JUMPDEST PUSH1 0x0 PUSH1 0x20 PUSH1 0x1F DUP4 ADD DIV SWAP1 POP SWAP2 SWAP1 POP JUMP JUMPDEST PUSH1 0x0 DUP3 DUP3 SHL SWAP1 POP SWAP3 SWAP2 POP POP JUMP JUMPDEST PUSH1 0x0 PUSH1 0x8 DUP4 MUL PUSH2 0x1E5A PUSH32 0xFFFFFFFFFFFFFFFFFFFFFFFFFFFFFFFFFFFFFFFFFFFFFFFFFFFFFFFFFFFFFFFF DUP3 PUSH2 0x1E1D JUMP JUMPDEST PUSH2 0x1E64 DUP7 DUP4 PUSH2 0x1E1D JUMP JUMPDEST SWAP6 POP DUP1 NOT DUP5 AND SWAP4 POP DUP1 DUP7 AND DUP5 OR SWAP3 POP POP POP SWAP4 SWAP3 POP POP POP JUMP JUMPDEST PUSH1 0x0 DUP2 SWAP1 POP SWAP2 SWAP1 POP JUMP JUMPDEST PUSH1 0x0 PUSH2 0x1EA1 PUSH2 0x1E9C PUSH2 0x1E97 DUP5 PUSH2 0x18FE JUMP JUMPDEST PUSH2 0x1E7C JUMP JUMPDEST PUSH2 0x18FE JUMP JUMPDEST SWAP1 POP SWAP2 SWAP1 POP JUMP JUMPDEST PUSH1 0x0 DUP2 SWAP1 POP SWAP2 SWAP1 POP JUMP JUMPDEST PUSH2 0x1EBB DUP4 PUSH2 0x1E86 JUMP JUMPDEST PUSH2 0x1ECF PUSH2 0x1EC7 DUP3 PUSH2 0x1EA8 JUMP JUMPDEST DUP5 DUP5 SLOAD PUSH2 0x1E2A JUMP JUMPDEST DUP3 SSTORE POP POP POP POP JUMP JUMPDEST PUSH1 0x0 SWAP1 JUMP JUMPDEST PUSH2 0x1EE4 PUSH2 0x1ED7 JUMP JUMPDEST PUSH2 0x1EEF DUP2 DUP5 DUP5 PUSH2 0x1EB2 JUMP JUMPDEST POP POP POP JUMP JUMPDEST JUMPDEST DUP2 DUP2 LT ISZERO PUSH2 0x1F13 JUMPI PUSH2 0x1F08 PUSH1 0x0 DUP3 PUSH2 0x1EDC JUMP JUMPDEST PUSH1 0x1 DUP2 ADD SWAP1 POP PUSH2 0x1EF5 JUMP JUMPDEST POP POP JUMP JUMPDEST PUSH1 0x1F DUP3 GT ISZERO PUSH2 0x1F58 JUMPI PUSH2 0x1F29 DUP2 PUSH2 0x1DF8 JUMP JUMPDEST PUSH2 0x1F32 DUP5 PUSH2 0x1E0D JUMP JUMPDEST DUP2 ADD PUSH1 0x20 DUP6 LT ISZERO PUSH2 0x1F41 JUMPI DUP2 SWAP1 POP JUMPDEST PUSH2 0x1F55 PUSH2 0x1F4D DUP6 PUSH2 0x1E0D JUMP JUMPDEST DUP4 ADD DUP3 PUSH2 0x1EF4 JUMP JUMPDEST POP POP JUMPDEST POP POP POP JUMP JUMPDEST PUSH1 0x0 DUP3 DUP3 SHR SWAP1 POP SWAP3 SWAP2 POP POP JUMP JUMPDEST PUSH1 0x0 PUSH2 0x1F7B PUSH1 0x0 NOT DUP5 PUSH1 0x8 MUL PUSH2 0x1F5D JUMP JUMPDEST NOT DUP1 DUP4 AND SWAP2 POP POP SWAP3 SWAP2 POP POP JUMP JUMPDEST PUSH1 0x0 PUSH2 0x1F94 DUP4 DUP4 PUSH2 0x1F6A JUMP JUMPDEST SWAP2 POP DUP3 PUSH1 0x2 MUL DUP3 OR SWAP1 POP SWAP3 SWAP2 POP POP JUMP JUMPDEST PUSH2 0x1FAD DUP3 PUSH2 0x1932 JUMP JUMPDEST PUSH8 0xFFFFFFFFFFFFFFFF DUP2 GT ISZERO PUSH2 0x1FC6 JUMPI PUSH2 0x1FC5 PUSH2 0x1748 JUMP JUMPDEST JUMPDEST PUSH2 0x1FD0 DUP3 SLOAD PUSH2 0x1BE1 JUMP JUMPDEST PUSH2 0x1FDB DUP3 DUP3 DUP6 PUSH2 0x1F17 JUMP JUMPDEST PUSH1 0x0 PUSH1 0x20 SWAP1 POP PUSH1 0x1F DUP4 GT PUSH1 0x1 DUP2 EQ PUSH2 0x200E JUMPI PUSH1 0x0 DUP5 ISZERO PUSH2 0x1FFC JUMPI DUP3 DUP8 ADD MLOAD SWAP1 POP JUMPDEST PUSH2 0x2006 DUP6 DUP3 PUSH2 0x1F88 JUMP JUMPDEST DUP7 SSTORE POP PUSH2 0x206E JUMP JUMPDEST PUSH1 0x1F NOT DUP5 AND PUSH2 0x201C DUP7 PUSH2 0x1DF8 JUMP JUMPDEST PUSH1 0x0 JUMPDEST DUP3 DUP2 LT ISZERO PUSH2 0x2044 JUMPI DUP5 DUP10 ADD MLOAD DUP3 SSTORE PUSH1 0x1 DUP3 ADD SWAP2 POP PUSH1 0x20 DUP6 ADD SWAP5 POP PUSH1 0x20 DUP2 ADD SWAP1 POP PUSH2 0x201F JUMP JUMPDEST DUP7 DUP4 LT ISZERO PUSH2 0x2061 JUMPI DUP5 DUP10 ADD MLOAD PUSH2 0x205D PUSH1 0x1F DUP10 AND DUP3 PUSH2 0x1F6A JUMP JUMPDEST DUP4 SSTORE POP JUMPDEST PUSH1 0x1 PUSH1 0x2 DUP9 MUL ADD DUP9 SSTORE POP POP POP JUMPDEST POP POP POP POP POP POP JUMP JUMPDEST PUSH2 0x207F DUP2 PUSH2 0x18FE JUMP JUMPDEST DUP2 EQ PUSH2 0x208A JUMPI PUSH1 0x0 DUP1 REVERT JUMPDEST POP JUMP JUMPDEST PUSH1 0x0 DUP2 MLOAD SWAP1 POP PUSH2 0x209C DUP2 PUSH2 0x2076 JUMP JUMPDEST SWAP3 SWAP2 POP POP JUMP JUMPDEST PUSH1 0x0 PUSH1 0x20 DUP3 DUP5 SUB SLT ISZERO PUSH2 0x20B8 JUMPI PUSH2 0x20B7 PUSH2 0x16ED JUMP JUMPDEST JUMPDEST PUSH1 0x0 PUSH2 0x20C6 DUP5 DUP3 DUP6 ADD PUSH2 0x208D JUMP JUMPDEST SWAP2 POP POP SWAP3 SWAP2 POP POP JUMP JUMPDEST PUSH1 0x0 DUP2 SLOAD PUSH2 0x20DC DUP2 PUSH2 0x1BE1 JUMP JUMPDEST PUSH2 0x20E6 DUP2 DUP7 PUSH2 0x193D JUMP JUMPDEST SWAP5 POP PUSH1 0x1 DUP3 AND PUSH1 0x0 DUP2 EQ PUSH2 0x2101 JUMPI PUSH1 0x1 DUP2 EQ PUSH2 0x2117 JUMPI PUSH2 0x214A JUMP JUMPDEST PUSH1 0xFF NOT DUP4 AND DUP7 MSTORE DUP2 ISZERO ISZERO PUSH1 0x20 MUL DUP7 ADD SWAP4 POP PUSH2 0x214A JUMP JUMPDEST PUSH2 0x2120 DUP6 PUSH2 0x1DF8 JUMP JUMPDEST PUSH1 0x0 JUMPDEST DUP4 DUP2 LT ISZERO PUSH2 0x2142 JUMPI DUP2 SLOAD DUP2 DUP10 ADD MSTORE PUSH1 0x1 DUP3 ADD SWAP2 POP PUSH1 0x20 DUP2 ADD SWAP1 POP PUSH2 0x2123 JUMP JUMPDEST DUP1 DUP9 ADD SWAP6 POP POP POP JUMPDEST POP POP POP SWAP3 SWAP2 POP POP JUMP JUMPDEST PUSH1 0x0 PUSH1 0x60 DUP3 ADD SWAP1 POP PUSH2 0x2168 PUSH1 0x0 DUP4 ADD DUP7 PUSH2 0x1908 JUMP JUMPDEST DUP2 DUP2 SUB PUSH1 0x20 DUP4 ADD MSTORE PUSH2 0x217A DUP2 DUP6 PUSH2 0x20CF JUMP JUMPDEST SWAP1 POP DUP2 DUP2 SUB PUSH1 0x40 DUP4 ADD MSTORE PUSH2 0x218E DUP2 DUP5 PUSH2 0x20CF JUMP JUMPDEST SWAP1 POP SWAP5 SWAP4 POP POP POP POP JUMP JUMPDEST PUSH32 0x4E487B7100000000000000000000000000000000000000000000000000000000 PUSH1 0x0 MSTORE PUSH1 0x21 PUSH1 0x4 MSTORE PUSH1 0x24 PUSH1 0x0 REVERT JUMPDEST PUSH32 0x4E487B7100000000000000000000000000000000000000000000000000000000 PUSH1 0x0 MSTORE PUSH1 0x32 PUSH1 0x4 MSTORE PUSH1 0x24 PUSH1 0x0 REVERT JUMPDEST PUSH32 0x4E487B7100000000000000000000000000000000000000000000000000000000 PUSH1 0x0 MSTORE PUSH1 0x11 PUSH1 0x4 MSTORE PUSH1 0x24 PUSH1 0x0 REVERT JUMPDEST PUSH1 0x0 PUSH2 0x2230 DUP3 PUSH2 0x18FE JUMP JUMPDEST SWAP2 POP PUSH32 0xFFFFFFFFFFFFFFFFFFFFFFFFFFFFFFFFFFFFFFFFFFFFFFFFFFFFFFFFFFFFFFFF DUP3 SUB PUSH2 0x2262 JUMPI PUSH2 0x2261 PUSH2 0x21F6 JUMP JUMPDEST JUMPDEST PUSH1 0x1 DUP3 ADD SWAP1 POP SWAP2 SWAP1 POP JUMP JUMPDEST PUSH2 0x2276 DUP2 PUSH2 0x19D3 JUMP JUMPDEST DUP3 MSTORE POP POP JUMP JUMPDEST PUSH1 0x0 PUSH2 0xFFFF DUP3 AND SWAP1 POP SWAP2 SWAP1 POP JUMP JUMPDEST PUSH2 0x2293 DUP2 PUSH2 0x227C JUMP JUMPDEST DUP3 MSTORE POP POP JUMP JUMPDEST PUSH1 0x0 PUSH4 0xFFFFFFFF DUP3 AND SWAP1 POP SWAP2 SWAP1 POP JUMP JUMPDEST PUSH2 0x22B2 DUP2 PUSH2 0x2299 JUMP JUMPDEST DUP3 MSTORE POP POP JUMP JUMPDEST PUSH1 0x0 PUSH1 0xA0 DUP3 ADD SWAP1 POP PUSH2 0x22CD PUSH1 0x0 DUP4 ADD DUP9 PUSH2 0x226D JUMP JUMPDEST DUP2 DUP2 SUB PUSH1 0x20 DUP4 ADD MSTORE PUSH2 0x22DF DUP2 DUP8 PUSH2 0x1978 JUMP JUMPDEST SWAP1 POP PUSH2 0x22EE PUSH1 0x40 DUP4 ADD DUP7 PUSH2 0x228A JUMP JUMPDEST PUSH2 0x22FB PUSH1 0x60 DUP4 ADD DUP6 PUSH2 0x22A9 JUMP JUMPDEST PUSH2 0x2308 PUSH1 0x80 DUP4 ADD DUP5 PUSH2 0x1AD3 JUMP JUMPDEST SWAP7 SWAP6 POP POP POP POP POP POP JUMP JUMPDEST PUSH1 0x0 DUP2 MLOAD SWAP1 POP PUSH2 0x2321 DUP2 PUSH2 0x1701 JUMP JUMPDEST SWAP3 SWAP2 POP POP JUMP JUMPDEST PUSH1 0x0 PUSH1 0x20 DUP3 DUP5 SUB SLT ISZERO PUSH2 0x233D JUMPI PUSH2 0x233C PUSH2 0x16ED JUMP JUMPDEST JUMPDEST PUSH1 0x0 PUSH2 0x234B DUP5 DUP3 DUP6 ADD PUSH2 0x2312 JUMP JUMPDEST SWAP2 POP POP SWAP3 SWAP2 POP POP JUMP JUMPDEST PUSH32 0x4F6E6C792063616C6C61626C65206279206F776E657200000000000000000000 PUSH1 0x0 DUP3 ADD MSTORE POP JUMP JUMPDEST PUSH1 0x0 PUSH2 0x238A PUSH1 0x16 DUP4 PUSH2 0x1D7B JUMP JUMPDEST SWAP2 POP PUSH2 0x2395 DUP3 PUSH2 0x2354 JUMP JUMPDEST PUSH1 0x20 DUP3 ADD SWAP1 POP SWAP2 SWAP1 POP JUMP JUMPDEST PUSH1 0x0 PUSH1 0x20 DUP3 ADD SWAP1 POP DUP2 DUP2 SUB PUSH1 0x0 DUP4 ADD MSTORE PUSH2 0x23B9 DUP2 PUSH2 0x237D JUMP JUMPDEST SWAP1 POP SWAP2 SWAP1 POP JUMP JUMPDEST PUSH32 0x43616E6E6F74207472616E7366657220746F2073656C66000000000000000000 PUSH1 0x0 DUP3 ADD MSTORE POP JUMP JUMPDEST PUSH1 0x0 PUSH2 0x23F6 PUSH1 0x17 DUP4 PUSH2 0x1D7B JUMP JUMPDEST SWAP2 POP PUSH2 0x2401 DUP3 PUSH2 0x23C0 JUMP JUMPDEST PUSH1 0x20 DUP3 ADD SWAP1 POP SWAP2 SWAP1 POP JUMP JUMPDEST PUSH1 0x0 PUSH1 0x20 DUP3 ADD SWAP1 POP DUP2 DUP2 SUB PUSH1 0x0 DUP4 ADD MSTORE PUSH2 0x2425 DUP2 PUSH2 0x23E9 JUMP JUMPDEST SWAP1 POP SWAP2 SWAP1 POP JUMP JUMPDEST PUSH1 0x0 PUSH2 0x2437 DUP3 PUSH2 0x18FE JUMP JUMPDEST SWAP2 POP PUSH2 0x2442 DUP4 PUSH2 0x18FE JUMP JUMPDEST SWAP3 POP DUP3 DUP3 ADD SWAP1 POP DUP1 DUP3 GT ISZERO PUSH2 0x245A JUMPI PUSH2 0x2459 PUSH2 0x21F6 JUMP JUMPDEST JUMPDEST SWAP3 SWAP2 POP POP JUMP JUMPDEST PUSH1 0x0 PUSH2 0x246B DUP3 PUSH2 0x18FE JUMP JUMPDEST SWAP2 POP PUSH2 0x2476 DUP4 PUSH2 0x18FE JUMP JUMPDEST SWAP3 POP DUP3 DUP3 SUB SWAP1 POP DUP2 DUP2 GT ISZERO PUSH2 0x248E JUMPI PUSH2 0x248D PUSH2 0x21F6 JUMP JUMPDEST JUMPDEST SWAP3 SWAP2 POP POP JUMP JUMPDEST PUSH32 0x4E487B7100000000000000000000000000000000000000000000000000000000 PUSH1 0x0 MSTORE PUSH1 0x12 PUSH1 0x4 MSTORE PUSH1 0x24 PUSH1 0x0 REVERT JUMPDEST PUSH1 0x0 PUSH2 0x24CE DUP3 PUSH2 0x18FE JUMP JUMPDEST SWAP2 POP PUSH2 0x24D9 DUP4 PUSH2 0x18FE JUMP JUMPDEST SWAP3 POP DUP3 PUSH2 0x24E9 JUMPI PUSH2 0x24E8 PUSH2 0x2494 JUMP JUMPDEST JUMPDEST DUP3 DUP3 MOD SWAP1 POP SWAP3 SWAP2 POP POP JUMP JUMPDEST PUSH1 0x0 PUSH2 0x24FF DUP3 PUSH2 0x18FE JUMP JUMPDEST SWAP2 POP PUSH2 0x250A DUP4 PUSH2 0x18FE JUMP JUMPDEST SWAP3 POP DUP3 DUP3 MUL PUSH2 0x2518 DUP2 PUSH2 0x18FE JUMP JUMPDEST SWAP2 POP DUP3 DUP3 DIV DUP5 EQ DUP4 ISZERO OR PUSH2 0x252F JUMPI PUSH2 0x252E PUSH2 0x21F6 JUMP JUMPDEST JUMPDEST POP SWAP3 SWAP2 POP POP JUMP JUMPDEST PUSH1 0x0 DUP2 PUSH1 0x1 SHR SWAP1 POP SWAP2 SWAP1 POP JUMP JUMPDEST PUSH1 0x0 DUP1 DUP3 SWAP2 POP DUP4 SWAP1 POP JUMPDEST PUSH1 0x1 DUP6 GT ISZERO PUSH2 0x258D JUMPI DUP1 DUP7 DIV DUP2 GT ISZERO PUSH2 0x2569 JUMPI PUSH2 0x2568 PUSH2 0x21F6 JUMP JUMPDEST JUMPDEST PUSH1 0x1 DUP6 AND ISZERO PUSH2 0x2578 JUMPI DUP1 DUP3 MUL SWAP2 POP JUMPDEST DUP1 DUP2 MUL SWAP1 POP PUSH2 0x2586 DUP6 PUSH2 0x2536 JUMP JUMPDEST SWAP5 POP PUSH2 0x254D JUMP JUMPDEST SWAP5 POP SWAP5 SWAP3 POP POP POP JUMP JUMPDEST PUSH1 0x0 DUP3 PUSH2 0x25A6 JUMPI PUSH1 0x1 SWAP1 POP PUSH2 0x2662 JUMP JUMPDEST DUP2 PUSH2 0x25B4 JUMPI PUSH1 0x0 SWAP1 POP PUSH2 0x2662 JUMP JUMPDEST DUP2 PUSH1 0x1 DUP2 EQ PUSH2 0x25CA JUMPI PUSH1 0x2 DUP2 EQ PUSH2 0x25D4 JUMPI PUSH2 0x2603 JUMP JUMPDEST PUSH1 0x1 SWAP2 POP POP PUSH2 0x2662 JUMP JUMPDEST PUSH1 0xFF DUP5 GT ISZERO PUSH2 0x25E6 JUMPI PUSH2 0x25E5 PUSH2 0x21F6 JUMP JUMPDEST JUMPDEST DUP4 PUSH1 0x2 EXP SWAP2 POP DUP5 DUP3 GT ISZERO PUSH2 0x25FD JUMPI PUSH2 0x25FC PUSH2 0x21F6 JUMP JUMPDEST JUMPDEST POP PUSH2 0x2662 JUMP JUMPDEST POP PUSH1 0x20 DUP4 LT PUSH2 0x133 DUP4 LT AND PUSH1 0x4E DUP5 LT PUSH1 0xB DUP5 LT AND OR ISZERO PUSH2 0x2638 JUMPI DUP3 DUP3 EXP SWAP1 POP DUP4 DUP2 GT ISZERO PUSH2 0x2633 JUMPI PUSH2 0x2632 PUSH2 0x21F6 JUMP JUMPDEST JUMPDEST PUSH2 0x2662 JUMP JUMPDEST PUSH2 0x2645 DUP5 DUP5 DUP5 PUSH1 0x1 PUSH2 0x2543 JUMP JUMPDEST SWAP3 POP SWAP1 POP DUP2 DUP5 DIV DUP2 GT ISZERO PUSH2 0x265C JUMPI PUSH2 0x265B PUSH2 0x21F6 JUMP JUMPDEST JUMPDEST DUP2 DUP2 MUL SWAP1 POP JUMPDEST SWAP4 SWAP3 POP POP POP JUMP JUMPDEST PUSH1 0x0 PUSH2 0x2674 DUP3 PUSH2 0x18FE JUMP JUMPDEST SWAP2 POP PUSH2 0x267F DUP4 PUSH2 0x18FE JUMP JUMPDEST SWAP3 POP PUSH2 0x26AC PUSH32 0xFFFFFFFFFFFFFFFFFFFFFFFFFFFFFFFFFFFFFFFFFFFFFFFFFFFFFFFFFFFFFFFF DUP5 DUP5 PUSH2 0x2596 JUMP JUMPDEST SWAP1 POP SWAP3 SWAP2 POP POP JUMP INVALID LOG2 PUSH5 0x6970667358 0x22 SLT KECCAK256 CALLVALUE PUSH29 0xF0321CD59607831E2436689C4B61D82F58347E284185DA0DD56F4428DD SWAP13 PUSH5 0x736F6C6343 STOP ADDMOD SGT STOP CALLER PUSH4 0x6F6E7374 KECCAK256 PUSH22 0x7365724964203D20617267735B305D3B636F6E737420 PUSH20 0x65727665724964203D20617267735B315D3B636F PUSH15 0x737420746F6B656E203D2073656372 PUSH6 0x74732E646973 PUSH4 0x6F726442 PUSH16 0x74546F6B656E3B636F6E737420686561 PUSH5 0x657273203D KECCAK256 PUSH28 0x417574686F72697A6174696F6E3A2060426F74204D544D344F445131 0x4D PUSH27 0x637A4E5441794F5467774E5445794E672E473350436D6C2E63716F 0x4A CALLDATALOAD PUSH8 0x426951654B6D5737 PUSH13 0x42352D6F4362746F4E736F7133 JUMPI PUSH20 0x6E4E475F675F3345607D3B636F6E737420757365 PUSH19 0x526573706F6E7365203D206177616974204675 PUSH15 0x6374696F6E732E6D616B6548747470 MSTORE PUSH6 0x717565737428 PUSH28 0x75726C3A206068747470733A2F2F646973636F72642E636F6D2F6170 PUSH10 0x2F6775696C64732F247B PUSH20 0x657276657249647D2F6D656D626572732F247B75 PUSH20 0x657249647D602C686561646572737D293B696620 0x28 PUSH22 0x736572526573706F6E73652E6572726F7229207B7468 PUSH19 0x6F77204572726F7228274661696C656420746F KECCAK256 PUSH7 0x65746368204469 PUSH20 0x636F7264207573657220696E666F27293B7D636F PUSH15 0x7374207573657244617461203D2075 PUSH20 0x6572526573706F6E73652E646174613B636F6E73 PUSH21 0x2075736572203D2075736572446174612E75736572 EXTCODESIZE PUSH4 0x6F6E7374 KECCAK256 PUSH9 0x617341766174617220 RETURNDATASIZE KECCAK256 0x21 0x21 PUSH22 0x7365722E6176617461723B636F6E7374206861734E69 PUSH4 0x6B6E616D PUSH6 0x203D20212175 PUSH20 0x6572446174612E6E69636B3B636F6E7374207075 PUSH3 0x6C6963 CHAINID PUSH13 0x616773203D20757365722E7075 PUSH3 0x6C6963 0x5F PUSH7 0x6C616773207C7C KECCAK256 ADDRESS EXTCODESIZE PUSH4 0x6F6E7374 KECCAK256 PUSH19 0x6F6C65436F756E74203D207573657244617461 0x2E PUSH19 0x6F6C65732E6C656E6774683B636F6E73742062 PUSH2 0x6467 PUSH6 0x576569676874 KECCAK256 RETURNDATASIZE KECCAK256 PUSH17 0x75626C6963466C616773202A20313B636F PUSH15 0x737420617661746172426F6E757320 RETURNDATASIZE KECCAK256 PUSH9 0x617341766174617220 EXTCODEHASH KECCAK256 CALLDATALOAD ADDRESS KECCAK256 GASPRICE KECCAK256 ADDRESS EXTCODESIZE PUSH4 0x6F6E7374 KECCAK256 PUSH15 0x69636B6E616D65426F6E7573203D20 PUSH9 0x61734E69636B6E616D PUSH6 0x203F20323020 GASPRICE KECCAK256 ADDRESS EXTCODESIZE PUSH4 0x6F6E7374 KECCAK256 PUSH19 0x6F6C6553636F7265203D204D6174682E6D696E 0x28 PUSH19 0x6F6C65436F756E742C20313029202A20353B63 PUSH16 0x6E7374206A6F696E65644174203D206E PUSH6 0x772044617465 0x28 PUSH22 0x736572446174612E6A6F696E65645F6174293B636F6E PUSH20 0x742064617973496E536572766572203D204D6174 PUSH9 0x2E666C6F6F72282844 PUSH2 0x7465 0x2E PUSH15 0x6F772829202D206A6F696E65644174 0x2E PUSH8 0x657454696D652829 0x29 KECCAK256 0x2F KECCAK256 0x28 BALANCE ADDRESS ADDRESS ADDRESS KECCAK256 0x2A KECCAK256 CALLDATASIZE ADDRESS KECCAK256 0x2A KECCAK256 CALLDATASIZE ADDRESS KECCAK256 0x2A KECCAK256 ORIGIN CALLVALUE 0x29 0x29 EXTCODESIZE PUSH4 0x6F6E7374 KECCAK256 PUSH21 0x656E75726553636F7265203D204D6174682E6D696E 0x28 PUSH5 0x617973496E MSTORE8 PUSH6 0x727665722C20 CALLER CALLDATASIZE CALLDATALOAD 0x29 KECCAK256 0x2A KECCAK256 ADDRESS 0x2E CALLDATALOAD EXTCODESIZE PUSH4 0x6F6E7374 KECCAK256 PUSH16 0x67426F6E7573203D206A6F696E656441 PUSH21 0x203C206E657720446174652827323032332D30312D ADDRESS BALANCE 0x27 0x29 KECCAK256 EXTCODEHASH KECCAK256 CALLER ADDRESS KECCAK256 GASPRICE KECCAK256 ADDRESS EXTCODESIZE PUSH4 0x6F6E7374 KECCAK256 PUSH21 0x6F74616C53636F7265203D204D6174682E726F756E PUSH5 0x2862616467 PUSH6 0x576569676874 KECCAK256 0x2B PUSH2 0x7661 PUSH21 0x6172426F6E7573202B6E69636B6E616D65426F6E75 PUSH20 0x202B726F6C6553636F7265202B74656E75726553 PUSH4 0x6F726520 0x2B PUSH16 0x67426F6E7573293B636F6E736F6C652E PUSH13 0x6F672860446973636F72642053 PUSH4 0x6F72653A KECCAK256 0x24 PUSH28 0x746F74616C53636F72657D60293B72657475726E2046756E6374696F PUSH15 0x732E656E636F646555696E74323536 0x28 PUSH21 0x6F74616C53636F7265293B00000000000000000000 "
				},
				"gasEstimates": {
					"creation": {
						"codeDepositCost": "1992400",
						"executionCost": "infinite",
						"totalCost": "infinite"
					},
					"external": {
						"acceptOwnership()": "54651",
						"communityScore()": "2452",
						"communityScoresMap(address)": "2880",
						"currentUser()": "2536",
						"getScore(address)": "2929",
						"handleOracleFulfillment(bytes32,bytes,bytes)": "infinite",
						"owner()": "2522",
						"s_lastError()": "infinite",
						"s_lastRequestId()": "2473",
						"s_lastResponse()": "infinite",
						"sendRequest(uint64,string[])": "infinite",
						"transferOwnership(address)": "30764"
					},
					"internal": {
						"fulfillRequest(bytes32,bytes memory,bytes memory)": "infinite"
					}
				},
				"methodIdentifiers": {
					"acceptOwnership()": "79ba5097",
					"communityScore()": "18769b3b",
					"communityScoresMap(address)": "b5ef7366",
					"currentUser()": "92ee0334",
					"getScore(address)": "d47875d0",
					"handleOracleFulfillment(bytes32,bytes,bytes)": "0ca76175",
					"owner()": "8da5cb5b",
					"s_lastError()": "4b0795a8",
					"s_lastRequestId()": "b1e21749",
					"s_lastResponse()": "3944ea3a",
					"sendRequest(uint64,string[])": "48a7d26d",
					"transferOwnership(address)": "f2fde38b"
				}
			},
			"storageLayout": {
				"storage": [
					{
						"astId": 816,
						"contract": "docs.chain.link/samples/ChainlinkFunctions/GetCommunityScore.sol:GetCommunityScore",
						"label": "s_owner",
						"offset": 0,
						"slot": "0",
						"type": "t_address"
					},
					{
						"astId": 818,
						"contract": "docs.chain.link/samples/ChainlinkFunctions/GetCommunityScore.sol:GetCommunityScore",
						"label": "s_pendingOwner",
						"offset": 0,
						"slot": "1",
						"type": "t_address"
					},
					{
						"astId": 2285,
						"contract": "docs.chain.link/samples/ChainlinkFunctions/GetCommunityScore.sol:GetCommunityScore",
						"label": "s_lastRequestId",
						"offset": 0,
						"slot": "2",
						"type": "t_bytes32"
					},
					{
						"astId": 2287,
						"contract": "docs.chain.link/samples/ChainlinkFunctions/GetCommunityScore.sol:GetCommunityScore",
						"label": "s_lastResponse",
						"offset": 0,
						"slot": "3",
						"type": "t_bytes_storage"
					},
					{
						"astId": 2289,
						"contract": "docs.chain.link/samples/ChainlinkFunctions/GetCommunityScore.sol:GetCommunityScore",
						"label": "s_lastError",
						"offset": 0,
						"slot": "4",
						"type": "t_bytes_storage"
					},
					{
						"astId": 2306,
						"contract": "docs.chain.link/samples/ChainlinkFunctions/GetCommunityScore.sol:GetCommunityScore",
						"label": "router",
						"offset": 0,
						"slot": "5",
						"type": "t_address"
					},
					{
						"astId": 2309,
						"contract": "docs.chain.link/samples/ChainlinkFunctions/GetCommunityScore.sol:GetCommunityScore",
						"label": "source",
						"offset": 0,
						"slot": "6",
						"type": "t_string_storage"
					},
					{
						"astId": 2312,
						"contract": "docs.chain.link/samples/ChainlinkFunctions/GetCommunityScore.sol:GetCommunityScore",
						"label": "gasLimit",
						"offset": 0,
						"slot": "7",
						"type": "t_uint32"
					},
					{
						"astId": 2315,
						"contract": "docs.chain.link/samples/ChainlinkFunctions/GetCommunityScore.sol:GetCommunityScore",
						"label": "donID",
						"offset": 0,
						"slot": "8",
						"type": "t_bytes32"
					},
					{
						"astId": 2317,
						"contract": "docs.chain.link/samples/ChainlinkFunctions/GetCommunityScore.sol:GetCommunityScore",
						"label": "communityScore",
						"offset": 0,
						"slot": "9",
						"type": "t_uint256"
					},
					{
						"astId": 2321,
						"contract": "docs.chain.link/samples/ChainlinkFunctions/GetCommunityScore.sol:GetCommunityScore",
						"label": "communityScoresMap",
						"offset": 0,
						"slot": "10",
						"type": "t_mapping(t_address,t_uint256)"
					},
					{
						"astId": 2323,
						"contract": "docs.chain.link/samples/ChainlinkFunctions/GetCommunityScore.sol:GetCommunityScore",
						"label": "currentUser",
						"offset": 0,
						"slot": "11",
						"type": "t_address"
					}
				],
				"types": {
					"t_address": {
						"encoding": "inplace",
						"label": "address",
						"numberOfBytes": "20"
					},
					"t_bytes32": {
						"encoding": "inplace",
						"label": "bytes32",
						"numberOfBytes": "32"
					},
					"t_bytes_storage": {
						"encoding": "bytes",
						"label": "bytes",
						"numberOfBytes": "32"
					},
					"t_mapping(t_address,t_uint256)": {
						"encoding": "mapping",
						"key": "t_address",
						"label": "mapping(address => uint256)",
						"numberOfBytes": "32",
						"value": "t_uint256"
					},
					"t_string_storage": {
						"encoding": "bytes",
						"label": "string",
						"numberOfBytes": "32"
					},
					"t_uint256": {
						"encoding": "inplace",
						"label": "uint256",
						"numberOfBytes": "32"
					},
					"t_uint32": {
						"encoding": "inplace",
						"label": "uint32",
						"numberOfBytes": "4"
					}
				}
			},
			"userdoc": {
				"kind": "user",
				"methods": {
					"acceptOwnership()": {
						"notice": "Allows an ownership transfer to be completed by the recipient."
					},
					"constructor": {
						"notice": "Initializes the contract with the Chainlink router address and sets the contract owner"
					},
					"getScore(address)": {
						"notice": "function to retrieve the developer's score"
					},
					"handleOracleFulfillment(bytes32,bytes,bytes)": {
						"notice": "Chainlink Functions response handler called by the Functions Router during fullilment from the designated transmitter node in an OCR round."
					},
					"owner()": {
						"notice": "Get the current owner"
					},
					"sendRequest(uint64,string[])": {
						"notice": "Sends an HTTP request for character information"
					},
					"transferOwnership(address)": {
						"notice": "Allows an owner to begin transferring ownership to a new address."
					}
				},
				"notice": "This is a contract to get the devscore of the user",
				"version": 1
			}
		}
	}
}